{
	"contracts/Functions.sol": {
		"Functions": {
			"abi": [
				{
					"inputs": [
						{
							"internalType": "uint256",
							"name": "m",
							"type": "uint256"
						},
						{
							"internalType": "uint256",
							"name": "n",
							"type": "uint256"
						}
					],
					"name": "Add",
					"outputs": [
						{
							"internalType": "uint256",
							"name": "",
							"type": "uint256"
						}
					],
					"stateMutability": "view",
					"type": "function"
				},
				{
					"inputs": [
						{
							"internalType": "uint256",
							"name": "m",
							"type": "uint256"
						},
						{
							"internalType": "uint256",
							"name": "n",
							"type": "uint256"
						}
					],
					"name": "Add2",
					"outputs": [
						{
							"internalType": "uint256",
							"name": "",
							"type": "uint256"
						}
					],
					"stateMutability": "pure",
					"type": "function"
				},
				{
					"inputs": [
						{
							"internalType": "uint256",
							"name": "m",
							"type": "uint256"
						},
						{
							"internalType": "uint256",
							"name": "n",
							"type": "uint256"
						}
					],
					"name": "Add3",
					"outputs": [
						{
							"internalType": "uint256",
							"name": "",
							"type": "uint256"
						}
					],
					"stateMutability": "pure",
					"type": "function"
				},
				{
					"inputs": [
						{
							"internalType": "uint256",
							"name": "k",
							"type": "uint256"
						},
						{
							"internalType": "uint256",
							"name": "l",
							"type": "uint256"
						}
					],
					"name": "Add4",
					"outputs": [
						{
							"internalType": "uint256",
							"name": "",
							"type": "uint256"
						}
					],
					"stateMutability": "pure",
					"type": "function"
				},
				{
					"inputs": [],
					"name": "ExternalCall",
					"outputs": [
						{
							"internalType": "string",
							"name": "",
							"type": "string"
						}
					],
					"stateMutability": "pure",
					"type": "function"
				},
				{
					"inputs": [],
					"name": "PublicKeyword",
					"outputs": [
						{
							"internalType": "string",
							"name": "",
							"type": "string"
						}
					],
					"stateMutability": "pure",
					"type": "function"
				},
				{
					"inputs": [],
					"name": "PublicKeyword2",
					"outputs": [
						{
							"internalType": "string",
							"name": "",
							"type": "string"
						}
					],
					"stateMutability": "pure",
					"type": "function"
				},
				{
					"inputs": [],
					"name": "PublicKeyword3",
					"outputs": [
						{
							"internalType": "string",
							"name": "",
							"type": "string"
						}
					],
					"stateMutability": "pure",
					"type": "function"
				},
				{
					"inputs": [],
					"name": "PublicKeyword4",
					"outputs": [
						{
							"internalType": "string",
							"name": "",
							"type": "string"
						}
					],
					"stateMutability": "pure",
					"type": "function"
				},
				{
					"inputs": [
						{
							"internalType": "uint256",
							"name": "newNumber",
							"type": "uint256"
						}
					],
					"name": "SetNumber",
					"outputs": [],
					"stateMutability": "nonpayable",
					"type": "function"
				},
				{
					"inputs": [],
					"name": "ShowNumber",
					"outputs": [
						{
							"internalType": "uint256",
							"name": "",
							"type": "uint256"
						}
					],
					"stateMutability": "view",
					"type": "function"
				},
				{
					"inputs": [
						{
							"internalType": "uint256",
							"name": "y",
							"type": "uint256"
						}
					],
					"name": "Sum",
					"outputs": [
						{
							"internalType": "uint256",
							"name": "",
							"type": "uint256"
						}
					],
					"stateMutability": "view",
					"type": "function"
				},
				{
					"inputs": [],
					"name": "callPublicKeyword",
					"outputs": [
						{
							"internalType": "string",
							"name": "",
							"type": "string"
						}
					],
					"stateMutability": "pure",
					"type": "function"
				},
				{
					"inputs": [],
					"name": "nothing",
					"outputs": [
						{
							"internalType": "uint256",
							"name": "x",
							"type": "uint256"
						},
						{
							"internalType": "bool",
							"name": "y",
							"type": "bool"
						},
						{
							"internalType": "bool",
							"name": "z",
							"type": "bool"
						}
					],
					"stateMutability": "pure",
					"type": "function"
				},
				{
					"inputs": [],
					"name": "setA",
					"outputs": [
						{
							"internalType": "uint256",
							"name": "",
							"type": "uint256"
						}
					],
					"stateMutability": "view",
					"type": "function"
				},
				{
					"inputs": [],
					"name": "viewA",
					"outputs": [
						{
							"internalType": "uint256",
							"name": "",
							"type": "uint256"
						}
					],
					"stateMutability": "view",
					"type": "function"
				}
			],
			"devdoc": {
				"kind": "dev",
				"methods": {},
				"version": 1
			},
			"evm": {
				"assembly": "    /* \"contracts/Functions.sol\":64:2975  contract Functions {... */\n  mstore(0x40, 0x80)\n    /* \"contracts/Functions.sol\":109:111  10 */\n  0x0a\n    /* \"contracts/Functions.sol\":90:111  uint LuckyNumber = 10 */\n  0x00\n  sstore\n    /* \"contracts/Functions.sol\":546:547  3 */\n  0x03\n    /* \"contracts/Functions.sol\":537:547  uint a = 3 */\n  0x01\n  sstore\n    /* \"contracts/Functions.sol\":64:2975  contract Functions {... */\n  callvalue\n  dup1\n  iszero\n  tag_1\n  jumpi\n  revert(0x00, 0x00)\ntag_1:\n  pop\n  dataSize(sub_0)\n  dup1\n  dataOffset(sub_0)\n  0x00\n  codecopy\n  0x00\n  return\nstop\n\nsub_0: assembly {\n        /* \"contracts/Functions.sol\":64:2975  contract Functions {... */\n      mstore(0x40, 0x80)\n      callvalue\n      dup1\n      iszero\n      tag_1\n      jumpi\n      revert(0x00, 0x00)\n    tag_1:\n      pop\n      jumpi(tag_2, lt(calldatasize, 0x04))\n      shr(0xe0, calldataload(0x00))\n      dup1\n      0x448f30a3\n      gt\n      tag_19\n      jumpi\n      dup1\n      0xa157ac3d\n      gt\n      tag_20\n      jumpi\n      dup1\n      0xa157ac3d\n      eq\n      tag_15\n      jumpi\n      dup1\n      0xbe8396be\n      eq\n      tag_16\n      jumpi\n      dup1\n      0xf5c9e33f\n      eq\n      tag_17\n      jumpi\n      dup1\n      0xf948ebca\n      eq\n      tag_18\n      jumpi\n      jump(tag_2)\n    tag_20:\n      dup1\n      0x448f30a3\n      eq\n      tag_11\n      jumpi\n      dup1\n      0x57edf8da\n      eq\n      tag_12\n      jumpi\n      dup1\n      0x5d6c57c9\n      eq\n      tag_13\n      jumpi\n      dup1\n      0x7afbe4f1\n      eq\n      tag_14\n      jumpi\n      jump(tag_2)\n    tag_19:\n      dup1\n      0x310e1696\n      gt\n      tag_21\n      jumpi\n      dup1\n      0x310e1696\n      eq\n      tag_7\n      jumpi\n      dup1\n      0x331bb01b\n      eq\n      tag_8\n      jumpi\n      dup1\n      0x34d477ea\n      eq\n      tag_9\n      jumpi\n      dup1\n      0x3ed32ac7\n      eq\n      tag_10\n      jumpi\n      jump(tag_2)\n    tag_21:\n      dup1\n      0x148bc9e2\n      eq\n      tag_3\n      jumpi\n      dup1\n      0x1fc376f7\n      eq\n      tag_4\n      jumpi\n      dup1\n      0x236a5e58\n      eq\n      tag_5\n      jumpi\n      dup1\n      0x2ee99bd4\n      eq\n      tag_6\n      jumpi\n    tag_2:\n      revert(0x00, 0x00)\n        /* \"contracts/Functions.sol\":1494:1629  function callPublicKeyword() public pure returns (string memory) {... */\n    tag_3:\n      tag_22\n      tag_23\n      jump\t// in\n    tag_22:\n      mload(0x40)\n      tag_24\n      swap2\n      swap1\n      tag_25\n      jump\t// in\n    tag_24:\n      mload(0x40)\n      dup1\n      swap2\n      sub\n      swap1\n      return\n        /* \"contracts/Functions.sol\":631:701  function setA() public  view returns (uint) {... */\n    tag_4:\n      tag_26\n      tag_27\n      jump\t// in\n    tag_26:\n      mload(0x40)\n      tag_28\n      swap2\n      swap1\n      tag_29\n      jump\t// in\n    tag_28:\n      mload(0x40)\n      dup1\n      swap2\n      sub\n      swap1\n      return\n        /* \"contracts/Functions.sol\":905:992  function Add2(uint m, uint n) public pure returns (uint) {... */\n    tag_5:\n      tag_30\n      0x04\n      dup1\n      calldatasize\n      sub\n      dup2\n      add\n      swap1\n      tag_31\n      swap2\n      swap1\n      tag_32\n      jump\t// in\n    tag_31:\n      tag_33\n      jump\t// in\n    tag_30:\n      mload(0x40)\n      tag_34\n      swap2\n      swap1\n      tag_29\n      jump\t// in\n    tag_34:\n      mload(0x40)\n      dup1\n      swap2\n      sub\n      swap1\n      return\n        /* \"contracts/Functions.sol\":118:202  function ShowNumber() public view returns (uint) {... */\n    tag_6:\n      tag_35\n      tag_36\n      jump\t// in\n    tag_35:\n      mload(0x40)\n      tag_37\n      swap2\n      swap1\n      tag_29\n      jump\t// in\n    tag_37:\n      mload(0x40)\n      dup1\n      swap2\n      sub\n      swap1\n      return\n        /* \"contracts/Functions.sol\":1373:1487  function PublicKeyword () public pure returns (string memory) {... */\n    tag_7:\n      tag_38\n      tag_39\n      jump\t// in\n    tag_38:\n      mload(0x40)\n      tag_40\n      swap2\n      swap1\n      tag_25\n      jump\t// in\n    tag_40:\n      mload(0x40)\n      dup1\n      swap2\n      sub\n      swap1\n      return\n        /* \"contracts/Functions.sol\":208:290  function SetNumber(uint newNumber) public {... */\n    tag_8:\n      tag_41\n      0x04\n      dup1\n      calldatasize\n      sub\n      dup2\n      add\n      swap1\n      tag_42\n      swap2\n      swap1\n      tag_43\n      jump\t// in\n    tag_42:\n      tag_44\n      jump\t// in\n    tag_41:\n      stop\n        /* \"contracts/Functions.sol\":2452:2556  function PublicKeyword3() public pure returns (string memory) {... */\n    tag_9:\n      tag_45\n      tag_46\n      jump\t// in\n    tag_45:\n      mload(0x40)\n      tag_47\n      swap2\n      swap1\n      tag_25\n      jump\t// in\n    tag_47:\n      mload(0x40)\n      dup1\n      swap2\n      sub\n      swap1\n      return\n        /* \"contracts/Functions.sol\":1257:1366  function Add4(uint k, uint l) public pure returns (uint) {... */\n    tag_10:\n      tag_48\n      0x04\n      dup1\n      calldatasize\n      sub\n      dup2\n      add\n      swap1\n      tag_49\n      swap2\n      swap1\n      tag_32\n      jump\t// in\n    tag_49:\n      tag_50\n      jump\t// in\n    tag_48:\n      mload(0x40)\n      tag_51\n      swap2\n      swap1\n      tag_29\n      jump\t// in\n    tag_51:\n      mload(0x40)\n      dup1\n      swap2\n      sub\n      swap1\n      return\n        /* \"contracts/Functions.sol\":408:530  function nothing() public pure returns(uint x, bool y, bool z) {... */\n    tag_11:\n      tag_52\n      tag_53\n      jump\t// in\n    tag_52:\n      mload(0x40)\n      tag_54\n      swap4\n      swap3\n      swap2\n      swap1\n      tag_55\n      jump\t// in\n    tag_54:\n      mload(0x40)\n      dup1\n      swap2\n      sub\n      swap1\n      return\n        /* \"contracts/Functions.sol\":1162:1250  function Add3(uint m, uint n) public pure returns (uint) {... */\n    tag_12:\n      tag_56\n      0x04\n      dup1\n      calldatasize\n      sub\n      dup2\n      add\n      swap1\n      tag_57\n      swap2\n      swap1\n      tag_32\n      jump\t// in\n    tag_57:\n      tag_58\n      jump\t// in\n    tag_56:\n      mload(0x40)\n      tag_59\n      swap2\n      swap1\n      tag_29\n      jump\t// in\n    tag_59:\n      mload(0x40)\n      dup1\n      swap2\n      sub\n      swap1\n      return\n        /* \"contracts/Functions.sol\":2862:2969  function PublicKeyword4() public pure returns (string memory) {... */\n    tag_13:\n      tag_60\n      tag_61\n      jump\t// in\n    tag_60:\n      mload(0x40)\n      tag_62\n      swap2\n      swap1\n      tag_25\n      jump\t// in\n    tag_62:\n      mload(0x40)\n      dup1\n      swap2\n      sub\n      swap1\n      return\n        /* \"contracts/Functions.sol\":794:898  function Add(uint m, uint n) public view returns (uint) {... */\n    tag_14:\n      tag_63\n      0x04\n      dup1\n      calldatasize\n      sub\n      dup2\n      add\n      swap1\n      tag_64\n      swap2\n      swap1\n      tag_32\n      jump\t// in\n    tag_64:\n      tag_65\n      jump\t// in\n    tag_63:\n      mload(0x40)\n      tag_66\n      swap2\n      swap1\n      tag_29\n      jump\t// in\n    tag_66:\n      mload(0x40)\n      dup1\n      swap2\n      sub\n      swap1\n      return\n        /* \"contracts/Functions.sol\":1944:2047  function PublicKeyword2() public pure returns (string memory) {... */\n    tag_15:\n      tag_67\n      tag_68\n      jump\t// in\n    tag_67:\n      mload(0x40)\n      tag_69\n      swap2\n      swap1\n      tag_25\n      jump\t// in\n    tag_69:\n      mload(0x40)\n      dup1\n      swap2\n      sub\n      swap1\n      return\n        /* \"contracts/Functions.sol\":708:787  function Sum(uint y) public  view returns (uint) {... */\n    tag_16:\n      tag_70\n      0x04\n      dup1\n      calldatasize\n      sub\n      dup2\n      add\n      swap1\n      tag_71\n      swap2\n      swap1\n      tag_43\n      jump\t// in\n    tag_71:\n      tag_72\n      jump\t// in\n    tag_70:\n      mload(0x40)\n      tag_73\n      swap2\n      swap1\n      tag_29\n      jump\t// in\n    tag_73:\n      mload(0x40)\n      dup1\n      swap2\n      sub\n      swap1\n      return\n        /* \"contracts/Functions.sol\":555:624  function viewA() public view returns(uint) {... */\n    tag_17:\n      tag_74\n      tag_75\n      jump\t// in\n    tag_74:\n      mload(0x40)\n      tag_76\n      swap2\n      swap1\n      tag_29\n      jump\t// in\n    tag_76:\n      mload(0x40)\n      dup1\n      swap2\n      sub\n      swap1\n      return\n        /* \"contracts/Functions.sol\":2651:2768  function ExternalCall() external pure returns (string memory) {... */\n    tag_18:\n      tag_77\n      tag_78\n      jump\t// in\n    tag_77:\n      mload(0x40)\n      tag_79\n      swap2\n      swap1\n      tag_25\n      jump\t// in\n    tag_79:\n      mload(0x40)\n      dup1\n      swap2\n      sub\n      swap1\n      return\n        /* \"contracts/Functions.sol\":1494:1629  function callPublicKeyword() public pure returns (string memory) {... */\n    tag_23:\n        /* \"contracts/Functions.sol\":1544:1557  string memory */\n      0x60\n        /* \"contracts/Functions.sol\":1576:1591  PublicKeyword() */\n      tag_81\n        /* \"contracts/Functions.sol\":1576:1589  PublicKeyword */\n      tag_39\n        /* \"contracts/Functions.sol\":1576:1591  PublicKeyword() */\n      jump\t// in\n    tag_81:\n        /* \"contracts/Functions.sol\":1569:1591  return PublicKeyword() */\n      swap1\n      pop\n        /* \"contracts/Functions.sol\":1494:1629  function callPublicKeyword() public pure returns (string memory) {... */\n      swap1\n      jump\t// out\n        /* \"contracts/Functions.sol\":631:701  function setA() public  view returns (uint) {... */\n    tag_27:\n        /* \"contracts/Functions.sol\":669:673  uint */\n      0x00\n        /* \"contracts/Functions.sol\":692:693  a */\n      sload(0x01)\n        /* \"contracts/Functions.sol\":685:693  return a */\n      swap1\n      pop\n        /* \"contracts/Functions.sol\":631:701  function setA() public  view returns (uint) {... */\n      swap1\n      jump\t// out\n        /* \"contracts/Functions.sol\":905:992  function Add2(uint m, uint n) public pure returns (uint) {... */\n    tag_33:\n        /* \"contracts/Functions.sol\":956:960  uint */\n      0x00\n        /* \"contracts/Functions.sol\":983:984  n */\n      dup2\n        /* \"contracts/Functions.sol\":979:980  m */\n      dup4\n        /* \"contracts/Functions.sol\":979:984  m + n */\n      tag_84\n      swap2\n      swap1\n      tag_85\n      jump\t// in\n    tag_84:\n        /* \"contracts/Functions.sol\":972:984  return m + n */\n      swap1\n      pop\n        /* \"contracts/Functions.sol\":905:992  function Add2(uint m, uint n) public pure returns (uint) {... */\n      swap3\n      swap2\n      pop\n      pop\n      jump\t// out\n        /* \"contracts/Functions.sol\":118:202  function ShowNumber() public view returns (uint) {... */\n    tag_36:\n        /* \"contracts/Functions.sol\":161:165  uint */\n      0x00\n        /* \"contracts/Functions.sol\":184:195  LuckyNumber */\n      sload(0x00)\n        /* \"contracts/Functions.sol\":177:195  return LuckyNumber */\n      swap1\n      pop\n        /* \"contracts/Functions.sol\":118:202  function ShowNumber() public view returns (uint) {... */\n      swap1\n      jump\t// out\n        /* \"contracts/Functions.sol\":1373:1487  function PublicKeyword () public pure returns (string memory) {... */\n    tag_39:\n        /* \"contracts/Functions.sol\":1420:1433  string memory */\n      0x60\n        /* \"contracts/Functions.sol\":1445:1479  return \"This is a public function\" */\n      mload(0x40)\n      dup1\n      0x40\n      add\n      0x40\n      mstore\n      dup1\n      0x19\n      dup2\n      mstore\n      0x20\n      add\n      0x546869732069732061207075626c69632066756e6374696f6e00000000000000\n      dup2\n      mstore\n      pop\n      swap1\n      pop\n        /* \"contracts/Functions.sol\":1373:1487  function PublicKeyword () public pure returns (string memory) {... */\n      swap1\n      jump\t// out\n        /* \"contracts/Functions.sol\":208:290  function SetNumber(uint newNumber) public {... */\n    tag_44:\n        /* \"contracts/Functions.sol\":274:283  newNumber */\n      dup1\n        /* \"contracts/Functions.sol\":260:271  LuckyNumber */\n      0x00\n        /* \"contracts/Functions.sol\":260:283  LuckyNumber = newNumber */\n      dup2\n      swap1\n      sstore\n      pop\n        /* \"contracts/Functions.sol\":208:290  function SetNumber(uint newNumber) public {... */\n      pop\n      jump\t// out\n        /* \"contracts/Functions.sol\":2452:2556  function PublicKeyword3() public pure returns (string memory) {... */\n    tag_46:\n        /* \"contracts/Functions.sol\":2499:2512  string memory */\n      0x60\n        /* \"contracts/Functions.sol\":2531:2548  InternalKeyword() */\n      tag_90\n        /* \"contracts/Functions.sol\":2531:2546  InternalKeyword */\n      tag_91\n        /* \"contracts/Functions.sol\":2531:2548  InternalKeyword() */\n      jump\t// in\n    tag_90:\n        /* \"contracts/Functions.sol\":2524:2548  return InternalKeyword() */\n      swap1\n      pop\n        /* \"contracts/Functions.sol\":2452:2556  function PublicKeyword3() public pure returns (string memory) {... */\n      swap1\n      jump\t// out\n        /* \"contracts/Functions.sol\":1257:1366  function Add4(uint k, uint l) public pure returns (uint) {... */\n    tag_50:\n        /* \"contracts/Functions.sol\":1308:1312  uint */\n      0x00\n        /* \"contracts/Functions.sol\":1331:1340  Add3(k,l) */\n      tag_93\n        /* \"contracts/Functions.sol\":1336:1337  k */\n      dup4\n        /* \"contracts/Functions.sol\":1338:1339  l */\n      dup4\n        /* \"contracts/Functions.sol\":1331:1335  Add3 */\n      tag_58\n        /* \"contracts/Functions.sol\":1331:1340  Add3(k,l) */\n      jump\t// in\n    tag_93:\n        /* \"contracts/Functions.sol\":1324:1340  return Add3(k,l) */\n      swap1\n      pop\n        /* \"contracts/Functions.sol\":1257:1366  function Add4(uint k, uint l) public pure returns (uint) {... */\n      swap3\n      swap2\n      pop\n      pop\n      jump\t// out\n        /* \"contracts/Functions.sol\":408:530  function nothing() public pure returns(uint x, bool y, bool z) {... */\n    tag_53:\n        /* \"contracts/Functions.sol\":447:453  uint x */\n      0x00\n        /* \"contracts/Functions.sol\":455:461  bool y */\n      0x00\n        /* \"contracts/Functions.sol\":463:469  bool z */\n      0x00\n        /* \"contracts/Functions.sol\":485:486  6 */\n      0x06\n        /* \"contracts/Functions.sol\":481:486  x = 6 */\n      swap3\n      pop\n        /* \"contracts/Functions.sol\":500:504  true */\n      0x01\n        /* \"contracts/Functions.sol\":496:504  y = true */\n      swap2\n      pop\n        /* \"contracts/Functions.sol\":518:522  true */\n      0x01\n        /* \"contracts/Functions.sol\":514:522  z = true */\n      swap1\n      pop\n        /* \"contracts/Functions.sol\":408:530  function nothing() public pure returns(uint x, bool y, bool z) {... */\n      swap1\n      swap2\n      swap3\n      jump\t// out\n        /* \"contracts/Functions.sol\":1162:1250  function Add3(uint m, uint n) public pure returns (uint) {... */\n    tag_58:\n        /* \"contracts/Functions.sol\":1213:1217  uint */\n      0x00\n        /* \"contracts/Functions.sol\":1241:1242  n */\n      dup2\n        /* \"contracts/Functions.sol\":1237:1238  m */\n      dup4\n        /* \"contracts/Functions.sol\":1237:1242  m + n */\n      tag_96\n      swap2\n      swap1\n      tag_85\n      jump\t// in\n    tag_96:\n        /* \"contracts/Functions.sol\":1229:1242  return  m + n */\n      swap1\n      pop\n        /* \"contracts/Functions.sol\":1162:1250  function Add3(uint m, uint n) public pure returns (uint) {... */\n      swap3\n      swap2\n      pop\n      pop\n      jump\t// out\n        /* \"contracts/Functions.sol\":2862:2969  function PublicKeyword4() public pure returns (string memory) {... */\n    tag_61:\n        /* \"contracts/Functions.sol\":2909:2922  string memory */\n      0x60\n        /* \"contracts/Functions.sol\":2862:2969  function PublicKeyword4() public pure returns (string memory) {... */\n      swap1\n      jump\t// out\n        /* \"contracts/Functions.sol\":794:898  function Add(uint m, uint n) public view returns (uint) {... */\n    tag_65:\n        /* \"contracts/Functions.sol\":844:848  uint */\n      0x00\n        /* \"contracts/Functions.sol\":875:890  block.timestamp */\n      timestamp\n        /* \"contracts/Functions.sol\":871:872  n */\n      dup3\n        /* \"contracts/Functions.sol\":867:868  m */\n      dup5\n        /* \"contracts/Functions.sol\":867:872  m + n */\n      tag_99\n      swap2\n      swap1\n      tag_85\n      jump\t// in\n    tag_99:\n        /* \"contracts/Functions.sol\":867:890  m + n + block.timestamp */\n      tag_100\n      swap2\n      swap1\n      tag_85\n      jump\t// in\n    tag_100:\n        /* \"contracts/Functions.sol\":860:890  return m + n + block.timestamp */\n      swap1\n      pop\n        /* \"contracts/Functions.sol\":794:898  function Add(uint m, uint n) public view returns (uint) {... */\n      swap3\n      swap2\n      pop\n      pop\n      jump\t// out\n        /* \"contracts/Functions.sol\":1944:2047  function PublicKeyword2() public pure returns (string memory) {... */\n    tag_68:\n        /* \"contracts/Functions.sol\":1991:2004  string memory */\n      0x60\n        /* \"contracts/Functions.sol\":2023:2039  PrivateKeyword() */\n      tag_102\n        /* \"contracts/Functions.sol\":2023:2037  PrivateKeyword */\n      tag_103\n        /* \"contracts/Functions.sol\":2023:2039  PrivateKeyword() */\n      jump\t// in\n    tag_102:\n        /* \"contracts/Functions.sol\":2016:2039  return PrivateKeyword() */\n      swap1\n      pop\n        /* \"contracts/Functions.sol\":1944:2047  function PublicKeyword2() public pure returns (string memory) {... */\n      swap1\n      jump\t// out\n        /* \"contracts/Functions.sol\":708:787  function Sum(uint y) public  view returns (uint) {... */\n    tag_72:\n        /* \"contracts/Functions.sol\":751:755  uint */\n      0x00\n        /* \"contracts/Functions.sol\":778:779  y */\n      dup2\n        /* \"contracts/Functions.sol\":774:775  a */\n      sload(0x01)\n        /* \"contracts/Functions.sol\":774:779  a + y */\n      tag_105\n      swap2\n      swap1\n      tag_85\n      jump\t// in\n    tag_105:\n        /* \"contracts/Functions.sol\":767:779  return a + y */\n      swap1\n      pop\n        /* \"contracts/Functions.sol\":708:787  function Sum(uint y) public  view returns (uint) {... */\n      swap2\n      swap1\n      pop\n      jump\t// out\n        /* \"contracts/Functions.sol\":555:624  function viewA() public view returns(uint) {... */\n    tag_75:\n        /* \"contracts/Functions.sol\":592:596  uint */\n      0x00\n        /* \"contracts/Functions.sol\":615:616  a */\n      sload(0x01)\n        /* \"contracts/Functions.sol\":608:616  return a */\n      swap1\n      pop\n        /* \"contracts/Functions.sol\":555:624  function viewA() public view returns(uint) {... */\n      swap1\n      jump\t// out\n        /* \"contracts/Functions.sol\":2651:2768  function ExternalCall() external pure returns (string memory) {... */\n    tag_78:\n        /* \"contracts/Functions.sol\":2698:2711  string memory */\n      0x60\n        /* \"contracts/Functions.sol\":2723:2760  return \"This is an external function\" */\n      mload(0x40)\n      dup1\n      0x40\n      add\n      0x40\n      mstore\n      dup1\n      0x1c\n      dup2\n      mstore\n      0x20\n      add\n      0x5468697320697320616e2065787465726e616c2066756e6374696f6e00000000\n      dup2\n      mstore\n      pop\n      swap1\n      pop\n        /* \"contracts/Functions.sol\":2651:2768  function ExternalCall() external pure returns (string memory) {... */\n      swap1\n      jump\t// out\n        /* \"contracts/Functions.sol\":2240:2360  function InternalKeyword() internal pure returns (string memory) {... */\n    tag_91:\n        /* \"contracts/Functions.sol\":2290:2303  string memory */\n      0x60\n        /* \"contracts/Functions.sol\":2315:2352  return \"This is an internal function\" */\n      mload(0x40)\n      dup1\n      0x40\n      add\n      0x40\n      mstore\n      dup1\n      0x1c\n      dup2\n      mstore\n      0x20\n      add\n      0x5468697320697320616e20696e7465726e616c2066756e6374696f6e00000000\n      dup2\n      mstore\n      pop\n      swap1\n      pop\n        /* \"contracts/Functions.sol\":2240:2360  function InternalKeyword() internal pure returns (string memory) {... */\n      swap1\n      jump\t// out\n        /* \"contracts/Functions.sol\":1737:1854  function PrivateKeyword() private pure returns (string memory) {... */\n    tag_103:\n        /* \"contracts/Functions.sol\":1785:1798  string memory */\n      0x60\n        /* \"contracts/Functions.sol\":1810:1846  return \"This is a private functions\" */\n      mload(0x40)\n      dup1\n      0x40\n      add\n      0x40\n      mstore\n      dup1\n      0x1b\n      dup2\n      mstore\n      0x20\n      add\n      0x54686973206973206120707269766174652066756e6374696f6e730000000000\n      dup2\n      mstore\n      pop\n      swap1\n      pop\n        /* \"contracts/Functions.sol\":1737:1854  function PrivateKeyword() private pure returns (string memory) {... */\n      swap1\n      jump\t// out\n        /* \"#utility.yul\":7:106   */\n    tag_110:\n        /* \"#utility.yul\":59:65   */\n      0x00\n        /* \"#utility.yul\":93:98   */\n      dup2\n        /* \"#utility.yul\":87:99   */\n      mload\n        /* \"#utility.yul\":77:99   */\n      swap1\n      pop\n        /* \"#utility.yul\":7:106   */\n      swap2\n      swap1\n      pop\n      jump\t// out\n        /* \"#utility.yul\":112:281   */\n    tag_111:\n        /* \"#utility.yul\":196:207   */\n      0x00\n        /* \"#utility.yul\":230:236   */\n      dup3\n        /* \"#utility.yul\":225:228   */\n      dup3\n        /* \"#utility.yul\":218:237   */\n      mstore\n        /* \"#utility.yul\":270:274   */\n      0x20\n        /* \"#utility.yul\":265:268   */\n      dup3\n        /* \"#utility.yul\":261:275   */\n      add\n        /* \"#utility.yul\":246:275   */\n      swap1\n      pop\n        /* \"#utility.yul\":112:281   */\n      swap3\n      swap2\n      pop\n      pop\n      jump\t// out\n        /* \"#utility.yul\":287:426   */\n    tag_112:\n        /* \"#utility.yul\":376:382   */\n      dup3\n        /* \"#utility.yul\":371:374   */\n      dup2\n        /* \"#utility.yul\":366:369   */\n      dup4\n        /* \"#utility.yul\":360:383   */\n      mcopy\n        /* \"#utility.yul\":417:418   */\n      0x00\n        /* \"#utility.yul\":408:414   */\n      dup4\n        /* \"#utility.yul\":403:406   */\n      dup4\n        /* \"#utility.yul\":399:415   */\n      add\n        /* \"#utility.yul\":392:419   */\n      mstore\n        /* \"#utility.yul\":287:426   */\n      pop\n      pop\n      pop\n      jump\t// out\n        /* \"#utility.yul\":432:534   */\n    tag_113:\n        /* \"#utility.yul\":473:479   */\n      0x00\n        /* \"#utility.yul\":524:526   */\n      0x1f\n        /* \"#utility.yul\":520:527   */\n      not\n        /* \"#utility.yul\":515:517   */\n      0x1f\n        /* \"#utility.yul\":508:513   */\n      dup4\n        /* \"#utility.yul\":504:518   */\n      add\n        /* \"#utility.yul\":500:528   */\n      and\n        /* \"#utility.yul\":490:528   */\n      swap1\n      pop\n        /* \"#utility.yul\":432:534   */\n      swap2\n      swap1\n      pop\n      jump\t// out\n        /* \"#utility.yul\":540:917   */\n    tag_114:\n        /* \"#utility.yul\":628:631   */\n      0x00\n        /* \"#utility.yul\":656:695   */\n      tag_131\n        /* \"#utility.yul\":689:694   */\n      dup3\n        /* \"#utility.yul\":656:695   */\n      tag_110\n      jump\t// in\n    tag_131:\n        /* \"#utility.yul\":711:782   */\n      tag_132\n        /* \"#utility.yul\":775:781   */\n      dup2\n        /* \"#utility.yul\":770:773   */\n      dup6\n        /* \"#utility.yul\":711:782   */\n      tag_111\n      jump\t// in\n    tag_132:\n        /* \"#utility.yul\":704:782   */\n      swap4\n      pop\n        /* \"#utility.yul\":791:856   */\n      tag_133\n        /* \"#utility.yul\":849:855   */\n      dup2\n        /* \"#utility.yul\":844:847   */\n      dup6\n        /* \"#utility.yul\":837:841   */\n      0x20\n        /* \"#utility.yul\":830:835   */\n      dup7\n        /* \"#utility.yul\":826:842   */\n      add\n        /* \"#utility.yul\":791:856   */\n      tag_112\n      jump\t// in\n    tag_133:\n        /* \"#utility.yul\":881:910   */\n      tag_134\n        /* \"#utility.yul\":903:909   */\n      dup2\n        /* \"#utility.yul\":881:910   */\n      tag_113\n      jump\t// in\n    tag_134:\n        /* \"#utility.yul\":876:879   */\n      dup5\n        /* \"#utility.yul\":872:911   */\n      add\n        /* \"#utility.yul\":865:911   */\n      swap2\n      pop\n        /* \"#utility.yul\":632:917   */\n      pop\n        /* \"#utility.yul\":540:917   */\n      swap3\n      swap2\n      pop\n      pop\n      jump\t// out\n        /* \"#utility.yul\":923:1236   */\n    tag_25:\n        /* \"#utility.yul\":1036:1040   */\n      0x00\n        /* \"#utility.yul\":1074:1076   */\n      0x20\n        /* \"#utility.yul\":1063:1072   */\n      dup3\n        /* \"#utility.yul\":1059:1077   */\n      add\n        /* \"#utility.yul\":1051:1077   */\n      swap1\n      pop\n        /* \"#utility.yul\":1123:1132   */\n      dup2\n        /* \"#utility.yul\":1117:1121   */\n      dup2\n        /* \"#utility.yul\":1113:1133   */\n      sub\n        /* \"#utility.yul\":1109:1110   */\n      0x00\n        /* \"#utility.yul\":1098:1107   */\n      dup4\n        /* \"#utility.yul\":1094:1111   */\n      add\n        /* \"#utility.yul\":1087:1134   */\n      mstore\n        /* \"#utility.yul\":1151:1229   */\n      tag_136\n        /* \"#utility.yul\":1224:1228   */\n      dup2\n        /* \"#utility.yul\":1215:1221   */\n      dup5\n        /* \"#utility.yul\":1151:1229   */\n      tag_114\n      jump\t// in\n    tag_136:\n        /* \"#utility.yul\":1143:1229   */\n      swap1\n      pop\n        /* \"#utility.yul\":923:1236   */\n      swap3\n      swap2\n      pop\n      pop\n      jump\t// out\n        /* \"#utility.yul\":1242:1319   */\n    tag_115:\n        /* \"#utility.yul\":1279:1286   */\n      0x00\n        /* \"#utility.yul\":1308:1313   */\n      dup2\n        /* \"#utility.yul\":1297:1313   */\n      swap1\n      pop\n        /* \"#utility.yul\":1242:1319   */\n      swap2\n      swap1\n      pop\n      jump\t// out\n        /* \"#utility.yul\":1325:1443   */\n    tag_116:\n        /* \"#utility.yul\":1412:1436   */\n      tag_139\n        /* \"#utility.yul\":1430:1435   */\n      dup2\n        /* \"#utility.yul\":1412:1436   */\n      tag_115\n      jump\t// in\n    tag_139:\n        /* \"#utility.yul\":1407:1410   */\n      dup3\n        /* \"#utility.yul\":1400:1437   */\n      mstore\n        /* \"#utility.yul\":1325:1443   */\n      pop\n      pop\n      jump\t// out\n        /* \"#utility.yul\":1449:1671   */\n    tag_29:\n        /* \"#utility.yul\":1542:1546   */\n      0x00\n        /* \"#utility.yul\":1580:1582   */\n      0x20\n        /* \"#utility.yul\":1569:1578   */\n      dup3\n        /* \"#utility.yul\":1565:1583   */\n      add\n        /* \"#utility.yul\":1557:1583   */\n      swap1\n      pop\n        /* \"#utility.yul\":1593:1664   */\n      tag_141\n        /* \"#utility.yul\":1661:1662   */\n      0x00\n        /* \"#utility.yul\":1650:1659   */\n      dup4\n        /* \"#utility.yul\":1646:1663   */\n      add\n        /* \"#utility.yul\":1637:1643   */\n      dup5\n        /* \"#utility.yul\":1593:1664   */\n      tag_116\n      jump\t// in\n    tag_141:\n        /* \"#utility.yul\":1449:1671   */\n      swap3\n      swap2\n      pop\n      pop\n      jump\t// out\n        /* \"#utility.yul\":1758:1875   */\n    tag_118:\n        /* \"#utility.yul\":1867:1868   */\n      0x00\n        /* \"#utility.yul\":1864:1865   */\n      0x00\n        /* \"#utility.yul\":1857:1869   */\n      revert\n        /* \"#utility.yul\":2004:2126   */\n    tag_120:\n        /* \"#utility.yul\":2077:2101   */\n      tag_146\n        /* \"#utility.yul\":2095:2100   */\n      dup2\n        /* \"#utility.yul\":2077:2101   */\n      tag_115\n      jump\t// in\n    tag_146:\n        /* \"#utility.yul\":2070:2075   */\n      dup2\n        /* \"#utility.yul\":2067:2102   */\n      eq\n        /* \"#utility.yul\":2057:2120   */\n      tag_147\n      jumpi\n        /* \"#utility.yul\":2116:2117   */\n      0x00\n        /* \"#utility.yul\":2113:2114   */\n      0x00\n        /* \"#utility.yul\":2106:2118   */\n      revert\n        /* \"#utility.yul\":2057:2120   */\n    tag_147:\n        /* \"#utility.yul\":2004:2126   */\n      pop\n      jump\t// out\n        /* \"#utility.yul\":2132:2271   */\n    tag_121:\n        /* \"#utility.yul\":2178:2183   */\n      0x00\n        /* \"#utility.yul\":2216:2222   */\n      dup2\n        /* \"#utility.yul\":2203:2223   */\n      calldataload\n        /* \"#utility.yul\":2194:2223   */\n      swap1\n      pop\n        /* \"#utility.yul\":2232:2265   */\n      tag_149\n        /* \"#utility.yul\":2259:2264   */\n      dup2\n        /* \"#utility.yul\":2232:2265   */\n      tag_120\n      jump\t// in\n    tag_149:\n        /* \"#utility.yul\":2132:2271   */\n      swap3\n      swap2\n      pop\n      pop\n      jump\t// out\n        /* \"#utility.yul\":2277:2751   */\n    tag_32:\n        /* \"#utility.yul\":2345:2351   */\n      0x00\n        /* \"#utility.yul\":2353:2359   */\n      0x00\n        /* \"#utility.yul\":2402:2404   */\n      0x40\n        /* \"#utility.yul\":2390:2399   */\n      dup4\n        /* \"#utility.yul\":2381:2388   */\n      dup6\n        /* \"#utility.yul\":2377:2400   */\n      sub\n        /* \"#utility.yul\":2373:2405   */\n      slt\n        /* \"#utility.yul\":2370:2489   */\n      iszero\n      tag_151\n      jumpi\n        /* \"#utility.yul\":2408:2487   */\n      tag_152\n      tag_118\n      jump\t// in\n    tag_152:\n        /* \"#utility.yul\":2370:2489   */\n    tag_151:\n        /* \"#utility.yul\":2528:2529   */\n      0x00\n        /* \"#utility.yul\":2553:2606   */\n      tag_153\n        /* \"#utility.yul\":2598:2605   */\n      dup6\n        /* \"#utility.yul\":2589:2595   */\n      dup3\n        /* \"#utility.yul\":2578:2587   */\n      dup7\n        /* \"#utility.yul\":2574:2596   */\n      add\n        /* \"#utility.yul\":2553:2606   */\n      tag_121\n      jump\t// in\n    tag_153:\n        /* \"#utility.yul\":2543:2606   */\n      swap3\n      pop\n        /* \"#utility.yul\":2499:2616   */\n      pop\n        /* \"#utility.yul\":2655:2657   */\n      0x20\n        /* \"#utility.yul\":2681:2734   */\n      tag_154\n        /* \"#utility.yul\":2726:2733   */\n      dup6\n        /* \"#utility.yul\":2717:2723   */\n      dup3\n        /* \"#utility.yul\":2706:2715   */\n      dup7\n        /* \"#utility.yul\":2702:2724   */\n      add\n        /* \"#utility.yul\":2681:2734   */\n      tag_121\n      jump\t// in\n    tag_154:\n        /* \"#utility.yul\":2671:2734   */\n      swap2\n      pop\n        /* \"#utility.yul\":2626:2744   */\n      pop\n        /* \"#utility.yul\":2277:2751   */\n      swap3\n      pop\n      swap3\n      swap1\n      pop\n      jump\t// out\n        /* \"#utility.yul\":2757:3086   */\n    tag_43:\n        /* \"#utility.yul\":2816:2822   */\n      0x00\n        /* \"#utility.yul\":2865:2867   */\n      0x20\n        /* \"#utility.yul\":2853:2862   */\n      dup3\n        /* \"#utility.yul\":2844:2851   */\n      dup5\n        /* \"#utility.yul\":2840:2863   */\n      sub\n        /* \"#utility.yul\":2836:2868   */\n      slt\n        /* \"#utility.yul\":2833:2952   */\n      iszero\n      tag_156\n      jumpi\n        /* \"#utility.yul\":2871:2950   */\n      tag_157\n      tag_118\n      jump\t// in\n    tag_157:\n        /* \"#utility.yul\":2833:2952   */\n    tag_156:\n        /* \"#utility.yul\":2991:2992   */\n      0x00\n        /* \"#utility.yul\":3016:3069   */\n      tag_158\n        /* \"#utility.yul\":3061:3068   */\n      dup5\n        /* \"#utility.yul\":3052:3058   */\n      dup3\n        /* \"#utility.yul\":3041:3050   */\n      dup6\n        /* \"#utility.yul\":3037:3059   */\n      add\n        /* \"#utility.yul\":3016:3069   */\n      tag_121\n      jump\t// in\n    tag_158:\n        /* \"#utility.yul\":3006:3069   */\n      swap2\n      pop\n        /* \"#utility.yul\":2962:3079   */\n      pop\n        /* \"#utility.yul\":2757:3086   */\n      swap3\n      swap2\n      pop\n      pop\n      jump\t// out\n        /* \"#utility.yul\":3092:3182   */\n    tag_122:\n        /* \"#utility.yul\":3126:3133   */\n      0x00\n        /* \"#utility.yul\":3169:3174   */\n      dup2\n        /* \"#utility.yul\":3162:3175   */\n      iszero\n        /* \"#utility.yul\":3155:3176   */\n      iszero\n        /* \"#utility.yul\":3144:3176   */\n      swap1\n      pop\n        /* \"#utility.yul\":3092:3182   */\n      swap2\n      swap1\n      pop\n      jump\t// out\n        /* \"#utility.yul\":3188:3297   */\n    tag_123:\n        /* \"#utility.yul\":3269:3290   */\n      tag_161\n        /* \"#utility.yul\":3284:3289   */\n      dup2\n        /* \"#utility.yul\":3269:3290   */\n      tag_122\n      jump\t// in\n    tag_161:\n        /* \"#utility.yul\":3264:3267   */\n      dup3\n        /* \"#utility.yul\":3257:3291   */\n      mstore\n        /* \"#utility.yul\":3188:3297   */\n      pop\n      pop\n      jump\t// out\n        /* \"#utility.yul\":3303:3721   */\n    tag_55:\n        /* \"#utility.yul\":3440:3444   */\n      0x00\n        /* \"#utility.yul\":3478:3480   */\n      0x60\n        /* \"#utility.yul\":3467:3476   */\n      dup3\n        /* \"#utility.yul\":3463:3481   */\n      add\n        /* \"#utility.yul\":3455:3481   */\n      swap1\n      pop\n        /* \"#utility.yul\":3491:3562   */\n      tag_163\n        /* \"#utility.yul\":3559:3560   */\n      0x00\n        /* \"#utility.yul\":3548:3557   */\n      dup4\n        /* \"#utility.yul\":3544:3561   */\n      add\n        /* \"#utility.yul\":3535:3541   */\n      dup7\n        /* \"#utility.yul\":3491:3562   */\n      tag_116\n      jump\t// in\n    tag_163:\n        /* \"#utility.yul\":3572:3638   */\n      tag_164\n        /* \"#utility.yul\":3634:3636   */\n      0x20\n        /* \"#utility.yul\":3623:3632   */\n      dup4\n        /* \"#utility.yul\":3619:3637   */\n      add\n        /* \"#utility.yul\":3610:3616   */\n      dup6\n        /* \"#utility.yul\":3572:3638   */\n      tag_123\n      jump\t// in\n    tag_164:\n        /* \"#utility.yul\":3648:3714   */\n      tag_165\n        /* \"#utility.yul\":3710:3712   */\n      0x40\n        /* \"#utility.yul\":3699:3708   */\n      dup4\n        /* \"#utility.yul\":3695:3713   */\n      add\n        /* \"#utility.yul\":3686:3692   */\n      dup5\n        /* \"#utility.yul\":3648:3714   */\n      tag_123\n      jump\t// in\n    tag_165:\n        /* \"#utility.yul\":3303:3721   */\n      swap5\n      swap4\n      pop\n      pop\n      pop\n      pop\n      jump\t// out\n        /* \"#utility.yul\":3727:3907   */\n    tag_124:\n        /* \"#utility.yul\":3775:3852   */\n      0x4e487b7100000000000000000000000000000000000000000000000000000000\n        /* \"#utility.yul\":3772:3773   */\n      0x00\n        /* \"#utility.yul\":3765:3853   */\n      mstore\n        /* \"#utility.yul\":3872:3876   */\n      0x11\n        /* \"#utility.yul\":3869:3870   */\n      0x04\n        /* \"#utility.yul\":3862:3877   */\n      mstore\n        /* \"#utility.yul\":3896:3900   */\n      0x24\n        /* \"#utility.yul\":3893:3894   */\n      0x00\n        /* \"#utility.yul\":3886:3901   */\n      revert\n        /* \"#utility.yul\":3913:4104   */\n    tag_85:\n        /* \"#utility.yul\":3953:3956   */\n      0x00\n        /* \"#utility.yul\":3972:3992   */\n      tag_168\n        /* \"#utility.yul\":3990:3991   */\n      dup3\n        /* \"#utility.yul\":3972:3992   */\n      tag_115\n      jump\t// in\n    tag_168:\n        /* \"#utility.yul\":3967:3992   */\n      swap2\n      pop\n        /* \"#utility.yul\":4006:4026   */\n      tag_169\n        /* \"#utility.yul\":4024:4025   */\n      dup4\n        /* \"#utility.yul\":4006:4026   */\n      tag_115\n      jump\t// in\n    tag_169:\n        /* \"#utility.yul\":4001:4026   */\n      swap3\n      pop\n        /* \"#utility.yul\":4049:4050   */\n      dup3\n        /* \"#utility.yul\":4046:4047   */\n      dup3\n        /* \"#utility.yul\":4042:4051   */\n      add\n        /* \"#utility.yul\":4035:4051   */\n      swap1\n      pop\n        /* \"#utility.yul\":4070:4073   */\n      dup1\n        /* \"#utility.yul\":4067:4068   */\n      dup3\n        /* \"#utility.yul\":4064:4074   */\n      gt\n        /* \"#utility.yul\":4061:4097   */\n      iszero\n      tag_170\n      jumpi\n        /* \"#utility.yul\":4077:4095   */\n      tag_171\n      tag_124\n      jump\t// in\n    tag_171:\n        /* \"#utility.yul\":4061:4097   */\n    tag_170:\n        /* \"#utility.yul\":3913:4104   */\n      swap3\n      swap2\n      pop\n      pop\n      jump\t// out\n\n    auxdata: 0xa26469706673582212201e7db092de494eb3157576df8cd80b51fd75ae1de37fa02df443b082f0ef4c3c64736f6c634300081c0033\n}\n",
				"bytecode": {
					"linkReferences": {},
					"object": "6080604052600a5f5560036001553480156017575f5ffd5b50610749806100255f395ff3fe608060405234801561000f575f5ffd5b50600436106100fe575f3560e01c8063448f30a311610095578063a157ac3d11610064578063a157ac3d146102b2578063be8396be146102d0578063f5c9e33f14610300578063f948ebca1461031e576100fe565b8063448f30a31461021457806357edf8da146102345780635d6c57c9146102645780637afbe4f114610282576100fe565b8063310e1696116100d1578063310e16961461018c578063331bb01b146101aa57806334d477ea146101c65780633ed32ac7146101e4576100fe565b8063148bc9e2146101025780631fc376f714610120578063236a5e581461013e5780632ee99bd41461016e575b5f5ffd5b61010a61033c565b604051610117919061057c565b60405180910390f35b61012861034b565b60405161013591906105b4565b60405180910390f35b610158600480360381019061015391906105fb565b610354565b60405161016591906105b4565b60405180910390f35b610176610369565b60405161018391906105b4565b60405180910390f35b610194610371565b6040516101a1919061057c565b60405180910390f35b6101c460048036038101906101bf9190610639565b6103ae565b005b6101ce6103b7565b6040516101db919061057c565b60405180910390f35b6101fe60048036038101906101f991906105fb565b6103c6565b60405161020b91906105b4565b60405180910390f35b61021c6103d9565b60405161022b9392919061067e565b60405180910390f35b61024e600480360381019061024991906105fb565b6103ed565b60405161025b91906105b4565b60405180910390f35b61026c610402565b604051610279919061057c565b60405180910390f35b61029c600480360381019061029791906105fb565b610407565b6040516102a991906105b4565b60405180910390f35b6102ba610427565b6040516102c7919061057c565b60405180910390f35b6102ea60048036038101906102e59190610639565b610436565b6040516102f791906105b4565b60405180910390f35b61030861044c565b60405161031591906105b4565b60405180910390f35b610326610455565b604051610333919061057c565b60405180910390f35b6060610346610371565b905090565b5f600154905090565b5f818361036191906106e0565b905092915050565b5f5f54905090565b60606040518060400160405280601981526020017f546869732069732061207075626c69632066756e6374696f6e00000000000000815250905090565b805f8190555050565b60606103c1610492565b905090565b5f6103d183836103ed565b905092915050565b5f5f5f600692506001915060019050909192565b5f81836103fa91906106e0565b905092915050565b606090565b5f42828461041591906106e0565b61041f91906106e0565b905092915050565b60606104316104cf565b905090565b5f8160015461044591906106e0565b9050919050565b5f600154905090565b60606040518060400160405280601c81526020017f5468697320697320616e2065787465726e616c2066756e6374696f6e00000000815250905090565b60606040518060400160405280601c81526020017f5468697320697320616e20696e7465726e616c2066756e6374696f6e00000000815250905090565b60606040518060400160405280601b81526020017f54686973206973206120707269766174652066756e6374696f6e730000000000815250905090565b5f81519050919050565b5f82825260208201905092915050565b8281835e5f83830152505050565b5f601f19601f8301169050919050565b5f61054e8261050c565b6105588185610516565b9350610568818560208601610526565b61057181610534565b840191505092915050565b5f6020820190508181035f8301526105948184610544565b905092915050565b5f819050919050565b6105ae8161059c565b82525050565b5f6020820190506105c75f8301846105a5565b92915050565b5f5ffd5b6105da8161059c565b81146105e4575f5ffd5b50565b5f813590506105f5816105d1565b92915050565b5f5f60408385031215610611576106106105cd565b5b5f61061e858286016105e7565b925050602061062f858286016105e7565b9150509250929050565b5f6020828403121561064e5761064d6105cd565b5b5f61065b848285016105e7565b91505092915050565b5f8115159050919050565b61067881610664565b82525050565b5f6060820190506106915f8301866105a5565b61069e602083018561066f565b6106ab604083018461066f565b949350505050565b7f4e487b71000000000000000000000000000000000000000000000000000000005f52601160045260245ffd5b5f6106ea8261059c565b91506106f58361059c565b925082820190508082111561070d5761070c6106b3565b5b9291505056fea26469706673582212201e7db092de494eb3157576df8cd80b51fd75ae1de37fa02df443b082f0ef4c3c64736f6c634300081c0033",
					"opcodes": "PUSH1 0x80 PUSH1 0x40 MSTORE PUSH1 0xA PUSH0 SSTORE PUSH1 0x3 PUSH1 0x1 SSTORE CALLVALUE DUP1 ISZERO PUSH1 0x17 JUMPI PUSH0 PUSH0 REVERT JUMPDEST POP PUSH2 0x749 DUP1 PUSH2 0x25 PUSH0 CODECOPY PUSH0 RETURN INVALID PUSH1 0x80 PUSH1 0x40 MSTORE CALLVALUE DUP1 ISZERO PUSH2 0xF JUMPI PUSH0 PUSH0 REVERT JUMPDEST POP PUSH1 0x4 CALLDATASIZE LT PUSH2 0xFE JUMPI PUSH0 CALLDATALOAD PUSH1 0xE0 SHR DUP1 PUSH4 0x448F30A3 GT PUSH2 0x95 JUMPI DUP1 PUSH4 0xA157AC3D GT PUSH2 0x64 JUMPI DUP1 PUSH4 0xA157AC3D EQ PUSH2 0x2B2 JUMPI DUP1 PUSH4 0xBE8396BE EQ PUSH2 0x2D0 JUMPI DUP1 PUSH4 0xF5C9E33F EQ PUSH2 0x300 JUMPI DUP1 PUSH4 0xF948EBCA EQ PUSH2 0x31E JUMPI PUSH2 0xFE JUMP JUMPDEST DUP1 PUSH4 0x448F30A3 EQ PUSH2 0x214 JUMPI DUP1 PUSH4 0x57EDF8DA EQ PUSH2 0x234 JUMPI DUP1 PUSH4 0x5D6C57C9 EQ PUSH2 0x264 JUMPI DUP1 PUSH4 0x7AFBE4F1 EQ PUSH2 0x282 JUMPI PUSH2 0xFE JUMP JUMPDEST DUP1 PUSH4 0x310E1696 GT PUSH2 0xD1 JUMPI DUP1 PUSH4 0x310E1696 EQ PUSH2 0x18C JUMPI DUP1 PUSH4 0x331BB01B EQ PUSH2 0x1AA JUMPI DUP1 PUSH4 0x34D477EA EQ PUSH2 0x1C6 JUMPI DUP1 PUSH4 0x3ED32AC7 EQ PUSH2 0x1E4 JUMPI PUSH2 0xFE JUMP JUMPDEST DUP1 PUSH4 0x148BC9E2 EQ PUSH2 0x102 JUMPI DUP1 PUSH4 0x1FC376F7 EQ PUSH2 0x120 JUMPI DUP1 PUSH4 0x236A5E58 EQ PUSH2 0x13E JUMPI DUP1 PUSH4 0x2EE99BD4 EQ PUSH2 0x16E JUMPI JUMPDEST PUSH0 PUSH0 REVERT JUMPDEST PUSH2 0x10A PUSH2 0x33C JUMP JUMPDEST PUSH1 0x40 MLOAD PUSH2 0x117 SWAP2 SWAP1 PUSH2 0x57C JUMP JUMPDEST PUSH1 0x40 MLOAD DUP1 SWAP2 SUB SWAP1 RETURN JUMPDEST PUSH2 0x128 PUSH2 0x34B JUMP JUMPDEST PUSH1 0x40 MLOAD PUSH2 0x135 SWAP2 SWAP1 PUSH2 0x5B4 JUMP JUMPDEST PUSH1 0x40 MLOAD DUP1 SWAP2 SUB SWAP1 RETURN JUMPDEST PUSH2 0x158 PUSH1 0x4 DUP1 CALLDATASIZE SUB DUP2 ADD SWAP1 PUSH2 0x153 SWAP2 SWAP1 PUSH2 0x5FB JUMP JUMPDEST PUSH2 0x354 JUMP JUMPDEST PUSH1 0x40 MLOAD PUSH2 0x165 SWAP2 SWAP1 PUSH2 0x5B4 JUMP JUMPDEST PUSH1 0x40 MLOAD DUP1 SWAP2 SUB SWAP1 RETURN JUMPDEST PUSH2 0x176 PUSH2 0x369 JUMP JUMPDEST PUSH1 0x40 MLOAD PUSH2 0x183 SWAP2 SWAP1 PUSH2 0x5B4 JUMP JUMPDEST PUSH1 0x40 MLOAD DUP1 SWAP2 SUB SWAP1 RETURN JUMPDEST PUSH2 0x194 PUSH2 0x371 JUMP JUMPDEST PUSH1 0x40 MLOAD PUSH2 0x1A1 SWAP2 SWAP1 PUSH2 0x57C JUMP JUMPDEST PUSH1 0x40 MLOAD DUP1 SWAP2 SUB SWAP1 RETURN JUMPDEST PUSH2 0x1C4 PUSH1 0x4 DUP1 CALLDATASIZE SUB DUP2 ADD SWAP1 PUSH2 0x1BF SWAP2 SWAP1 PUSH2 0x639 JUMP JUMPDEST PUSH2 0x3AE JUMP JUMPDEST STOP JUMPDEST PUSH2 0x1CE PUSH2 0x3B7 JUMP JUMPDEST PUSH1 0x40 MLOAD PUSH2 0x1DB SWAP2 SWAP1 PUSH2 0x57C JUMP JUMPDEST PUSH1 0x40 MLOAD DUP1 SWAP2 SUB SWAP1 RETURN JUMPDEST PUSH2 0x1FE PUSH1 0x4 DUP1 CALLDATASIZE SUB DUP2 ADD SWAP1 PUSH2 0x1F9 SWAP2 SWAP1 PUSH2 0x5FB JUMP JUMPDEST PUSH2 0x3C6 JUMP JUMPDEST PUSH1 0x40 MLOAD PUSH2 0x20B SWAP2 SWAP1 PUSH2 0x5B4 JUMP JUMPDEST PUSH1 0x40 MLOAD DUP1 SWAP2 SUB SWAP1 RETURN JUMPDEST PUSH2 0x21C PUSH2 0x3D9 JUMP JUMPDEST PUSH1 0x40 MLOAD PUSH2 0x22B SWAP4 SWAP3 SWAP2 SWAP1 PUSH2 0x67E JUMP JUMPDEST PUSH1 0x40 MLOAD DUP1 SWAP2 SUB SWAP1 RETURN JUMPDEST PUSH2 0x24E PUSH1 0x4 DUP1 CALLDATASIZE SUB DUP2 ADD SWAP1 PUSH2 0x249 SWAP2 SWAP1 PUSH2 0x5FB JUMP JUMPDEST PUSH2 0x3ED JUMP JUMPDEST PUSH1 0x40 MLOAD PUSH2 0x25B SWAP2 SWAP1 PUSH2 0x5B4 JUMP JUMPDEST PUSH1 0x40 MLOAD DUP1 SWAP2 SUB SWAP1 RETURN JUMPDEST PUSH2 0x26C PUSH2 0x402 JUMP JUMPDEST PUSH1 0x40 MLOAD PUSH2 0x279 SWAP2 SWAP1 PUSH2 0x57C JUMP JUMPDEST PUSH1 0x40 MLOAD DUP1 SWAP2 SUB SWAP1 RETURN JUMPDEST PUSH2 0x29C PUSH1 0x4 DUP1 CALLDATASIZE SUB DUP2 ADD SWAP1 PUSH2 0x297 SWAP2 SWAP1 PUSH2 0x5FB JUMP JUMPDEST PUSH2 0x407 JUMP JUMPDEST PUSH1 0x40 MLOAD PUSH2 0x2A9 SWAP2 SWAP1 PUSH2 0x5B4 JUMP JUMPDEST PUSH1 0x40 MLOAD DUP1 SWAP2 SUB SWAP1 RETURN JUMPDEST PUSH2 0x2BA PUSH2 0x427 JUMP JUMPDEST PUSH1 0x40 MLOAD PUSH2 0x2C7 SWAP2 SWAP1 PUSH2 0x57C JUMP JUMPDEST PUSH1 0x40 MLOAD DUP1 SWAP2 SUB SWAP1 RETURN JUMPDEST PUSH2 0x2EA PUSH1 0x4 DUP1 CALLDATASIZE SUB DUP2 ADD SWAP1 PUSH2 0x2E5 SWAP2 SWAP1 PUSH2 0x639 JUMP JUMPDEST PUSH2 0x436 JUMP JUMPDEST PUSH1 0x40 MLOAD PUSH2 0x2F7 SWAP2 SWAP1 PUSH2 0x5B4 JUMP JUMPDEST PUSH1 0x40 MLOAD DUP1 SWAP2 SUB SWAP1 RETURN JUMPDEST PUSH2 0x308 PUSH2 0x44C JUMP JUMPDEST PUSH1 0x40 MLOAD PUSH2 0x315 SWAP2 SWAP1 PUSH2 0x5B4 JUMP JUMPDEST PUSH1 0x40 MLOAD DUP1 SWAP2 SUB SWAP1 RETURN JUMPDEST PUSH2 0x326 PUSH2 0x455 JUMP JUMPDEST PUSH1 0x40 MLOAD PUSH2 0x333 SWAP2 SWAP1 PUSH2 0x57C JUMP JUMPDEST PUSH1 0x40 MLOAD DUP1 SWAP2 SUB SWAP1 RETURN JUMPDEST PUSH1 0x60 PUSH2 0x346 PUSH2 0x371 JUMP JUMPDEST SWAP1 POP SWAP1 JUMP JUMPDEST PUSH0 PUSH1 0x1 SLOAD SWAP1 POP SWAP1 JUMP JUMPDEST PUSH0 DUP2 DUP4 PUSH2 0x361 SWAP2 SWAP1 PUSH2 0x6E0 JUMP JUMPDEST SWAP1 POP SWAP3 SWAP2 POP POP JUMP JUMPDEST PUSH0 PUSH0 SLOAD SWAP1 POP SWAP1 JUMP JUMPDEST PUSH1 0x60 PUSH1 0x40 MLOAD DUP1 PUSH1 0x40 ADD PUSH1 0x40 MSTORE DUP1 PUSH1 0x19 DUP2 MSTORE PUSH1 0x20 ADD PUSH32 0x546869732069732061207075626C69632066756E6374696F6E00000000000000 DUP2 MSTORE POP SWAP1 POP SWAP1 JUMP JUMPDEST DUP1 PUSH0 DUP2 SWAP1 SSTORE POP POP JUMP JUMPDEST PUSH1 0x60 PUSH2 0x3C1 PUSH2 0x492 JUMP JUMPDEST SWAP1 POP SWAP1 JUMP JUMPDEST PUSH0 PUSH2 0x3D1 DUP4 DUP4 PUSH2 0x3ED JUMP JUMPDEST SWAP1 POP SWAP3 SWAP2 POP POP JUMP JUMPDEST PUSH0 PUSH0 PUSH0 PUSH1 0x6 SWAP3 POP PUSH1 0x1 SWAP2 POP PUSH1 0x1 SWAP1 POP SWAP1 SWAP2 SWAP3 JUMP JUMPDEST PUSH0 DUP2 DUP4 PUSH2 0x3FA SWAP2 SWAP1 PUSH2 0x6E0 JUMP JUMPDEST SWAP1 POP SWAP3 SWAP2 POP POP JUMP JUMPDEST PUSH1 0x60 SWAP1 JUMP JUMPDEST PUSH0 TIMESTAMP DUP3 DUP5 PUSH2 0x415 SWAP2 SWAP1 PUSH2 0x6E0 JUMP JUMPDEST PUSH2 0x41F SWAP2 SWAP1 PUSH2 0x6E0 JUMP JUMPDEST SWAP1 POP SWAP3 SWAP2 POP POP JUMP JUMPDEST PUSH1 0x60 PUSH2 0x431 PUSH2 0x4CF JUMP JUMPDEST SWAP1 POP SWAP1 JUMP JUMPDEST PUSH0 DUP2 PUSH1 0x1 SLOAD PUSH2 0x445 SWAP2 SWAP1 PUSH2 0x6E0 JUMP JUMPDEST SWAP1 POP SWAP2 SWAP1 POP JUMP JUMPDEST PUSH0 PUSH1 0x1 SLOAD SWAP1 POP SWAP1 JUMP JUMPDEST PUSH1 0x60 PUSH1 0x40 MLOAD DUP1 PUSH1 0x40 ADD PUSH1 0x40 MSTORE DUP1 PUSH1 0x1C DUP2 MSTORE PUSH1 0x20 ADD PUSH32 0x5468697320697320616E2065787465726E616C2066756E6374696F6E00000000 DUP2 MSTORE POP SWAP1 POP SWAP1 JUMP JUMPDEST PUSH1 0x60 PUSH1 0x40 MLOAD DUP1 PUSH1 0x40 ADD PUSH1 0x40 MSTORE DUP1 PUSH1 0x1C DUP2 MSTORE PUSH1 0x20 ADD PUSH32 0x5468697320697320616E20696E7465726E616C2066756E6374696F6E00000000 DUP2 MSTORE POP SWAP1 POP SWAP1 JUMP JUMPDEST PUSH1 0x60 PUSH1 0x40 MLOAD DUP1 PUSH1 0x40 ADD PUSH1 0x40 MSTORE DUP1 PUSH1 0x1B DUP2 MSTORE PUSH1 0x20 ADD PUSH32 0x54686973206973206120707269766174652066756E6374696F6E730000000000 DUP2 MSTORE POP SWAP1 POP SWAP1 JUMP JUMPDEST PUSH0 DUP2 MLOAD SWAP1 POP SWAP2 SWAP1 POP JUMP JUMPDEST PUSH0 DUP3 DUP3 MSTORE PUSH1 0x20 DUP3 ADD SWAP1 POP SWAP3 SWAP2 POP POP JUMP JUMPDEST DUP3 DUP2 DUP4 MCOPY PUSH0 DUP4 DUP4 ADD MSTORE POP POP POP JUMP JUMPDEST PUSH0 PUSH1 0x1F NOT PUSH1 0x1F DUP4 ADD AND SWAP1 POP SWAP2 SWAP1 POP JUMP JUMPDEST PUSH0 PUSH2 0x54E DUP3 PUSH2 0x50C JUMP JUMPDEST PUSH2 0x558 DUP2 DUP6 PUSH2 0x516 JUMP JUMPDEST SWAP4 POP PUSH2 0x568 DUP2 DUP6 PUSH1 0x20 DUP7 ADD PUSH2 0x526 JUMP JUMPDEST PUSH2 0x571 DUP2 PUSH2 0x534 JUMP JUMPDEST DUP5 ADD SWAP2 POP POP SWAP3 SWAP2 POP POP JUMP JUMPDEST PUSH0 PUSH1 0x20 DUP3 ADD SWAP1 POP DUP2 DUP2 SUB PUSH0 DUP4 ADD MSTORE PUSH2 0x594 DUP2 DUP5 PUSH2 0x544 JUMP JUMPDEST SWAP1 POP SWAP3 SWAP2 POP POP JUMP JUMPDEST PUSH0 DUP2 SWAP1 POP SWAP2 SWAP1 POP JUMP JUMPDEST PUSH2 0x5AE DUP2 PUSH2 0x59C JUMP JUMPDEST DUP3 MSTORE POP POP JUMP JUMPDEST PUSH0 PUSH1 0x20 DUP3 ADD SWAP1 POP PUSH2 0x5C7 PUSH0 DUP4 ADD DUP5 PUSH2 0x5A5 JUMP JUMPDEST SWAP3 SWAP2 POP POP JUMP JUMPDEST PUSH0 PUSH0 REVERT JUMPDEST PUSH2 0x5DA DUP2 PUSH2 0x59C JUMP JUMPDEST DUP2 EQ PUSH2 0x5E4 JUMPI PUSH0 PUSH0 REVERT JUMPDEST POP JUMP JUMPDEST PUSH0 DUP2 CALLDATALOAD SWAP1 POP PUSH2 0x5F5 DUP2 PUSH2 0x5D1 JUMP JUMPDEST SWAP3 SWAP2 POP POP JUMP JUMPDEST PUSH0 PUSH0 PUSH1 0x40 DUP4 DUP6 SUB SLT ISZERO PUSH2 0x611 JUMPI PUSH2 0x610 PUSH2 0x5CD JUMP JUMPDEST JUMPDEST PUSH0 PUSH2 0x61E DUP6 DUP3 DUP7 ADD PUSH2 0x5E7 JUMP JUMPDEST SWAP3 POP POP PUSH1 0x20 PUSH2 0x62F DUP6 DUP3 DUP7 ADD PUSH2 0x5E7 JUMP JUMPDEST SWAP2 POP POP SWAP3 POP SWAP3 SWAP1 POP JUMP JUMPDEST PUSH0 PUSH1 0x20 DUP3 DUP5 SUB SLT ISZERO PUSH2 0x64E JUMPI PUSH2 0x64D PUSH2 0x5CD JUMP JUMPDEST JUMPDEST PUSH0 PUSH2 0x65B DUP5 DUP3 DUP6 ADD PUSH2 0x5E7 JUMP JUMPDEST SWAP2 POP POP SWAP3 SWAP2 POP POP JUMP JUMPDEST PUSH0 DUP2 ISZERO ISZERO SWAP1 POP SWAP2 SWAP1 POP JUMP JUMPDEST PUSH2 0x678 DUP2 PUSH2 0x664 JUMP JUMPDEST DUP3 MSTORE POP POP JUMP JUMPDEST PUSH0 PUSH1 0x60 DUP3 ADD SWAP1 POP PUSH2 0x691 PUSH0 DUP4 ADD DUP7 PUSH2 0x5A5 JUMP JUMPDEST PUSH2 0x69E PUSH1 0x20 DUP4 ADD DUP6 PUSH2 0x66F JUMP JUMPDEST PUSH2 0x6AB PUSH1 0x40 DUP4 ADD DUP5 PUSH2 0x66F JUMP JUMPDEST SWAP5 SWAP4 POP POP POP POP JUMP JUMPDEST PUSH32 0x4E487B7100000000000000000000000000000000000000000000000000000000 PUSH0 MSTORE PUSH1 0x11 PUSH1 0x4 MSTORE PUSH1 0x24 PUSH0 REVERT JUMPDEST PUSH0 PUSH2 0x6EA DUP3 PUSH2 0x59C JUMP JUMPDEST SWAP2 POP PUSH2 0x6F5 DUP4 PUSH2 0x59C JUMP JUMPDEST SWAP3 POP DUP3 DUP3 ADD SWAP1 POP DUP1 DUP3 GT ISZERO PUSH2 0x70D JUMPI PUSH2 0x70C PUSH2 0x6B3 JUMP JUMPDEST JUMPDEST SWAP3 SWAP2 POP POP JUMP INVALID LOG2 PUSH5 0x6970667358 0x22 SLT KECCAK256 0x1E PUSH30 0xB092DE494EB3157576DF8CD80B51FD75AE1DE37FA02DF443B082F0EF4C3C PUSH5 0x736F6C6343 STOP ADDMOD SHR STOP CALLER "
				},
				"gasEstimates": {
					"creation": {
						"codeDepositCost": "373000",
						"executionCost": "44620",
						"totalCost": "417620"
					},
					"external": {
						"Add(uint256,uint256)": "infinite",
						"Add2(uint256,uint256)": "infinite",
						"Add3(uint256,uint256)": "infinite",
						"Add4(uint256,uint256)": "infinite",
						"ExternalCall()": "infinite",
						"PublicKeyword()": "infinite",
						"PublicKeyword2()": "infinite",
						"PublicKeyword3()": "infinite",
						"PublicKeyword4()": "infinite",
						"SetNumber(uint256)": "22559",
						"ShowNumber()": "2521",
						"Sum(uint256)": "infinite",
						"callPublicKeyword()": "infinite",
						"nothing()": "infinite",
						"setA()": "2478",
						"viewA()": "2498"
					},
					"internal": {
						"InternalKeyword()": "infinite",
						"PrivateKeyword()": "infinite"
					}
				},
				"methodIdentifiers": {
					"Add(uint256,uint256)": "7afbe4f1",
					"Add2(uint256,uint256)": "236a5e58",
					"Add3(uint256,uint256)": "57edf8da",
					"Add4(uint256,uint256)": "3ed32ac7",
					"ExternalCall()": "f948ebca",
					"PublicKeyword()": "310e1696",
					"PublicKeyword2()": "a157ac3d",
					"PublicKeyword3()": "34d477ea",
					"PublicKeyword4()": "5d6c57c9",
					"SetNumber(uint256)": "331bb01b",
					"ShowNumber()": "2ee99bd4",
					"Sum(uint256)": "be8396be",
					"callPublicKeyword()": "148bc9e2",
					"nothing()": "448f30a3",
					"setA()": "1fc376f7",
					"viewA()": "f5c9e33f"
				}
			},
			"storageLayout": {
				"storage": [
					{
						"astId": 4,
						"contract": "contracts/Functions.sol:Functions",
						"label": "LuckyNumber",
						"offset": 0,
						"slot": "0",
						"type": "t_uint256"
					},
					{
						"astId": 47,
						"contract": "contracts/Functions.sol:Functions",
						"label": "a",
						"offset": 0,
						"slot": "1",
						"type": "t_uint256"
					}
				],
				"types": {
					"t_uint256": {
						"encoding": "inplace",
						"label": "uint256",
						"numberOfBytes": "32"
					}
				}
			},
			"userdoc": {
				"kind": "user",
				"methods": {},
				"version": 1
			}
		}
	}
}