{
	"contracts/Events.sol": {
		"Events": {
			"abi": [
				{
					"inputs": [],
					"stateMutability": "nonpayable",
					"type": "constructor"
				},
				{
					"anonymous": false,
					"inputs": [
						{
							"indexed": false,
							"internalType": "uint256",
							"name": "_orderId",
							"type": "uint256"
						},
						{
							"indexed": true,
							"internalType": "address",
							"name": "_consumer",
							"type": "address"
						}
					],
					"name": "OrderCreated",
					"type": "event"
				},
				{
					"anonymous": false,
					"inputs": [
						{
							"indexed": false,
							"internalType": "uint256",
							"name": "_orderId",
							"type": "uint256"
						},
						{
							"indexed": false,
							"internalType": "string",
							"name": "_zipCode",
							"type": "string"
						}
					],
					"name": "ZipChanged",
					"type": "event"
				},
				{
					"inputs": [
						{
							"internalType": "uint256",
							"name": "_orderId",
							"type": "uint256"
						}
					],
					"name": "AdvanceOrder",
					"outputs": [],
					"stateMutability": "nonpayable",
					"type": "function"
				},
				{
					"inputs": [
						{
							"internalType": "string",
							"name": "_zipCode",
							"type": "string"
						},
						{
							"internalType": "uint256[]",
							"name": "_products",
							"type": "uint256[]"
						}
					],
					"name": "CreateOrder",
					"outputs": [
						{
							"internalType": "uint256",
							"name": "",
							"type": "uint256"
						}
					],
					"stateMutability": "nonpayable",
					"type": "function"
				},
				{
					"inputs": [
						{
							"internalType": "uint256",
							"name": "_orderId",
							"type": "uint256"
						}
					],
					"name": "GetOrder",
					"outputs": [
						{
							"components": [
								{
									"internalType": "address",
									"name": "customer",
									"type": "address"
								},
								{
									"internalType": "string",
									"name": "ZipCode",
									"type": "string"
								},
								{
									"internalType": "uint256[]",
									"name": "products",
									"type": "uint256[]"
								},
								{
									"internalType": "enum Events.Status",
									"name": "status",
									"type": "uint8"
								}
							],
							"internalType": "struct Events.Order",
							"name": "",
							"type": "tuple"
						}
					],
					"stateMutability": "view",
					"type": "function"
				},
				{
					"inputs": [
						{
							"internalType": "uint256",
							"name": "_orderId",
							"type": "uint256"
						},
						{
							"internalType": "string",
							"name": "_zip",
							"type": "string"
						}
					],
					"name": "UpdateZip",
					"outputs": [],
					"stateMutability": "nonpayable",
					"type": "function"
				},
				{
					"inputs": [
						{
							"internalType": "uint256",
							"name": "",
							"type": "uint256"
						}
					],
					"name": "orders",
					"outputs": [
						{
							"internalType": "address",
							"name": "customer",
							"type": "address"
						},
						{
							"internalType": "string",
							"name": "ZipCode",
							"type": "string"
						},
						{
							"internalType": "enum Events.Status",
							"name": "status",
							"type": "uint8"
						}
					],
					"stateMutability": "view",
					"type": "function"
				},
				{
					"inputs": [],
					"name": "owner",
					"outputs": [
						{
							"internalType": "address",
							"name": "",
							"type": "address"
						}
					],
					"stateMutability": "view",
					"type": "function"
				},
				{
					"inputs": [],
					"name": "txCount",
					"outputs": [
						{
							"internalType": "uint256",
							"name": "",
							"type": "uint256"
						}
					],
					"stateMutability": "view",
					"type": "function"
				}
			],
			"devdoc": {
				"kind": "dev",
				"methods": {},
				"version": 1
			},
			"evm": {
				"assembly": "    /* \"contracts/Events.sol\":57:4255  contract Events {... */\n  mstore(0x40, 0x80)\n    /* \"contracts/Events.sol\":1167:1216  constructor() {... */\n  callvalue\n  dup1\n  iszero\n  tag_1\n  jumpi\n  0x00\n  dup1\n  revert\ntag_1:\n  pop\n    /* \"contracts/Events.sol\":1199:1209  msg.sender */\n  caller\n    /* \"contracts/Events.sol\":1191:1196  owner */\n  0x01\n  0x00\n    /* \"contracts/Events.sol\":1191:1209  owner = msg.sender */\n  0x0100\n  exp\n  dup2\n  sload\n  dup2\n  0xffffffffffffffffffffffffffffffffffffffff\n  mul\n  not\n  and\n  swap1\n  dup4\n  0xffffffffffffffffffffffffffffffffffffffff\n  and\n  mul\n  or\n  swap1\n  sstore\n  pop\n    /* \"contracts/Events.sol\":57:4255  contract Events {... */\n  dataSize(sub_0)\n  dup1\n  dataOffset(sub_0)\n  0x00\n  codecopy\n  0x00\n  return\nstop\n\nsub_0: assembly {\n        /* \"contracts/Events.sol\":57:4255  contract Events {... */\n      mstore(0x40, 0x80)\n      callvalue\n      dup1\n      iszero\n      tag_1\n      jumpi\n      0x00\n      dup1\n      revert\n    tag_1:\n      pop\n      jumpi(tag_2, lt(calldatasize, 0x04))\n      shr(0xe0, calldataload(0x00))\n      dup1\n      0x8da5cb5b\n      gt\n      tag_10\n      jumpi\n      dup1\n      0x8da5cb5b\n      eq\n      tag_6\n      jumpi\n      dup1\n      0xa85c38ef\n      eq\n      tag_7\n      jumpi\n      dup1\n      0xc4eb8ded\n      eq\n      tag_8\n      jumpi\n      dup1\n      0xd59a1fce\n      eq\n      tag_9\n      jumpi\n      jump(tag_2)\n    tag_10:\n      dup1\n      0x394b4089\n      eq\n      tag_3\n      jumpi\n      dup1\n      0x3c540687\n      eq\n      tag_4\n      jumpi\n      dup1\n      0x529772b4\n      eq\n      tag_5\n      jumpi\n    tag_2:\n      0x00\n      dup1\n      revert\n        /* \"contracts/Events.sol\":1915:2573  function AdvanceOrder(uint256 _orderId) ... */\n    tag_3:\n      tag_11\n      0x04\n      dup1\n      calldatasize\n      sub\n      dup2\n      add\n      swap1\n      tag_12\n      swap2\n      swap1\n      tag_13\n      jump\t// in\n    tag_12:\n      tag_14\n      jump\t// in\n    tag_11:\n      stop\n        /* \"contracts/Events.sol\":666:688  uint256 public txCount */\n    tag_4:\n      tag_15\n      tag_16\n      jump\t// in\n    tag_15:\n      mload(0x40)\n      tag_17\n      swap2\n      swap1\n      tag_18\n      jump\t// in\n    tag_17:\n      mload(0x40)\n      dup1\n      swap2\n      sub\n      swap1\n      return\n        /* \"contracts/Events.sol\":2886:3189  function UpdateZip(uint256 _orderId, string memory _zip) checkOrderId(_orderId) onlyCustomer(_orderId) incTx external ... */\n    tag_5:\n      tag_19\n      0x04\n      dup1\n      calldatasize\n      sub\n      dup2\n      add\n      swap1\n      tag_20\n      swap2\n      swap1\n      tag_21\n      jump\t// in\n    tag_20:\n      tag_22\n      jump\t// in\n    tag_19:\n      stop\n        /* \"contracts/Events.sol\":606:626  address public owner */\n    tag_6:\n      tag_23\n      tag_24\n      jump\t// in\n    tag_23:\n      mload(0x40)\n      tag_25\n      swap2\n      swap1\n      tag_26\n      jump\t// in\n    tag_25:\n      mload(0x40)\n      dup1\n      swap2\n      sub\n      swap1\n      return\n        /* \"contracts/Events.sol\":550:571  Order[] public orders */\n    tag_7:\n      tag_27\n      0x04\n      dup1\n      calldatasize\n      sub\n      dup2\n      add\n      swap1\n      tag_28\n      swap2\n      swap1\n      tag_13\n      jump\t// in\n    tag_28:\n      tag_29\n      jump\t// in\n    tag_27:\n      mload(0x40)\n      tag_30\n      swap4\n      swap3\n      swap2\n      swap1\n      tag_31\n      jump\t// in\n    tag_30:\n      mload(0x40)\n      dup1\n      swap2\n      sub\n      swap1\n      return\n        /* \"contracts/Events.sol\":1260:1859  function CreateOrder(string memory _zipCode, uint256[] memory _products) checkProducts(_products) incTx external returns (uint256) ... */\n    tag_8:\n      tag_32\n      0x04\n      dup1\n      calldatasize\n      sub\n      dup2\n      add\n      swap1\n      tag_33\n      swap2\n      swap1\n      tag_34\n      jump\t// in\n    tag_33:\n      tag_35\n      jump\t// in\n    tag_32:\n      mload(0x40)\n      tag_36\n      swap2\n      swap1\n      tag_18\n      jump\t// in\n    tag_36:\n      mload(0x40)\n      dup1\n      swap2\n      sub\n      swap1\n      return\n        /* \"contracts/Events.sol\":2622:2829  function GetOrder(uint256 _orderId) ... */\n    tag_9:\n      tag_37\n      0x04\n      dup1\n      calldatasize\n      sub\n      dup2\n      add\n      swap1\n      tag_38\n      swap2\n      swap1\n      tag_13\n      jump\t// in\n    tag_38:\n      tag_39\n      jump\t// in\n    tag_37:\n      mload(0x40)\n      tag_40\n      swap2\n      swap1\n      tag_41\n      jump\t// in\n    tag_40:\n      mload(0x40)\n      dup1\n      swap2\n      sub\n      swap1\n      return\n        /* \"contracts/Events.sol\":1915:2573  function AdvanceOrder(uint256 _orderId) ... */\n    tag_14:\n        /* \"contracts/Events.sol\":1977:1985  _orderId */\n      dup1\n        /* \"contracts/Events.sol\":3529:3535  orders */\n      0x00\n        /* \"contracts/Events.sol\":3529:3542  orders.length */\n      dup1\n      sload\n      swap1\n      pop\n        /* \"contracts/Events.sol\":3518:3526  _orderId */\n      dup2\n        /* \"contracts/Events.sol\":3518:3542  _orderId < orders.length */\n      lt\n        /* \"contracts/Events.sol\":3510:3568  require(_orderId < orders.length, \"Not a valid order id.\") */\n      tag_43\n      jumpi\n      mload(0x40)\n      0x08c379a000000000000000000000000000000000000000000000000000000000\n      dup2\n      mstore\n      0x04\n      add\n      tag_44\n      swap1\n      tag_45\n      jump\t// in\n    tag_44:\n      mload(0x40)\n      dup1\n      swap2\n      sub\n      swap1\n      revert\n    tag_43:\n        /* \"contracts/Events.sol\":3903:3913  msg.sender */\n      caller\n        /* \"contracts/Events.sol\":3894:3913  owner == msg.sender */\n      0xffffffffffffffffffffffffffffffffffffffff\n      and\n        /* \"contracts/Events.sol\":3894:3899  owner */\n      0x01\n      0x00\n      swap1\n      sload\n      swap1\n      0x0100\n      exp\n      swap1\n      div\n      0xffffffffffffffffffffffffffffffffffffffff\n      and\n        /* \"contracts/Events.sol\":3894:3913  owner == msg.sender */\n      0xffffffffffffffffffffffffffffffffffffffff\n      and\n      eq\n        /* \"contracts/Events.sol\":3886:3940  require(owner == msg.sender, \"You are not authorized\") */\n      tag_47\n      jumpi\n      mload(0x40)\n      0x08c379a000000000000000000000000000000000000000000000000000000000\n      dup2\n      mstore\n      0x04\n      add\n      tag_48\n      swap1\n      tag_49\n      jump\t// in\n    tag_48:\n      mload(0x40)\n      dup1\n      swap2\n      sub\n      swap1\n      revert\n    tag_47:\n        /* \"contracts/Events.sol\":2037:2056  Order storage order */\n      0x00\n        /* \"contracts/Events.sol\":2059:2065  orders */\n      dup1\n        /* \"contracts/Events.sol\":2066:2074  _orderId */\n      dup4\n        /* \"contracts/Events.sol\":2059:2075  orders[_orderId] */\n      dup2\n      sload\n      dup2\n      lt\n      tag_51\n      jumpi\n      tag_52\n      tag_53\n      jump\t// in\n    tag_52:\n    tag_51:\n      swap1\n      0x00\n      mstore\n      keccak256(0x00, 0x20)\n      swap1\n      0x04\n      mul\n      add\n        /* \"contracts/Events.sol\":2037:2075  Order storage order = orders[_orderId] */\n      swap1\n      pop\n        /* \"contracts/Events.sol\":2140:2154  Status.Shipped */\n      0x03\n        /* \"contracts/Events.sol\":2124:2154  order.status != Status.Shipped */\n      dup1\n      dup2\n      gt\n      iszero\n      tag_55\n      jumpi\n      tag_56\n      tag_57\n      jump\t// in\n    tag_56:\n    tag_55:\n        /* \"contracts/Events.sol\":2124:2129  order */\n      dup2\n        /* \"contracts/Events.sol\":2124:2136  order.status */\n      0x03\n      add\n      0x00\n      swap1\n      sload\n      swap1\n      0x0100\n      exp\n      swap1\n      div\n      0xff\n      and\n        /* \"contracts/Events.sol\":2124:2154  order.status != Status.Shipped */\n      0x03\n      dup2\n      gt\n      iszero\n      tag_58\n      jumpi\n      tag_59\n      tag_57\n      jump\t// in\n    tag_59:\n    tag_58:\n      sub\n        /* \"contracts/Events.sol\":2116:2184  require(order.status != Status.Shipped, \"Order is already shipped.\") */\n      tag_60\n      jumpi\n      mload(0x40)\n      0x08c379a000000000000000000000000000000000000000000000000000000000\n      dup2\n      mstore\n      0x04\n      add\n      tag_61\n      swap1\n      tag_62\n      jump\t// in\n    tag_61:\n      mload(0x40)\n      dup1\n      swap2\n      sub\n      swap1\n      revert\n    tag_60:\n        /* \"contracts/Events.sol\":2307:2319  Status.Taken */\n      0x00\n        /* \"contracts/Events.sol\":2291:2319  order.status == Status.Taken */\n      0x03\n      dup2\n      gt\n      iszero\n      tag_63\n      jumpi\n      tag_64\n      tag_57\n      jump\t// in\n    tag_64:\n    tag_63:\n        /* \"contracts/Events.sol\":2291:2296  order */\n      dup2\n        /* \"contracts/Events.sol\":2291:2303  order.status */\n      0x03\n      add\n      0x00\n      swap1\n      sload\n      swap1\n      0x0100\n      exp\n      swap1\n      div\n      0xff\n      and\n        /* \"contracts/Events.sol\":2291:2319  order.status == Status.Taken */\n      0x03\n      dup2\n      gt\n      iszero\n      tag_65\n      jumpi\n      tag_66\n      tag_57\n      jump\t// in\n    tag_66:\n    tag_65:\n      sub\n        /* \"contracts/Events.sol\":2287:2567  if (order.status == Status.Taken) {... */\n      tag_67\n      jumpi\n        /* \"contracts/Events.sol\":2350:2366  Status.Preparing */\n      0x01\n        /* \"contracts/Events.sol\":2335:2340  order */\n      dup2\n        /* \"contracts/Events.sol\":2335:2347  order.status */\n      0x03\n      add\n      0x00\n        /* \"contracts/Events.sol\":2335:2366  order.status = Status.Preparing */\n      0x0100\n      exp\n      dup2\n      sload\n      dup2\n      0xff\n      mul\n      not\n      and\n      swap1\n      dup4\n      0x03\n      dup2\n      gt\n      iszero\n      tag_68\n      jumpi\n      tag_69\n      tag_57\n      jump\t// in\n    tag_69:\n    tag_68:\n      mul\n      or\n      swap1\n      sstore\n      pop\n        /* \"contracts/Events.sol\":2287:2567  if (order.status == Status.Taken) {... */\n      jump(tag_70)\n    tag_67:\n        /* \"contracts/Events.sol\":2403:2419  Status.Preparing */\n      0x01\n        /* \"contracts/Events.sol\":2387:2419  order.status == Status.Preparing */\n      0x03\n      dup2\n      gt\n      iszero\n      tag_71\n      jumpi\n      tag_72\n      tag_57\n      jump\t// in\n    tag_72:\n    tag_71:\n        /* \"contracts/Events.sol\":2387:2392  order */\n      dup2\n        /* \"contracts/Events.sol\":2387:2399  order.status */\n      0x03\n      add\n      0x00\n      swap1\n      sload\n      swap1\n      0x0100\n      exp\n      swap1\n      div\n      0xff\n      and\n        /* \"contracts/Events.sol\":2387:2419  order.status == Status.Preparing */\n      0x03\n      dup2\n      gt\n      iszero\n      tag_73\n      jumpi\n      tag_74\n      tag_57\n      jump\t// in\n    tag_74:\n    tag_73:\n      sub\n        /* \"contracts/Events.sol\":2383:2567  if (order.status == Status.Preparing) {... */\n      tag_75\n      jumpi\n        /* \"contracts/Events.sol\":2450:2462  Status.Boxed */\n      0x02\n        /* \"contracts/Events.sol\":2435:2440  order */\n      dup2\n        /* \"contracts/Events.sol\":2435:2447  order.status */\n      0x03\n      add\n      0x00\n        /* \"contracts/Events.sol\":2435:2462  order.status = Status.Boxed */\n      0x0100\n      exp\n      dup2\n      sload\n      dup2\n      0xff\n      mul\n      not\n      and\n      swap1\n      dup4\n      0x03\n      dup2\n      gt\n      iszero\n      tag_76\n      jumpi\n      tag_77\n      tag_57\n      jump\t// in\n    tag_77:\n    tag_76:\n      mul\n      or\n      swap1\n      sstore\n      pop\n        /* \"contracts/Events.sol\":2383:2567  if (order.status == Status.Preparing) {... */\n      jump(tag_78)\n    tag_75:\n        /* \"contracts/Events.sol\":2499:2511  Status.Boxed */\n      0x02\n        /* \"contracts/Events.sol\":2483:2511  order.status == Status.Boxed */\n      0x03\n      dup2\n      gt\n      iszero\n      tag_79\n      jumpi\n      tag_80\n      tag_57\n      jump\t// in\n    tag_80:\n    tag_79:\n        /* \"contracts/Events.sol\":2483:2488  order */\n      dup2\n        /* \"contracts/Events.sol\":2483:2495  order.status */\n      0x03\n      add\n      0x00\n      swap1\n      sload\n      swap1\n      0x0100\n      exp\n      swap1\n      div\n      0xff\n      and\n        /* \"contracts/Events.sol\":2483:2511  order.status == Status.Boxed */\n      0x03\n      dup2\n      gt\n      iszero\n      tag_81\n      jumpi\n      tag_82\n      tag_57\n      jump\t// in\n    tag_82:\n    tag_81:\n      sub\n        /* \"contracts/Events.sol\":2479:2567  if (order.status == Status.Boxed) {... */\n      tag_83\n      jumpi\n        /* \"contracts/Events.sol\":2542:2556  Status.Shipped */\n      0x03\n        /* \"contracts/Events.sol\":2527:2532  order */\n      dup2\n        /* \"contracts/Events.sol\":2527:2539  order.status */\n      0x03\n      add\n      0x00\n        /* \"contracts/Events.sol\":2527:2556  order.status = Status.Shipped */\n      0x0100\n      exp\n      dup2\n      sload\n      dup2\n      0xff\n      mul\n      not\n      and\n      swap1\n      dup4\n      0x03\n      dup2\n      gt\n      iszero\n      tag_84\n      jumpi\n      tag_85\n      tag_57\n      jump\t// in\n    tag_85:\n    tag_84:\n      mul\n      or\n      swap1\n      sstore\n      pop\n        /* \"contracts/Events.sol\":2479:2567  if (order.status == Status.Boxed) {... */\n    tag_83:\n        /* \"contracts/Events.sol\":2383:2567  if (order.status == Status.Preparing) {... */\n    tag_78:\n        /* \"contracts/Events.sol\":2287:2567  if (order.status == Status.Taken) {... */\n    tag_70:\n        /* \"contracts/Events.sol\":2027:2573  {... */\n      pop\n        /* \"contracts/Events.sol\":1915:2573  function AdvanceOrder(uint256 _orderId) ... */\n      pop\n      pop\n      jump\t// out\n        /* \"contracts/Events.sol\":666:688  uint256 public txCount */\n    tag_16:\n      sload(0x02)\n      dup2\n      jump\t// out\n        /* \"contracts/Events.sol\":2886:3189  function UpdateZip(uint256 _orderId, string memory _zip) checkOrderId(_orderId) onlyCustomer(_orderId) incTx external ... */\n    tag_22:\n        /* \"contracts/Events.sol\":2956:2964  _orderId */\n      dup2\n        /* \"contracts/Events.sol\":3529:3535  orders */\n      0x00\n        /* \"contracts/Events.sol\":3529:3542  orders.length */\n      dup1\n      sload\n      swap1\n      pop\n        /* \"contracts/Events.sol\":3518:3526  _orderId */\n      dup2\n        /* \"contracts/Events.sol\":3518:3542  _orderId < orders.length */\n      lt\n        /* \"contracts/Events.sol\":3510:3568  require(_orderId < orders.length, \"Not a valid order id.\") */\n      tag_87\n      jumpi\n      mload(0x40)\n      0x08c379a000000000000000000000000000000000000000000000000000000000\n      dup2\n      mstore\n      0x04\n      add\n      tag_88\n      swap1\n      tag_45\n      jump\t// in\n    tag_88:\n      mload(0x40)\n      dup1\n      swap2\n      sub\n      swap1\n      revert\n    tag_87:\n        /* \"contracts/Events.sol\":2979:2987  _orderId */\n      dup3\n        /* \"contracts/Events.sol\":4149:4159  msg.sender */\n      caller\n        /* \"contracts/Events.sol\":4120:4159  orders[_orderId].customer == msg.sender */\n      0xffffffffffffffffffffffffffffffffffffffff\n      and\n        /* \"contracts/Events.sol\":4120:4126  orders */\n      0x00\n        /* \"contracts/Events.sol\":4127:4135  _orderId */\n      dup3\n        /* \"contracts/Events.sol\":4120:4136  orders[_orderId] */\n      dup2\n      sload\n      dup2\n      lt\n      tag_90\n      jumpi\n      tag_91\n      tag_53\n      jump\t// in\n    tag_91:\n    tag_90:\n      swap1\n      0x00\n      mstore\n      keccak256(0x00, 0x20)\n      swap1\n      0x04\n      mul\n      add\n        /* \"contracts/Events.sol\":4120:4145  orders[_orderId].customer */\n      0x00\n      add\n      0x00\n      swap1\n      sload\n      swap1\n      0x0100\n      exp\n      swap1\n      div\n      0xffffffffffffffffffffffffffffffffffffffff\n      and\n        /* \"contracts/Events.sol\":4120:4159  orders[_orderId].customer == msg.sender */\n      0xffffffffffffffffffffffffffffffffffffffff\n      and\n      eq\n        /* \"contracts/Events.sol\":4112:4199  require(orders[_orderId].customer == msg.sender, \"You are not the owner of the order.\") */\n      tag_93\n      jumpi\n      mload(0x40)\n      0x08c379a000000000000000000000000000000000000000000000000000000000\n      dup2\n      mstore\n      0x04\n      add\n      tag_94\n      swap1\n      tag_95\n      jump\t// in\n    tag_94:\n      mload(0x40)\n      dup1\n      swap2\n      sub\n      swap1\n      revert\n    tag_93:\n        /* \"contracts/Events.sol\":3019:3038  Order storage order */\n      0x00\n        /* \"contracts/Events.sol\":3041:3047  orders */\n      dup1\n        /* \"contracts/Events.sol\":3048:3056  _orderId */\n      dup6\n        /* \"contracts/Events.sol\":3041:3057  orders[_orderId] */\n      dup2\n      sload\n      dup2\n      lt\n      tag_98\n      jumpi\n      tag_99\n      tag_53\n      jump\t// in\n    tag_99:\n    tag_98:\n      swap1\n      0x00\n      mstore\n      keccak256(0x00, 0x20)\n      swap1\n      0x04\n      mul\n      add\n        /* \"contracts/Events.sol\":3019:3057  Order storage order = orders[_orderId] */\n      swap1\n      pop\n        /* \"contracts/Events.sol\":3113:3117  _zip */\n      dup4\n        /* \"contracts/Events.sol\":3097:3102  order */\n      dup2\n        /* \"contracts/Events.sol\":3097:3110  order.ZipCode */\n      0x01\n      add\n        /* \"contracts/Events.sol\":3097:3117  order.ZipCode = _zip */\n      swap1\n      dup2\n      tag_101\n      swap2\n      swap1\n      tag_102\n      jump\t// in\n    tag_101:\n      pop\n        /* \"contracts/Events.sol\":3156:3182  ZipChanged(_orderId, _zip) */\n      0xb635342fc0739647e3ead9d8554f699ce14329ff69a3c75fce31ba5131c4e1cd\n        /* \"contracts/Events.sol\":3167:3175  _orderId */\n      dup6\n        /* \"contracts/Events.sol\":3177:3181  _zip */\n      dup6\n        /* \"contracts/Events.sol\":3156:3182  ZipChanged(_orderId, _zip) */\n      mload(0x40)\n      tag_103\n      swap3\n      swap2\n      swap1\n      tag_104\n      jump\t// in\n    tag_103:\n      mload(0x40)\n      dup1\n      swap2\n      sub\n      swap1\n      log1\n        /* \"contracts/Events.sol\":3009:3189  {... */\n      pop\n        /* \"contracts/Events.sol\":3755:3762  txCount */\n      0x02\n      0x00\n        /* \"contracts/Events.sol\":3755:3764  txCount++ */\n      dup2\n      sload\n      dup1\n      swap3\n      swap2\n      swap1\n      tag_105\n      swap1\n      tag_106\n      jump\t// in\n    tag_105:\n      swap2\n      swap1\n      pop\n      sstore\n      pop\n        /* \"contracts/Events.sol\":3608:3609  _ */\n      pop\n        /* \"contracts/Events.sol\":2886:3189  function UpdateZip(uint256 _orderId, string memory _zip) checkOrderId(_orderId) onlyCustomer(_orderId) incTx external ... */\n      pop\n      pop\n      pop\n      jump\t// out\n        /* \"contracts/Events.sol\":606:626  address public owner */\n    tag_24:\n      0x01\n      0x00\n      swap1\n      sload\n      swap1\n      0x0100\n      exp\n      swap1\n      div\n      0xffffffffffffffffffffffffffffffffffffffff\n      and\n      dup2\n      jump\t// out\n        /* \"contracts/Events.sol\":550:571  Order[] public orders */\n    tag_29:\n      0x00\n      dup2\n      dup2\n      sload\n      dup2\n      lt\n      tag_107\n      jumpi\n      0x00\n      dup1\n      revert\n    tag_107:\n      swap1\n      0x00\n      mstore\n      keccak256(0x00, 0x20)\n      swap1\n      0x04\n      mul\n      add\n      0x00\n      swap2\n      pop\n      swap1\n      pop\n      dup1\n      0x00\n      add\n      0x00\n      swap1\n      sload\n      swap1\n      0x0100\n      exp\n      swap1\n      div\n      0xffffffffffffffffffffffffffffffffffffffff\n      and\n      swap1\n      dup1\n      0x01\n      add\n      dup1\n      sload\n      tag_109\n      swap1\n      tag_110\n      jump\t// in\n    tag_109:\n      dup1\n      0x1f\n      add\n      0x20\n      dup1\n      swap2\n      div\n      mul\n      0x20\n      add\n      mload(0x40)\n      swap1\n      dup2\n      add\n      0x40\n      mstore\n      dup1\n      swap3\n      swap2\n      swap1\n      dup2\n      dup2\n      mstore\n      0x20\n      add\n      dup3\n      dup1\n      sload\n      tag_111\n      swap1\n      tag_110\n      jump\t// in\n    tag_111:\n      dup1\n      iszero\n      tag_112\n      jumpi\n      dup1\n      0x1f\n      lt\n      tag_113\n      jumpi\n      0x0100\n      dup1\n      dup4\n      sload\n      div\n      mul\n      dup4\n      mstore\n      swap2\n      0x20\n      add\n      swap2\n      jump(tag_112)\n    tag_113:\n      dup3\n      add\n      swap2\n      swap1\n      0x00\n      mstore\n      keccak256(0x00, 0x20)\n      swap1\n    tag_114:\n      dup2\n      sload\n      dup2\n      mstore\n      swap1\n      0x01\n      add\n      swap1\n      0x20\n      add\n      dup1\n      dup4\n      gt\n      tag_114\n      jumpi\n      dup3\n      swap1\n      sub\n      0x1f\n      and\n      dup3\n      add\n      swap2\n    tag_112:\n      pop\n      pop\n      pop\n      pop\n      pop\n      swap1\n      dup1\n      0x03\n      add\n      0x00\n      swap1\n      sload\n      swap1\n      0x0100\n      exp\n      swap1\n      div\n      0xff\n      and\n      swap1\n      pop\n      dup4\n      jump\t// out\n        /* \"contracts/Events.sol\":1260:1859  function CreateOrder(string memory _zipCode, uint256[] memory _products) checkProducts(_products) incTx external returns (uint256) ... */\n    tag_35:\n        /* \"contracts/Events.sol\":1382:1389  uint256 */\n      0x00\n        /* \"contracts/Events.sol\":1347:1356  _products */\n      dup2\n        /* \"contracts/Events.sol\":3337:3338  0 */\n      0x00\n        /* \"contracts/Events.sol\":3318:3327  _products */\n      dup2\n        /* \"contracts/Events.sol\":3318:3334  _products.length */\n      mload\n        /* \"contracts/Events.sol\":3318:3338  _products.length > 0 */\n      gt\n        /* \"contracts/Events.sol\":3310:3355  require(_products.length > 0, \"No products.\") */\n      tag_116\n      jumpi\n      mload(0x40)\n      0x08c379a000000000000000000000000000000000000000000000000000000000\n      dup2\n      mstore\n      0x04\n      add\n      tag_117\n      swap1\n      tag_118\n      jump\t// in\n    tag_117:\n      mload(0x40)\n      dup1\n      swap2\n      sub\n      swap1\n      revert\n    tag_116:\n        /* \"contracts/Events.sol\":1406:1424  Order memory order */\n      tag_121\n      tag_122\n      jump\t// in\n    tag_121:\n        /* \"contracts/Events.sol\":1528:1538  msg.sender */\n      caller\n        /* \"contracts/Events.sol\":1511:1516  order */\n      dup2\n        /* \"contracts/Events.sol\":1511:1525  order.customer */\n      0x00\n      add\n        /* \"contracts/Events.sol\":1511:1538  order.customer = msg.sender */\n      swap1\n      0xffffffffffffffffffffffffffffffffffffffff\n      and\n      swap1\n      dup2\n      0xffffffffffffffffffffffffffffffffffffffff\n      and\n      dup2\n      mstore\n      pop\n      pop\n        /* \"contracts/Events.sol\":1564:1572  _zipCode */\n      dup5\n        /* \"contracts/Events.sol\":1548:1553  order */\n      dup2\n        /* \"contracts/Events.sol\":1548:1561  order.ZipCode */\n      0x20\n      add\n        /* \"contracts/Events.sol\":1548:1572  order.ZipCode = _zipCode */\n      dup2\n      swap1\n      mstore\n      pop\n        /* \"contracts/Events.sol\":1599:1608  _products */\n      dup4\n        /* \"contracts/Events.sol\":1582:1587  order */\n      dup2\n        /* \"contracts/Events.sol\":1582:1596  order.products */\n      0x40\n      add\n        /* \"contracts/Events.sol\":1582:1608  order.products = _products */\n      dup2\n      swap1\n      mstore\n      pop\n        /* \"contracts/Events.sol\":1633:1645  Status.Taken */\n      0x00\n        /* \"contracts/Events.sol\":1618:1623  order */\n      dup2\n        /* \"contracts/Events.sol\":1618:1630  order.status */\n      0x60\n      add\n        /* \"contracts/Events.sol\":1618:1645  order.status = Status.Taken */\n      swap1\n      0x03\n      dup2\n      gt\n      iszero\n      tag_123\n      jumpi\n      tag_124\n      tag_57\n      jump\t// in\n    tag_124:\n    tag_123:\n      swap1\n      dup2\n      0x03\n      dup2\n      gt\n      iszero\n      tag_125\n      jumpi\n      tag_126\n      tag_57\n      jump\t// in\n    tag_126:\n    tag_125:\n      dup2\n      mstore\n      pop\n      pop\n        /* \"contracts/Events.sol\":1656:1662  orders */\n      0x00\n        /* \"contracts/Events.sol\":1668:1673  order */\n      dup2\n        /* \"contracts/Events.sol\":1656:1674  orders.push(order) */\n      swap1\n      dup1\n      0x01\n      dup2\n      sload\n      add\n      dup1\n      dup3\n      sstore\n      dup1\n      swap2\n      pop\n      pop\n      0x01\n      swap1\n      sub\n      swap1\n      0x00\n      mstore\n      keccak256(0x00, 0x20)\n      swap1\n      0x04\n      mul\n      add\n      0x00\n      swap1\n      swap2\n      swap1\n      swap2\n      swap1\n      swap2\n      pop\n      0x00\n      dup3\n      add\n      mload\n      dup2\n      0x00\n      add\n      exp(0x0100, 0x00)\n      dup2\n      sload\n      dup2\n      0xffffffffffffffffffffffffffffffffffffffff\n      mul\n      not\n      and\n      swap1\n      dup4\n      0xffffffffffffffffffffffffffffffffffffffff\n      and\n      mul\n      or\n      swap1\n      sstore\n      pop\n      0x20\n      dup3\n      add\n      mload\n      dup2\n      0x01\n      add\n      swap1\n      dup2\n      tag_128\n      swap2\n      swap1\n      tag_102\n      jump\t// in\n    tag_128:\n      pop\n      0x40\n      dup3\n      add\n      mload\n      dup2\n      0x02\n      add\n      swap1\n      dup1\n      mload\n      swap1\n      0x20\n      add\n      swap1\n      tag_129\n      swap3\n      swap2\n      swap1\n      tag_130\n      jump\t// in\n    tag_129:\n      pop\n      0x60\n      dup3\n      add\n      mload\n      dup2\n      0x03\n      add\n      exp(0x0100, 0x00)\n      dup2\n      sload\n      dup2\n      0xff\n      mul\n      not\n      and\n      swap1\n      dup4\n      0x03\n      dup2\n      gt\n      iszero\n      tag_131\n      jumpi\n      tag_132\n      tag_57\n      jump\t// in\n    tag_132:\n    tag_131:\n      mul\n      or\n      swap1\n      sstore\n      pop\n      pop\n      pop\n        /* \"contracts/Events.sol\":1765:1775  msg.sender */\n      caller\n        /* \"contracts/Events.sol\":1733:1776  OrderCreated(orders.length - 1, msg.sender) */\n      0xffffffffffffffffffffffffffffffffffffffff\n      and\n      0x4ceaea0569072c9203c8c195ffccdbca9851b9d0410f577878a6792f12ec9b52\n        /* \"contracts/Events.sol\":1762:1763  1 */\n      0x01\n        /* \"contracts/Events.sol\":1746:1752  orders */\n      0x00\n        /* \"contracts/Events.sol\":1746:1759  orders.length */\n      dup1\n      sload\n      swap1\n      pop\n        /* \"contracts/Events.sol\":1746:1763  orders.length - 1 */\n      tag_133\n      swap2\n      swap1\n      tag_134\n      jump\t// in\n    tag_133:\n        /* \"contracts/Events.sol\":1733:1776  OrderCreated(orders.length - 1, msg.sender) */\n      mload(0x40)\n      tag_135\n      swap2\n      swap1\n      tag_18\n      jump\t// in\n    tag_135:\n      mload(0x40)\n      dup1\n      swap2\n      sub\n      swap1\n      log2\n        /* \"contracts/Events.sol\":1810:1811  1 */\n      0x01\n        /* \"contracts/Events.sol\":1794:1800  orders */\n      0x00\n        /* \"contracts/Events.sol\":1794:1807  orders.length */\n      dup1\n      sload\n      swap1\n      pop\n        /* \"contracts/Events.sol\":1794:1811  orders.length - 1 */\n      tag_136\n      swap2\n      swap1\n      tag_134\n      jump\t// in\n    tag_136:\n        /* \"contracts/Events.sol\":1787:1811  return orders.length - 1 */\n      swap3\n      pop\n      pop\n        /* \"contracts/Events.sol\":3755:3762  txCount */\n      0x02\n      0x00\n        /* \"contracts/Events.sol\":3755:3764  txCount++ */\n      dup2\n      sload\n      dup1\n      swap3\n      swap2\n      swap1\n      tag_137\n      swap1\n      tag_106\n      jump\t// in\n    tag_137:\n      swap2\n      swap1\n      pop\n      sstore\n      pop\n        /* \"contracts/Events.sol\":1260:1859  function CreateOrder(string memory _zipCode, uint256[] memory _products) checkProducts(_products) incTx external returns (uint256) ... */\n      pop\n      swap3\n      swap2\n      pop\n      pop\n      jump\t// out\n        /* \"contracts/Events.sol\":2622:2829  function GetOrder(uint256 _orderId) ... */\n    tag_39:\n        /* \"contracts/Events.sol\":2740:2752  Order memory */\n      tag_138\n      tag_122\n      jump\t// in\n    tag_138:\n        /* \"contracts/Events.sol\":2680:2688  _orderId */\n      dup2\n        /* \"contracts/Events.sol\":3529:3535  orders */\n      0x00\n        /* \"contracts/Events.sol\":3529:3542  orders.length */\n      dup1\n      sload\n      swap1\n      pop\n        /* \"contracts/Events.sol\":3518:3526  _orderId */\n      dup2\n        /* \"contracts/Events.sol\":3518:3542  _orderId < orders.length */\n      lt\n        /* \"contracts/Events.sol\":3510:3568  require(_orderId < orders.length, \"Not a valid order id.\") */\n      tag_140\n      jumpi\n      mload(0x40)\n      0x08c379a000000000000000000000000000000000000000000000000000000000\n      dup2\n      mstore\n      0x04\n      add\n      tag_141\n      swap1\n      tag_45\n      jump\t// in\n    tag_141:\n      mload(0x40)\n      dup1\n      swap2\n      sub\n      swap1\n      revert\n    tag_140:\n        /* \"contracts/Events.sol\":2776:2782  orders */\n      0x00\n        /* \"contracts/Events.sol\":2783:2791  _orderId */\n      dup4\n        /* \"contracts/Events.sol\":2776:2792  orders[_orderId] */\n      dup2\n      sload\n      dup2\n      lt\n      tag_143\n      jumpi\n      tag_144\n      tag_53\n      jump\t// in\n    tag_144:\n    tag_143:\n      swap1\n      0x00\n      mstore\n      keccak256(0x00, 0x20)\n      swap1\n      0x04\n      mul\n      add\n        /* \"contracts/Events.sol\":2769:2792  return orders[_orderId] */\n      mload(0x40)\n      dup1\n      0x80\n      add\n      0x40\n      mstore\n      swap1\n      dup2\n      0x00\n      dup3\n      add\n      0x00\n      swap1\n      sload\n      swap1\n      0x0100\n      exp\n      swap1\n      div\n      0xffffffffffffffffffffffffffffffffffffffff\n      and\n      0xffffffffffffffffffffffffffffffffffffffff\n      and\n      0xffffffffffffffffffffffffffffffffffffffff\n      and\n      dup2\n      mstore\n      0x20\n      add\n      0x01\n      dup3\n      add\n      dup1\n      sload\n      tag_146\n      swap1\n      tag_110\n      jump\t// in\n    tag_146:\n      dup1\n      0x1f\n      add\n      0x20\n      dup1\n      swap2\n      div\n      mul\n      0x20\n      add\n      mload(0x40)\n      swap1\n      dup2\n      add\n      0x40\n      mstore\n      dup1\n      swap3\n      swap2\n      swap1\n      dup2\n      dup2\n      mstore\n      0x20\n      add\n      dup3\n      dup1\n      sload\n      tag_147\n      swap1\n      tag_110\n      jump\t// in\n    tag_147:\n      dup1\n      iszero\n      tag_148\n      jumpi\n      dup1\n      0x1f\n      lt\n      tag_149\n      jumpi\n      0x0100\n      dup1\n      dup4\n      sload\n      div\n      mul\n      dup4\n      mstore\n      swap2\n      0x20\n      add\n      swap2\n      jump(tag_148)\n    tag_149:\n      dup3\n      add\n      swap2\n      swap1\n      0x00\n      mstore\n      keccak256(0x00, 0x20)\n      swap1\n    tag_150:\n      dup2\n      sload\n      dup2\n      mstore\n      swap1\n      0x01\n      add\n      swap1\n      0x20\n      add\n      dup1\n      dup4\n      gt\n      tag_150\n      jumpi\n      dup3\n      swap1\n      sub\n      0x1f\n      and\n      dup3\n      add\n      swap2\n    tag_148:\n      pop\n      pop\n      pop\n      pop\n      pop\n      dup2\n      mstore\n      0x20\n      add\n      0x02\n      dup3\n      add\n      dup1\n      sload\n      dup1\n      0x20\n      mul\n      0x20\n      add\n      mload(0x40)\n      swap1\n      dup2\n      add\n      0x40\n      mstore\n      dup1\n      swap3\n      swap2\n      swap1\n      dup2\n      dup2\n      mstore\n      0x20\n      add\n      dup3\n      dup1\n      sload\n      dup1\n      iszero\n      tag_151\n      jumpi\n      0x20\n      mul\n      dup3\n      add\n      swap2\n      swap1\n      0x00\n      mstore\n      keccak256(0x00, 0x20)\n      swap1\n    tag_152:\n      dup2\n      sload\n      dup2\n      mstore\n      0x20\n      add\n      swap1\n      0x01\n      add\n      swap1\n      dup1\n      dup4\n      gt\n      tag_152\n      jumpi\n    tag_151:\n      pop\n      pop\n      pop\n      pop\n      pop\n      dup2\n      mstore\n      0x20\n      add\n      0x03\n      dup3\n      add\n      0x00\n      swap1\n      sload\n      swap1\n      0x0100\n      exp\n      swap1\n      div\n      0xff\n      and\n      0x03\n      dup2\n      gt\n      iszero\n      tag_153\n      jumpi\n      tag_154\n      tag_57\n      jump\t// in\n    tag_154:\n    tag_153:\n      0x03\n      dup2\n      gt\n      iszero\n      tag_155\n      jumpi\n      tag_156\n      tag_57\n      jump\t// in\n    tag_156:\n    tag_155:\n      dup2\n      mstore\n      pop\n      pop\n      swap2\n      pop\n        /* \"contracts/Events.sol\":2622:2829  function GetOrder(uint256 _orderId) ... */\n      pop\n      swap2\n      swap1\n      pop\n      jump\t// out\n    tag_122:\n      mload(0x40)\n      dup1\n      0x80\n      add\n      0x40\n      mstore\n      dup1\n      and(0xffffffffffffffffffffffffffffffffffffffff, 0x00)\n      dup2\n      mstore\n      0x20\n      add\n      0x60\n      dup2\n      mstore\n      0x20\n      add\n      0x60\n      dup2\n      mstore\n      0x20\n      add\n      0x00\n      0x03\n      dup2\n      gt\n      iszero\n      tag_157\n      jumpi\n      tag_158\n      tag_57\n      jump\t// in\n    tag_158:\n    tag_157:\n      dup2\n      mstore\n      pop\n      swap1\n      jump\t// out\n    tag_130:\n      dup3\n      dup1\n      sload\n      dup3\n      dup3\n      sstore\n      swap1\n      0x00\n      mstore\n      keccak256(0x00, 0x20)\n      swap1\n      dup2\n      add\n      swap3\n      dup3\n      iszero\n      tag_159\n      jumpi\n      swap2\n      0x20\n      mul\n      dup3\n      add\n    tag_160:\n      dup3\n      dup2\n      gt\n      iszero\n      tag_161\n      jumpi\n      dup3\n      mload\n      dup3\n      sstore\n      swap2\n      0x20\n      add\n      swap2\n      swap1\n      0x01\n      add\n      swap1\n      jump(tag_160)\n    tag_161:\n    tag_159:\n      pop\n      swap1\n      pop\n      tag_162\n      swap2\n      swap1\n      tag_163\n      jump\t// in\n    tag_162:\n      pop\n      swap1\n      jump\t// out\n    tag_163:\n    tag_164:\n      dup1\n      dup3\n      gt\n      iszero\n      tag_165\n      jumpi\n      0x00\n      dup2\n      0x00\n      swap1\n      sstore\n      pop\n      0x01\n      add\n      jump(tag_164)\n    tag_165:\n      pop\n      swap1\n      jump\t// out\n        /* \"#utility.yul\":7:82   */\n    tag_166:\n        /* \"#utility.yul\":40:46   */\n      0x00\n        /* \"#utility.yul\":73:75   */\n      0x40\n        /* \"#utility.yul\":67:76   */\n      mload\n        /* \"#utility.yul\":57:76   */\n      swap1\n      pop\n        /* \"#utility.yul\":7:82   */\n      swap1\n      jump\t// out\n        /* \"#utility.yul\":88:205   */\n    tag_167:\n        /* \"#utility.yul\":197:198   */\n      0x00\n        /* \"#utility.yul\":194:195   */\n      dup1\n        /* \"#utility.yul\":187:199   */\n      revert\n        /* \"#utility.yul\":211:328   */\n    tag_168:\n        /* \"#utility.yul\":320:321   */\n      0x00\n        /* \"#utility.yul\":317:318   */\n      dup1\n        /* \"#utility.yul\":310:322   */\n      revert\n        /* \"#utility.yul\":334:411   */\n    tag_169:\n        /* \"#utility.yul\":371:378   */\n      0x00\n        /* \"#utility.yul\":400:405   */\n      dup2\n        /* \"#utility.yul\":389:405   */\n      swap1\n      pop\n        /* \"#utility.yul\":334:411   */\n      swap2\n      swap1\n      pop\n      jump\t// out\n        /* \"#utility.yul\":417:539   */\n    tag_170:\n        /* \"#utility.yul\":490:514   */\n      tag_243\n        /* \"#utility.yul\":508:513   */\n      dup2\n        /* \"#utility.yul\":490:514   */\n      tag_169\n      jump\t// in\n    tag_243:\n        /* \"#utility.yul\":483:488   */\n      dup2\n        /* \"#utility.yul\":480:515   */\n      eq\n        /* \"#utility.yul\":470:533   */\n      tag_244\n      jumpi\n        /* \"#utility.yul\":529:530   */\n      0x00\n        /* \"#utility.yul\":526:527   */\n      dup1\n        /* \"#utility.yul\":519:531   */\n      revert\n        /* \"#utility.yul\":470:533   */\n    tag_244:\n        /* \"#utility.yul\":417:539   */\n      pop\n      jump\t// out\n        /* \"#utility.yul\":545:684   */\n    tag_171:\n        /* \"#utility.yul\":591:596   */\n      0x00\n        /* \"#utility.yul\":629:635   */\n      dup2\n        /* \"#utility.yul\":616:636   */\n      calldataload\n        /* \"#utility.yul\":607:636   */\n      swap1\n      pop\n        /* \"#utility.yul\":645:678   */\n      tag_246\n        /* \"#utility.yul\":672:677   */\n      dup2\n        /* \"#utility.yul\":645:678   */\n      tag_170\n      jump\t// in\n    tag_246:\n        /* \"#utility.yul\":545:684   */\n      swap3\n      swap2\n      pop\n      pop\n      jump\t// out\n        /* \"#utility.yul\":690:1019   */\n    tag_13:\n        /* \"#utility.yul\":749:755   */\n      0x00\n        /* \"#utility.yul\":798:800   */\n      0x20\n        /* \"#utility.yul\":786:795   */\n      dup3\n        /* \"#utility.yul\":777:784   */\n      dup5\n        /* \"#utility.yul\":773:796   */\n      sub\n        /* \"#utility.yul\":769:801   */\n      slt\n        /* \"#utility.yul\":766:885   */\n      iszero\n      tag_248\n      jumpi\n        /* \"#utility.yul\":804:883   */\n      tag_249\n      tag_167\n      jump\t// in\n    tag_249:\n        /* \"#utility.yul\":766:885   */\n    tag_248:\n        /* \"#utility.yul\":924:925   */\n      0x00\n        /* \"#utility.yul\":949:1002   */\n      tag_250\n        /* \"#utility.yul\":994:1001   */\n      dup5\n        /* \"#utility.yul\":985:991   */\n      dup3\n        /* \"#utility.yul\":974:983   */\n      dup6\n        /* \"#utility.yul\":970:992   */\n      add\n        /* \"#utility.yul\":949:1002   */\n      tag_171\n      jump\t// in\n    tag_250:\n        /* \"#utility.yul\":939:1002   */\n      swap2\n      pop\n        /* \"#utility.yul\":895:1012   */\n      pop\n        /* \"#utility.yul\":690:1019   */\n      swap3\n      swap2\n      pop\n      pop\n      jump\t// out\n        /* \"#utility.yul\":1025:1143   */\n    tag_172:\n        /* \"#utility.yul\":1112:1136   */\n      tag_252\n        /* \"#utility.yul\":1130:1135   */\n      dup2\n        /* \"#utility.yul\":1112:1136   */\n      tag_169\n      jump\t// in\n    tag_252:\n        /* \"#utility.yul\":1107:1110   */\n      dup3\n        /* \"#utility.yul\":1100:1137   */\n      mstore\n        /* \"#utility.yul\":1025:1143   */\n      pop\n      pop\n      jump\t// out\n        /* \"#utility.yul\":1149:1371   */\n    tag_18:\n        /* \"#utility.yul\":1242:1246   */\n      0x00\n        /* \"#utility.yul\":1280:1282   */\n      0x20\n        /* \"#utility.yul\":1269:1278   */\n      dup3\n        /* \"#utility.yul\":1265:1283   */\n      add\n        /* \"#utility.yul\":1257:1283   */\n      swap1\n      pop\n        /* \"#utility.yul\":1293:1364   */\n      tag_254\n        /* \"#utility.yul\":1361:1362   */\n      0x00\n        /* \"#utility.yul\":1350:1359   */\n      dup4\n        /* \"#utility.yul\":1346:1363   */\n      add\n        /* \"#utility.yul\":1337:1343   */\n      dup5\n        /* \"#utility.yul\":1293:1364   */\n      tag_172\n      jump\t// in\n    tag_254:\n        /* \"#utility.yul\":1149:1371   */\n      swap3\n      swap2\n      pop\n      pop\n      jump\t// out\n        /* \"#utility.yul\":1377:1494   */\n    tag_173:\n        /* \"#utility.yul\":1486:1487   */\n      0x00\n        /* \"#utility.yul\":1483:1484   */\n      dup1\n        /* \"#utility.yul\":1476:1488   */\n      revert\n        /* \"#utility.yul\":1500:1617   */\n    tag_174:\n        /* \"#utility.yul\":1609:1610   */\n      0x00\n        /* \"#utility.yul\":1606:1607   */\n      dup1\n        /* \"#utility.yul\":1599:1611   */\n      revert\n        /* \"#utility.yul\":1623:1725   */\n    tag_175:\n        /* \"#utility.yul\":1664:1670   */\n      0x00\n        /* \"#utility.yul\":1715:1717   */\n      0x1f\n        /* \"#utility.yul\":1711:1718   */\n      not\n        /* \"#utility.yul\":1706:1708   */\n      0x1f\n        /* \"#utility.yul\":1699:1704   */\n      dup4\n        /* \"#utility.yul\":1695:1709   */\n      add\n        /* \"#utility.yul\":1691:1719   */\n      and\n        /* \"#utility.yul\":1681:1719   */\n      swap1\n      pop\n        /* \"#utility.yul\":1623:1725   */\n      swap2\n      swap1\n      pop\n      jump\t// out\n        /* \"#utility.yul\":1731:1911   */\n    tag_176:\n        /* \"#utility.yul\":1779:1856   */\n      0x4e487b7100000000000000000000000000000000000000000000000000000000\n        /* \"#utility.yul\":1776:1777   */\n      0x00\n        /* \"#utility.yul\":1769:1857   */\n      mstore\n        /* \"#utility.yul\":1876:1880   */\n      0x41\n        /* \"#utility.yul\":1873:1874   */\n      0x04\n        /* \"#utility.yul\":1866:1881   */\n      mstore\n        /* \"#utility.yul\":1900:1904   */\n      0x24\n        /* \"#utility.yul\":1897:1898   */\n      0x00\n        /* \"#utility.yul\":1890:1905   */\n      revert\n        /* \"#utility.yul\":1917:2198   */\n    tag_177:\n        /* \"#utility.yul\":2000:2027   */\n      tag_260\n        /* \"#utility.yul\":2022:2026   */\n      dup3\n        /* \"#utility.yul\":2000:2027   */\n      tag_175\n      jump\t// in\n    tag_260:\n        /* \"#utility.yul\":1992:1998   */\n      dup2\n        /* \"#utility.yul\":1988:2028   */\n      add\n        /* \"#utility.yul\":2130:2136   */\n      dup2\n        /* \"#utility.yul\":2118:2128   */\n      dup2\n        /* \"#utility.yul\":2115:2137   */\n      lt\n        /* \"#utility.yul\":2094:2112   */\n      0xffffffffffffffff\n        /* \"#utility.yul\":2082:2092   */\n      dup3\n        /* \"#utility.yul\":2079:2113   */\n      gt\n        /* \"#utility.yul\":2076:2138   */\n      or\n        /* \"#utility.yul\":2073:2161   */\n      iszero\n      tag_261\n      jumpi\n        /* \"#utility.yul\":2141:2159   */\n      tag_262\n      tag_176\n      jump\t// in\n    tag_262:\n        /* \"#utility.yul\":2073:2161   */\n    tag_261:\n        /* \"#utility.yul\":2181:2191   */\n      dup1\n        /* \"#utility.yul\":2177:2179   */\n      0x40\n        /* \"#utility.yul\":2170:2192   */\n      mstore\n        /* \"#utility.yul\":1960:2198   */\n      pop\n        /* \"#utility.yul\":1917:2198   */\n      pop\n      pop\n      jump\t// out\n        /* \"#utility.yul\":2204:2333   */\n    tag_178:\n        /* \"#utility.yul\":2238:2244   */\n      0x00\n        /* \"#utility.yul\":2265:2285   */\n      tag_264\n      tag_166\n      jump\t// in\n    tag_264:\n        /* \"#utility.yul\":2255:2285   */\n      swap1\n      pop\n        /* \"#utility.yul\":2294:2327   */\n      tag_265\n        /* \"#utility.yul\":2322:2326   */\n      dup3\n        /* \"#utility.yul\":2314:2320   */\n      dup3\n        /* \"#utility.yul\":2294:2327   */\n      tag_177\n      jump\t// in\n    tag_265:\n        /* \"#utility.yul\":2204:2333   */\n      swap2\n      swap1\n      pop\n      jump\t// out\n        /* \"#utility.yul\":2339:2647   */\n    tag_179:\n        /* \"#utility.yul\":2401:2405   */\n      0x00\n        /* \"#utility.yul\":2491:2509   */\n      0xffffffffffffffff\n        /* \"#utility.yul\":2483:2489   */\n      dup3\n        /* \"#utility.yul\":2480:2510   */\n      gt\n        /* \"#utility.yul\":2477:2533   */\n      iszero\n      tag_267\n      jumpi\n        /* \"#utility.yul\":2513:2531   */\n      tag_268\n      tag_176\n      jump\t// in\n    tag_268:\n        /* \"#utility.yul\":2477:2533   */\n    tag_267:\n        /* \"#utility.yul\":2551:2580   */\n      tag_269\n        /* \"#utility.yul\":2573:2579   */\n      dup3\n        /* \"#utility.yul\":2551:2580   */\n      tag_175\n      jump\t// in\n    tag_269:\n        /* \"#utility.yul\":2543:2580   */\n      swap1\n      pop\n        /* \"#utility.yul\":2635:2639   */\n      0x20\n        /* \"#utility.yul\":2629:2633   */\n      dup2\n        /* \"#utility.yul\":2625:2640   */\n      add\n        /* \"#utility.yul\":2617:2640   */\n      swap1\n      pop\n        /* \"#utility.yul\":2339:2647   */\n      swap2\n      swap1\n      pop\n      jump\t// out\n        /* \"#utility.yul\":2653:2801   */\n    tag_180:\n        /* \"#utility.yul\":2751:2757   */\n      dup3\n        /* \"#utility.yul\":2746:2749   */\n      dup2\n        /* \"#utility.yul\":2741:2744   */\n      dup4\n        /* \"#utility.yul\":2728:2758   */\n      calldatacopy\n        /* \"#utility.yul\":2792:2793   */\n      0x00\n        /* \"#utility.yul\":2783:2789   */\n      dup4\n        /* \"#utility.yul\":2778:2781   */\n      dup4\n        /* \"#utility.yul\":2774:2790   */\n      add\n        /* \"#utility.yul\":2767:2794   */\n      mstore\n        /* \"#utility.yul\":2653:2801   */\n      pop\n      pop\n      pop\n      jump\t// out\n        /* \"#utility.yul\":2807:3232   */\n    tag_181:\n        /* \"#utility.yul\":2885:2890   */\n      0x00\n        /* \"#utility.yul\":2910:2976   */\n      tag_272\n        /* \"#utility.yul\":2926:2975   */\n      tag_273\n        /* \"#utility.yul\":2968:2974   */\n      dup5\n        /* \"#utility.yul\":2926:2975   */\n      tag_179\n      jump\t// in\n    tag_273:\n        /* \"#utility.yul\":2910:2976   */\n      tag_178\n      jump\t// in\n    tag_272:\n        /* \"#utility.yul\":2901:2976   */\n      swap1\n      pop\n        /* \"#utility.yul\":2999:3005   */\n      dup3\n        /* \"#utility.yul\":2992:2997   */\n      dup2\n        /* \"#utility.yul\":2985:3006   */\n      mstore\n        /* \"#utility.yul\":3037:3041   */\n      0x20\n        /* \"#utility.yul\":3030:3035   */\n      dup2\n        /* \"#utility.yul\":3026:3042   */\n      add\n        /* \"#utility.yul\":3075:3078   */\n      dup5\n        /* \"#utility.yul\":3066:3072   */\n      dup5\n        /* \"#utility.yul\":3061:3064   */\n      dup5\n        /* \"#utility.yul\":3057:3073   */\n      add\n        /* \"#utility.yul\":3054:3079   */\n      gt\n        /* \"#utility.yul\":3051:3163   */\n      iszero\n      tag_274\n      jumpi\n        /* \"#utility.yul\":3082:3161   */\n      tag_275\n      tag_174\n      jump\t// in\n    tag_275:\n        /* \"#utility.yul\":3051:3163   */\n    tag_274:\n        /* \"#utility.yul\":3172:3226   */\n      tag_276\n        /* \"#utility.yul\":3219:3225   */\n      dup5\n        /* \"#utility.yul\":3214:3217   */\n      dup3\n        /* \"#utility.yul\":3209:3212   */\n      dup6\n        /* \"#utility.yul\":3172:3226   */\n      tag_180\n      jump\t// in\n    tag_276:\n        /* \"#utility.yul\":2891:3232   */\n      pop\n        /* \"#utility.yul\":2807:3232   */\n      swap4\n      swap3\n      pop\n      pop\n      pop\n      jump\t// out\n        /* \"#utility.yul\":3252:3592   */\n    tag_182:\n        /* \"#utility.yul\":3308:3313   */\n      0x00\n        /* \"#utility.yul\":3357:3360   */\n      dup3\n        /* \"#utility.yul\":3350:3354   */\n      0x1f\n        /* \"#utility.yul\":3342:3348   */\n      dup4\n        /* \"#utility.yul\":3338:3355   */\n      add\n        /* \"#utility.yul\":3334:3361   */\n      slt\n        /* \"#utility.yul\":3324:3446   */\n      tag_278\n      jumpi\n        /* \"#utility.yul\":3365:3444   */\n      tag_279\n      tag_173\n      jump\t// in\n    tag_279:\n        /* \"#utility.yul\":3324:3446   */\n    tag_278:\n        /* \"#utility.yul\":3482:3488   */\n      dup2\n        /* \"#utility.yul\":3469:3489   */\n      calldataload\n        /* \"#utility.yul\":3507:3586   */\n      tag_280\n        /* \"#utility.yul\":3582:3585   */\n      dup5\n        /* \"#utility.yul\":3574:3580   */\n      dup3\n        /* \"#utility.yul\":3567:3571   */\n      0x20\n        /* \"#utility.yul\":3559:3565   */\n      dup7\n        /* \"#utility.yul\":3555:3572   */\n      add\n        /* \"#utility.yul\":3507:3586   */\n      tag_181\n      jump\t// in\n    tag_280:\n        /* \"#utility.yul\":3498:3586   */\n      swap2\n      pop\n        /* \"#utility.yul\":3314:3592   */\n      pop\n        /* \"#utility.yul\":3252:3592   */\n      swap3\n      swap2\n      pop\n      pop\n      jump\t// out\n        /* \"#utility.yul\":3598:4252   */\n    tag_21:\n        /* \"#utility.yul\":3676:3682   */\n      0x00\n        /* \"#utility.yul\":3684:3690   */\n      dup1\n        /* \"#utility.yul\":3733:3735   */\n      0x40\n        /* \"#utility.yul\":3721:3730   */\n      dup4\n        /* \"#utility.yul\":3712:3719   */\n      dup6\n        /* \"#utility.yul\":3708:3731   */\n      sub\n        /* \"#utility.yul\":3704:3736   */\n      slt\n        /* \"#utility.yul\":3701:3820   */\n      iszero\n      tag_282\n      jumpi\n        /* \"#utility.yul\":3739:3818   */\n      tag_283\n      tag_167\n      jump\t// in\n    tag_283:\n        /* \"#utility.yul\":3701:3820   */\n    tag_282:\n        /* \"#utility.yul\":3859:3860   */\n      0x00\n        /* \"#utility.yul\":3884:3937   */\n      tag_284\n        /* \"#utility.yul\":3929:3936   */\n      dup6\n        /* \"#utility.yul\":3920:3926   */\n      dup3\n        /* \"#utility.yul\":3909:3918   */\n      dup7\n        /* \"#utility.yul\":3905:3927   */\n      add\n        /* \"#utility.yul\":3884:3937   */\n      tag_171\n      jump\t// in\n    tag_284:\n        /* \"#utility.yul\":3874:3937   */\n      swap3\n      pop\n        /* \"#utility.yul\":3830:3947   */\n      pop\n        /* \"#utility.yul\":4014:4016   */\n      0x20\n        /* \"#utility.yul\":4003:4012   */\n      dup4\n        /* \"#utility.yul\":3999:4017   */\n      add\n        /* \"#utility.yul\":3986:4018   */\n      calldataload\n        /* \"#utility.yul\":4045:4063   */\n      0xffffffffffffffff\n        /* \"#utility.yul\":4037:4043   */\n      dup2\n        /* \"#utility.yul\":4034:4064   */\n      gt\n        /* \"#utility.yul\":4031:4148   */\n      iszero\n      tag_285\n      jumpi\n        /* \"#utility.yul\":4067:4146   */\n      tag_286\n      tag_168\n      jump\t// in\n    tag_286:\n        /* \"#utility.yul\":4031:4148   */\n    tag_285:\n        /* \"#utility.yul\":4172:4235   */\n      tag_287\n        /* \"#utility.yul\":4227:4234   */\n      dup6\n        /* \"#utility.yul\":4218:4224   */\n      dup3\n        /* \"#utility.yul\":4207:4216   */\n      dup7\n        /* \"#utility.yul\":4203:4225   */\n      add\n        /* \"#utility.yul\":4172:4235   */\n      tag_182\n      jump\t// in\n    tag_287:\n        /* \"#utility.yul\":4162:4235   */\n      swap2\n      pop\n        /* \"#utility.yul\":3957:4245   */\n      pop\n        /* \"#utility.yul\":3598:4252   */\n      swap3\n      pop\n      swap3\n      swap1\n      pop\n      jump\t// out\n        /* \"#utility.yul\":4258:4384   */\n    tag_183:\n        /* \"#utility.yul\":4295:4302   */\n      0x00\n        /* \"#utility.yul\":4335:4377   */\n      0xffffffffffffffffffffffffffffffffffffffff\n        /* \"#utility.yul\":4328:4333   */\n      dup3\n        /* \"#utility.yul\":4324:4378   */\n      and\n        /* \"#utility.yul\":4313:4378   */\n      swap1\n      pop\n        /* \"#utility.yul\":4258:4384   */\n      swap2\n      swap1\n      pop\n      jump\t// out\n        /* \"#utility.yul\":4390:4486   */\n    tag_184:\n        /* \"#utility.yul\":4427:4434   */\n      0x00\n        /* \"#utility.yul\":4456:4480   */\n      tag_290\n        /* \"#utility.yul\":4474:4479   */\n      dup3\n        /* \"#utility.yul\":4456:4480   */\n      tag_183\n      jump\t// in\n    tag_290:\n        /* \"#utility.yul\":4445:4480   */\n      swap1\n      pop\n        /* \"#utility.yul\":4390:4486   */\n      swap2\n      swap1\n      pop\n      jump\t// out\n        /* \"#utility.yul\":4492:4610   */\n    tag_185:\n        /* \"#utility.yul\":4579:4603   */\n      tag_292\n        /* \"#utility.yul\":4597:4602   */\n      dup2\n        /* \"#utility.yul\":4579:4603   */\n      tag_184\n      jump\t// in\n    tag_292:\n        /* \"#utility.yul\":4574:4577   */\n      dup3\n        /* \"#utility.yul\":4567:4604   */\n      mstore\n        /* \"#utility.yul\":4492:4610   */\n      pop\n      pop\n      jump\t// out\n        /* \"#utility.yul\":4616:4838   */\n    tag_26:\n        /* \"#utility.yul\":4709:4713   */\n      0x00\n        /* \"#utility.yul\":4747:4749   */\n      0x20\n        /* \"#utility.yul\":4736:4745   */\n      dup3\n        /* \"#utility.yul\":4732:4750   */\n      add\n        /* \"#utility.yul\":4724:4750   */\n      swap1\n      pop\n        /* \"#utility.yul\":4760:4831   */\n      tag_294\n        /* \"#utility.yul\":4828:4829   */\n      0x00\n        /* \"#utility.yul\":4817:4826   */\n      dup4\n        /* \"#utility.yul\":4813:4830   */\n      add\n        /* \"#utility.yul\":4804:4810   */\n      dup5\n        /* \"#utility.yul\":4760:4831   */\n      tag_185\n      jump\t// in\n    tag_294:\n        /* \"#utility.yul\":4616:4838   */\n      swap3\n      swap2\n      pop\n      pop\n      jump\t// out\n        /* \"#utility.yul\":4844:4943   */\n    tag_186:\n        /* \"#utility.yul\":4896:4902   */\n      0x00\n        /* \"#utility.yul\":4930:4935   */\n      dup2\n        /* \"#utility.yul\":4924:4936   */\n      mload\n        /* \"#utility.yul\":4914:4936   */\n      swap1\n      pop\n        /* \"#utility.yul\":4844:4943   */\n      swap2\n      swap1\n      pop\n      jump\t// out\n        /* \"#utility.yul\":4949:5118   */\n    tag_187:\n        /* \"#utility.yul\":5033:5044   */\n      0x00\n        /* \"#utility.yul\":5067:5073   */\n      dup3\n        /* \"#utility.yul\":5062:5065   */\n      dup3\n        /* \"#utility.yul\":5055:5074   */\n      mstore\n        /* \"#utility.yul\":5107:5111   */\n      0x20\n        /* \"#utility.yul\":5102:5105   */\n      dup3\n        /* \"#utility.yul\":5098:5112   */\n      add\n        /* \"#utility.yul\":5083:5112   */\n      swap1\n      pop\n        /* \"#utility.yul\":4949:5118   */\n      swap3\n      swap2\n      pop\n      pop\n      jump\t// out\n        /* \"#utility.yul\":5124:5263   */\n    tag_188:\n        /* \"#utility.yul\":5213:5219   */\n      dup3\n        /* \"#utility.yul\":5208:5211   */\n      dup2\n        /* \"#utility.yul\":5203:5206   */\n      dup4\n        /* \"#utility.yul\":5197:5220   */\n      mcopy\n        /* \"#utility.yul\":5254:5255   */\n      0x00\n        /* \"#utility.yul\":5245:5251   */\n      dup4\n        /* \"#utility.yul\":5240:5243   */\n      dup4\n        /* \"#utility.yul\":5236:5252   */\n      add\n        /* \"#utility.yul\":5229:5256   */\n      mstore\n        /* \"#utility.yul\":5124:5263   */\n      pop\n      pop\n      pop\n      jump\t// out\n        /* \"#utility.yul\":5269:5646   */\n    tag_189:\n        /* \"#utility.yul\":5357:5360   */\n      0x00\n        /* \"#utility.yul\":5385:5424   */\n      tag_299\n        /* \"#utility.yul\":5418:5423   */\n      dup3\n        /* \"#utility.yul\":5385:5424   */\n      tag_186\n      jump\t// in\n    tag_299:\n        /* \"#utility.yul\":5440:5511   */\n      tag_300\n        /* \"#utility.yul\":5504:5510   */\n      dup2\n        /* \"#utility.yul\":5499:5502   */\n      dup6\n        /* \"#utility.yul\":5440:5511   */\n      tag_187\n      jump\t// in\n    tag_300:\n        /* \"#utility.yul\":5433:5511   */\n      swap4\n      pop\n        /* \"#utility.yul\":5520:5585   */\n      tag_301\n        /* \"#utility.yul\":5578:5584   */\n      dup2\n        /* \"#utility.yul\":5573:5576   */\n      dup6\n        /* \"#utility.yul\":5566:5570   */\n      0x20\n        /* \"#utility.yul\":5559:5564   */\n      dup7\n        /* \"#utility.yul\":5555:5571   */\n      add\n        /* \"#utility.yul\":5520:5585   */\n      tag_188\n      jump\t// in\n    tag_301:\n        /* \"#utility.yul\":5610:5639   */\n      tag_302\n        /* \"#utility.yul\":5632:5638   */\n      dup2\n        /* \"#utility.yul\":5610:5639   */\n      tag_175\n      jump\t// in\n    tag_302:\n        /* \"#utility.yul\":5605:5608   */\n      dup5\n        /* \"#utility.yul\":5601:5640   */\n      add\n        /* \"#utility.yul\":5594:5640   */\n      swap2\n      pop\n        /* \"#utility.yul\":5361:5646   */\n      pop\n        /* \"#utility.yul\":5269:5646   */\n      swap3\n      swap2\n      pop\n      pop\n      jump\t// out\n        /* \"#utility.yul\":5652:5832   */\n    tag_57:\n        /* \"#utility.yul\":5700:5777   */\n      0x4e487b7100000000000000000000000000000000000000000000000000000000\n        /* \"#utility.yul\":5697:5698   */\n      0x00\n        /* \"#utility.yul\":5690:5778   */\n      mstore\n        /* \"#utility.yul\":5797:5801   */\n      0x21\n        /* \"#utility.yul\":5794:5795   */\n      0x04\n        /* \"#utility.yul\":5787:5802   */\n      mstore\n        /* \"#utility.yul\":5821:5825   */\n      0x24\n        /* \"#utility.yul\":5818:5819   */\n      0x00\n        /* \"#utility.yul\":5811:5826   */\n      revert\n        /* \"#utility.yul\":5838:5951   */\n    tag_190:\n        /* \"#utility.yul\":5919:5920   */\n      0x04\n        /* \"#utility.yul\":5912:5917   */\n      dup2\n        /* \"#utility.yul\":5909:5921   */\n      lt\n        /* \"#utility.yul\":5899:5945   */\n      tag_305\n      jumpi\n        /* \"#utility.yul\":5925:5943   */\n      tag_306\n      tag_57\n      jump\t// in\n    tag_306:\n        /* \"#utility.yul\":5899:5945   */\n    tag_305:\n        /* \"#utility.yul\":5838:5951   */\n      pop\n      jump\t// out\n        /* \"#utility.yul\":5957:6084   */\n    tag_191:\n        /* \"#utility.yul\":6002:6009   */\n      0x00\n        /* \"#utility.yul\":6031:6036   */\n      dup2\n        /* \"#utility.yul\":6020:6036   */\n      swap1\n      pop\n        /* \"#utility.yul\":6037:6078   */\n      tag_308\n        /* \"#utility.yul\":6072:6077   */\n      dup3\n        /* \"#utility.yul\":6037:6078   */\n      tag_190\n      jump\t// in\n    tag_308:\n        /* \"#utility.yul\":5957:6084   */\n      swap2\n      swap1\n      pop\n      jump\t// out\n        /* \"#utility.yul\":6090:6217   */\n    tag_192:\n        /* \"#utility.yul\":6146:6155   */\n      0x00\n        /* \"#utility.yul\":6179:6211   */\n      tag_310\n        /* \"#utility.yul\":6205:6210   */\n      dup3\n        /* \"#utility.yul\":6179:6211   */\n      tag_191\n      jump\t// in\n    tag_310:\n        /* \"#utility.yul\":6166:6211   */\n      swap1\n      pop\n        /* \"#utility.yul\":6090:6217   */\n      swap2\n      swap1\n      pop\n      jump\t// out\n        /* \"#utility.yul\":6223:6366   */\n    tag_193:\n        /* \"#utility.yul\":6316:6359   */\n      tag_312\n        /* \"#utility.yul\":6353:6358   */\n      dup2\n        /* \"#utility.yul\":6316:6359   */\n      tag_192\n      jump\t// in\n    tag_312:\n        /* \"#utility.yul\":6311:6314   */\n      dup3\n        /* \"#utility.yul\":6304:6360   */\n      mstore\n        /* \"#utility.yul\":6223:6366   */\n      pop\n      pop\n      jump\t// out\n        /* \"#utility.yul\":6372:6917   */\n    tag_31:\n        /* \"#utility.yul\":6547:6551   */\n      0x00\n        /* \"#utility.yul\":6585:6587   */\n      0x60\n        /* \"#utility.yul\":6574:6583   */\n      dup3\n        /* \"#utility.yul\":6570:6588   */\n      add\n        /* \"#utility.yul\":6562:6588   */\n      swap1\n      pop\n        /* \"#utility.yul\":6598:6669   */\n      tag_314\n        /* \"#utility.yul\":6666:6667   */\n      0x00\n        /* \"#utility.yul\":6655:6664   */\n      dup4\n        /* \"#utility.yul\":6651:6668   */\n      add\n        /* \"#utility.yul\":6642:6648   */\n      dup7\n        /* \"#utility.yul\":6598:6669   */\n      tag_185\n      jump\t// in\n    tag_314:\n        /* \"#utility.yul\":6716:6725   */\n      dup2\n        /* \"#utility.yul\":6710:6714   */\n      dup2\n        /* \"#utility.yul\":6706:6726   */\n      sub\n        /* \"#utility.yul\":6701:6703   */\n      0x20\n        /* \"#utility.yul\":6690:6699   */\n      dup4\n        /* \"#utility.yul\":6686:6704   */\n      add\n        /* \"#utility.yul\":6679:6727   */\n      mstore\n        /* \"#utility.yul\":6744:6822   */\n      tag_315\n        /* \"#utility.yul\":6817:6821   */\n      dup2\n        /* \"#utility.yul\":6808:6814   */\n      dup6\n        /* \"#utility.yul\":6744:6822   */\n      tag_189\n      jump\t// in\n    tag_315:\n        /* \"#utility.yul\":6736:6822   */\n      swap1\n      pop\n        /* \"#utility.yul\":6832:6910   */\n      tag_316\n        /* \"#utility.yul\":6906:6908   */\n      0x40\n        /* \"#utility.yul\":6895:6904   */\n      dup4\n        /* \"#utility.yul\":6891:6909   */\n      add\n        /* \"#utility.yul\":6882:6888   */\n      dup5\n        /* \"#utility.yul\":6832:6910   */\n      tag_193\n      jump\t// in\n    tag_316:\n        /* \"#utility.yul\":6372:6917   */\n      swap5\n      swap4\n      pop\n      pop\n      pop\n      pop\n      jump\t// out\n        /* \"#utility.yul\":6923:7234   */\n    tag_194:\n        /* \"#utility.yul\":7000:7004   */\n      0x00\n        /* \"#utility.yul\":7090:7108   */\n      0xffffffffffffffff\n        /* \"#utility.yul\":7082:7088   */\n      dup3\n        /* \"#utility.yul\":7079:7109   */\n      gt\n        /* \"#utility.yul\":7076:7132   */\n      iszero\n      tag_318\n      jumpi\n        /* \"#utility.yul\":7112:7130   */\n      tag_319\n      tag_176\n      jump\t// in\n    tag_319:\n        /* \"#utility.yul\":7076:7132   */\n    tag_318:\n        /* \"#utility.yul\":7162:7166   */\n      0x20\n        /* \"#utility.yul\":7154:7160   */\n      dup3\n        /* \"#utility.yul\":7150:7167   */\n      mul\n        /* \"#utility.yul\":7142:7167   */\n      swap1\n      pop\n        /* \"#utility.yul\":7222:7226   */\n      0x20\n        /* \"#utility.yul\":7216:7220   */\n      dup2\n        /* \"#utility.yul\":7212:7227   */\n      add\n        /* \"#utility.yul\":7204:7227   */\n      swap1\n      pop\n        /* \"#utility.yul\":6923:7234   */\n      swap2\n      swap1\n      pop\n      jump\t// out\n        /* \"#utility.yul\":7240:7357   */\n    tag_195:\n        /* \"#utility.yul\":7349:7350   */\n      0x00\n        /* \"#utility.yul\":7346:7347   */\n      dup1\n        /* \"#utility.yul\":7339:7351   */\n      revert\n        /* \"#utility.yul\":7380:8090   */\n    tag_196:\n        /* \"#utility.yul\":7476:7481   */\n      0x00\n        /* \"#utility.yul\":7501:7582   */\n      tag_322\n        /* \"#utility.yul\":7517:7581   */\n      tag_323\n        /* \"#utility.yul\":7574:7580   */\n      dup5\n        /* \"#utility.yul\":7517:7581   */\n      tag_194\n      jump\t// in\n    tag_323:\n        /* \"#utility.yul\":7501:7582   */\n      tag_178\n      jump\t// in\n    tag_322:\n        /* \"#utility.yul\":7492:7582   */\n      swap1\n      pop\n        /* \"#utility.yul\":7602:7607   */\n      dup1\n        /* \"#utility.yul\":7631:7637   */\n      dup4\n        /* \"#utility.yul\":7624:7629   */\n      dup3\n        /* \"#utility.yul\":7617:7638   */\n      mstore\n        /* \"#utility.yul\":7665:7669   */\n      0x20\n        /* \"#utility.yul\":7658:7663   */\n      dup3\n        /* \"#utility.yul\":7654:7670   */\n      add\n        /* \"#utility.yul\":7647:7670   */\n      swap1\n      pop\n        /* \"#utility.yul\":7718:7722   */\n      0x20\n        /* \"#utility.yul\":7710:7716   */\n      dup5\n        /* \"#utility.yul\":7706:7723   */\n      mul\n        /* \"#utility.yul\":7698:7704   */\n      dup4\n        /* \"#utility.yul\":7694:7724   */\n      add\n        /* \"#utility.yul\":7747:7750   */\n      dup6\n        /* \"#utility.yul\":7739:7745   */\n      dup2\n        /* \"#utility.yul\":7736:7751   */\n      gt\n        /* \"#utility.yul\":7733:7855   */\n      iszero\n      tag_324\n      jumpi\n        /* \"#utility.yul\":7766:7845   */\n      tag_325\n      tag_195\n      jump\t// in\n    tag_325:\n        /* \"#utility.yul\":7733:7855   */\n    tag_324:\n        /* \"#utility.yul\":7881:7887   */\n      dup4\n        /* \"#utility.yul\":7864:8084   */\n    tag_326:\n        /* \"#utility.yul\":7898:7904   */\n      dup2\n        /* \"#utility.yul\":7893:7896   */\n      dup2\n        /* \"#utility.yul\":7890:7905   */\n      lt\n        /* \"#utility.yul\":7864:8084   */\n      iszero\n      tag_328\n      jumpi\n        /* \"#utility.yul\":7973:7976   */\n      dup1\n        /* \"#utility.yul\":8002:8039   */\n      tag_329\n        /* \"#utility.yul\":8035:8038   */\n      dup9\n        /* \"#utility.yul\":8023:8033   */\n      dup3\n        /* \"#utility.yul\":8002:8039   */\n      tag_171\n      jump\t// in\n    tag_329:\n        /* \"#utility.yul\":7997:8000   */\n      dup5\n        /* \"#utility.yul\":7990:8040   */\n      mstore\n        /* \"#utility.yul\":8069:8073   */\n      0x20\n        /* \"#utility.yul\":8064:8067   */\n      dup5\n        /* \"#utility.yul\":8060:8074   */\n      add\n        /* \"#utility.yul\":8053:8074   */\n      swap4\n      pop\n        /* \"#utility.yul\":7940:8084   */\n      pop\n        /* \"#utility.yul\":7924:7928   */\n      0x20\n        /* \"#utility.yul\":7919:7922   */\n      dup2\n        /* \"#utility.yul\":7915:7929   */\n      add\n        /* \"#utility.yul\":7908:7929   */\n      swap1\n      pop\n        /* \"#utility.yul\":7864:8084   */\n      jump(tag_326)\n    tag_328:\n        /* \"#utility.yul\":7868:7889   */\n      pop\n        /* \"#utility.yul\":7482:8090   */\n      pop\n      pop\n        /* \"#utility.yul\":7380:8090   */\n      swap4\n      swap3\n      pop\n      pop\n      pop\n      jump\t// out\n        /* \"#utility.yul\":8113:8483   */\n    tag_197:\n        /* \"#utility.yul\":8184:8189   */\n      0x00\n        /* \"#utility.yul\":8233:8236   */\n      dup3\n        /* \"#utility.yul\":8226:8230   */\n      0x1f\n        /* \"#utility.yul\":8218:8224   */\n      dup4\n        /* \"#utility.yul\":8214:8231   */\n      add\n        /* \"#utility.yul\":8210:8237   */\n      slt\n        /* \"#utility.yul\":8200:8322   */\n      tag_331\n      jumpi\n        /* \"#utility.yul\":8241:8320   */\n      tag_332\n      tag_173\n      jump\t// in\n    tag_332:\n        /* \"#utility.yul\":8200:8322   */\n    tag_331:\n        /* \"#utility.yul\":8358:8364   */\n      dup2\n        /* \"#utility.yul\":8345:8365   */\n      calldataload\n        /* \"#utility.yul\":8383:8477   */\n      tag_333\n        /* \"#utility.yul\":8473:8476   */\n      dup5\n        /* \"#utility.yul\":8465:8471   */\n      dup3\n        /* \"#utility.yul\":8458:8462   */\n      0x20\n        /* \"#utility.yul\":8450:8456   */\n      dup7\n        /* \"#utility.yul\":8446:8463   */\n      add\n        /* \"#utility.yul\":8383:8477   */\n      tag_196\n      jump\t// in\n    tag_333:\n        /* \"#utility.yul\":8374:8477   */\n      swap2\n      pop\n        /* \"#utility.yul\":8190:8483   */\n      pop\n        /* \"#utility.yul\":8113:8483   */\n      swap3\n      swap2\n      pop\n      pop\n      jump\t// out\n        /* \"#utility.yul\":8489:9353   */\n    tag_34:\n        /* \"#utility.yul\":8592:8598   */\n      0x00\n        /* \"#utility.yul\":8600:8606   */\n      dup1\n        /* \"#utility.yul\":8649:8651   */\n      0x40\n        /* \"#utility.yul\":8637:8646   */\n      dup4\n        /* \"#utility.yul\":8628:8635   */\n      dup6\n        /* \"#utility.yul\":8624:8647   */\n      sub\n        /* \"#utility.yul\":8620:8652   */\n      slt\n        /* \"#utility.yul\":8617:8736   */\n      iszero\n      tag_335\n      jumpi\n        /* \"#utility.yul\":8655:8734   */\n      tag_336\n      tag_167\n      jump\t// in\n    tag_336:\n        /* \"#utility.yul\":8617:8736   */\n    tag_335:\n        /* \"#utility.yul\":8803:8804   */\n      0x00\n        /* \"#utility.yul\":8792:8801   */\n      dup4\n        /* \"#utility.yul\":8788:8805   */\n      add\n        /* \"#utility.yul\":8775:8806   */\n      calldataload\n        /* \"#utility.yul\":8833:8851   */\n      0xffffffffffffffff\n        /* \"#utility.yul\":8825:8831   */\n      dup2\n        /* \"#utility.yul\":8822:8852   */\n      gt\n        /* \"#utility.yul\":8819:8936   */\n      iszero\n      tag_337\n      jumpi\n        /* \"#utility.yul\":8855:8934   */\n      tag_338\n      tag_168\n      jump\t// in\n    tag_338:\n        /* \"#utility.yul\":8819:8936   */\n    tag_337:\n        /* \"#utility.yul\":8960:9023   */\n      tag_339\n        /* \"#utility.yul\":9015:9022   */\n      dup6\n        /* \"#utility.yul\":9006:9012   */\n      dup3\n        /* \"#utility.yul\":8995:9004   */\n      dup7\n        /* \"#utility.yul\":8991:9013   */\n      add\n        /* \"#utility.yul\":8960:9023   */\n      tag_182\n      jump\t// in\n    tag_339:\n        /* \"#utility.yul\":8950:9023   */\n      swap3\n      pop\n        /* \"#utility.yul\":8746:9033   */\n      pop\n        /* \"#utility.yul\":9100:9102   */\n      0x20\n        /* \"#utility.yul\":9089:9098   */\n      dup4\n        /* \"#utility.yul\":9085:9103   */\n      add\n        /* \"#utility.yul\":9072:9104   */\n      calldataload\n        /* \"#utility.yul\":9131:9149   */\n      0xffffffffffffffff\n        /* \"#utility.yul\":9123:9129   */\n      dup2\n        /* \"#utility.yul\":9120:9150   */\n      gt\n        /* \"#utility.yul\":9117:9234   */\n      iszero\n      tag_340\n      jumpi\n        /* \"#utility.yul\":9153:9232   */\n      tag_341\n      tag_168\n      jump\t// in\n    tag_341:\n        /* \"#utility.yul\":9117:9234   */\n    tag_340:\n        /* \"#utility.yul\":9258:9336   */\n      tag_342\n        /* \"#utility.yul\":9328:9335   */\n      dup6\n        /* \"#utility.yul\":9319:9325   */\n      dup3\n        /* \"#utility.yul\":9308:9317   */\n      dup7\n        /* \"#utility.yul\":9304:9326   */\n      add\n        /* \"#utility.yul\":9258:9336   */\n      tag_197\n      jump\t// in\n    tag_342:\n        /* \"#utility.yul\":9248:9336   */\n      swap2\n      pop\n        /* \"#utility.yul\":9043:9346   */\n      pop\n        /* \"#utility.yul\":8489:9353   */\n      swap3\n      pop\n      swap3\n      swap1\n      pop\n      jump\t// out\n        /* \"#utility.yul\":9359:9467   */\n    tag_198:\n        /* \"#utility.yul\":9436:9460   */\n      tag_344\n        /* \"#utility.yul\":9454:9459   */\n      dup2\n        /* \"#utility.yul\":9436:9460   */\n      tag_184\n      jump\t// in\n    tag_344:\n        /* \"#utility.yul\":9431:9434   */\n      dup3\n        /* \"#utility.yul\":9424:9461   */\n      mstore\n        /* \"#utility.yul\":9359:9467   */\n      pop\n      pop\n      jump\t// out\n        /* \"#utility.yul\":9473:9632   */\n    tag_199:\n        /* \"#utility.yul\":9547:9558   */\n      0x00\n        /* \"#utility.yul\":9581:9587   */\n      dup3\n        /* \"#utility.yul\":9576:9579   */\n      dup3\n        /* \"#utility.yul\":9569:9588   */\n      mstore\n        /* \"#utility.yul\":9621:9625   */\n      0x20\n        /* \"#utility.yul\":9616:9619   */\n      dup3\n        /* \"#utility.yul\":9612:9626   */\n      add\n        /* \"#utility.yul\":9597:9626   */\n      swap1\n      pop\n        /* \"#utility.yul\":9473:9632   */\n      swap3\n      swap2\n      pop\n      pop\n      jump\t// out\n        /* \"#utility.yul\":9638:9995   */\n    tag_200:\n        /* \"#utility.yul\":9716:9719   */\n      0x00\n        /* \"#utility.yul\":9744:9783   */\n      tag_347\n        /* \"#utility.yul\":9777:9782   */\n      dup3\n        /* \"#utility.yul\":9744:9783   */\n      tag_186\n      jump\t// in\n    tag_347:\n        /* \"#utility.yul\":9799:9860   */\n      tag_348\n        /* \"#utility.yul\":9853:9859   */\n      dup2\n        /* \"#utility.yul\":9848:9851   */\n      dup6\n        /* \"#utility.yul\":9799:9860   */\n      tag_199\n      jump\t// in\n    tag_348:\n        /* \"#utility.yul\":9792:9860   */\n      swap4\n      pop\n        /* \"#utility.yul\":9869:9934   */\n      tag_349\n        /* \"#utility.yul\":9927:9933   */\n      dup2\n        /* \"#utility.yul\":9922:9925   */\n      dup6\n        /* \"#utility.yul\":9915:9919   */\n      0x20\n        /* \"#utility.yul\":9908:9913   */\n      dup7\n        /* \"#utility.yul\":9904:9920   */\n      add\n        /* \"#utility.yul\":9869:9934   */\n      tag_188\n      jump\t// in\n    tag_349:\n        /* \"#utility.yul\":9959:9988   */\n      tag_350\n        /* \"#utility.yul\":9981:9987   */\n      dup2\n        /* \"#utility.yul\":9959:9988   */\n      tag_175\n      jump\t// in\n    tag_350:\n        /* \"#utility.yul\":9954:9957   */\n      dup5\n        /* \"#utility.yul\":9950:9989   */\n      add\n        /* \"#utility.yul\":9943:9989   */\n      swap2\n      pop\n        /* \"#utility.yul\":9720:9995   */\n      pop\n        /* \"#utility.yul\":9638:9995   */\n      swap3\n      swap2\n      pop\n      pop\n      jump\t// out\n        /* \"#utility.yul\":10001:10115   */\n    tag_201:\n        /* \"#utility.yul\":10068:10074   */\n      0x00\n        /* \"#utility.yul\":10102:10107   */\n      dup2\n        /* \"#utility.yul\":10096:10108   */\n      mload\n        /* \"#utility.yul\":10086:10108   */\n      swap1\n      pop\n        /* \"#utility.yul\":10001:10115   */\n      swap2\n      swap1\n      pop\n      jump\t// out\n        /* \"#utility.yul\":10121:10295   */\n    tag_202:\n        /* \"#utility.yul\":10210:10221   */\n      0x00\n        /* \"#utility.yul\":10244:10250   */\n      dup3\n        /* \"#utility.yul\":10239:10242   */\n      dup3\n        /* \"#utility.yul\":10232:10251   */\n      mstore\n        /* \"#utility.yul\":10284:10288   */\n      0x20\n        /* \"#utility.yul\":10279:10282   */\n      dup3\n        /* \"#utility.yul\":10275:10289   */\n      add\n        /* \"#utility.yul\":10260:10289   */\n      swap1\n      pop\n        /* \"#utility.yul\":10121:10295   */\n      swap3\n      swap2\n      pop\n      pop\n      jump\t// out\n        /* \"#utility.yul\":10301:10433   */\n    tag_203:\n        /* \"#utility.yul\":10368:10372   */\n      0x00\n        /* \"#utility.yul\":10391:10394   */\n      dup2\n        /* \"#utility.yul\":10383:10394   */\n      swap1\n      pop\n        /* \"#utility.yul\":10421:10425   */\n      0x20\n        /* \"#utility.yul\":10416:10419   */\n      dup3\n        /* \"#utility.yul\":10412:10426   */\n      add\n        /* \"#utility.yul\":10404:10426   */\n      swap1\n      pop\n        /* \"#utility.yul\":10301:10433   */\n      swap2\n      swap1\n      pop\n      jump\t// out\n        /* \"#utility.yul\":10439:10547   */\n    tag_204:\n        /* \"#utility.yul\":10516:10540   */\n      tag_355\n        /* \"#utility.yul\":10534:10539   */\n      dup2\n        /* \"#utility.yul\":10516:10540   */\n      tag_169\n      jump\t// in\n    tag_355:\n        /* \"#utility.yul\":10511:10514   */\n      dup3\n        /* \"#utility.yul\":10504:10541   */\n      mstore\n        /* \"#utility.yul\":10439:10547   */\n      pop\n      pop\n      jump\t// out\n        /* \"#utility.yul\":10553:10732   */\n    tag_205:\n        /* \"#utility.yul\":10622:10632   */\n      0x00\n        /* \"#utility.yul\":10643:10689   */\n      tag_357\n        /* \"#utility.yul\":10685:10688   */\n      dup4\n        /* \"#utility.yul\":10677:10683   */\n      dup4\n        /* \"#utility.yul\":10643:10689   */\n      tag_204\n      jump\t// in\n    tag_357:\n        /* \"#utility.yul\":10721:10725   */\n      0x20\n        /* \"#utility.yul\":10716:10719   */\n      dup4\n        /* \"#utility.yul\":10712:10726   */\n      add\n        /* \"#utility.yul\":10698:10726   */\n      swap1\n      pop\n        /* \"#utility.yul\":10553:10732   */\n      swap3\n      swap2\n      pop\n      pop\n      jump\t// out\n        /* \"#utility.yul\":10738:10851   */\n    tag_206:\n        /* \"#utility.yul\":10808:10812   */\n      0x00\n        /* \"#utility.yul\":10840:10844   */\n      0x20\n        /* \"#utility.yul\":10835:10838   */\n      dup3\n        /* \"#utility.yul\":10831:10845   */\n      add\n        /* \"#utility.yul\":10823:10845   */\n      swap1\n      pop\n        /* \"#utility.yul\":10738:10851   */\n      swap2\n      swap1\n      pop\n      jump\t// out\n        /* \"#utility.yul\":10887:11599   */\n    tag_207:\n        /* \"#utility.yul\":10996:10999   */\n      0x00\n        /* \"#utility.yul\":11025:11079   */\n      tag_360\n        /* \"#utility.yul\":11073:11078   */\n      dup3\n        /* \"#utility.yul\":11025:11079   */\n      tag_201\n      jump\t// in\n    tag_360:\n        /* \"#utility.yul\":11095:11171   */\n      tag_361\n        /* \"#utility.yul\":11164:11170   */\n      dup2\n        /* \"#utility.yul\":11159:11162   */\n      dup6\n        /* \"#utility.yul\":11095:11171   */\n      tag_202\n      jump\t// in\n    tag_361:\n        /* \"#utility.yul\":11088:11171   */\n      swap4\n      pop\n        /* \"#utility.yul\":11195:11251   */\n      tag_362\n        /* \"#utility.yul\":11245:11250   */\n      dup4\n        /* \"#utility.yul\":11195:11251   */\n      tag_203\n      jump\t// in\n    tag_362:\n        /* \"#utility.yul\":11274:11281   */\n      dup1\n        /* \"#utility.yul\":11305:11306   */\n      0x00\n        /* \"#utility.yul\":11290:11574   */\n    tag_363:\n        /* \"#utility.yul\":11315:11321   */\n      dup4\n        /* \"#utility.yul\":11312:11313   */\n      dup2\n        /* \"#utility.yul\":11309:11322   */\n      lt\n        /* \"#utility.yul\":11290:11574   */\n      iszero\n      tag_365\n      jumpi\n        /* \"#utility.yul\":11391:11397   */\n      dup2\n        /* \"#utility.yul\":11385:11398   */\n      mload\n        /* \"#utility.yul\":11418:11481   */\n      tag_366\n        /* \"#utility.yul\":11477:11480   */\n      dup9\n        /* \"#utility.yul\":11462:11475   */\n      dup3\n        /* \"#utility.yul\":11418:11481   */\n      tag_205\n      jump\t// in\n    tag_366:\n        /* \"#utility.yul\":11411:11481   */\n      swap8\n      pop\n        /* \"#utility.yul\":11504:11564   */\n      tag_367\n        /* \"#utility.yul\":11557:11563   */\n      dup4\n        /* \"#utility.yul\":11504:11564   */\n      tag_206\n      jump\t// in\n    tag_367:\n        /* \"#utility.yul\":11494:11564   */\n      swap3\n      pop\n        /* \"#utility.yul\":11350:11574   */\n      pop\n        /* \"#utility.yul\":11337:11338   */\n      0x01\n        /* \"#utility.yul\":11334:11335   */\n      dup2\n        /* \"#utility.yul\":11330:11339   */\n      add\n        /* \"#utility.yul\":11325:11339   */\n      swap1\n      pop\n        /* \"#utility.yul\":11290:11574   */\n      jump(tag_363)\n    tag_365:\n        /* \"#utility.yul\":11294:11308   */\n      pop\n        /* \"#utility.yul\":11590:11593   */\n      dup6\n        /* \"#utility.yul\":11583:11593   */\n      swap4\n      pop\n        /* \"#utility.yul\":11001:11599   */\n      pop\n      pop\n      pop\n        /* \"#utility.yul\":10887:11599   */\n      swap3\n      swap2\n      pop\n      pop\n      jump\t// out\n        /* \"#utility.yul\":11605:11738   */\n    tag_208:\n        /* \"#utility.yul\":11688:11731   */\n      tag_369\n        /* \"#utility.yul\":11725:11730   */\n      dup2\n        /* \"#utility.yul\":11688:11731   */\n      tag_192\n      jump\t// in\n    tag_369:\n        /* \"#utility.yul\":11683:11686   */\n      dup3\n        /* \"#utility.yul\":11676:11732   */\n      mstore\n        /* \"#utility.yul\":11605:11738   */\n      pop\n      pop\n      jump\t// out\n        /* \"#utility.yul\":11794:12860   */\n    tag_209:\n        /* \"#utility.yul\":11905:11908   */\n      0x00\n        /* \"#utility.yul\":11941:11945   */\n      0x80\n        /* \"#utility.yul\":11936:11939   */\n      dup4\n        /* \"#utility.yul\":11932:11946   */\n      add\n        /* \"#utility.yul\":12032:12036   */\n      0x00\n        /* \"#utility.yul\":12025:12030   */\n      dup4\n        /* \"#utility.yul\":12021:12037   */\n      add\n        /* \"#utility.yul\":12015:12038   */\n      mload\n        /* \"#utility.yul\":12051:12114   */\n      tag_371\n        /* \"#utility.yul\":12108:12112   */\n      0x00\n        /* \"#utility.yul\":12103:12106   */\n      dup7\n        /* \"#utility.yul\":12099:12113   */\n      add\n        /* \"#utility.yul\":12085:12097   */\n      dup3\n        /* \"#utility.yul\":12051:12114   */\n      tag_198\n      jump\t// in\n    tag_371:\n        /* \"#utility.yul\":11956:12124   */\n      pop\n        /* \"#utility.yul\":12209:12213   */\n      0x20\n        /* \"#utility.yul\":12202:12207   */\n      dup4\n        /* \"#utility.yul\":12198:12214   */\n      add\n        /* \"#utility.yul\":12192:12215   */\n      mload\n        /* \"#utility.yul\":12262:12265   */\n      dup5\n        /* \"#utility.yul\":12256:12260   */\n      dup3\n        /* \"#utility.yul\":12252:12266   */\n      sub\n        /* \"#utility.yul\":12245:12249   */\n      0x20\n        /* \"#utility.yul\":12240:12243   */\n      dup7\n        /* \"#utility.yul\":12236:12250   */\n      add\n        /* \"#utility.yul\":12229:12267   */\n      mstore\n        /* \"#utility.yul\":12288:12361   */\n      tag_372\n        /* \"#utility.yul\":12356:12360   */\n      dup3\n        /* \"#utility.yul\":12342:12354   */\n      dup3\n        /* \"#utility.yul\":12288:12361   */\n      tag_200\n      jump\t// in\n    tag_372:\n        /* \"#utility.yul\":12280:12361   */\n      swap2\n      pop\n        /* \"#utility.yul\":12134:12372   */\n      pop\n        /* \"#utility.yul\":12458:12462   */\n      0x40\n        /* \"#utility.yul\":12451:12456   */\n      dup4\n        /* \"#utility.yul\":12447:12463   */\n      add\n        /* \"#utility.yul\":12441:12464   */\n      mload\n        /* \"#utility.yul\":12511:12514   */\n      dup5\n        /* \"#utility.yul\":12505:12509   */\n      dup3\n        /* \"#utility.yul\":12501:12515   */\n      sub\n        /* \"#utility.yul\":12494:12498   */\n      0x40\n        /* \"#utility.yul\":12489:12492   */\n      dup7\n        /* \"#utility.yul\":12485:12499   */\n      add\n        /* \"#utility.yul\":12478:12516   */\n      mstore\n        /* \"#utility.yul\":12537:12640   */\n      tag_373\n        /* \"#utility.yul\":12635:12639   */\n      dup3\n        /* \"#utility.yul\":12621:12633   */\n      dup3\n        /* \"#utility.yul\":12537:12640   */\n      tag_207\n      jump\t// in\n    tag_373:\n        /* \"#utility.yul\":12529:12640   */\n      swap2\n      pop\n        /* \"#utility.yul\":12382:12651   */\n      pop\n        /* \"#utility.yul\":12735:12739   */\n      0x60\n        /* \"#utility.yul\":12728:12733   */\n      dup4\n        /* \"#utility.yul\":12724:12740   */\n      add\n        /* \"#utility.yul\":12718:12741   */\n      mload\n        /* \"#utility.yul\":12754:12823   */\n      tag_374\n        /* \"#utility.yul\":12817:12821   */\n      0x60\n        /* \"#utility.yul\":12812:12815   */\n      dup7\n        /* \"#utility.yul\":12808:12822   */\n      add\n        /* \"#utility.yul\":12794:12806   */\n      dup3\n        /* \"#utility.yul\":12754:12823   */\n      tag_208\n      jump\t// in\n    tag_374:\n        /* \"#utility.yul\":12661:12833   */\n      pop\n        /* \"#utility.yul\":12850:12854   */\n      dup1\n        /* \"#utility.yul\":12843:12854   */\n      swap2\n      pop\n        /* \"#utility.yul\":11910:12860   */\n      pop\n        /* \"#utility.yul\":11794:12860   */\n      swap3\n      swap2\n      pop\n      pop\n      jump\t// out\n        /* \"#utility.yul\":12866:13223   */\n    tag_41:\n        /* \"#utility.yul\":13001:13005   */\n      0x00\n        /* \"#utility.yul\":13039:13041   */\n      0x20\n        /* \"#utility.yul\":13028:13037   */\n      dup3\n        /* \"#utility.yul\":13024:13042   */\n      add\n        /* \"#utility.yul\":13016:13042   */\n      swap1\n      pop\n        /* \"#utility.yul\":13088:13097   */\n      dup2\n        /* \"#utility.yul\":13082:13086   */\n      dup2\n        /* \"#utility.yul\":13078:13098   */\n      sub\n        /* \"#utility.yul\":13074:13075   */\n      0x00\n        /* \"#utility.yul\":13063:13072   */\n      dup4\n        /* \"#utility.yul\":13059:13076   */\n      add\n        /* \"#utility.yul\":13052:13099   */\n      mstore\n        /* \"#utility.yul\":13116:13216   */\n      tag_376\n        /* \"#utility.yul\":13211:13215   */\n      dup2\n        /* \"#utility.yul\":13202:13208   */\n      dup5\n        /* \"#utility.yul\":13116:13216   */\n      tag_209\n      jump\t// in\n    tag_376:\n        /* \"#utility.yul\":13108:13216   */\n      swap1\n      pop\n        /* \"#utility.yul\":12866:13223   */\n      swap3\n      swap2\n      pop\n      pop\n      jump\t// out\n        /* \"#utility.yul\":13229:13400   */\n    tag_210:\n        /* \"#utility.yul\":13369:13392   */\n      0x4e6f7420612076616c6964206f726465722069642e0000000000000000000000\n        /* \"#utility.yul\":13365:13366   */\n      0x00\n        /* \"#utility.yul\":13357:13363   */\n      dup3\n        /* \"#utility.yul\":13353:13367   */\n      add\n        /* \"#utility.yul\":13346:13393   */\n      mstore\n        /* \"#utility.yul\":13229:13400   */\n      pop\n      jump\t// out\n        /* \"#utility.yul\":13406:13772   */\n    tag_211:\n        /* \"#utility.yul\":13548:13551   */\n      0x00\n        /* \"#utility.yul\":13569:13636   */\n      tag_379\n        /* \"#utility.yul\":13633:13635   */\n      0x15\n        /* \"#utility.yul\":13628:13631   */\n      dup4\n        /* \"#utility.yul\":13569:13636   */\n      tag_187\n      jump\t// in\n    tag_379:\n        /* \"#utility.yul\":13562:13636   */\n      swap2\n      pop\n        /* \"#utility.yul\":13645:13738   */\n      tag_380\n        /* \"#utility.yul\":13734:13737   */\n      dup3\n        /* \"#utility.yul\":13645:13738   */\n      tag_210\n      jump\t// in\n    tag_380:\n        /* \"#utility.yul\":13763:13765   */\n      0x20\n        /* \"#utility.yul\":13758:13761   */\n      dup3\n        /* \"#utility.yul\":13754:13766   */\n      add\n        /* \"#utility.yul\":13747:13766   */\n      swap1\n      pop\n        /* \"#utility.yul\":13406:13772   */\n      swap2\n      swap1\n      pop\n      jump\t// out\n        /* \"#utility.yul\":13778:14197   */\n    tag_45:\n        /* \"#utility.yul\":13944:13948   */\n      0x00\n        /* \"#utility.yul\":13982:13984   */\n      0x20\n        /* \"#utility.yul\":13971:13980   */\n      dup3\n        /* \"#utility.yul\":13967:13985   */\n      add\n        /* \"#utility.yul\":13959:13985   */\n      swap1\n      pop\n        /* \"#utility.yul\":14031:14040   */\n      dup2\n        /* \"#utility.yul\":14025:14029   */\n      dup2\n        /* \"#utility.yul\":14021:14041   */\n      sub\n        /* \"#utility.yul\":14017:14018   */\n      0x00\n        /* \"#utility.yul\":14006:14015   */\n      dup4\n        /* \"#utility.yul\":14002:14019   */\n      add\n        /* \"#utility.yul\":13995:14042   */\n      mstore\n        /* \"#utility.yul\":14059:14190   */\n      tag_382\n        /* \"#utility.yul\":14185:14189   */\n      dup2\n        /* \"#utility.yul\":14059:14190   */\n      tag_211\n      jump\t// in\n    tag_382:\n        /* \"#utility.yul\":14051:14190   */\n      swap1\n      pop\n        /* \"#utility.yul\":13778:14197   */\n      swap2\n      swap1\n      pop\n      jump\t// out\n        /* \"#utility.yul\":14203:14375   */\n    tag_212:\n        /* \"#utility.yul\":14343:14367   */\n      0x596f7520617265206e6f7420617574686f72697a656400000000000000000000\n        /* \"#utility.yul\":14339:14340   */\n      0x00\n        /* \"#utility.yul\":14331:14337   */\n      dup3\n        /* \"#utility.yul\":14327:14341   */\n      add\n        /* \"#utility.yul\":14320:14368   */\n      mstore\n        /* \"#utility.yul\":14203:14375   */\n      pop\n      jump\t// out\n        /* \"#utility.yul\":14381:14747   */\n    tag_213:\n        /* \"#utility.yul\":14523:14526   */\n      0x00\n        /* \"#utility.yul\":14544:14611   */\n      tag_385\n        /* \"#utility.yul\":14608:14610   */\n      0x16\n        /* \"#utility.yul\":14603:14606   */\n      dup4\n        /* \"#utility.yul\":14544:14611   */\n      tag_187\n      jump\t// in\n    tag_385:\n        /* \"#utility.yul\":14537:14611   */\n      swap2\n      pop\n        /* \"#utility.yul\":14620:14713   */\n      tag_386\n        /* \"#utility.yul\":14709:14712   */\n      dup3\n        /* \"#utility.yul\":14620:14713   */\n      tag_212\n      jump\t// in\n    tag_386:\n        /* \"#utility.yul\":14738:14740   */\n      0x20\n        /* \"#utility.yul\":14733:14736   */\n      dup3\n        /* \"#utility.yul\":14729:14741   */\n      add\n        /* \"#utility.yul\":14722:14741   */\n      swap1\n      pop\n        /* \"#utility.yul\":14381:14747   */\n      swap2\n      swap1\n      pop\n      jump\t// out\n        /* \"#utility.yul\":14753:15172   */\n    tag_49:\n        /* \"#utility.yul\":14919:14923   */\n      0x00\n        /* \"#utility.yul\":14957:14959   */\n      0x20\n        /* \"#utility.yul\":14946:14955   */\n      dup3\n        /* \"#utility.yul\":14942:14960   */\n      add\n        /* \"#utility.yul\":14934:14960   */\n      swap1\n      pop\n        /* \"#utility.yul\":15006:15015   */\n      dup2\n        /* \"#utility.yul\":15000:15004   */\n      dup2\n        /* \"#utility.yul\":14996:15016   */\n      sub\n        /* \"#utility.yul\":14992:14993   */\n      0x00\n        /* \"#utility.yul\":14981:14990   */\n      dup4\n        /* \"#utility.yul\":14977:14994   */\n      add\n        /* \"#utility.yul\":14970:15017   */\n      mstore\n        /* \"#utility.yul\":15034:15165   */\n      tag_388\n        /* \"#utility.yul\":15160:15164   */\n      dup2\n        /* \"#utility.yul\":15034:15165   */\n      tag_213\n      jump\t// in\n    tag_388:\n        /* \"#utility.yul\":15026:15165   */\n      swap1\n      pop\n        /* \"#utility.yul\":14753:15172   */\n      swap2\n      swap1\n      pop\n      jump\t// out\n        /* \"#utility.yul\":15178:15358   */\n    tag_53:\n        /* \"#utility.yul\":15226:15303   */\n      0x4e487b7100000000000000000000000000000000000000000000000000000000\n        /* \"#utility.yul\":15223:15224   */\n      0x00\n        /* \"#utility.yul\":15216:15304   */\n      mstore\n        /* \"#utility.yul\":15323:15327   */\n      0x32\n        /* \"#utility.yul\":15320:15321   */\n      0x04\n        /* \"#utility.yul\":15313:15328   */\n      mstore\n        /* \"#utility.yul\":15347:15351   */\n      0x24\n        /* \"#utility.yul\":15344:15345   */\n      0x00\n        /* \"#utility.yul\":15337:15352   */\n      revert\n        /* \"#utility.yul\":15364:15539   */\n    tag_214:\n        /* \"#utility.yul\":15504:15531   */\n      0x4f7264657220697320616c726561647920736869707065642e00000000000000\n        /* \"#utility.yul\":15500:15501   */\n      0x00\n        /* \"#utility.yul\":15492:15498   */\n      dup3\n        /* \"#utility.yul\":15488:15502   */\n      add\n        /* \"#utility.yul\":15481:15532   */\n      mstore\n        /* \"#utility.yul\":15364:15539   */\n      pop\n      jump\t// out\n        /* \"#utility.yul\":15545:15911   */\n    tag_215:\n        /* \"#utility.yul\":15687:15690   */\n      0x00\n        /* \"#utility.yul\":15708:15775   */\n      tag_392\n        /* \"#utility.yul\":15772:15774   */\n      0x19\n        /* \"#utility.yul\":15767:15770   */\n      dup4\n        /* \"#utility.yul\":15708:15775   */\n      tag_187\n      jump\t// in\n    tag_392:\n        /* \"#utility.yul\":15701:15775   */\n      swap2\n      pop\n        /* \"#utility.yul\":15784:15877   */\n      tag_393\n        /* \"#utility.yul\":15873:15876   */\n      dup3\n        /* \"#utility.yul\":15784:15877   */\n      tag_214\n      jump\t// in\n    tag_393:\n        /* \"#utility.yul\":15902:15904   */\n      0x20\n        /* \"#utility.yul\":15897:15900   */\n      dup3\n        /* \"#utility.yul\":15893:15905   */\n      add\n        /* \"#utility.yul\":15886:15905   */\n      swap1\n      pop\n        /* \"#utility.yul\":15545:15911   */\n      swap2\n      swap1\n      pop\n      jump\t// out\n        /* \"#utility.yul\":15917:16336   */\n    tag_62:\n        /* \"#utility.yul\":16083:16087   */\n      0x00\n        /* \"#utility.yul\":16121:16123   */\n      0x20\n        /* \"#utility.yul\":16110:16119   */\n      dup3\n        /* \"#utility.yul\":16106:16124   */\n      add\n        /* \"#utility.yul\":16098:16124   */\n      swap1\n      pop\n        /* \"#utility.yul\":16170:16179   */\n      dup2\n        /* \"#utility.yul\":16164:16168   */\n      dup2\n        /* \"#utility.yul\":16160:16180   */\n      sub\n        /* \"#utility.yul\":16156:16157   */\n      0x00\n        /* \"#utility.yul\":16145:16154   */\n      dup4\n        /* \"#utility.yul\":16141:16158   */\n      add\n        /* \"#utility.yul\":16134:16181   */\n      mstore\n        /* \"#utility.yul\":16198:16329   */\n      tag_395\n        /* \"#utility.yul\":16324:16328   */\n      dup2\n        /* \"#utility.yul\":16198:16329   */\n      tag_215\n      jump\t// in\n    tag_395:\n        /* \"#utility.yul\":16190:16329   */\n      swap1\n      pop\n        /* \"#utility.yul\":15917:16336   */\n      swap2\n      swap1\n      pop\n      jump\t// out\n        /* \"#utility.yul\":16342:16564   */\n    tag_216:\n        /* \"#utility.yul\":16482:16516   */\n      0x596f7520617265206e6f7420746865206f776e6572206f6620746865206f7264\n        /* \"#utility.yul\":16478:16479   */\n      0x00\n        /* \"#utility.yul\":16470:16476   */\n      dup3\n        /* \"#utility.yul\":16466:16480   */\n      add\n        /* \"#utility.yul\":16459:16517   */\n      mstore\n        /* \"#utility.yul\":16551:16556   */\n      0x65722e0000000000000000000000000000000000000000000000000000000000\n        /* \"#utility.yul\":16546:16548   */\n      0x20\n        /* \"#utility.yul\":16538:16544   */\n      dup3\n        /* \"#utility.yul\":16534:16549   */\n      add\n        /* \"#utility.yul\":16527:16557   */\n      mstore\n        /* \"#utility.yul\":16342:16564   */\n      pop\n      jump\t// out\n        /* \"#utility.yul\":16570:16936   */\n    tag_217:\n        /* \"#utility.yul\":16712:16715   */\n      0x00\n        /* \"#utility.yul\":16733:16800   */\n      tag_398\n        /* \"#utility.yul\":16797:16799   */\n      0x23\n        /* \"#utility.yul\":16792:16795   */\n      dup4\n        /* \"#utility.yul\":16733:16800   */\n      tag_187\n      jump\t// in\n    tag_398:\n        /* \"#utility.yul\":16726:16800   */\n      swap2\n      pop\n        /* \"#utility.yul\":16809:16902   */\n      tag_399\n        /* \"#utility.yul\":16898:16901   */\n      dup3\n        /* \"#utility.yul\":16809:16902   */\n      tag_216\n      jump\t// in\n    tag_399:\n        /* \"#utility.yul\":16927:16929   */\n      0x40\n        /* \"#utility.yul\":16922:16925   */\n      dup3\n        /* \"#utility.yul\":16918:16930   */\n      add\n        /* \"#utility.yul\":16911:16930   */\n      swap1\n      pop\n        /* \"#utility.yul\":16570:16936   */\n      swap2\n      swap1\n      pop\n      jump\t// out\n        /* \"#utility.yul\":16942:17361   */\n    tag_95:\n        /* \"#utility.yul\":17108:17112   */\n      0x00\n        /* \"#utility.yul\":17146:17148   */\n      0x20\n        /* \"#utility.yul\":17135:17144   */\n      dup3\n        /* \"#utility.yul\":17131:17149   */\n      add\n        /* \"#utility.yul\":17123:17149   */\n      swap1\n      pop\n        /* \"#utility.yul\":17195:17204   */\n      dup2\n        /* \"#utility.yul\":17189:17193   */\n      dup2\n        /* \"#utility.yul\":17185:17205   */\n      sub\n        /* \"#utility.yul\":17181:17182   */\n      0x00\n        /* \"#utility.yul\":17170:17179   */\n      dup4\n        /* \"#utility.yul\":17166:17183   */\n      add\n        /* \"#utility.yul\":17159:17206   */\n      mstore\n        /* \"#utility.yul\":17223:17354   */\n      tag_401\n        /* \"#utility.yul\":17349:17353   */\n      dup2\n        /* \"#utility.yul\":17223:17354   */\n      tag_217\n      jump\t// in\n    tag_401:\n        /* \"#utility.yul\":17215:17354   */\n      swap1\n      pop\n        /* \"#utility.yul\":16942:17361   */\n      swap2\n      swap1\n      pop\n      jump\t// out\n        /* \"#utility.yul\":17367:17547   */\n    tag_218:\n        /* \"#utility.yul\":17415:17492   */\n      0x4e487b7100000000000000000000000000000000000000000000000000000000\n        /* \"#utility.yul\":17412:17413   */\n      0x00\n        /* \"#utility.yul\":17405:17493   */\n      mstore\n        /* \"#utility.yul\":17512:17516   */\n      0x22\n        /* \"#utility.yul\":17509:17510   */\n      0x04\n        /* \"#utility.yul\":17502:17517   */\n      mstore\n        /* \"#utility.yul\":17536:17540   */\n      0x24\n        /* \"#utility.yul\":17533:17534   */\n      0x00\n        /* \"#utility.yul\":17526:17541   */\n      revert\n        /* \"#utility.yul\":17553:17873   */\n    tag_110:\n        /* \"#utility.yul\":17597:17603   */\n      0x00\n        /* \"#utility.yul\":17634:17635   */\n      0x02\n        /* \"#utility.yul\":17628:17632   */\n      dup3\n        /* \"#utility.yul\":17624:17636   */\n      div\n        /* \"#utility.yul\":17614:17636   */\n      swap1\n      pop\n        /* \"#utility.yul\":17681:17682   */\n      0x01\n        /* \"#utility.yul\":17675:17679   */\n      dup3\n        /* \"#utility.yul\":17671:17683   */\n      and\n        /* \"#utility.yul\":17702:17720   */\n      dup1\n        /* \"#utility.yul\":17692:17773   */\n      tag_404\n      jumpi\n        /* \"#utility.yul\":17758:17762   */\n      0x7f\n        /* \"#utility.yul\":17750:17756   */\n      dup3\n        /* \"#utility.yul\":17746:17763   */\n      and\n        /* \"#utility.yul\":17736:17763   */\n      swap2\n      pop\n        /* \"#utility.yul\":17692:17773   */\n    tag_404:\n        /* \"#utility.yul\":17820:17822   */\n      0x20\n        /* \"#utility.yul\":17812:17818   */\n      dup3\n        /* \"#utility.yul\":17809:17823   */\n      lt\n        /* \"#utility.yul\":17789:17807   */\n      dup2\n        /* \"#utility.yul\":17786:17824   */\n      sub\n        /* \"#utility.yul\":17783:17867   */\n      tag_405\n      jumpi\n        /* \"#utility.yul\":17839:17857   */\n      tag_406\n      tag_218\n      jump\t// in\n    tag_406:\n        /* \"#utility.yul\":17783:17867   */\n    tag_405:\n        /* \"#utility.yul\":17604:17873   */\n      pop\n        /* \"#utility.yul\":17553:17873   */\n      swap2\n      swap1\n      pop\n      jump\t// out\n        /* \"#utility.yul\":17879:18020   */\n    tag_219:\n        /* \"#utility.yul\":17928:17932   */\n      0x00\n        /* \"#utility.yul\":17951:17954   */\n      dup2\n        /* \"#utility.yul\":17943:17954   */\n      swap1\n      pop\n        /* \"#utility.yul\":17974:17977   */\n      dup2\n        /* \"#utility.yul\":17971:17972   */\n      0x00\n        /* \"#utility.yul\":17964:17978   */\n      mstore\n        /* \"#utility.yul\":18008:18012   */\n      0x20\n        /* \"#utility.yul\":18005:18006   */\n      0x00\n        /* \"#utility.yul\":17995:18013   */\n      keccak256\n        /* \"#utility.yul\":17987:18013   */\n      swap1\n      pop\n        /* \"#utility.yul\":17879:18020   */\n      swap2\n      swap1\n      pop\n      jump\t// out\n        /* \"#utility.yul\":18026:18119   */\n    tag_220:\n        /* \"#utility.yul\":18063:18069   */\n      0x00\n        /* \"#utility.yul\":18110:18112   */\n      0x20\n        /* \"#utility.yul\":18105:18107   */\n      0x1f\n        /* \"#utility.yul\":18098:18103   */\n      dup4\n        /* \"#utility.yul\":18094:18108   */\n      add\n        /* \"#utility.yul\":18090:18113   */\n      div\n        /* \"#utility.yul\":18080:18113   */\n      swap1\n      pop\n        /* \"#utility.yul\":18026:18119   */\n      swap2\n      swap1\n      pop\n      jump\t// out\n        /* \"#utility.yul\":18125:18232   */\n    tag_221:\n        /* \"#utility.yul\":18169:18177   */\n      0x00\n        /* \"#utility.yul\":18219:18224   */\n      dup3\n        /* \"#utility.yul\":18213:18217   */\n      dup3\n        /* \"#utility.yul\":18209:18225   */\n      shl\n        /* \"#utility.yul\":18188:18225   */\n      swap1\n      pop\n        /* \"#utility.yul\":18125:18232   */\n      swap3\n      swap2\n      pop\n      pop\n      jump\t// out\n        /* \"#utility.yul\":18238:18631   */\n    tag_222:\n        /* \"#utility.yul\":18307:18313   */\n      0x00\n        /* \"#utility.yul\":18357:18358   */\n      0x08\n        /* \"#utility.yul\":18345:18355   */\n      dup4\n        /* \"#utility.yul\":18341:18359   */\n      mul\n        /* \"#utility.yul\":18380:18477   */\n      tag_411\n        /* \"#utility.yul\":18410:18476   */\n      0xffffffffffffffffffffffffffffffffffffffffffffffffffffffffffffffff\n        /* \"#utility.yul\":18399:18408   */\n      dup3\n        /* \"#utility.yul\":18380:18477   */\n      tag_221\n      jump\t// in\n    tag_411:\n        /* \"#utility.yul\":18498:18537   */\n      tag_412\n        /* \"#utility.yul\":18528:18536   */\n      dup7\n        /* \"#utility.yul\":18517:18526   */\n      dup4\n        /* \"#utility.yul\":18498:18537   */\n      tag_221\n      jump\t// in\n    tag_412:\n        /* \"#utility.yul\":18486:18537   */\n      swap6\n      pop\n        /* \"#utility.yul\":18570:18574   */\n      dup1\n        /* \"#utility.yul\":18566:18575   */\n      not\n        /* \"#utility.yul\":18559:18564   */\n      dup5\n        /* \"#utility.yul\":18555:18576   */\n      and\n        /* \"#utility.yul\":18546:18576   */\n      swap4\n      pop\n        /* \"#utility.yul\":18619:18623   */\n      dup1\n        /* \"#utility.yul\":18609:18617   */\n      dup7\n        /* \"#utility.yul\":18605:18624   */\n      and\n        /* \"#utility.yul\":18598:18603   */\n      dup5\n        /* \"#utility.yul\":18595:18625   */\n      or\n        /* \"#utility.yul\":18585:18625   */\n      swap3\n      pop\n        /* \"#utility.yul\":18314:18631   */\n      pop\n      pop\n        /* \"#utility.yul\":18238:18631   */\n      swap4\n      swap3\n      pop\n      pop\n      pop\n      jump\t// out\n        /* \"#utility.yul\":18637:18697   */\n    tag_223:\n        /* \"#utility.yul\":18665:18668   */\n      0x00\n        /* \"#utility.yul\":18686:18691   */\n      dup2\n        /* \"#utility.yul\":18679:18691   */\n      swap1\n      pop\n        /* \"#utility.yul\":18637:18697   */\n      swap2\n      swap1\n      pop\n      jump\t// out\n        /* \"#utility.yul\":18703:18845   */\n    tag_224:\n        /* \"#utility.yul\":18753:18762   */\n      0x00\n        /* \"#utility.yul\":18786:18839   */\n      tag_415\n        /* \"#utility.yul\":18804:18838   */\n      tag_416\n        /* \"#utility.yul\":18813:18837   */\n      tag_417\n        /* \"#utility.yul\":18831:18836   */\n      dup5\n        /* \"#utility.yul\":18813:18837   */\n      tag_169\n      jump\t// in\n    tag_417:\n        /* \"#utility.yul\":18804:18838   */\n      tag_223\n      jump\t// in\n    tag_416:\n        /* \"#utility.yul\":18786:18839   */\n      tag_169\n      jump\t// in\n    tag_415:\n        /* \"#utility.yul\":18773:18839   */\n      swap1\n      pop\n        /* \"#utility.yul\":18703:18845   */\n      swap2\n      swap1\n      pop\n      jump\t// out\n        /* \"#utility.yul\":18851:18926   */\n    tag_225:\n        /* \"#utility.yul\":18894:18897   */\n      0x00\n        /* \"#utility.yul\":18915:18920   */\n      dup2\n        /* \"#utility.yul\":18908:18920   */\n      swap1\n      pop\n        /* \"#utility.yul\":18851:18926   */\n      swap2\n      swap1\n      pop\n      jump\t// out\n        /* \"#utility.yul\":18932:19201   */\n    tag_226:\n        /* \"#utility.yul\":19042:19081   */\n      tag_420\n        /* \"#utility.yul\":19073:19080   */\n      dup4\n        /* \"#utility.yul\":19042:19081   */\n      tag_224\n      jump\t// in\n    tag_420:\n        /* \"#utility.yul\":19103:19194   */\n      tag_421\n        /* \"#utility.yul\":19152:19193   */\n      tag_422\n        /* \"#utility.yul\":19176:19192   */\n      dup3\n        /* \"#utility.yul\":19152:19193   */\n      tag_225\n      jump\t// in\n    tag_422:\n        /* \"#utility.yul\":19144:19150   */\n      dup5\n        /* \"#utility.yul\":19137:19141   */\n      dup5\n        /* \"#utility.yul\":19131:19142   */\n      sload\n        /* \"#utility.yul\":19103:19194   */\n      tag_222\n      jump\t// in\n    tag_421:\n        /* \"#utility.yul\":19097:19101   */\n      dup3\n        /* \"#utility.yul\":19090:19195   */\n      sstore\n        /* \"#utility.yul\":19008:19201   */\n      pop\n        /* \"#utility.yul\":18932:19201   */\n      pop\n      pop\n      pop\n      jump\t// out\n        /* \"#utility.yul\":19207:19280   */\n    tag_227:\n        /* \"#utility.yul\":19252:19255   */\n      0x00\n        /* \"#utility.yul\":19207:19280   */\n      swap1\n      jump\t// out\n        /* \"#utility.yul\":19286:19475   */\n    tag_228:\n        /* \"#utility.yul\":19363:19395   */\n      tag_425\n      tag_227\n      jump\t// in\n    tag_425:\n        /* \"#utility.yul\":19404:19469   */\n      tag_426\n        /* \"#utility.yul\":19462:19468   */\n      dup2\n        /* \"#utility.yul\":19454:19460   */\n      dup5\n        /* \"#utility.yul\":19448:19452   */\n      dup5\n        /* \"#utility.yul\":19404:19469   */\n      tag_226\n      jump\t// in\n    tag_426:\n        /* \"#utility.yul\":19339:19475   */\n      pop\n        /* \"#utility.yul\":19286:19475   */\n      pop\n      pop\n      jump\t// out\n        /* \"#utility.yul\":19481:19667   */\n    tag_229:\n        /* \"#utility.yul\":19541:19661   */\n    tag_428:\n        /* \"#utility.yul\":19558:19561   */\n      dup2\n        /* \"#utility.yul\":19551:19556   */\n      dup2\n        /* \"#utility.yul\":19548:19562   */\n      lt\n        /* \"#utility.yul\":19541:19661   */\n      iszero\n      tag_430\n      jumpi\n        /* \"#utility.yul\":19612:19651   */\n      tag_431\n        /* \"#utility.yul\":19649:19650   */\n      0x00\n        /* \"#utility.yul\":19642:19647   */\n      dup3\n        /* \"#utility.yul\":19612:19651   */\n      tag_228\n      jump\t// in\n    tag_431:\n        /* \"#utility.yul\":19585:19586   */\n      0x01\n        /* \"#utility.yul\":19578:19583   */\n      dup2\n        /* \"#utility.yul\":19574:19587   */\n      add\n        /* \"#utility.yul\":19565:19587   */\n      swap1\n      pop\n        /* \"#utility.yul\":19541:19661   */\n      jump(tag_428)\n    tag_430:\n        /* \"#utility.yul\":19481:19667   */\n      pop\n      pop\n      jump\t// out\n        /* \"#utility.yul\":19673:20216   */\n    tag_230:\n        /* \"#utility.yul\":19774:19776   */\n      0x1f\n        /* \"#utility.yul\":19769:19772   */\n      dup3\n        /* \"#utility.yul\":19766:19777   */\n      gt\n        /* \"#utility.yul\":19763:20209   */\n      iszero\n      tag_433\n      jumpi\n        /* \"#utility.yul\":19808:19846   */\n      tag_434\n        /* \"#utility.yul\":19840:19845   */\n      dup2\n        /* \"#utility.yul\":19808:19846   */\n      tag_219\n      jump\t// in\n    tag_434:\n        /* \"#utility.yul\":19892:19921   */\n      tag_435\n        /* \"#utility.yul\":19910:19920   */\n      dup5\n        /* \"#utility.yul\":19892:19921   */\n      tag_220\n      jump\t// in\n    tag_435:\n        /* \"#utility.yul\":19882:19890   */\n      dup2\n        /* \"#utility.yul\":19878:19922   */\n      add\n        /* \"#utility.yul\":20075:20077   */\n      0x20\n        /* \"#utility.yul\":20063:20073   */\n      dup6\n        /* \"#utility.yul\":20060:20078   */\n      lt\n        /* \"#utility.yul\":20057:20106   */\n      iszero\n      tag_436\n      jumpi\n        /* \"#utility.yul\":20096:20104   */\n      dup2\n        /* \"#utility.yul\":20081:20104   */\n      swap1\n      pop\n        /* \"#utility.yul\":20057:20106   */\n    tag_436:\n        /* \"#utility.yul\":20119:20199   */\n      tag_437\n        /* \"#utility.yul\":20175:20197   */\n      tag_438\n        /* \"#utility.yul\":20193:20196   */\n      dup6\n        /* \"#utility.yul\":20175:20197   */\n      tag_220\n      jump\t// in\n    tag_438:\n        /* \"#utility.yul\":20165:20173   */\n      dup4\n        /* \"#utility.yul\":20161:20198   */\n      add\n        /* \"#utility.yul\":20148:20159   */\n      dup3\n        /* \"#utility.yul\":20119:20199   */\n      tag_229\n      jump\t// in\n    tag_437:\n        /* \"#utility.yul\":19778:20209   */\n      pop\n      pop\n        /* \"#utility.yul\":19763:20209   */\n    tag_433:\n        /* \"#utility.yul\":19673:20216   */\n      pop\n      pop\n      pop\n      jump\t// out\n        /* \"#utility.yul\":20222:20339   */\n    tag_231:\n        /* \"#utility.yul\":20276:20284   */\n      0x00\n        /* \"#utility.yul\":20326:20331   */\n      dup3\n        /* \"#utility.yul\":20320:20324   */\n      dup3\n        /* \"#utility.yul\":20316:20332   */\n      shr\n        /* \"#utility.yul\":20295:20332   */\n      swap1\n      pop\n        /* \"#utility.yul\":20222:20339   */\n      swap3\n      swap2\n      pop\n      pop\n      jump\t// out\n        /* \"#utility.yul\":20345:20514   */\n    tag_232:\n        /* \"#utility.yul\":20389:20395   */\n      0x00\n        /* \"#utility.yul\":20422:20473   */\n      tag_441\n        /* \"#utility.yul\":20470:20471   */\n      0x00\n        /* \"#utility.yul\":20466:20472   */\n      not\n        /* \"#utility.yul\":20458:20463   */\n      dup5\n        /* \"#utility.yul\":20455:20456   */\n      0x08\n        /* \"#utility.yul\":20451:20464   */\n      mul\n        /* \"#utility.yul\":20422:20473   */\n      tag_231\n      jump\t// in\n    tag_441:\n        /* \"#utility.yul\":20418:20474   */\n      not\n        /* \"#utility.yul\":20503:20507   */\n      dup1\n        /* \"#utility.yul\":20497:20501   */\n      dup4\n        /* \"#utility.yul\":20493:20508   */\n      and\n        /* \"#utility.yul\":20483:20508   */\n      swap2\n      pop\n        /* \"#utility.yul\":20396:20514   */\n      pop\n        /* \"#utility.yul\":20345:20514   */\n      swap3\n      swap2\n      pop\n      pop\n      jump\t// out\n        /* \"#utility.yul\":20519:20814   */\n    tag_233:\n        /* \"#utility.yul\":20595:20599   */\n      0x00\n        /* \"#utility.yul\":20741:20770   */\n      tag_443\n        /* \"#utility.yul\":20766:20769   */\n      dup4\n        /* \"#utility.yul\":20760:20764   */\n      dup4\n        /* \"#utility.yul\":20741:20770   */\n      tag_232\n      jump\t// in\n    tag_443:\n        /* \"#utility.yul\":20733:20770   */\n      swap2\n      pop\n        /* \"#utility.yul\":20803:20806   */\n      dup3\n        /* \"#utility.yul\":20800:20801   */\n      0x02\n        /* \"#utility.yul\":20796:20807   */\n      mul\n        /* \"#utility.yul\":20790:20794   */\n      dup3\n        /* \"#utility.yul\":20787:20808   */\n      or\n        /* \"#utility.yul\":20779:20808   */\n      swap1\n      pop\n        /* \"#utility.yul\":20519:20814   */\n      swap3\n      swap2\n      pop\n      pop\n      jump\t// out\n        /* \"#utility.yul\":20819:22214   */\n    tag_102:\n        /* \"#utility.yul\":20936:20973   */\n      tag_445\n        /* \"#utility.yul\":20969:20972   */\n      dup3\n        /* \"#utility.yul\":20936:20973   */\n      tag_186\n      jump\t// in\n    tag_445:\n        /* \"#utility.yul\":21038:21056   */\n      0xffffffffffffffff\n        /* \"#utility.yul\":21030:21036   */\n      dup2\n        /* \"#utility.yul\":21027:21057   */\n      gt\n        /* \"#utility.yul\":21024:21080   */\n      iszero\n      tag_446\n      jumpi\n        /* \"#utility.yul\":21060:21078   */\n      tag_447\n      tag_176\n      jump\t// in\n    tag_447:\n        /* \"#utility.yul\":21024:21080   */\n    tag_446:\n        /* \"#utility.yul\":21104:21142   */\n      tag_448\n        /* \"#utility.yul\":21136:21140   */\n      dup3\n        /* \"#utility.yul\":21130:21141   */\n      sload\n        /* \"#utility.yul\":21104:21142   */\n      tag_110\n      jump\t// in\n    tag_448:\n        /* \"#utility.yul\":21189:21256   */\n      tag_449\n        /* \"#utility.yul\":21249:21255   */\n      dup3\n        /* \"#utility.yul\":21241:21247   */\n      dup3\n        /* \"#utility.yul\":21235:21239   */\n      dup6\n        /* \"#utility.yul\":21189:21256   */\n      tag_230\n      jump\t// in\n    tag_449:\n        /* \"#utility.yul\":21283:21284   */\n      0x00\n        /* \"#utility.yul\":21307:21311   */\n      0x20\n        /* \"#utility.yul\":21294:21311   */\n      swap1\n      pop\n        /* \"#utility.yul\":21339:21341   */\n      0x1f\n        /* \"#utility.yul\":21331:21337   */\n      dup4\n        /* \"#utility.yul\":21328:21342   */\n      gt\n        /* \"#utility.yul\":21356:21357   */\n      0x01\n        /* \"#utility.yul\":21351:21969   */\n      dup2\n      eq\n      tag_451\n      jumpi\n        /* \"#utility.yul\":22013:22014   */\n      0x00\n        /* \"#utility.yul\":22030:22036   */\n      dup5\n        /* \"#utility.yul\":22027:22104   */\n      iszero\n      tag_452\n      jumpi\n        /* \"#utility.yul\":22079:22088   */\n      dup3\n        /* \"#utility.yul\":22074:22077   */\n      dup8\n        /* \"#utility.yul\":22070:22089   */\n      add\n        /* \"#utility.yul\":22064:22090   */\n      mload\n        /* \"#utility.yul\":22055:22090   */\n      swap1\n      pop\n        /* \"#utility.yul\":22027:22104   */\n    tag_452:\n        /* \"#utility.yul\":22130:22197   */\n      tag_453\n        /* \"#utility.yul\":22190:22196   */\n      dup6\n        /* \"#utility.yul\":22183:22188   */\n      dup3\n        /* \"#utility.yul\":22130:22197   */\n      tag_233\n      jump\t// in\n    tag_453:\n        /* \"#utility.yul\":22124:22128   */\n      dup7\n        /* \"#utility.yul\":22117:22198   */\n      sstore\n        /* \"#utility.yul\":21986:22208   */\n      pop\n        /* \"#utility.yul\":21321:22208   */\n      jump(tag_450)\n        /* \"#utility.yul\":21351:21969   */\n    tag_451:\n        /* \"#utility.yul\":21403:21407   */\n      0x1f\n        /* \"#utility.yul\":21399:21408   */\n      not\n        /* \"#utility.yul\":21391:21397   */\n      dup5\n        /* \"#utility.yul\":21387:21409   */\n      and\n        /* \"#utility.yul\":21437:21474   */\n      tag_454\n        /* \"#utility.yul\":21469:21473   */\n      dup7\n        /* \"#utility.yul\":21437:21474   */\n      tag_219\n      jump\t// in\n    tag_454:\n        /* \"#utility.yul\":21496:21497   */\n      0x00\n        /* \"#utility.yul\":21510:21718   */\n    tag_455:\n        /* \"#utility.yul\":21524:21531   */\n      dup3\n        /* \"#utility.yul\":21521:21522   */\n      dup2\n        /* \"#utility.yul\":21518:21532   */\n      lt\n        /* \"#utility.yul\":21510:21718   */\n      iszero\n      tag_457\n      jumpi\n        /* \"#utility.yul\":21603:21612   */\n      dup5\n        /* \"#utility.yul\":21598:21601   */\n      dup10\n        /* \"#utility.yul\":21594:21613   */\n      add\n        /* \"#utility.yul\":21588:21614   */\n      mload\n        /* \"#utility.yul\":21580:21586   */\n      dup3\n        /* \"#utility.yul\":21573:21615   */\n      sstore\n        /* \"#utility.yul\":21654:21655   */\n      0x01\n        /* \"#utility.yul\":21646:21652   */\n      dup3\n        /* \"#utility.yul\":21642:21656   */\n      add\n        /* \"#utility.yul\":21632:21656   */\n      swap2\n      pop\n        /* \"#utility.yul\":21701:21703   */\n      0x20\n        /* \"#utility.yul\":21690:21699   */\n      dup6\n        /* \"#utility.yul\":21686:21704   */\n      add\n        /* \"#utility.yul\":21673:21704   */\n      swap5\n      pop\n        /* \"#utility.yul\":21547:21551   */\n      0x20\n        /* \"#utility.yul\":21544:21545   */\n      dup2\n        /* \"#utility.yul\":21540:21552   */\n      add\n        /* \"#utility.yul\":21535:21552   */\n      swap1\n      pop\n        /* \"#utility.yul\":21510:21718   */\n      jump(tag_455)\n    tag_457:\n        /* \"#utility.yul\":21746:21752   */\n      dup7\n        /* \"#utility.yul\":21737:21744   */\n      dup4\n        /* \"#utility.yul\":21734:21753   */\n      lt\n        /* \"#utility.yul\":21731:21910   */\n      iszero\n      tag_458\n      jumpi\n        /* \"#utility.yul\":21804:21813   */\n      dup5\n        /* \"#utility.yul\":21799:21802   */\n      dup10\n        /* \"#utility.yul\":21795:21814   */\n      add\n        /* \"#utility.yul\":21789:21815   */\n      mload\n        /* \"#utility.yul\":21847:21895   */\n      tag_459\n        /* \"#utility.yul\":21889:21893   */\n      0x1f\n        /* \"#utility.yul\":21881:21887   */\n      dup10\n        /* \"#utility.yul\":21877:21894   */\n      and\n        /* \"#utility.yul\":21866:21875   */\n      dup3\n        /* \"#utility.yul\":21847:21895   */\n      tag_232\n      jump\t// in\n    tag_459:\n        /* \"#utility.yul\":21839:21845   */\n      dup4\n        /* \"#utility.yul\":21832:21896   */\n      sstore\n        /* \"#utility.yul\":21754:21910   */\n      pop\n        /* \"#utility.yul\":21731:21910   */\n    tag_458:\n        /* \"#utility.yul\":21956:21957   */\n      0x01\n        /* \"#utility.yul\":21952:21953   */\n      0x02\n        /* \"#utility.yul\":21944:21950   */\n      dup9\n        /* \"#utility.yul\":21940:21954   */\n      mul\n        /* \"#utility.yul\":21936:21958   */\n      add\n        /* \"#utility.yul\":21930:21934   */\n      dup9\n        /* \"#utility.yul\":21923:21959   */\n      sstore\n        /* \"#utility.yul\":21358:21969   */\n      pop\n      pop\n      pop\n        /* \"#utility.yul\":21321:22208   */\n    tag_450:\n      pop\n        /* \"#utility.yul\":20911:22214   */\n      pop\n      pop\n      pop\n        /* \"#utility.yul\":20819:22214   */\n      pop\n      pop\n      jump\t// out\n        /* \"#utility.yul\":22220:22643   */\n    tag_104:\n        /* \"#utility.yul\":22361:22365   */\n      0x00\n        /* \"#utility.yul\":22399:22401   */\n      0x40\n        /* \"#utility.yul\":22388:22397   */\n      dup3\n        /* \"#utility.yul\":22384:22402   */\n      add\n        /* \"#utility.yul\":22376:22402   */\n      swap1\n      pop\n        /* \"#utility.yul\":22412:22483   */\n      tag_461\n        /* \"#utility.yul\":22480:22481   */\n      0x00\n        /* \"#utility.yul\":22469:22478   */\n      dup4\n        /* \"#utility.yul\":22465:22482   */\n      add\n        /* \"#utility.yul\":22456:22462   */\n      dup6\n        /* \"#utility.yul\":22412:22483   */\n      tag_172\n      jump\t// in\n    tag_461:\n        /* \"#utility.yul\":22530:22539   */\n      dup2\n        /* \"#utility.yul\":22524:22528   */\n      dup2\n        /* \"#utility.yul\":22520:22540   */\n      sub\n        /* \"#utility.yul\":22515:22517   */\n      0x20\n        /* \"#utility.yul\":22504:22513   */\n      dup4\n        /* \"#utility.yul\":22500:22518   */\n      add\n        /* \"#utility.yul\":22493:22541   */\n      mstore\n        /* \"#utility.yul\":22558:22636   */\n      tag_462\n        /* \"#utility.yul\":22631:22635   */\n      dup2\n        /* \"#utility.yul\":22622:22628   */\n      dup5\n        /* \"#utility.yul\":22558:22636   */\n      tag_189\n      jump\t// in\n    tag_462:\n        /* \"#utility.yul\":22550:22636   */\n      swap1\n      pop\n        /* \"#utility.yul\":22220:22643   */\n      swap4\n      swap3\n      pop\n      pop\n      pop\n      jump\t// out\n        /* \"#utility.yul\":22649:22829   */\n    tag_234:\n        /* \"#utility.yul\":22697:22774   */\n      0x4e487b7100000000000000000000000000000000000000000000000000000000\n        /* \"#utility.yul\":22694:22695   */\n      0x00\n        /* \"#utility.yul\":22687:22775   */\n      mstore\n        /* \"#utility.yul\":22794:22798   */\n      0x11\n        /* \"#utility.yul\":22791:22792   */\n      0x04\n        /* \"#utility.yul\":22784:22799   */\n      mstore\n        /* \"#utility.yul\":22818:22822   */\n      0x24\n        /* \"#utility.yul\":22815:22816   */\n      0x00\n        /* \"#utility.yul\":22808:22823   */\n      revert\n        /* \"#utility.yul\":22835:23068   */\n    tag_106:\n        /* \"#utility.yul\":22874:22877   */\n      0x00\n        /* \"#utility.yul\":22897:22921   */\n      tag_465\n        /* \"#utility.yul\":22915:22920   */\n      dup3\n        /* \"#utility.yul\":22897:22921   */\n      tag_169\n      jump\t// in\n    tag_465:\n        /* \"#utility.yul\":22888:22921   */\n      swap2\n      pop\n        /* \"#utility.yul\":22943:23009   */\n      0xffffffffffffffffffffffffffffffffffffffffffffffffffffffffffffffff\n        /* \"#utility.yul\":22936:22941   */\n      dup3\n        /* \"#utility.yul\":22933:23010   */\n      sub\n        /* \"#utility.yul\":22930:23033   */\n      tag_466\n      jumpi\n        /* \"#utility.yul\":23013:23031   */\n      tag_467\n      tag_234\n      jump\t// in\n    tag_467:\n        /* \"#utility.yul\":22930:23033   */\n    tag_466:\n        /* \"#utility.yul\":23060:23061   */\n      0x01\n        /* \"#utility.yul\":23053:23058   */\n      dup3\n        /* \"#utility.yul\":23049:23062   */\n      add\n        /* \"#utility.yul\":23042:23062   */\n      swap1\n      pop\n        /* \"#utility.yul\":22835:23068   */\n      swap2\n      swap1\n      pop\n      jump\t// out\n        /* \"#utility.yul\":23074:23236   */\n    tag_235:\n        /* \"#utility.yul\":23214:23228   */\n      0x4e6f2070726f64756374732e0000000000000000000000000000000000000000\n        /* \"#utility.yul\":23210:23211   */\n      0x00\n        /* \"#utility.yul\":23202:23208   */\n      dup3\n        /* \"#utility.yul\":23198:23212   */\n      add\n        /* \"#utility.yul\":23191:23229   */\n      mstore\n        /* \"#utility.yul\":23074:23236   */\n      pop\n      jump\t// out\n        /* \"#utility.yul\":23242:23608   */\n    tag_236:\n        /* \"#utility.yul\":23384:23387   */\n      0x00\n        /* \"#utility.yul\":23405:23472   */\n      tag_470\n        /* \"#utility.yul\":23469:23471   */\n      0x0c\n        /* \"#utility.yul\":23464:23467   */\n      dup4\n        /* \"#utility.yul\":23405:23472   */\n      tag_187\n      jump\t// in\n    tag_470:\n        /* \"#utility.yul\":23398:23472   */\n      swap2\n      pop\n        /* \"#utility.yul\":23481:23574   */\n      tag_471\n        /* \"#utility.yul\":23570:23573   */\n      dup3\n        /* \"#utility.yul\":23481:23574   */\n      tag_235\n      jump\t// in\n    tag_471:\n        /* \"#utility.yul\":23599:23601   */\n      0x20\n        /* \"#utility.yul\":23594:23597   */\n      dup3\n        /* \"#utility.yul\":23590:23602   */\n      add\n        /* \"#utility.yul\":23583:23602   */\n      swap1\n      pop\n        /* \"#utility.yul\":23242:23608   */\n      swap2\n      swap1\n      pop\n      jump\t// out\n        /* \"#utility.yul\":23614:24033   */\n    tag_118:\n        /* \"#utility.yul\":23780:23784   */\n      0x00\n        /* \"#utility.yul\":23818:23820   */\n      0x20\n        /* \"#utility.yul\":23807:23816   */\n      dup3\n        /* \"#utility.yul\":23803:23821   */\n      add\n        /* \"#utility.yul\":23795:23821   */\n      swap1\n      pop\n        /* \"#utility.yul\":23867:23876   */\n      dup2\n        /* \"#utility.yul\":23861:23865   */\n      dup2\n        /* \"#utility.yul\":23857:23877   */\n      sub\n        /* \"#utility.yul\":23853:23854   */\n      0x00\n        /* \"#utility.yul\":23842:23851   */\n      dup4\n        /* \"#utility.yul\":23838:23855   */\n      add\n        /* \"#utility.yul\":23831:23878   */\n      mstore\n        /* \"#utility.yul\":23895:24026   */\n      tag_473\n        /* \"#utility.yul\":24021:24025   */\n      dup2\n        /* \"#utility.yul\":23895:24026   */\n      tag_236\n      jump\t// in\n    tag_473:\n        /* \"#utility.yul\":23887:24026   */\n      swap1\n      pop\n        /* \"#utility.yul\":23614:24033   */\n      swap2\n      swap1\n      pop\n      jump\t// out\n        /* \"#utility.yul\":24039:24233   */\n    tag_134:\n        /* \"#utility.yul\":24079:24083   */\n      0x00\n        /* \"#utility.yul\":24099:24119   */\n      tag_475\n        /* \"#utility.yul\":24117:24118   */\n      dup3\n        /* \"#utility.yul\":24099:24119   */\n      tag_169\n      jump\t// in\n    tag_475:\n        /* \"#utility.yul\":24094:24119   */\n      swap2\n      pop\n        /* \"#utility.yul\":24133:24153   */\n      tag_476\n        /* \"#utility.yul\":24151:24152   */\n      dup4\n        /* \"#utility.yul\":24133:24153   */\n      tag_169\n      jump\t// in\n    tag_476:\n        /* \"#utility.yul\":24128:24153   */\n      swap3\n      pop\n        /* \"#utility.yul\":24177:24178   */\n      dup3\n        /* \"#utility.yul\":24174:24175   */\n      dup3\n        /* \"#utility.yul\":24170:24179   */\n      sub\n        /* \"#utility.yul\":24162:24179   */\n      swap1\n      pop\n        /* \"#utility.yul\":24201:24202   */\n      dup2\n        /* \"#utility.yul\":24195:24199   */\n      dup2\n        /* \"#utility.yul\":24192:24203   */\n      gt\n        /* \"#utility.yul\":24189:24226   */\n      iszero\n      tag_477\n      jumpi\n        /* \"#utility.yul\":24206:24224   */\n      tag_478\n      tag_234\n      jump\t// in\n    tag_478:\n        /* \"#utility.yul\":24189:24226   */\n    tag_477:\n        /* \"#utility.yul\":24039:24233   */\n      swap3\n      swap2\n      pop\n      pop\n      jump\t// out\n\n    auxdata: 0xa2646970667358221220838ca6384d86b146b5ae69c0ba5f1c6967361018897299c7c5d835372d97b3a564736f6c634300081a0033\n}\n",
				"bytecode": {
					"linkReferences": {},
					"object": "6080604052348015600e575f80fd5b503360015f6101000a81548173ffffffffffffffffffffffffffffffffffffffff021916908373ffffffffffffffffffffffffffffffffffffffff16021790555061183d8061005c5f395ff3fe608060405234801561000f575f80fd5b506004361061007b575f3560e01c80638da5cb5b116100595780638da5cb5b146100d5578063a85c38ef146100f3578063c4eb8ded14610125578063d59a1fce146101555761007b565b8063394b40891461007f5780633c5406871461009b578063529772b4146100b9575b5f80fd5b61009960048036038101906100949190610be0565b610185565b005b6100a361043c565b6040516100b09190610c1a565b60405180910390f35b6100d360048036038101906100ce9190610d6f565b610442565b005b6100dd6105c3565b6040516100ea9190610e08565b60405180910390f35b61010d60048036038101906101089190610be0565b6105e8565b60405161011c93929190610ef4565b60405180910390f35b61013f600480360381019061013a9190610ff4565b6106cd565b60405161014c9190610c1a565b60405180910390f35b61016f600480360381019061016a9190610be0565b6108f3565b60405161017c91906111ee565b60405180910390f35b805f8054905081106101cc576040517f08c379a00000000000000000000000000000000000000000000000000000000081526004016101c390611258565b60405180910390fd5b3373ffffffffffffffffffffffffffffffffffffffff1660015f9054906101000a900473ffffffffffffffffffffffffffffffffffffffff1673ffffffffffffffffffffffffffffffffffffffff161461025b576040517f08c379a0000000000000000000000000000000000000000000000000000000008152600401610252906112c0565b60405180910390fd5b5f80838154811061026f5761026e6112de565b5b905f5260205f20906004020190506003808111156102905761028f610e81565b5b816003015f9054906101000a900460ff1660038111156102b3576102b2610e81565b5b036102f3576040517f08c379a00000000000000000000000000000000000000000000000000000000081526004016102ea90611355565b60405180910390fd5b5f600381111561030657610305610e81565b5b816003015f9054906101000a900460ff16600381111561032957610328610e81565b5b0361035f576001816003015f6101000a81548160ff0219169083600381111561035557610354610e81565b5b0217905550610437565b6001600381111561037357610372610e81565b5b816003015f9054906101000a900460ff16600381111561039657610395610e81565b5b036103cc576002816003015f6101000a81548160ff021916908360038111156103c2576103c1610e81565b5b0217905550610436565b600260038111156103e0576103df610e81565b5b816003015f9054906101000a900460ff16600381111561040357610402610e81565b5b03610435576003816003015f6101000a81548160ff0219169083600381111561042f5761042e610e81565b5b02179055505b5b5b505050565b60025481565b815f805490508110610489576040517f08c379a000000000000000000000000000000000000000000000000000000000815260040161048090611258565b60405180910390fd5b823373ffffffffffffffffffffffffffffffffffffffff165f82815481106104b4576104b36112de565b5b905f5260205f2090600402015f015f9054906101000a900473ffffffffffffffffffffffffffffffffffffffff1673ffffffffffffffffffffffffffffffffffffffff1614610538576040517f08c379a000000000000000000000000000000000000000000000000000000000815260040161052f906113e3565b60405180910390fd5b5f80858154811061054c5761054b6112de565b5b905f5260205f20906004020190508381600101908161056b91906115fb565b507fb635342fc0739647e3ead9d8554f699ce14329ff69a3c75fce31ba5131c4e1cd858560405161059d9291906116ca565b60405180910390a15060025f8154809291906105b890611725565b919050555050505050565b60015f9054906101000a900473ffffffffffffffffffffffffffffffffffffffff1681565b5f81815481106105f6575f80fd5b905f5260205f2090600402015f91509050805f015f9054906101000a900473ffffffffffffffffffffffffffffffffffffffff169080600101805461063a9061142e565b80601f01602080910402602001604051908101604052809291908181526020018280546106669061142e565b80156106b15780601f10610688576101008083540402835291602001916106b1565b820191905f5260205f20905b81548152906001019060200180831161069457829003601f168201915b505050505090806003015f9054906101000a900460ff16905083565b5f815f815111610712576040517f08c379a0000000000000000000000000000000000000000000000000000000008152600401610709906117b6565b60405180910390fd5b61071a610ae8565b33815f019073ffffffffffffffffffffffffffffffffffffffff16908173ffffffffffffffffffffffffffffffffffffffff16815250508481602001819052508381604001819052505f8160600190600381111561077b5761077a610e81565b5b9081600381111561078f5761078e610e81565b5b815250505f81908060018154018082558091505060019003905f5260205f2090600402015f909190919091505f820151815f015f6101000a81548173ffffffffffffffffffffffffffffffffffffffff021916908373ffffffffffffffffffffffffffffffffffffffff160217905550602082015181600101908161081491906115fb565b506040820151816002019080519060200190610831929190610b36565b506060820151816003015f6101000a81548160ff0219169083600381111561085c5761085b610e81565b5b021790555050503373ffffffffffffffffffffffffffffffffffffffff167f4ceaea0569072c9203c8c195ffccdbca9851b9d0410f577878a6792f12ec9b5260015f805490506108ac91906117d4565b6040516108b99190610c1a565b60405180910390a260015f805490506108d291906117d4565b92505060025f8154809291906108e790611725565b91905055505092915050565b6108fb610ae8565b815f805490508110610942576040517f08c379a000000000000000000000000000000000000000000000000000000000815260040161093990611258565b60405180910390fd5b5f8381548110610955576109546112de565b5b905f5260205f2090600402016040518060800160405290815f82015f9054906101000a900473ffffffffffffffffffffffffffffffffffffffff1673ffffffffffffffffffffffffffffffffffffffff1673ffffffffffffffffffffffffffffffffffffffff1681526020016001820180546109d09061142e565b80601f01602080910402602001604051908101604052809291908181526020018280546109fc9061142e565b8015610a475780601f10610a1e57610100808354040283529160200191610a47565b820191905f5260205f20905b815481529060010190602001808311610a2a57829003601f168201915b5050505050815260200160028201805480602002602001604051908101604052809291908181526020018280548015610a9d57602002820191905f5260205f20905b815481526020019060010190808311610a89575b50505050508152602001600382015f9054906101000a900460ff166003811115610aca57610ac9610e81565b5b6003811115610adc57610adb610e81565b5b81525050915050919050565b60405180608001604052805f73ffffffffffffffffffffffffffffffffffffffff16815260200160608152602001606081526020015f6003811115610b3057610b2f610e81565b5b81525090565b828054828255905f5260205f20908101928215610b70579160200282015b82811115610b6f578251825591602001919060010190610b54565b5b509050610b7d9190610b81565b5090565b5b80821115610b98575f815f905550600101610b82565b5090565b5f604051905090565b5f80fd5b5f80fd5b5f819050919050565b610bbf81610bad565b8114610bc9575f80fd5b50565b5f81359050610bda81610bb6565b92915050565b5f60208284031215610bf557610bf4610ba5565b5b5f610c0284828501610bcc565b91505092915050565b610c1481610bad565b82525050565b5f602082019050610c2d5f830184610c0b565b92915050565b5f80fd5b5f80fd5b5f601f19601f8301169050919050565b7f4e487b71000000000000000000000000000000000000000000000000000000005f52604160045260245ffd5b610c8182610c3b565b810181811067ffffffffffffffff82111715610ca057610c9f610c4b565b5b80604052505050565b5f610cb2610b9c565b9050610cbe8282610c78565b919050565b5f67ffffffffffffffff821115610cdd57610cdc610c4b565b5b610ce682610c3b565b9050602081019050919050565b828183375f83830152505050565b5f610d13610d0e84610cc3565b610ca9565b905082815260208101848484011115610d2f57610d2e610c37565b5b610d3a848285610cf3565b509392505050565b5f82601f830112610d5657610d55610c33565b5b8135610d66848260208601610d01565b91505092915050565b5f8060408385031215610d8557610d84610ba5565b5b5f610d9285828601610bcc565b925050602083013567ffffffffffffffff811115610db357610db2610ba9565b5b610dbf85828601610d42565b9150509250929050565b5f73ffffffffffffffffffffffffffffffffffffffff82169050919050565b5f610df282610dc9565b9050919050565b610e0281610de8565b82525050565b5f602082019050610e1b5f830184610df9565b92915050565b5f81519050919050565b5f82825260208201905092915050565b8281835e5f83830152505050565b5f610e5382610e21565b610e5d8185610e2b565b9350610e6d818560208601610e3b565b610e7681610c3b565b840191505092915050565b7f4e487b71000000000000000000000000000000000000000000000000000000005f52602160045260245ffd5b60048110610ebf57610ebe610e81565b5b50565b5f819050610ecf82610eae565b919050565b5f610ede82610ec2565b9050919050565b610eee81610ed4565b82525050565b5f606082019050610f075f830186610df9565b8181036020830152610f198185610e49565b9050610f286040830184610ee5565b949350505050565b5f67ffffffffffffffff821115610f4a57610f49610c4b565b5b602082029050602081019050919050565b5f80fd5b5f610f71610f6c84610f30565b610ca9565b90508083825260208201905060208402830185811115610f9457610f93610f5b565b5b835b81811015610fbd5780610fa98882610bcc565b845260208401935050602081019050610f96565b5050509392505050565b5f82601f830112610fdb57610fda610c33565b5b8135610feb848260208601610f5f565b91505092915050565b5f806040838503121561100a57611009610ba5565b5b5f83013567ffffffffffffffff81111561102757611026610ba9565b5b61103385828601610d42565b925050602083013567ffffffffffffffff81111561105457611053610ba9565b5b61106085828601610fc7565b9150509250929050565b61107381610de8565b82525050565b5f82825260208201905092915050565b5f61109382610e21565b61109d8185611079565b93506110ad818560208601610e3b565b6110b681610c3b565b840191505092915050565b5f81519050919050565b5f82825260208201905092915050565b5f819050602082019050919050565b6110f381610bad565b82525050565b5f61110483836110ea565b60208301905092915050565b5f602082019050919050565b5f611126826110c1565b61113081856110cb565b935061113b836110db565b805f5b8381101561116b57815161115288826110f9565b975061115d83611110565b92505060018101905061113e565b5085935050505092915050565b61118181610ed4565b82525050565b5f608083015f83015161119c5f86018261106a565b50602083015184820360208601526111b48282611089565b915050604083015184820360408601526111ce828261111c565b91505060608301516111e36060860182611178565b508091505092915050565b5f6020820190508181035f8301526112068184611187565b905092915050565b7f4e6f7420612076616c6964206f726465722069642e00000000000000000000005f82015250565b5f611242601583610e2b565b915061124d8261120e565b602082019050919050565b5f6020820190508181035f83015261126f81611236565b9050919050565b7f596f7520617265206e6f7420617574686f72697a6564000000000000000000005f82015250565b5f6112aa601683610e2b565b91506112b582611276565b602082019050919050565b5f6020820190508181035f8301526112d78161129e565b9050919050565b7f4e487b71000000000000000000000000000000000000000000000000000000005f52603260045260245ffd5b7f4f7264657220697320616c726561647920736869707065642e000000000000005f82015250565b5f61133f601983610e2b565b915061134a8261130b565b602082019050919050565b5f6020820190508181035f83015261136c81611333565b9050919050565b7f596f7520617265206e6f7420746865206f776e6572206f6620746865206f72645f8201527f65722e0000000000000000000000000000000000000000000000000000000000602082015250565b5f6113cd602383610e2b565b91506113d882611373565b604082019050919050565b5f6020820190508181035f8301526113fa816113c1565b9050919050565b7f4e487b71000000000000000000000000000000000000000000000000000000005f52602260045260245ffd5b5f600282049050600182168061144557607f821691505b60208210810361145857611457611401565b5b50919050565b5f819050815f5260205f209050919050565b5f6020601f8301049050919050565b5f82821b905092915050565b5f600883026114ba7fffffffffffffffffffffffffffffffffffffffffffffffffffffffffffffffff8261147f565b6114c4868361147f565b95508019841693508086168417925050509392505050565b5f819050919050565b5f6114ff6114fa6114f584610bad565b6114dc565b610bad565b9050919050565b5f819050919050565b611518836114e5565b61152c61152482611506565b84845461148b565b825550505050565b5f90565b611540611534565b61154b81848461150f565b505050565b5b8181101561156e576115635f82611538565b600181019050611551565b5050565b601f8211156115b3576115848161145e565b61158d84611470565b8101602085101561159c578190505b6115b06115a885611470565b830182611550565b50505b505050565b5f82821c905092915050565b5f6115d35f19846008026115b8565b1980831691505092915050565b5f6115eb83836115c4565b9150826002028217905092915050565b61160482610e21565b67ffffffffffffffff81111561161d5761161c610c4b565b5b611627825461142e565b611632828285611572565b5f60209050601f831160018114611663575f8415611651578287015190505b61165b85826115e0565b8655506116c2565b601f1984166116718661145e565b5f5b8281101561169857848901518255600182019150602085019450602081019050611673565b868310156116b557848901516116b1601f8916826115c4565b8355505b6001600288020188555050505b505050505050565b5f6040820190506116dd5f830185610c0b565b81810360208301526116ef8184610e49565b90509392505050565b7f4e487b71000000000000000000000000000000000000000000000000000000005f52601160045260245ffd5b5f61172f82610bad565b91507fffffffffffffffffffffffffffffffffffffffffffffffffffffffffffffffff8203611761576117606116f8565b5b600182019050919050565b7f4e6f2070726f64756374732e00000000000000000000000000000000000000005f82015250565b5f6117a0600c83610e2b565b91506117ab8261176c565b602082019050919050565b5f6020820190508181035f8301526117cd81611794565b9050919050565b5f6117de82610bad565b91506117e983610bad565b9250828203905081811115611801576118006116f8565b5b9291505056fea2646970667358221220838ca6384d86b146b5ae69c0ba5f1c6967361018897299c7c5d835372d97b3a564736f6c634300081a0033",
					"opcodes": "PUSH1 0x80 PUSH1 0x40 MSTORE CALLVALUE DUP1 ISZERO PUSH1 0xE JUMPI PUSH0 DUP1 REVERT JUMPDEST POP CALLER PUSH1 0x1 PUSH0 PUSH2 0x100 EXP DUP2 SLOAD DUP2 PUSH20 0xFFFFFFFFFFFFFFFFFFFFFFFFFFFFFFFFFFFFFFFF MUL NOT AND SWAP1 DUP4 PUSH20 0xFFFFFFFFFFFFFFFFFFFFFFFFFFFFFFFFFFFFFFFF AND MUL OR SWAP1 SSTORE POP PUSH2 0x183D DUP1 PUSH2 0x5C PUSH0 CODECOPY PUSH0 RETURN INVALID PUSH1 0x80 PUSH1 0x40 MSTORE CALLVALUE DUP1 ISZERO PUSH2 0xF JUMPI PUSH0 DUP1 REVERT JUMPDEST POP PUSH1 0x4 CALLDATASIZE LT PUSH2 0x7B JUMPI PUSH0 CALLDATALOAD PUSH1 0xE0 SHR DUP1 PUSH4 0x8DA5CB5B GT PUSH2 0x59 JUMPI DUP1 PUSH4 0x8DA5CB5B EQ PUSH2 0xD5 JUMPI DUP1 PUSH4 0xA85C38EF EQ PUSH2 0xF3 JUMPI DUP1 PUSH4 0xC4EB8DED EQ PUSH2 0x125 JUMPI DUP1 PUSH4 0xD59A1FCE EQ PUSH2 0x155 JUMPI PUSH2 0x7B JUMP JUMPDEST DUP1 PUSH4 0x394B4089 EQ PUSH2 0x7F JUMPI DUP1 PUSH4 0x3C540687 EQ PUSH2 0x9B JUMPI DUP1 PUSH4 0x529772B4 EQ PUSH2 0xB9 JUMPI JUMPDEST PUSH0 DUP1 REVERT JUMPDEST PUSH2 0x99 PUSH1 0x4 DUP1 CALLDATASIZE SUB DUP2 ADD SWAP1 PUSH2 0x94 SWAP2 SWAP1 PUSH2 0xBE0 JUMP JUMPDEST PUSH2 0x185 JUMP JUMPDEST STOP JUMPDEST PUSH2 0xA3 PUSH2 0x43C JUMP JUMPDEST PUSH1 0x40 MLOAD PUSH2 0xB0 SWAP2 SWAP1 PUSH2 0xC1A JUMP JUMPDEST PUSH1 0x40 MLOAD DUP1 SWAP2 SUB SWAP1 RETURN JUMPDEST PUSH2 0xD3 PUSH1 0x4 DUP1 CALLDATASIZE SUB DUP2 ADD SWAP1 PUSH2 0xCE SWAP2 SWAP1 PUSH2 0xD6F JUMP JUMPDEST PUSH2 0x442 JUMP JUMPDEST STOP JUMPDEST PUSH2 0xDD PUSH2 0x5C3 JUMP JUMPDEST PUSH1 0x40 MLOAD PUSH2 0xEA SWAP2 SWAP1 PUSH2 0xE08 JUMP JUMPDEST PUSH1 0x40 MLOAD DUP1 SWAP2 SUB SWAP1 RETURN JUMPDEST PUSH2 0x10D PUSH1 0x4 DUP1 CALLDATASIZE SUB DUP2 ADD SWAP1 PUSH2 0x108 SWAP2 SWAP1 PUSH2 0xBE0 JUMP JUMPDEST PUSH2 0x5E8 JUMP JUMPDEST PUSH1 0x40 MLOAD PUSH2 0x11C SWAP4 SWAP3 SWAP2 SWAP1 PUSH2 0xEF4 JUMP JUMPDEST PUSH1 0x40 MLOAD DUP1 SWAP2 SUB SWAP1 RETURN JUMPDEST PUSH2 0x13F PUSH1 0x4 DUP1 CALLDATASIZE SUB DUP2 ADD SWAP1 PUSH2 0x13A SWAP2 SWAP1 PUSH2 0xFF4 JUMP JUMPDEST PUSH2 0x6CD JUMP JUMPDEST PUSH1 0x40 MLOAD PUSH2 0x14C SWAP2 SWAP1 PUSH2 0xC1A JUMP JUMPDEST PUSH1 0x40 MLOAD DUP1 SWAP2 SUB SWAP1 RETURN JUMPDEST PUSH2 0x16F PUSH1 0x4 DUP1 CALLDATASIZE SUB DUP2 ADD SWAP1 PUSH2 0x16A SWAP2 SWAP1 PUSH2 0xBE0 JUMP JUMPDEST PUSH2 0x8F3 JUMP JUMPDEST PUSH1 0x40 MLOAD PUSH2 0x17C SWAP2 SWAP1 PUSH2 0x11EE JUMP JUMPDEST PUSH1 0x40 MLOAD DUP1 SWAP2 SUB SWAP1 RETURN JUMPDEST DUP1 PUSH0 DUP1 SLOAD SWAP1 POP DUP2 LT PUSH2 0x1CC JUMPI PUSH1 0x40 MLOAD PUSH32 0x8C379A000000000000000000000000000000000000000000000000000000000 DUP2 MSTORE PUSH1 0x4 ADD PUSH2 0x1C3 SWAP1 PUSH2 0x1258 JUMP JUMPDEST PUSH1 0x40 MLOAD DUP1 SWAP2 SUB SWAP1 REVERT JUMPDEST CALLER PUSH20 0xFFFFFFFFFFFFFFFFFFFFFFFFFFFFFFFFFFFFFFFF AND PUSH1 0x1 PUSH0 SWAP1 SLOAD SWAP1 PUSH2 0x100 EXP SWAP1 DIV PUSH20 0xFFFFFFFFFFFFFFFFFFFFFFFFFFFFFFFFFFFFFFFF AND PUSH20 0xFFFFFFFFFFFFFFFFFFFFFFFFFFFFFFFFFFFFFFFF AND EQ PUSH2 0x25B JUMPI PUSH1 0x40 MLOAD PUSH32 0x8C379A000000000000000000000000000000000000000000000000000000000 DUP2 MSTORE PUSH1 0x4 ADD PUSH2 0x252 SWAP1 PUSH2 0x12C0 JUMP JUMPDEST PUSH1 0x40 MLOAD DUP1 SWAP2 SUB SWAP1 REVERT JUMPDEST PUSH0 DUP1 DUP4 DUP2 SLOAD DUP2 LT PUSH2 0x26F JUMPI PUSH2 0x26E PUSH2 0x12DE JUMP JUMPDEST JUMPDEST SWAP1 PUSH0 MSTORE PUSH1 0x20 PUSH0 KECCAK256 SWAP1 PUSH1 0x4 MUL ADD SWAP1 POP PUSH1 0x3 DUP1 DUP2 GT ISZERO PUSH2 0x290 JUMPI PUSH2 0x28F PUSH2 0xE81 JUMP JUMPDEST JUMPDEST DUP2 PUSH1 0x3 ADD PUSH0 SWAP1 SLOAD SWAP1 PUSH2 0x100 EXP SWAP1 DIV PUSH1 0xFF AND PUSH1 0x3 DUP2 GT ISZERO PUSH2 0x2B3 JUMPI PUSH2 0x2B2 PUSH2 0xE81 JUMP JUMPDEST JUMPDEST SUB PUSH2 0x2F3 JUMPI PUSH1 0x40 MLOAD PUSH32 0x8C379A000000000000000000000000000000000000000000000000000000000 DUP2 MSTORE PUSH1 0x4 ADD PUSH2 0x2EA SWAP1 PUSH2 0x1355 JUMP JUMPDEST PUSH1 0x40 MLOAD DUP1 SWAP2 SUB SWAP1 REVERT JUMPDEST PUSH0 PUSH1 0x3 DUP2 GT ISZERO PUSH2 0x306 JUMPI PUSH2 0x305 PUSH2 0xE81 JUMP JUMPDEST JUMPDEST DUP2 PUSH1 0x3 ADD PUSH0 SWAP1 SLOAD SWAP1 PUSH2 0x100 EXP SWAP1 DIV PUSH1 0xFF AND PUSH1 0x3 DUP2 GT ISZERO PUSH2 0x329 JUMPI PUSH2 0x328 PUSH2 0xE81 JUMP JUMPDEST JUMPDEST SUB PUSH2 0x35F JUMPI PUSH1 0x1 DUP2 PUSH1 0x3 ADD PUSH0 PUSH2 0x100 EXP DUP2 SLOAD DUP2 PUSH1 0xFF MUL NOT AND SWAP1 DUP4 PUSH1 0x3 DUP2 GT ISZERO PUSH2 0x355 JUMPI PUSH2 0x354 PUSH2 0xE81 JUMP JUMPDEST JUMPDEST MUL OR SWAP1 SSTORE POP PUSH2 0x437 JUMP JUMPDEST PUSH1 0x1 PUSH1 0x3 DUP2 GT ISZERO PUSH2 0x373 JUMPI PUSH2 0x372 PUSH2 0xE81 JUMP JUMPDEST JUMPDEST DUP2 PUSH1 0x3 ADD PUSH0 SWAP1 SLOAD SWAP1 PUSH2 0x100 EXP SWAP1 DIV PUSH1 0xFF AND PUSH1 0x3 DUP2 GT ISZERO PUSH2 0x396 JUMPI PUSH2 0x395 PUSH2 0xE81 JUMP JUMPDEST JUMPDEST SUB PUSH2 0x3CC JUMPI PUSH1 0x2 DUP2 PUSH1 0x3 ADD PUSH0 PUSH2 0x100 EXP DUP2 SLOAD DUP2 PUSH1 0xFF MUL NOT AND SWAP1 DUP4 PUSH1 0x3 DUP2 GT ISZERO PUSH2 0x3C2 JUMPI PUSH2 0x3C1 PUSH2 0xE81 JUMP JUMPDEST JUMPDEST MUL OR SWAP1 SSTORE POP PUSH2 0x436 JUMP JUMPDEST PUSH1 0x2 PUSH1 0x3 DUP2 GT ISZERO PUSH2 0x3E0 JUMPI PUSH2 0x3DF PUSH2 0xE81 JUMP JUMPDEST JUMPDEST DUP2 PUSH1 0x3 ADD PUSH0 SWAP1 SLOAD SWAP1 PUSH2 0x100 EXP SWAP1 DIV PUSH1 0xFF AND PUSH1 0x3 DUP2 GT ISZERO PUSH2 0x403 JUMPI PUSH2 0x402 PUSH2 0xE81 JUMP JUMPDEST JUMPDEST SUB PUSH2 0x435 JUMPI PUSH1 0x3 DUP2 PUSH1 0x3 ADD PUSH0 PUSH2 0x100 EXP DUP2 SLOAD DUP2 PUSH1 0xFF MUL NOT AND SWAP1 DUP4 PUSH1 0x3 DUP2 GT ISZERO PUSH2 0x42F JUMPI PUSH2 0x42E PUSH2 0xE81 JUMP JUMPDEST JUMPDEST MUL OR SWAP1 SSTORE POP JUMPDEST JUMPDEST JUMPDEST POP POP POP JUMP JUMPDEST PUSH1 0x2 SLOAD DUP2 JUMP JUMPDEST DUP2 PUSH0 DUP1 SLOAD SWAP1 POP DUP2 LT PUSH2 0x489 JUMPI PUSH1 0x40 MLOAD PUSH32 0x8C379A000000000000000000000000000000000000000000000000000000000 DUP2 MSTORE PUSH1 0x4 ADD PUSH2 0x480 SWAP1 PUSH2 0x1258 JUMP JUMPDEST PUSH1 0x40 MLOAD DUP1 SWAP2 SUB SWAP1 REVERT JUMPDEST DUP3 CALLER PUSH20 0xFFFFFFFFFFFFFFFFFFFFFFFFFFFFFFFFFFFFFFFF AND PUSH0 DUP3 DUP2 SLOAD DUP2 LT PUSH2 0x4B4 JUMPI PUSH2 0x4B3 PUSH2 0x12DE JUMP JUMPDEST JUMPDEST SWAP1 PUSH0 MSTORE PUSH1 0x20 PUSH0 KECCAK256 SWAP1 PUSH1 0x4 MUL ADD PUSH0 ADD PUSH0 SWAP1 SLOAD SWAP1 PUSH2 0x100 EXP SWAP1 DIV PUSH20 0xFFFFFFFFFFFFFFFFFFFFFFFFFFFFFFFFFFFFFFFF AND PUSH20 0xFFFFFFFFFFFFFFFFFFFFFFFFFFFFFFFFFFFFFFFF AND EQ PUSH2 0x538 JUMPI PUSH1 0x40 MLOAD PUSH32 0x8C379A000000000000000000000000000000000000000000000000000000000 DUP2 MSTORE PUSH1 0x4 ADD PUSH2 0x52F SWAP1 PUSH2 0x13E3 JUMP JUMPDEST PUSH1 0x40 MLOAD DUP1 SWAP2 SUB SWAP1 REVERT JUMPDEST PUSH0 DUP1 DUP6 DUP2 SLOAD DUP2 LT PUSH2 0x54C JUMPI PUSH2 0x54B PUSH2 0x12DE JUMP JUMPDEST JUMPDEST SWAP1 PUSH0 MSTORE PUSH1 0x20 PUSH0 KECCAK256 SWAP1 PUSH1 0x4 MUL ADD SWAP1 POP DUP4 DUP2 PUSH1 0x1 ADD SWAP1 DUP2 PUSH2 0x56B SWAP2 SWAP1 PUSH2 0x15FB JUMP JUMPDEST POP PUSH32 0xB635342FC0739647E3EAD9D8554F699CE14329FF69A3C75FCE31BA5131C4E1CD DUP6 DUP6 PUSH1 0x40 MLOAD PUSH2 0x59D SWAP3 SWAP2 SWAP1 PUSH2 0x16CA JUMP JUMPDEST PUSH1 0x40 MLOAD DUP1 SWAP2 SUB SWAP1 LOG1 POP PUSH1 0x2 PUSH0 DUP2 SLOAD DUP1 SWAP3 SWAP2 SWAP1 PUSH2 0x5B8 SWAP1 PUSH2 0x1725 JUMP JUMPDEST SWAP2 SWAP1 POP SSTORE POP POP POP POP POP JUMP JUMPDEST PUSH1 0x1 PUSH0 SWAP1 SLOAD SWAP1 PUSH2 0x100 EXP SWAP1 DIV PUSH20 0xFFFFFFFFFFFFFFFFFFFFFFFFFFFFFFFFFFFFFFFF AND DUP2 JUMP JUMPDEST PUSH0 DUP2 DUP2 SLOAD DUP2 LT PUSH2 0x5F6 JUMPI PUSH0 DUP1 REVERT JUMPDEST SWAP1 PUSH0 MSTORE PUSH1 0x20 PUSH0 KECCAK256 SWAP1 PUSH1 0x4 MUL ADD PUSH0 SWAP2 POP SWAP1 POP DUP1 PUSH0 ADD PUSH0 SWAP1 SLOAD SWAP1 PUSH2 0x100 EXP SWAP1 DIV PUSH20 0xFFFFFFFFFFFFFFFFFFFFFFFFFFFFFFFFFFFFFFFF AND SWAP1 DUP1 PUSH1 0x1 ADD DUP1 SLOAD PUSH2 0x63A SWAP1 PUSH2 0x142E JUMP JUMPDEST DUP1 PUSH1 0x1F ADD PUSH1 0x20 DUP1 SWAP2 DIV MUL PUSH1 0x20 ADD PUSH1 0x40 MLOAD SWAP1 DUP2 ADD PUSH1 0x40 MSTORE DUP1 SWAP3 SWAP2 SWAP1 DUP2 DUP2 MSTORE PUSH1 0x20 ADD DUP3 DUP1 SLOAD PUSH2 0x666 SWAP1 PUSH2 0x142E JUMP JUMPDEST DUP1 ISZERO PUSH2 0x6B1 JUMPI DUP1 PUSH1 0x1F LT PUSH2 0x688 JUMPI PUSH2 0x100 DUP1 DUP4 SLOAD DIV MUL DUP4 MSTORE SWAP2 PUSH1 0x20 ADD SWAP2 PUSH2 0x6B1 JUMP JUMPDEST DUP3 ADD SWAP2 SWAP1 PUSH0 MSTORE PUSH1 0x20 PUSH0 KECCAK256 SWAP1 JUMPDEST DUP2 SLOAD DUP2 MSTORE SWAP1 PUSH1 0x1 ADD SWAP1 PUSH1 0x20 ADD DUP1 DUP4 GT PUSH2 0x694 JUMPI DUP3 SWAP1 SUB PUSH1 0x1F AND DUP3 ADD SWAP2 JUMPDEST POP POP POP POP POP SWAP1 DUP1 PUSH1 0x3 ADD PUSH0 SWAP1 SLOAD SWAP1 PUSH2 0x100 EXP SWAP1 DIV PUSH1 0xFF AND SWAP1 POP DUP4 JUMP JUMPDEST PUSH0 DUP2 PUSH0 DUP2 MLOAD GT PUSH2 0x712 JUMPI PUSH1 0x40 MLOAD PUSH32 0x8C379A000000000000000000000000000000000000000000000000000000000 DUP2 MSTORE PUSH1 0x4 ADD PUSH2 0x709 SWAP1 PUSH2 0x17B6 JUMP JUMPDEST PUSH1 0x40 MLOAD DUP1 SWAP2 SUB SWAP1 REVERT JUMPDEST PUSH2 0x71A PUSH2 0xAE8 JUMP JUMPDEST CALLER DUP2 PUSH0 ADD SWAP1 PUSH20 0xFFFFFFFFFFFFFFFFFFFFFFFFFFFFFFFFFFFFFFFF AND SWAP1 DUP2 PUSH20 0xFFFFFFFFFFFFFFFFFFFFFFFFFFFFFFFFFFFFFFFF AND DUP2 MSTORE POP POP DUP5 DUP2 PUSH1 0x20 ADD DUP2 SWAP1 MSTORE POP DUP4 DUP2 PUSH1 0x40 ADD DUP2 SWAP1 MSTORE POP PUSH0 DUP2 PUSH1 0x60 ADD SWAP1 PUSH1 0x3 DUP2 GT ISZERO PUSH2 0x77B JUMPI PUSH2 0x77A PUSH2 0xE81 JUMP JUMPDEST JUMPDEST SWAP1 DUP2 PUSH1 0x3 DUP2 GT ISZERO PUSH2 0x78F JUMPI PUSH2 0x78E PUSH2 0xE81 JUMP JUMPDEST JUMPDEST DUP2 MSTORE POP POP PUSH0 DUP2 SWAP1 DUP1 PUSH1 0x1 DUP2 SLOAD ADD DUP1 DUP3 SSTORE DUP1 SWAP2 POP POP PUSH1 0x1 SWAP1 SUB SWAP1 PUSH0 MSTORE PUSH1 0x20 PUSH0 KECCAK256 SWAP1 PUSH1 0x4 MUL ADD PUSH0 SWAP1 SWAP2 SWAP1 SWAP2 SWAP1 SWAP2 POP PUSH0 DUP3 ADD MLOAD DUP2 PUSH0 ADD PUSH0 PUSH2 0x100 EXP DUP2 SLOAD DUP2 PUSH20 0xFFFFFFFFFFFFFFFFFFFFFFFFFFFFFFFFFFFFFFFF MUL NOT AND SWAP1 DUP4 PUSH20 0xFFFFFFFFFFFFFFFFFFFFFFFFFFFFFFFFFFFFFFFF AND MUL OR SWAP1 SSTORE POP PUSH1 0x20 DUP3 ADD MLOAD DUP2 PUSH1 0x1 ADD SWAP1 DUP2 PUSH2 0x814 SWAP2 SWAP1 PUSH2 0x15FB JUMP JUMPDEST POP PUSH1 0x40 DUP3 ADD MLOAD DUP2 PUSH1 0x2 ADD SWAP1 DUP1 MLOAD SWAP1 PUSH1 0x20 ADD SWAP1 PUSH2 0x831 SWAP3 SWAP2 SWAP1 PUSH2 0xB36 JUMP JUMPDEST POP PUSH1 0x60 DUP3 ADD MLOAD DUP2 PUSH1 0x3 ADD PUSH0 PUSH2 0x100 EXP DUP2 SLOAD DUP2 PUSH1 0xFF MUL NOT AND SWAP1 DUP4 PUSH1 0x3 DUP2 GT ISZERO PUSH2 0x85C JUMPI PUSH2 0x85B PUSH2 0xE81 JUMP JUMPDEST JUMPDEST MUL OR SWAP1 SSTORE POP POP POP CALLER PUSH20 0xFFFFFFFFFFFFFFFFFFFFFFFFFFFFFFFFFFFFFFFF AND PUSH32 0x4CEAEA0569072C9203C8C195FFCCDBCA9851B9D0410F577878A6792F12EC9B52 PUSH1 0x1 PUSH0 DUP1 SLOAD SWAP1 POP PUSH2 0x8AC SWAP2 SWAP1 PUSH2 0x17D4 JUMP JUMPDEST PUSH1 0x40 MLOAD PUSH2 0x8B9 SWAP2 SWAP1 PUSH2 0xC1A JUMP JUMPDEST PUSH1 0x40 MLOAD DUP1 SWAP2 SUB SWAP1 LOG2 PUSH1 0x1 PUSH0 DUP1 SLOAD SWAP1 POP PUSH2 0x8D2 SWAP2 SWAP1 PUSH2 0x17D4 JUMP JUMPDEST SWAP3 POP POP PUSH1 0x2 PUSH0 DUP2 SLOAD DUP1 SWAP3 SWAP2 SWAP1 PUSH2 0x8E7 SWAP1 PUSH2 0x1725 JUMP JUMPDEST SWAP2 SWAP1 POP SSTORE POP POP SWAP3 SWAP2 POP POP JUMP JUMPDEST PUSH2 0x8FB PUSH2 0xAE8 JUMP JUMPDEST DUP2 PUSH0 DUP1 SLOAD SWAP1 POP DUP2 LT PUSH2 0x942 JUMPI PUSH1 0x40 MLOAD PUSH32 0x8C379A000000000000000000000000000000000000000000000000000000000 DUP2 MSTORE PUSH1 0x4 ADD PUSH2 0x939 SWAP1 PUSH2 0x1258 JUMP JUMPDEST PUSH1 0x40 MLOAD DUP1 SWAP2 SUB SWAP1 REVERT JUMPDEST PUSH0 DUP4 DUP2 SLOAD DUP2 LT PUSH2 0x955 JUMPI PUSH2 0x954 PUSH2 0x12DE JUMP JUMPDEST JUMPDEST SWAP1 PUSH0 MSTORE PUSH1 0x20 PUSH0 KECCAK256 SWAP1 PUSH1 0x4 MUL ADD PUSH1 0x40 MLOAD DUP1 PUSH1 0x80 ADD PUSH1 0x40 MSTORE SWAP1 DUP2 PUSH0 DUP3 ADD PUSH0 SWAP1 SLOAD SWAP1 PUSH2 0x100 EXP SWAP1 DIV PUSH20 0xFFFFFFFFFFFFFFFFFFFFFFFFFFFFFFFFFFFFFFFF AND PUSH20 0xFFFFFFFFFFFFFFFFFFFFFFFFFFFFFFFFFFFFFFFF AND PUSH20 0xFFFFFFFFFFFFFFFFFFFFFFFFFFFFFFFFFFFFFFFF AND DUP2 MSTORE PUSH1 0x20 ADD PUSH1 0x1 DUP3 ADD DUP1 SLOAD PUSH2 0x9D0 SWAP1 PUSH2 0x142E JUMP JUMPDEST DUP1 PUSH1 0x1F ADD PUSH1 0x20 DUP1 SWAP2 DIV MUL PUSH1 0x20 ADD PUSH1 0x40 MLOAD SWAP1 DUP2 ADD PUSH1 0x40 MSTORE DUP1 SWAP3 SWAP2 SWAP1 DUP2 DUP2 MSTORE PUSH1 0x20 ADD DUP3 DUP1 SLOAD PUSH2 0x9FC SWAP1 PUSH2 0x142E JUMP JUMPDEST DUP1 ISZERO PUSH2 0xA47 JUMPI DUP1 PUSH1 0x1F LT PUSH2 0xA1E JUMPI PUSH2 0x100 DUP1 DUP4 SLOAD DIV MUL DUP4 MSTORE SWAP2 PUSH1 0x20 ADD SWAP2 PUSH2 0xA47 JUMP JUMPDEST DUP3 ADD SWAP2 SWAP1 PUSH0 MSTORE PUSH1 0x20 PUSH0 KECCAK256 SWAP1 JUMPDEST DUP2 SLOAD DUP2 MSTORE SWAP1 PUSH1 0x1 ADD SWAP1 PUSH1 0x20 ADD DUP1 DUP4 GT PUSH2 0xA2A JUMPI DUP3 SWAP1 SUB PUSH1 0x1F AND DUP3 ADD SWAP2 JUMPDEST POP POP POP POP POP DUP2 MSTORE PUSH1 0x20 ADD PUSH1 0x2 DUP3 ADD DUP1 SLOAD DUP1 PUSH1 0x20 MUL PUSH1 0x20 ADD PUSH1 0x40 MLOAD SWAP1 DUP2 ADD PUSH1 0x40 MSTORE DUP1 SWAP3 SWAP2 SWAP1 DUP2 DUP2 MSTORE PUSH1 0x20 ADD DUP3 DUP1 SLOAD DUP1 ISZERO PUSH2 0xA9D JUMPI PUSH1 0x20 MUL DUP3 ADD SWAP2 SWAP1 PUSH0 MSTORE PUSH1 0x20 PUSH0 KECCAK256 SWAP1 JUMPDEST DUP2 SLOAD DUP2 MSTORE PUSH1 0x20 ADD SWAP1 PUSH1 0x1 ADD SWAP1 DUP1 DUP4 GT PUSH2 0xA89 JUMPI JUMPDEST POP POP POP POP POP DUP2 MSTORE PUSH1 0x20 ADD PUSH1 0x3 DUP3 ADD PUSH0 SWAP1 SLOAD SWAP1 PUSH2 0x100 EXP SWAP1 DIV PUSH1 0xFF AND PUSH1 0x3 DUP2 GT ISZERO PUSH2 0xACA JUMPI PUSH2 0xAC9 PUSH2 0xE81 JUMP JUMPDEST JUMPDEST PUSH1 0x3 DUP2 GT ISZERO PUSH2 0xADC JUMPI PUSH2 0xADB PUSH2 0xE81 JUMP JUMPDEST JUMPDEST DUP2 MSTORE POP POP SWAP2 POP POP SWAP2 SWAP1 POP JUMP JUMPDEST PUSH1 0x40 MLOAD DUP1 PUSH1 0x80 ADD PUSH1 0x40 MSTORE DUP1 PUSH0 PUSH20 0xFFFFFFFFFFFFFFFFFFFFFFFFFFFFFFFFFFFFFFFF AND DUP2 MSTORE PUSH1 0x20 ADD PUSH1 0x60 DUP2 MSTORE PUSH1 0x20 ADD PUSH1 0x60 DUP2 MSTORE PUSH1 0x20 ADD PUSH0 PUSH1 0x3 DUP2 GT ISZERO PUSH2 0xB30 JUMPI PUSH2 0xB2F PUSH2 0xE81 JUMP JUMPDEST JUMPDEST DUP2 MSTORE POP SWAP1 JUMP JUMPDEST DUP3 DUP1 SLOAD DUP3 DUP3 SSTORE SWAP1 PUSH0 MSTORE PUSH1 0x20 PUSH0 KECCAK256 SWAP1 DUP2 ADD SWAP3 DUP3 ISZERO PUSH2 0xB70 JUMPI SWAP2 PUSH1 0x20 MUL DUP3 ADD JUMPDEST DUP3 DUP2 GT ISZERO PUSH2 0xB6F JUMPI DUP3 MLOAD DUP3 SSTORE SWAP2 PUSH1 0x20 ADD SWAP2 SWAP1 PUSH1 0x1 ADD SWAP1 PUSH2 0xB54 JUMP JUMPDEST JUMPDEST POP SWAP1 POP PUSH2 0xB7D SWAP2 SWAP1 PUSH2 0xB81 JUMP JUMPDEST POP SWAP1 JUMP JUMPDEST JUMPDEST DUP1 DUP3 GT ISZERO PUSH2 0xB98 JUMPI PUSH0 DUP2 PUSH0 SWAP1 SSTORE POP PUSH1 0x1 ADD PUSH2 0xB82 JUMP JUMPDEST POP SWAP1 JUMP JUMPDEST PUSH0 PUSH1 0x40 MLOAD SWAP1 POP SWAP1 JUMP JUMPDEST PUSH0 DUP1 REVERT JUMPDEST PUSH0 DUP1 REVERT JUMPDEST PUSH0 DUP2 SWAP1 POP SWAP2 SWAP1 POP JUMP JUMPDEST PUSH2 0xBBF DUP2 PUSH2 0xBAD JUMP JUMPDEST DUP2 EQ PUSH2 0xBC9 JUMPI PUSH0 DUP1 REVERT JUMPDEST POP JUMP JUMPDEST PUSH0 DUP2 CALLDATALOAD SWAP1 POP PUSH2 0xBDA DUP2 PUSH2 0xBB6 JUMP JUMPDEST SWAP3 SWAP2 POP POP JUMP JUMPDEST PUSH0 PUSH1 0x20 DUP3 DUP5 SUB SLT ISZERO PUSH2 0xBF5 JUMPI PUSH2 0xBF4 PUSH2 0xBA5 JUMP JUMPDEST JUMPDEST PUSH0 PUSH2 0xC02 DUP5 DUP3 DUP6 ADD PUSH2 0xBCC JUMP JUMPDEST SWAP2 POP POP SWAP3 SWAP2 POP POP JUMP JUMPDEST PUSH2 0xC14 DUP2 PUSH2 0xBAD JUMP JUMPDEST DUP3 MSTORE POP POP JUMP JUMPDEST PUSH0 PUSH1 0x20 DUP3 ADD SWAP1 POP PUSH2 0xC2D PUSH0 DUP4 ADD DUP5 PUSH2 0xC0B JUMP JUMPDEST SWAP3 SWAP2 POP POP JUMP JUMPDEST PUSH0 DUP1 REVERT JUMPDEST PUSH0 DUP1 REVERT JUMPDEST PUSH0 PUSH1 0x1F NOT PUSH1 0x1F DUP4 ADD AND SWAP1 POP SWAP2 SWAP1 POP JUMP JUMPDEST PUSH32 0x4E487B7100000000000000000000000000000000000000000000000000000000 PUSH0 MSTORE PUSH1 0x41 PUSH1 0x4 MSTORE PUSH1 0x24 PUSH0 REVERT JUMPDEST PUSH2 0xC81 DUP3 PUSH2 0xC3B JUMP JUMPDEST DUP2 ADD DUP2 DUP2 LT PUSH8 0xFFFFFFFFFFFFFFFF DUP3 GT OR ISZERO PUSH2 0xCA0 JUMPI PUSH2 0xC9F PUSH2 0xC4B JUMP JUMPDEST JUMPDEST DUP1 PUSH1 0x40 MSTORE POP POP POP JUMP JUMPDEST PUSH0 PUSH2 0xCB2 PUSH2 0xB9C JUMP JUMPDEST SWAP1 POP PUSH2 0xCBE DUP3 DUP3 PUSH2 0xC78 JUMP JUMPDEST SWAP2 SWAP1 POP JUMP JUMPDEST PUSH0 PUSH8 0xFFFFFFFFFFFFFFFF DUP3 GT ISZERO PUSH2 0xCDD JUMPI PUSH2 0xCDC PUSH2 0xC4B JUMP JUMPDEST JUMPDEST PUSH2 0xCE6 DUP3 PUSH2 0xC3B JUMP JUMPDEST SWAP1 POP PUSH1 0x20 DUP2 ADD SWAP1 POP SWAP2 SWAP1 POP JUMP JUMPDEST DUP3 DUP2 DUP4 CALLDATACOPY PUSH0 DUP4 DUP4 ADD MSTORE POP POP POP JUMP JUMPDEST PUSH0 PUSH2 0xD13 PUSH2 0xD0E DUP5 PUSH2 0xCC3 JUMP JUMPDEST PUSH2 0xCA9 JUMP JUMPDEST SWAP1 POP DUP3 DUP2 MSTORE PUSH1 0x20 DUP2 ADD DUP5 DUP5 DUP5 ADD GT ISZERO PUSH2 0xD2F JUMPI PUSH2 0xD2E PUSH2 0xC37 JUMP JUMPDEST JUMPDEST PUSH2 0xD3A DUP5 DUP3 DUP6 PUSH2 0xCF3 JUMP JUMPDEST POP SWAP4 SWAP3 POP POP POP JUMP JUMPDEST PUSH0 DUP3 PUSH1 0x1F DUP4 ADD SLT PUSH2 0xD56 JUMPI PUSH2 0xD55 PUSH2 0xC33 JUMP JUMPDEST JUMPDEST DUP2 CALLDATALOAD PUSH2 0xD66 DUP5 DUP3 PUSH1 0x20 DUP7 ADD PUSH2 0xD01 JUMP JUMPDEST SWAP2 POP POP SWAP3 SWAP2 POP POP JUMP JUMPDEST PUSH0 DUP1 PUSH1 0x40 DUP4 DUP6 SUB SLT ISZERO PUSH2 0xD85 JUMPI PUSH2 0xD84 PUSH2 0xBA5 JUMP JUMPDEST JUMPDEST PUSH0 PUSH2 0xD92 DUP6 DUP3 DUP7 ADD PUSH2 0xBCC JUMP JUMPDEST SWAP3 POP POP PUSH1 0x20 DUP4 ADD CALLDATALOAD PUSH8 0xFFFFFFFFFFFFFFFF DUP2 GT ISZERO PUSH2 0xDB3 JUMPI PUSH2 0xDB2 PUSH2 0xBA9 JUMP JUMPDEST JUMPDEST PUSH2 0xDBF DUP6 DUP3 DUP7 ADD PUSH2 0xD42 JUMP JUMPDEST SWAP2 POP POP SWAP3 POP SWAP3 SWAP1 POP JUMP JUMPDEST PUSH0 PUSH20 0xFFFFFFFFFFFFFFFFFFFFFFFFFFFFFFFFFFFFFFFF DUP3 AND SWAP1 POP SWAP2 SWAP1 POP JUMP JUMPDEST PUSH0 PUSH2 0xDF2 DUP3 PUSH2 0xDC9 JUMP JUMPDEST SWAP1 POP SWAP2 SWAP1 POP JUMP JUMPDEST PUSH2 0xE02 DUP2 PUSH2 0xDE8 JUMP JUMPDEST DUP3 MSTORE POP POP JUMP JUMPDEST PUSH0 PUSH1 0x20 DUP3 ADD SWAP1 POP PUSH2 0xE1B PUSH0 DUP4 ADD DUP5 PUSH2 0xDF9 JUMP JUMPDEST SWAP3 SWAP2 POP POP JUMP JUMPDEST PUSH0 DUP2 MLOAD SWAP1 POP SWAP2 SWAP1 POP JUMP JUMPDEST PUSH0 DUP3 DUP3 MSTORE PUSH1 0x20 DUP3 ADD SWAP1 POP SWAP3 SWAP2 POP POP JUMP JUMPDEST DUP3 DUP2 DUP4 MCOPY PUSH0 DUP4 DUP4 ADD MSTORE POP POP POP JUMP JUMPDEST PUSH0 PUSH2 0xE53 DUP3 PUSH2 0xE21 JUMP JUMPDEST PUSH2 0xE5D DUP2 DUP6 PUSH2 0xE2B JUMP JUMPDEST SWAP4 POP PUSH2 0xE6D DUP2 DUP6 PUSH1 0x20 DUP7 ADD PUSH2 0xE3B JUMP JUMPDEST PUSH2 0xE76 DUP2 PUSH2 0xC3B JUMP JUMPDEST DUP5 ADD SWAP2 POP POP SWAP3 SWAP2 POP POP JUMP JUMPDEST PUSH32 0x4E487B7100000000000000000000000000000000000000000000000000000000 PUSH0 MSTORE PUSH1 0x21 PUSH1 0x4 MSTORE PUSH1 0x24 PUSH0 REVERT JUMPDEST PUSH1 0x4 DUP2 LT PUSH2 0xEBF JUMPI PUSH2 0xEBE PUSH2 0xE81 JUMP JUMPDEST JUMPDEST POP JUMP JUMPDEST PUSH0 DUP2 SWAP1 POP PUSH2 0xECF DUP3 PUSH2 0xEAE JUMP JUMPDEST SWAP2 SWAP1 POP JUMP JUMPDEST PUSH0 PUSH2 0xEDE DUP3 PUSH2 0xEC2 JUMP JUMPDEST SWAP1 POP SWAP2 SWAP1 POP JUMP JUMPDEST PUSH2 0xEEE DUP2 PUSH2 0xED4 JUMP JUMPDEST DUP3 MSTORE POP POP JUMP JUMPDEST PUSH0 PUSH1 0x60 DUP3 ADD SWAP1 POP PUSH2 0xF07 PUSH0 DUP4 ADD DUP7 PUSH2 0xDF9 JUMP JUMPDEST DUP2 DUP2 SUB PUSH1 0x20 DUP4 ADD MSTORE PUSH2 0xF19 DUP2 DUP6 PUSH2 0xE49 JUMP JUMPDEST SWAP1 POP PUSH2 0xF28 PUSH1 0x40 DUP4 ADD DUP5 PUSH2 0xEE5 JUMP JUMPDEST SWAP5 SWAP4 POP POP POP POP JUMP JUMPDEST PUSH0 PUSH8 0xFFFFFFFFFFFFFFFF DUP3 GT ISZERO PUSH2 0xF4A JUMPI PUSH2 0xF49 PUSH2 0xC4B JUMP JUMPDEST JUMPDEST PUSH1 0x20 DUP3 MUL SWAP1 POP PUSH1 0x20 DUP2 ADD SWAP1 POP SWAP2 SWAP1 POP JUMP JUMPDEST PUSH0 DUP1 REVERT JUMPDEST PUSH0 PUSH2 0xF71 PUSH2 0xF6C DUP5 PUSH2 0xF30 JUMP JUMPDEST PUSH2 0xCA9 JUMP JUMPDEST SWAP1 POP DUP1 DUP4 DUP3 MSTORE PUSH1 0x20 DUP3 ADD SWAP1 POP PUSH1 0x20 DUP5 MUL DUP4 ADD DUP6 DUP2 GT ISZERO PUSH2 0xF94 JUMPI PUSH2 0xF93 PUSH2 0xF5B JUMP JUMPDEST JUMPDEST DUP4 JUMPDEST DUP2 DUP2 LT ISZERO PUSH2 0xFBD JUMPI DUP1 PUSH2 0xFA9 DUP9 DUP3 PUSH2 0xBCC JUMP JUMPDEST DUP5 MSTORE PUSH1 0x20 DUP5 ADD SWAP4 POP POP PUSH1 0x20 DUP2 ADD SWAP1 POP PUSH2 0xF96 JUMP JUMPDEST POP POP POP SWAP4 SWAP3 POP POP POP JUMP JUMPDEST PUSH0 DUP3 PUSH1 0x1F DUP4 ADD SLT PUSH2 0xFDB JUMPI PUSH2 0xFDA PUSH2 0xC33 JUMP JUMPDEST JUMPDEST DUP2 CALLDATALOAD PUSH2 0xFEB DUP5 DUP3 PUSH1 0x20 DUP7 ADD PUSH2 0xF5F JUMP JUMPDEST SWAP2 POP POP SWAP3 SWAP2 POP POP JUMP JUMPDEST PUSH0 DUP1 PUSH1 0x40 DUP4 DUP6 SUB SLT ISZERO PUSH2 0x100A JUMPI PUSH2 0x1009 PUSH2 0xBA5 JUMP JUMPDEST JUMPDEST PUSH0 DUP4 ADD CALLDATALOAD PUSH8 0xFFFFFFFFFFFFFFFF DUP2 GT ISZERO PUSH2 0x1027 JUMPI PUSH2 0x1026 PUSH2 0xBA9 JUMP JUMPDEST JUMPDEST PUSH2 0x1033 DUP6 DUP3 DUP7 ADD PUSH2 0xD42 JUMP JUMPDEST SWAP3 POP POP PUSH1 0x20 DUP4 ADD CALLDATALOAD PUSH8 0xFFFFFFFFFFFFFFFF DUP2 GT ISZERO PUSH2 0x1054 JUMPI PUSH2 0x1053 PUSH2 0xBA9 JUMP JUMPDEST JUMPDEST PUSH2 0x1060 DUP6 DUP3 DUP7 ADD PUSH2 0xFC7 JUMP JUMPDEST SWAP2 POP POP SWAP3 POP SWAP3 SWAP1 POP JUMP JUMPDEST PUSH2 0x1073 DUP2 PUSH2 0xDE8 JUMP JUMPDEST DUP3 MSTORE POP POP JUMP JUMPDEST PUSH0 DUP3 DUP3 MSTORE PUSH1 0x20 DUP3 ADD SWAP1 POP SWAP3 SWAP2 POP POP JUMP JUMPDEST PUSH0 PUSH2 0x1093 DUP3 PUSH2 0xE21 JUMP JUMPDEST PUSH2 0x109D DUP2 DUP6 PUSH2 0x1079 JUMP JUMPDEST SWAP4 POP PUSH2 0x10AD DUP2 DUP6 PUSH1 0x20 DUP7 ADD PUSH2 0xE3B JUMP JUMPDEST PUSH2 0x10B6 DUP2 PUSH2 0xC3B JUMP JUMPDEST DUP5 ADD SWAP2 POP POP SWAP3 SWAP2 POP POP JUMP JUMPDEST PUSH0 DUP2 MLOAD SWAP1 POP SWAP2 SWAP1 POP JUMP JUMPDEST PUSH0 DUP3 DUP3 MSTORE PUSH1 0x20 DUP3 ADD SWAP1 POP SWAP3 SWAP2 POP POP JUMP JUMPDEST PUSH0 DUP2 SWAP1 POP PUSH1 0x20 DUP3 ADD SWAP1 POP SWAP2 SWAP1 POP JUMP JUMPDEST PUSH2 0x10F3 DUP2 PUSH2 0xBAD JUMP JUMPDEST DUP3 MSTORE POP POP JUMP JUMPDEST PUSH0 PUSH2 0x1104 DUP4 DUP4 PUSH2 0x10EA JUMP JUMPDEST PUSH1 0x20 DUP4 ADD SWAP1 POP SWAP3 SWAP2 POP POP JUMP JUMPDEST PUSH0 PUSH1 0x20 DUP3 ADD SWAP1 POP SWAP2 SWAP1 POP JUMP JUMPDEST PUSH0 PUSH2 0x1126 DUP3 PUSH2 0x10C1 JUMP JUMPDEST PUSH2 0x1130 DUP2 DUP6 PUSH2 0x10CB JUMP JUMPDEST SWAP4 POP PUSH2 0x113B DUP4 PUSH2 0x10DB JUMP JUMPDEST DUP1 PUSH0 JUMPDEST DUP4 DUP2 LT ISZERO PUSH2 0x116B JUMPI DUP2 MLOAD PUSH2 0x1152 DUP9 DUP3 PUSH2 0x10F9 JUMP JUMPDEST SWAP8 POP PUSH2 0x115D DUP4 PUSH2 0x1110 JUMP JUMPDEST SWAP3 POP POP PUSH1 0x1 DUP2 ADD SWAP1 POP PUSH2 0x113E JUMP JUMPDEST POP DUP6 SWAP4 POP POP POP POP SWAP3 SWAP2 POP POP JUMP JUMPDEST PUSH2 0x1181 DUP2 PUSH2 0xED4 JUMP JUMPDEST DUP3 MSTORE POP POP JUMP JUMPDEST PUSH0 PUSH1 0x80 DUP4 ADD PUSH0 DUP4 ADD MLOAD PUSH2 0x119C PUSH0 DUP7 ADD DUP3 PUSH2 0x106A JUMP JUMPDEST POP PUSH1 0x20 DUP4 ADD MLOAD DUP5 DUP3 SUB PUSH1 0x20 DUP7 ADD MSTORE PUSH2 0x11B4 DUP3 DUP3 PUSH2 0x1089 JUMP JUMPDEST SWAP2 POP POP PUSH1 0x40 DUP4 ADD MLOAD DUP5 DUP3 SUB PUSH1 0x40 DUP7 ADD MSTORE PUSH2 0x11CE DUP3 DUP3 PUSH2 0x111C JUMP JUMPDEST SWAP2 POP POP PUSH1 0x60 DUP4 ADD MLOAD PUSH2 0x11E3 PUSH1 0x60 DUP7 ADD DUP3 PUSH2 0x1178 JUMP JUMPDEST POP DUP1 SWAP2 POP POP SWAP3 SWAP2 POP POP JUMP JUMPDEST PUSH0 PUSH1 0x20 DUP3 ADD SWAP1 POP DUP2 DUP2 SUB PUSH0 DUP4 ADD MSTORE PUSH2 0x1206 DUP2 DUP5 PUSH2 0x1187 JUMP JUMPDEST SWAP1 POP SWAP3 SWAP2 POP POP JUMP JUMPDEST PUSH32 0x4E6F7420612076616C6964206F726465722069642E0000000000000000000000 PUSH0 DUP3 ADD MSTORE POP JUMP JUMPDEST PUSH0 PUSH2 0x1242 PUSH1 0x15 DUP4 PUSH2 0xE2B JUMP JUMPDEST SWAP2 POP PUSH2 0x124D DUP3 PUSH2 0x120E JUMP JUMPDEST PUSH1 0x20 DUP3 ADD SWAP1 POP SWAP2 SWAP1 POP JUMP JUMPDEST PUSH0 PUSH1 0x20 DUP3 ADD SWAP1 POP DUP2 DUP2 SUB PUSH0 DUP4 ADD MSTORE PUSH2 0x126F DUP2 PUSH2 0x1236 JUMP JUMPDEST SWAP1 POP SWAP2 SWAP1 POP JUMP JUMPDEST PUSH32 0x596F7520617265206E6F7420617574686F72697A656400000000000000000000 PUSH0 DUP3 ADD MSTORE POP JUMP JUMPDEST PUSH0 PUSH2 0x12AA PUSH1 0x16 DUP4 PUSH2 0xE2B JUMP JUMPDEST SWAP2 POP PUSH2 0x12B5 DUP3 PUSH2 0x1276 JUMP JUMPDEST PUSH1 0x20 DUP3 ADD SWAP1 POP SWAP2 SWAP1 POP JUMP JUMPDEST PUSH0 PUSH1 0x20 DUP3 ADD SWAP1 POP DUP2 DUP2 SUB PUSH0 DUP4 ADD MSTORE PUSH2 0x12D7 DUP2 PUSH2 0x129E JUMP JUMPDEST SWAP1 POP SWAP2 SWAP1 POP JUMP JUMPDEST PUSH32 0x4E487B7100000000000000000000000000000000000000000000000000000000 PUSH0 MSTORE PUSH1 0x32 PUSH1 0x4 MSTORE PUSH1 0x24 PUSH0 REVERT JUMPDEST PUSH32 0x4F7264657220697320616C726561647920736869707065642E00000000000000 PUSH0 DUP3 ADD MSTORE POP JUMP JUMPDEST PUSH0 PUSH2 0x133F PUSH1 0x19 DUP4 PUSH2 0xE2B JUMP JUMPDEST SWAP2 POP PUSH2 0x134A DUP3 PUSH2 0x130B JUMP JUMPDEST PUSH1 0x20 DUP3 ADD SWAP1 POP SWAP2 SWAP1 POP JUMP JUMPDEST PUSH0 PUSH1 0x20 DUP3 ADD SWAP1 POP DUP2 DUP2 SUB PUSH0 DUP4 ADD MSTORE PUSH2 0x136C DUP2 PUSH2 0x1333 JUMP JUMPDEST SWAP1 POP SWAP2 SWAP1 POP JUMP JUMPDEST PUSH32 0x596F7520617265206E6F7420746865206F776E6572206F6620746865206F7264 PUSH0 DUP3 ADD MSTORE PUSH32 0x65722E0000000000000000000000000000000000000000000000000000000000 PUSH1 0x20 DUP3 ADD MSTORE POP JUMP JUMPDEST PUSH0 PUSH2 0x13CD PUSH1 0x23 DUP4 PUSH2 0xE2B JUMP JUMPDEST SWAP2 POP PUSH2 0x13D8 DUP3 PUSH2 0x1373 JUMP JUMPDEST PUSH1 0x40 DUP3 ADD SWAP1 POP SWAP2 SWAP1 POP JUMP JUMPDEST PUSH0 PUSH1 0x20 DUP3 ADD SWAP1 POP DUP2 DUP2 SUB PUSH0 DUP4 ADD MSTORE PUSH2 0x13FA DUP2 PUSH2 0x13C1 JUMP JUMPDEST SWAP1 POP SWAP2 SWAP1 POP JUMP JUMPDEST PUSH32 0x4E487B7100000000000000000000000000000000000000000000000000000000 PUSH0 MSTORE PUSH1 0x22 PUSH1 0x4 MSTORE PUSH1 0x24 PUSH0 REVERT JUMPDEST PUSH0 PUSH1 0x2 DUP3 DIV SWAP1 POP PUSH1 0x1 DUP3 AND DUP1 PUSH2 0x1445 JUMPI PUSH1 0x7F DUP3 AND SWAP2 POP JUMPDEST PUSH1 0x20 DUP3 LT DUP2 SUB PUSH2 0x1458 JUMPI PUSH2 0x1457 PUSH2 0x1401 JUMP JUMPDEST JUMPDEST POP SWAP2 SWAP1 POP JUMP JUMPDEST PUSH0 DUP2 SWAP1 POP DUP2 PUSH0 MSTORE PUSH1 0x20 PUSH0 KECCAK256 SWAP1 POP SWAP2 SWAP1 POP JUMP JUMPDEST PUSH0 PUSH1 0x20 PUSH1 0x1F DUP4 ADD DIV SWAP1 POP SWAP2 SWAP1 POP JUMP JUMPDEST PUSH0 DUP3 DUP3 SHL SWAP1 POP SWAP3 SWAP2 POP POP JUMP JUMPDEST PUSH0 PUSH1 0x8 DUP4 MUL PUSH2 0x14BA PUSH32 0xFFFFFFFFFFFFFFFFFFFFFFFFFFFFFFFFFFFFFFFFFFFFFFFFFFFFFFFFFFFFFFFF DUP3 PUSH2 0x147F JUMP JUMPDEST PUSH2 0x14C4 DUP7 DUP4 PUSH2 0x147F JUMP JUMPDEST SWAP6 POP DUP1 NOT DUP5 AND SWAP4 POP DUP1 DUP7 AND DUP5 OR SWAP3 POP POP POP SWAP4 SWAP3 POP POP POP JUMP JUMPDEST PUSH0 DUP2 SWAP1 POP SWAP2 SWAP1 POP JUMP JUMPDEST PUSH0 PUSH2 0x14FF PUSH2 0x14FA PUSH2 0x14F5 DUP5 PUSH2 0xBAD JUMP JUMPDEST PUSH2 0x14DC JUMP JUMPDEST PUSH2 0xBAD JUMP JUMPDEST SWAP1 POP SWAP2 SWAP1 POP JUMP JUMPDEST PUSH0 DUP2 SWAP1 POP SWAP2 SWAP1 POP JUMP JUMPDEST PUSH2 0x1518 DUP4 PUSH2 0x14E5 JUMP JUMPDEST PUSH2 0x152C PUSH2 0x1524 DUP3 PUSH2 0x1506 JUMP JUMPDEST DUP5 DUP5 SLOAD PUSH2 0x148B JUMP JUMPDEST DUP3 SSTORE POP POP POP POP JUMP JUMPDEST PUSH0 SWAP1 JUMP JUMPDEST PUSH2 0x1540 PUSH2 0x1534 JUMP JUMPDEST PUSH2 0x154B DUP2 DUP5 DUP5 PUSH2 0x150F JUMP JUMPDEST POP POP POP JUMP JUMPDEST JUMPDEST DUP2 DUP2 LT ISZERO PUSH2 0x156E JUMPI PUSH2 0x1563 PUSH0 DUP3 PUSH2 0x1538 JUMP JUMPDEST PUSH1 0x1 DUP2 ADD SWAP1 POP PUSH2 0x1551 JUMP JUMPDEST POP POP JUMP JUMPDEST PUSH1 0x1F DUP3 GT ISZERO PUSH2 0x15B3 JUMPI PUSH2 0x1584 DUP2 PUSH2 0x145E JUMP JUMPDEST PUSH2 0x158D DUP5 PUSH2 0x1470 JUMP JUMPDEST DUP2 ADD PUSH1 0x20 DUP6 LT ISZERO PUSH2 0x159C JUMPI DUP2 SWAP1 POP JUMPDEST PUSH2 0x15B0 PUSH2 0x15A8 DUP6 PUSH2 0x1470 JUMP JUMPDEST DUP4 ADD DUP3 PUSH2 0x1550 JUMP JUMPDEST POP POP JUMPDEST POP POP POP JUMP JUMPDEST PUSH0 DUP3 DUP3 SHR SWAP1 POP SWAP3 SWAP2 POP POP JUMP JUMPDEST PUSH0 PUSH2 0x15D3 PUSH0 NOT DUP5 PUSH1 0x8 MUL PUSH2 0x15B8 JUMP JUMPDEST NOT DUP1 DUP4 AND SWAP2 POP POP SWAP3 SWAP2 POP POP JUMP JUMPDEST PUSH0 PUSH2 0x15EB DUP4 DUP4 PUSH2 0x15C4 JUMP JUMPDEST SWAP2 POP DUP3 PUSH1 0x2 MUL DUP3 OR SWAP1 POP SWAP3 SWAP2 POP POP JUMP JUMPDEST PUSH2 0x1604 DUP3 PUSH2 0xE21 JUMP JUMPDEST PUSH8 0xFFFFFFFFFFFFFFFF DUP2 GT ISZERO PUSH2 0x161D JUMPI PUSH2 0x161C PUSH2 0xC4B JUMP JUMPDEST JUMPDEST PUSH2 0x1627 DUP3 SLOAD PUSH2 0x142E JUMP JUMPDEST PUSH2 0x1632 DUP3 DUP3 DUP6 PUSH2 0x1572 JUMP JUMPDEST PUSH0 PUSH1 0x20 SWAP1 POP PUSH1 0x1F DUP4 GT PUSH1 0x1 DUP2 EQ PUSH2 0x1663 JUMPI PUSH0 DUP5 ISZERO PUSH2 0x1651 JUMPI DUP3 DUP8 ADD MLOAD SWAP1 POP JUMPDEST PUSH2 0x165B DUP6 DUP3 PUSH2 0x15E0 JUMP JUMPDEST DUP7 SSTORE POP PUSH2 0x16C2 JUMP JUMPDEST PUSH1 0x1F NOT DUP5 AND PUSH2 0x1671 DUP7 PUSH2 0x145E JUMP JUMPDEST PUSH0 JUMPDEST DUP3 DUP2 LT ISZERO PUSH2 0x1698 JUMPI DUP5 DUP10 ADD MLOAD DUP3 SSTORE PUSH1 0x1 DUP3 ADD SWAP2 POP PUSH1 0x20 DUP6 ADD SWAP5 POP PUSH1 0x20 DUP2 ADD SWAP1 POP PUSH2 0x1673 JUMP JUMPDEST DUP7 DUP4 LT ISZERO PUSH2 0x16B5 JUMPI DUP5 DUP10 ADD MLOAD PUSH2 0x16B1 PUSH1 0x1F DUP10 AND DUP3 PUSH2 0x15C4 JUMP JUMPDEST DUP4 SSTORE POP JUMPDEST PUSH1 0x1 PUSH1 0x2 DUP9 MUL ADD DUP9 SSTORE POP POP POP JUMPDEST POP POP POP POP POP POP JUMP JUMPDEST PUSH0 PUSH1 0x40 DUP3 ADD SWAP1 POP PUSH2 0x16DD PUSH0 DUP4 ADD DUP6 PUSH2 0xC0B JUMP JUMPDEST DUP2 DUP2 SUB PUSH1 0x20 DUP4 ADD MSTORE PUSH2 0x16EF DUP2 DUP5 PUSH2 0xE49 JUMP JUMPDEST SWAP1 POP SWAP4 SWAP3 POP POP POP JUMP JUMPDEST PUSH32 0x4E487B7100000000000000000000000000000000000000000000000000000000 PUSH0 MSTORE PUSH1 0x11 PUSH1 0x4 MSTORE PUSH1 0x24 PUSH0 REVERT JUMPDEST PUSH0 PUSH2 0x172F DUP3 PUSH2 0xBAD JUMP JUMPDEST SWAP2 POP PUSH32 0xFFFFFFFFFFFFFFFFFFFFFFFFFFFFFFFFFFFFFFFFFFFFFFFFFFFFFFFFFFFFFFFF DUP3 SUB PUSH2 0x1761 JUMPI PUSH2 0x1760 PUSH2 0x16F8 JUMP JUMPDEST JUMPDEST PUSH1 0x1 DUP3 ADD SWAP1 POP SWAP2 SWAP1 POP JUMP JUMPDEST PUSH32 0x4E6F2070726F64756374732E0000000000000000000000000000000000000000 PUSH0 DUP3 ADD MSTORE POP JUMP JUMPDEST PUSH0 PUSH2 0x17A0 PUSH1 0xC DUP4 PUSH2 0xE2B JUMP JUMPDEST SWAP2 POP PUSH2 0x17AB DUP3 PUSH2 0x176C JUMP JUMPDEST PUSH1 0x20 DUP3 ADD SWAP1 POP SWAP2 SWAP1 POP JUMP JUMPDEST PUSH0 PUSH1 0x20 DUP3 ADD SWAP1 POP DUP2 DUP2 SUB PUSH0 DUP4 ADD MSTORE PUSH2 0x17CD DUP2 PUSH2 0x1794 JUMP JUMPDEST SWAP1 POP SWAP2 SWAP1 POP JUMP JUMPDEST PUSH0 PUSH2 0x17DE DUP3 PUSH2 0xBAD JUMP JUMPDEST SWAP2 POP PUSH2 0x17E9 DUP4 PUSH2 0xBAD JUMP JUMPDEST SWAP3 POP DUP3 DUP3 SUB SWAP1 POP DUP2 DUP2 GT ISZERO PUSH2 0x1801 JUMPI PUSH2 0x1800 PUSH2 0x16F8 JUMP JUMPDEST JUMPDEST SWAP3 SWAP2 POP POP JUMP INVALID LOG2 PUSH5 0x6970667358 0x22 SLT KECCAK256 DUP4 DUP13 0xA6 CODESIZE 0x4D DUP7 0xB1 CHAINID 0xB5 0xAE PUSH10 0xC0BA5F1C696736101889 PUSH19 0x99C7C5D835372D97B3A564736F6C634300081A STOP CALLER "
				},
				"gasEstimates": {
					"creation": {
						"codeDepositCost": "1241000",
						"executionCost": "25551",
						"totalCost": "1266551"
					},
					"external": {
						"AdvanceOrder(uint256)": "40064",
						"CreateOrder(string,uint256[])": "infinite",
						"GetOrder(uint256)": "infinite",
						"UpdateZip(uint256,string)": "infinite",
						"orders(uint256)": "infinite",
						"owner()": "2508",
						"txCount()": "2448"
					}
				},
				"methodIdentifiers": {
					"AdvanceOrder(uint256)": "394b4089",
					"CreateOrder(string,uint256[])": "c4eb8ded",
					"GetOrder(uint256)": "d59a1fce",
					"UpdateZip(uint256,string)": "529772b4",
					"orders(uint256)": "a85c38ef",
					"owner()": "8da5cb5b",
					"txCount()": "3c540687"
				}
			},
			"storageLayout": {
				"storage": [
					{
						"astId": 21,
						"contract": "contracts/Events.sol:Events",
						"label": "orders",
						"offset": 0,
						"slot": "0",
						"type": "t_array(t_struct(Order)17_storage)dyn_storage"
					},
					{
						"astId": 23,
						"contract": "contracts/Events.sol:Events",
						"label": "owner",
						"offset": 0,
						"slot": "1",
						"type": "t_address"
					},
					{
						"astId": 25,
						"contract": "contracts/Events.sol:Events",
						"label": "txCount",
						"offset": 0,
						"slot": "2",
						"type": "t_uint256"
					}
				],
				"types": {
					"t_address": {
						"encoding": "inplace",
						"label": "address",
						"numberOfBytes": "20"
					},
					"t_array(t_struct(Order)17_storage)dyn_storage": {
						"base": "t_struct(Order)17_storage",
						"encoding": "dynamic_array",
						"label": "struct Events.Order[]",
						"numberOfBytes": "32"
					},
					"t_array(t_uint256)dyn_storage": {
						"base": "t_uint256",
						"encoding": "dynamic_array",
						"label": "uint256[]",
						"numberOfBytes": "32"
					},
					"t_enum(Status)6": {
						"encoding": "inplace",
						"label": "enum Events.Status",
						"numberOfBytes": "1"
					},
					"t_string_storage": {
						"encoding": "bytes",
						"label": "string",
						"numberOfBytes": "32"
					},
					"t_struct(Order)17_storage": {
						"encoding": "inplace",
						"label": "struct Events.Order",
						"members": [
							{
								"astId": 8,
								"contract": "contracts/Events.sol:Events",
								"label": "customer",
								"offset": 0,
								"slot": "0",
								"type": "t_address"
							},
							{
								"astId": 10,
								"contract": "contracts/Events.sol:Events",
								"label": "ZipCode",
								"offset": 0,
								"slot": "1",
								"type": "t_string_storage"
							},
							{
								"astId": 13,
								"contract": "contracts/Events.sol:Events",
								"label": "products",
								"offset": 0,
								"slot": "2",
								"type": "t_array(t_uint256)dyn_storage"
							},
							{
								"astId": 16,
								"contract": "contracts/Events.sol:Events",
								"label": "status",
								"offset": 0,
								"slot": "3",
								"type": "t_enum(Status)6"
							}
						],
						"numberOfBytes": "128"
					},
					"t_uint256": {
						"encoding": "inplace",
						"label": "uint256",
						"numberOfBytes": "32"
					}
				}
			},
			"userdoc": {
				"kind": "user",
				"methods": {},
				"version": 1
			}
		}
	}
}