{
	"data": {
		"bytecode": {
			"linkReferences": {},
			"object": "60806040525f805f6101000a81548160ff021916908315150217905550600c5f60016101000a81548160ff02191690835f0b60ff160217905550600c60015573057259a97b2b2b3c4a3b6ba0db07b0e7eb9b697960025f6101000a81548173ffffffffffffffffffffffffffffffffffffffff021916908373ffffffffffffffffffffffffffffffffffffffff1602179055507f426172697320536f6d65726f676c7500000000000000000000000000000000006003556040518060400160405280601281526020017f426172697320536f6d65726f676c752031300000000000000000000000000000815250600490816100fa9190610487565b506040518060400160405280600381526020017f42544300000000000000000000000000000000000000000000000000000000008152506005908161013f91906105ae565b506040518060a00160405280600160ff168152602001600260ff168152602001600360ff168152602001600460ff168152602001600560ff16815250600690600561018b9291906101e2565b506040518060400160405280600f81526020017f426172697320536f6d65726f676c750000000000000000000000000000000000815250600c90816101d09190610487565b503480156101dc575f80fd5b5061067d565b828054828255905f5260205f20908101928215610221579160200282015b82811115610220578251829060ff16905591602001919060010190610200565b5b50905061022e9190610232565b5090565b5b80821115610249575f815f905550600101610233565b5090565b5f81519050919050565b7f4e487b71000000000000000000000000000000000000000000000000000000005f52604160045260245ffd5b7f4e487b71000000000000000000000000000000000000000000000000000000005f52602260045260245ffd5b5f60028204905060018216806102c857607f821691505b6020821081036102db576102da610284565b5b50919050565b5f819050815f5260205f209050919050565b5f6020601f8301049050919050565b5f82821b905092915050565b5f6008830261033d7fffffffffffffffffffffffffffffffffffffffffffffffffffffffffffffffff82610302565b6103478683610302565b95508019841693508086168417925050509392505050565b5f819050919050565b5f819050919050565b5f61038b6103866103818461035f565b610368565b61035f565b9050919050565b5f819050919050565b6103a483610371565b6103b86103b082610392565b84845461030e565b825550505050565b5f90565b6103cc6103c0565b6103d781848461039b565b505050565b5b818110156103fa576103ef5f826103c4565b6001810190506103dd565b5050565b601f82111561043f57610410816102e1565b610419846102f3565b81016020851015610428578190505b61043c610434856102f3565b8301826103dc565b50505b505050565b5f82821c905092915050565b5f61045f5f1984600802610444565b1980831691505092915050565b5f6104778383610450565b9150826002028217905092915050565b6104908261024d565b67ffffffffffffffff8111156104a9576104a8610257565b5b6104b382546102b1565b6104be8282856103fe565b5f60209050601f8311600181146104ef575f84156104dd578287015190505b6104e7858261046c565b86555061054e565b601f1984166104fd866102e1565b5f5b82811015610524578489015182556001820191506020850194506020810190506104ff565b86831015610541578489015161053d601f891682610450565b8355505b6001600288020188555050505b505050505050565b5f819050815f5260205f209050919050565b601f8211156105a95761057a81610556565b610583846102f3565b81016020851015610592578190505b6105a661059e856102f3565b8301826103dc565b50505b505050565b6105b78261024d565b67ffffffffffffffff8111156105d0576105cf610257565b5b6105da82546102b1565b6105e5828285610568565b5f60209050601f831160018114610616575f8415610604578287015190505b61060e858261046c565b865550610675565b601f19841661062486610556565b5f5b8281101561064b57848901518255600182019150602085019450602081019050610626565b868310156106685784890151610664601f891682610450565b8355505b6001600288020188555050505b505050505050565b6103198061068a5f395ff3fe608060405234801561000f575f80fd5b506004361061004a575f3560e01c80631a52aec41461004e578063cc80f6f31461006c578063e5368f121461008a578063fae2dd4b146100a8575b5f80fd5b6100566100c6565b60405161006391906101ac565b60405180910390f35b6100746100cd565b60405161008191906101dd565b60405180910390f35b6100926100da565b60405161009f91906101dd565b60405180910390f35b6100b06100e1565b6040516100bd9190610266565b60405180910390f35b5f33905090565b5f80600a90508091505090565b5f43905090565b600c80546100ee906102b3565b80601f016020809104026020016040519081016040528092919081815260200182805461011a906102b3565b80156101655780601f1061013c57610100808354040283529160200191610165565b820191905f5260205f20905b81548152906001019060200180831161014857829003601f168201915b505050505081565b5f73ffffffffffffffffffffffffffffffffffffffff82169050919050565b5f6101968261016d565b9050919050565b6101a68161018c565b82525050565b5f6020820190506101bf5f83018461019d565b92915050565b5f819050919050565b6101d7816101c5565b82525050565b5f6020820190506101f05f8301846101ce565b92915050565b5f81519050919050565b5f82825260208201905092915050565b8281835e5f83830152505050565b5f601f19601f8301169050919050565b5f610238826101f6565b6102428185610200565b9350610252818560208601610210565b61025b8161021e565b840191505092915050565b5f6020820190508181035f83015261027e818461022e565b905092915050565b7f4e487b71000000000000000000000000000000000000000000000000000000005f52602260045260245ffd5b5f60028204905060018216806102ca57607f821691505b6020821081036102dd576102dc610286565b5b5091905056fea26469706673582212203a294304fdcb94554ab9322f7056449348d5a66423ce6f5b8124bdcfeca8dcd064736f6c634300081a0033",
			"opcodes": "PUSH1 0x80 PUSH1 0x40 MSTORE PUSH0 DUP1 PUSH0 PUSH2 0x100 EXP DUP2 SLOAD DUP2 PUSH1 0xFF MUL NOT AND SWAP1 DUP4 ISZERO ISZERO MUL OR SWAP1 SSTORE POP PUSH1 0xC PUSH0 PUSH1 0x1 PUSH2 0x100 EXP DUP2 SLOAD DUP2 PUSH1 0xFF MUL NOT AND SWAP1 DUP4 PUSH0 SIGNEXTEND PUSH1 0xFF AND MUL OR SWAP1 SSTORE POP PUSH1 0xC PUSH1 0x1 SSTORE PUSH20 0x57259A97B2B2B3C4A3B6BA0DB07B0E7EB9B6979 PUSH1 0x2 PUSH0 PUSH2 0x100 EXP DUP2 SLOAD DUP2 PUSH20 0xFFFFFFFFFFFFFFFFFFFFFFFFFFFFFFFFFFFFFFFF MUL NOT AND SWAP1 DUP4 PUSH20 0xFFFFFFFFFFFFFFFFFFFFFFFFFFFFFFFFFFFFFFFF AND MUL OR SWAP1 SSTORE POP PUSH32 0x426172697320536F6D65726F676C750000000000000000000000000000000000 PUSH1 0x3 SSTORE PUSH1 0x40 MLOAD DUP1 PUSH1 0x40 ADD PUSH1 0x40 MSTORE DUP1 PUSH1 0x12 DUP2 MSTORE PUSH1 0x20 ADD PUSH32 0x426172697320536F6D65726F676C752031300000000000000000000000000000 DUP2 MSTORE POP PUSH1 0x4 SWAP1 DUP2 PUSH2 0xFA SWAP2 SWAP1 PUSH2 0x487 JUMP JUMPDEST POP PUSH1 0x40 MLOAD DUP1 PUSH1 0x40 ADD PUSH1 0x40 MSTORE DUP1 PUSH1 0x3 DUP2 MSTORE PUSH1 0x20 ADD PUSH32 0x4254430000000000000000000000000000000000000000000000000000000000 DUP2 MSTORE POP PUSH1 0x5 SWAP1 DUP2 PUSH2 0x13F SWAP2 SWAP1 PUSH2 0x5AE JUMP JUMPDEST POP PUSH1 0x40 MLOAD DUP1 PUSH1 0xA0 ADD PUSH1 0x40 MSTORE DUP1 PUSH1 0x1 PUSH1 0xFF AND DUP2 MSTORE PUSH1 0x20 ADD PUSH1 0x2 PUSH1 0xFF AND DUP2 MSTORE PUSH1 0x20 ADD PUSH1 0x3 PUSH1 0xFF AND DUP2 MSTORE PUSH1 0x20 ADD PUSH1 0x4 PUSH1 0xFF AND DUP2 MSTORE PUSH1 0x20 ADD PUSH1 0x5 PUSH1 0xFF AND DUP2 MSTORE POP PUSH1 0x6 SWAP1 PUSH1 0x5 PUSH2 0x18B SWAP3 SWAP2 SWAP1 PUSH2 0x1E2 JUMP JUMPDEST POP PUSH1 0x40 MLOAD DUP1 PUSH1 0x40 ADD PUSH1 0x40 MSTORE DUP1 PUSH1 0xF DUP2 MSTORE PUSH1 0x20 ADD PUSH32 0x426172697320536F6D65726F676C750000000000000000000000000000000000 DUP2 MSTORE POP PUSH1 0xC SWAP1 DUP2 PUSH2 0x1D0 SWAP2 SWAP1 PUSH2 0x487 JUMP JUMPDEST POP CALLVALUE DUP1 ISZERO PUSH2 0x1DC JUMPI PUSH0 DUP1 REVERT JUMPDEST POP PUSH2 0x67D JUMP JUMPDEST DUP3 DUP1 SLOAD DUP3 DUP3 SSTORE SWAP1 PUSH0 MSTORE PUSH1 0x20 PUSH0 KECCAK256 SWAP1 DUP2 ADD SWAP3 DUP3 ISZERO PUSH2 0x221 JUMPI SWAP2 PUSH1 0x20 MUL DUP3 ADD JUMPDEST DUP3 DUP2 GT ISZERO PUSH2 0x220 JUMPI DUP3 MLOAD DUP3 SWAP1 PUSH1 0xFF AND SWAP1 SSTORE SWAP2 PUSH1 0x20 ADD SWAP2 SWAP1 PUSH1 0x1 ADD SWAP1 PUSH2 0x200 JUMP JUMPDEST JUMPDEST POP SWAP1 POP PUSH2 0x22E SWAP2 SWAP1 PUSH2 0x232 JUMP JUMPDEST POP SWAP1 JUMP JUMPDEST JUMPDEST DUP1 DUP3 GT ISZERO PUSH2 0x249 JUMPI PUSH0 DUP2 PUSH0 SWAP1 SSTORE POP PUSH1 0x1 ADD PUSH2 0x233 JUMP JUMPDEST POP SWAP1 JUMP JUMPDEST PUSH0 DUP2 MLOAD SWAP1 POP SWAP2 SWAP1 POP JUMP JUMPDEST PUSH32 0x4E487B7100000000000000000000000000000000000000000000000000000000 PUSH0 MSTORE PUSH1 0x41 PUSH1 0x4 MSTORE PUSH1 0x24 PUSH0 REVERT JUMPDEST PUSH32 0x4E487B7100000000000000000000000000000000000000000000000000000000 PUSH0 MSTORE PUSH1 0x22 PUSH1 0x4 MSTORE PUSH1 0x24 PUSH0 REVERT JUMPDEST PUSH0 PUSH1 0x2 DUP3 DIV SWAP1 POP PUSH1 0x1 DUP3 AND DUP1 PUSH2 0x2C8 JUMPI PUSH1 0x7F DUP3 AND SWAP2 POP JUMPDEST PUSH1 0x20 DUP3 LT DUP2 SUB PUSH2 0x2DB JUMPI PUSH2 0x2DA PUSH2 0x284 JUMP JUMPDEST JUMPDEST POP SWAP2 SWAP1 POP JUMP JUMPDEST PUSH0 DUP2 SWAP1 POP DUP2 PUSH0 MSTORE PUSH1 0x20 PUSH0 KECCAK256 SWAP1 POP SWAP2 SWAP1 POP JUMP JUMPDEST PUSH0 PUSH1 0x20 PUSH1 0x1F DUP4 ADD DIV SWAP1 POP SWAP2 SWAP1 POP JUMP JUMPDEST PUSH0 DUP3 DUP3 SHL SWAP1 POP SWAP3 SWAP2 POP POP JUMP JUMPDEST PUSH0 PUSH1 0x8 DUP4 MUL PUSH2 0x33D PUSH32 0xFFFFFFFFFFFFFFFFFFFFFFFFFFFFFFFFFFFFFFFFFFFFFFFFFFFFFFFFFFFFFFFF DUP3 PUSH2 0x302 JUMP JUMPDEST PUSH2 0x347 DUP7 DUP4 PUSH2 0x302 JUMP JUMPDEST SWAP6 POP DUP1 NOT DUP5 AND SWAP4 POP DUP1 DUP7 AND DUP5 OR SWAP3 POP POP POP SWAP4 SWAP3 POP POP POP JUMP JUMPDEST PUSH0 DUP2 SWAP1 POP SWAP2 SWAP1 POP JUMP JUMPDEST PUSH0 DUP2 SWAP1 POP SWAP2 SWAP1 POP JUMP JUMPDEST PUSH0 PUSH2 0x38B PUSH2 0x386 PUSH2 0x381 DUP5 PUSH2 0x35F JUMP JUMPDEST PUSH2 0x368 JUMP JUMPDEST PUSH2 0x35F JUMP JUMPDEST SWAP1 POP SWAP2 SWAP1 POP JUMP JUMPDEST PUSH0 DUP2 SWAP1 POP SWAP2 SWAP1 POP JUMP JUMPDEST PUSH2 0x3A4 DUP4 PUSH2 0x371 JUMP JUMPDEST PUSH2 0x3B8 PUSH2 0x3B0 DUP3 PUSH2 0x392 JUMP JUMPDEST DUP5 DUP5 SLOAD PUSH2 0x30E JUMP JUMPDEST DUP3 SSTORE POP POP POP POP JUMP JUMPDEST PUSH0 SWAP1 JUMP JUMPDEST PUSH2 0x3CC PUSH2 0x3C0 JUMP JUMPDEST PUSH2 0x3D7 DUP2 DUP5 DUP5 PUSH2 0x39B JUMP JUMPDEST POP POP POP JUMP JUMPDEST JUMPDEST DUP2 DUP2 LT ISZERO PUSH2 0x3FA JUMPI PUSH2 0x3EF PUSH0 DUP3 PUSH2 0x3C4 JUMP JUMPDEST PUSH1 0x1 DUP2 ADD SWAP1 POP PUSH2 0x3DD JUMP JUMPDEST POP POP JUMP JUMPDEST PUSH1 0x1F DUP3 GT ISZERO PUSH2 0x43F JUMPI PUSH2 0x410 DUP2 PUSH2 0x2E1 JUMP JUMPDEST PUSH2 0x419 DUP5 PUSH2 0x2F3 JUMP JUMPDEST DUP2 ADD PUSH1 0x20 DUP6 LT ISZERO PUSH2 0x428 JUMPI DUP2 SWAP1 POP JUMPDEST PUSH2 0x43C PUSH2 0x434 DUP6 PUSH2 0x2F3 JUMP JUMPDEST DUP4 ADD DUP3 PUSH2 0x3DC JUMP JUMPDEST POP POP JUMPDEST POP POP POP JUMP JUMPDEST PUSH0 DUP3 DUP3 SHR SWAP1 POP SWAP3 SWAP2 POP POP JUMP JUMPDEST PUSH0 PUSH2 0x45F PUSH0 NOT DUP5 PUSH1 0x8 MUL PUSH2 0x444 JUMP JUMPDEST NOT DUP1 DUP4 AND SWAP2 POP POP SWAP3 SWAP2 POP POP JUMP JUMPDEST PUSH0 PUSH2 0x477 DUP4 DUP4 PUSH2 0x450 JUMP JUMPDEST SWAP2 POP DUP3 PUSH1 0x2 MUL DUP3 OR SWAP1 POP SWAP3 SWAP2 POP POP JUMP JUMPDEST PUSH2 0x490 DUP3 PUSH2 0x24D JUMP JUMPDEST PUSH8 0xFFFFFFFFFFFFFFFF DUP2 GT ISZERO PUSH2 0x4A9 JUMPI PUSH2 0x4A8 PUSH2 0x257 JUMP JUMPDEST JUMPDEST PUSH2 0x4B3 DUP3 SLOAD PUSH2 0x2B1 JUMP JUMPDEST PUSH2 0x4BE DUP3 DUP3 DUP6 PUSH2 0x3FE JUMP JUMPDEST PUSH0 PUSH1 0x20 SWAP1 POP PUSH1 0x1F DUP4 GT PUSH1 0x1 DUP2 EQ PUSH2 0x4EF JUMPI PUSH0 DUP5 ISZERO PUSH2 0x4DD JUMPI DUP3 DUP8 ADD MLOAD SWAP1 POP JUMPDEST PUSH2 0x4E7 DUP6 DUP3 PUSH2 0x46C JUMP JUMPDEST DUP7 SSTORE POP PUSH2 0x54E JUMP JUMPDEST PUSH1 0x1F NOT DUP5 AND PUSH2 0x4FD DUP7 PUSH2 0x2E1 JUMP JUMPDEST PUSH0 JUMPDEST DUP3 DUP2 LT ISZERO PUSH2 0x524 JUMPI DUP5 DUP10 ADD MLOAD DUP3 SSTORE PUSH1 0x1 DUP3 ADD SWAP2 POP PUSH1 0x20 DUP6 ADD SWAP5 POP PUSH1 0x20 DUP2 ADD SWAP1 POP PUSH2 0x4FF JUMP JUMPDEST DUP7 DUP4 LT ISZERO PUSH2 0x541 JUMPI DUP5 DUP10 ADD MLOAD PUSH2 0x53D PUSH1 0x1F DUP10 AND DUP3 PUSH2 0x450 JUMP JUMPDEST DUP4 SSTORE POP JUMPDEST PUSH1 0x1 PUSH1 0x2 DUP9 MUL ADD DUP9 SSTORE POP POP POP JUMPDEST POP POP POP POP POP POP JUMP JUMPDEST PUSH0 DUP2 SWAP1 POP DUP2 PUSH0 MSTORE PUSH1 0x20 PUSH0 KECCAK256 SWAP1 POP SWAP2 SWAP1 POP JUMP JUMPDEST PUSH1 0x1F DUP3 GT ISZERO PUSH2 0x5A9 JUMPI PUSH2 0x57A DUP2 PUSH2 0x556 JUMP JUMPDEST PUSH2 0x583 DUP5 PUSH2 0x2F3 JUMP JUMPDEST DUP2 ADD PUSH1 0x20 DUP6 LT ISZERO PUSH2 0x592 JUMPI DUP2 SWAP1 POP JUMPDEST PUSH2 0x5A6 PUSH2 0x59E DUP6 PUSH2 0x2F3 JUMP JUMPDEST DUP4 ADD DUP3 PUSH2 0x3DC JUMP JUMPDEST POP POP JUMPDEST POP POP POP JUMP JUMPDEST PUSH2 0x5B7 DUP3 PUSH2 0x24D JUMP JUMPDEST PUSH8 0xFFFFFFFFFFFFFFFF DUP2 GT ISZERO PUSH2 0x5D0 JUMPI PUSH2 0x5CF PUSH2 0x257 JUMP JUMPDEST JUMPDEST PUSH2 0x5DA DUP3 SLOAD PUSH2 0x2B1 JUMP JUMPDEST PUSH2 0x5E5 DUP3 DUP3 DUP6 PUSH2 0x568 JUMP JUMPDEST PUSH0 PUSH1 0x20 SWAP1 POP PUSH1 0x1F DUP4 GT PUSH1 0x1 DUP2 EQ PUSH2 0x616 JUMPI PUSH0 DUP5 ISZERO PUSH2 0x604 JUMPI DUP3 DUP8 ADD MLOAD SWAP1 POP JUMPDEST PUSH2 0x60E DUP6 DUP3 PUSH2 0x46C JUMP JUMPDEST DUP7 SSTORE POP PUSH2 0x675 JUMP JUMPDEST PUSH1 0x1F NOT DUP5 AND PUSH2 0x624 DUP7 PUSH2 0x556 JUMP JUMPDEST PUSH0 JUMPDEST DUP3 DUP2 LT ISZERO PUSH2 0x64B JUMPI DUP5 DUP10 ADD MLOAD DUP3 SSTORE PUSH1 0x1 DUP3 ADD SWAP2 POP PUSH1 0x20 DUP6 ADD SWAP5 POP PUSH1 0x20 DUP2 ADD SWAP1 POP PUSH2 0x626 JUMP JUMPDEST DUP7 DUP4 LT ISZERO PUSH2 0x668 JUMPI DUP5 DUP10 ADD MLOAD PUSH2 0x664 PUSH1 0x1F DUP10 AND DUP3 PUSH2 0x450 JUMP JUMPDEST DUP4 SSTORE POP JUMPDEST PUSH1 0x1 PUSH1 0x2 DUP9 MUL ADD DUP9 SSTORE POP POP POP JUMPDEST POP POP POP POP POP POP JUMP JUMPDEST PUSH2 0x319 DUP1 PUSH2 0x68A PUSH0 CODECOPY PUSH0 RETURN INVALID PUSH1 0x80 PUSH1 0x40 MSTORE CALLVALUE DUP1 ISZERO PUSH2 0xF JUMPI PUSH0 DUP1 REVERT JUMPDEST POP PUSH1 0x4 CALLDATASIZE LT PUSH2 0x4A JUMPI PUSH0 CALLDATALOAD PUSH1 0xE0 SHR DUP1 PUSH4 0x1A52AEC4 EQ PUSH2 0x4E JUMPI DUP1 PUSH4 0xCC80F6F3 EQ PUSH2 0x6C JUMPI DUP1 PUSH4 0xE5368F12 EQ PUSH2 0x8A JUMPI DUP1 PUSH4 0xFAE2DD4B EQ PUSH2 0xA8 JUMPI JUMPDEST PUSH0 DUP1 REVERT JUMPDEST PUSH2 0x56 PUSH2 0xC6 JUMP JUMPDEST PUSH1 0x40 MLOAD PUSH2 0x63 SWAP2 SWAP1 PUSH2 0x1AC JUMP JUMPDEST PUSH1 0x40 MLOAD DUP1 SWAP2 SUB SWAP1 RETURN JUMPDEST PUSH2 0x74 PUSH2 0xCD JUMP JUMPDEST PUSH1 0x40 MLOAD PUSH2 0x81 SWAP2 SWAP1 PUSH2 0x1DD JUMP JUMPDEST PUSH1 0x40 MLOAD DUP1 SWAP2 SUB SWAP1 RETURN JUMPDEST PUSH2 0x92 PUSH2 0xDA JUMP JUMPDEST PUSH1 0x40 MLOAD PUSH2 0x9F SWAP2 SWAP1 PUSH2 0x1DD JUMP JUMPDEST PUSH1 0x40 MLOAD DUP1 SWAP2 SUB SWAP1 RETURN JUMPDEST PUSH2 0xB0 PUSH2 0xE1 JUMP JUMPDEST PUSH1 0x40 MLOAD PUSH2 0xBD SWAP2 SWAP1 PUSH2 0x266 JUMP JUMPDEST PUSH1 0x40 MLOAD DUP1 SWAP2 SUB SWAP1 RETURN JUMPDEST PUSH0 CALLER SWAP1 POP SWAP1 JUMP JUMPDEST PUSH0 DUP1 PUSH1 0xA SWAP1 POP DUP1 SWAP2 POP POP SWAP1 JUMP JUMPDEST PUSH0 NUMBER SWAP1 POP SWAP1 JUMP JUMPDEST PUSH1 0xC DUP1 SLOAD PUSH2 0xEE SWAP1 PUSH2 0x2B3 JUMP JUMPDEST DUP1 PUSH1 0x1F ADD PUSH1 0x20 DUP1 SWAP2 DIV MUL PUSH1 0x20 ADD PUSH1 0x40 MLOAD SWAP1 DUP2 ADD PUSH1 0x40 MSTORE DUP1 SWAP3 SWAP2 SWAP1 DUP2 DUP2 MSTORE PUSH1 0x20 ADD DUP3 DUP1 SLOAD PUSH2 0x11A SWAP1 PUSH2 0x2B3 JUMP JUMPDEST DUP1 ISZERO PUSH2 0x165 JUMPI DUP1 PUSH1 0x1F LT PUSH2 0x13C JUMPI PUSH2 0x100 DUP1 DUP4 SLOAD DIV MUL DUP4 MSTORE SWAP2 PUSH1 0x20 ADD SWAP2 PUSH2 0x165 JUMP JUMPDEST DUP3 ADD SWAP2 SWAP1 PUSH0 MSTORE PUSH1 0x20 PUSH0 KECCAK256 SWAP1 JUMPDEST DUP2 SLOAD DUP2 MSTORE SWAP1 PUSH1 0x1 ADD SWAP1 PUSH1 0x20 ADD DUP1 DUP4 GT PUSH2 0x148 JUMPI DUP3 SWAP1 SUB PUSH1 0x1F AND DUP3 ADD SWAP2 JUMPDEST POP POP POP POP POP DUP2 JUMP JUMPDEST PUSH0 PUSH20 0xFFFFFFFFFFFFFFFFFFFFFFFFFFFFFFFFFFFFFFFF DUP3 AND SWAP1 POP SWAP2 SWAP1 POP JUMP JUMPDEST PUSH0 PUSH2 0x196 DUP3 PUSH2 0x16D JUMP JUMPDEST SWAP1 POP SWAP2 SWAP1 POP JUMP JUMPDEST PUSH2 0x1A6 DUP2 PUSH2 0x18C JUMP JUMPDEST DUP3 MSTORE POP POP JUMP JUMPDEST PUSH0 PUSH1 0x20 DUP3 ADD SWAP1 POP PUSH2 0x1BF PUSH0 DUP4 ADD DUP5 PUSH2 0x19D JUMP JUMPDEST SWAP3 SWAP2 POP POP JUMP JUMPDEST PUSH0 DUP2 SWAP1 POP SWAP2 SWAP1 POP JUMP JUMPDEST PUSH2 0x1D7 DUP2 PUSH2 0x1C5 JUMP JUMPDEST DUP3 MSTORE POP POP JUMP JUMPDEST PUSH0 PUSH1 0x20 DUP3 ADD SWAP1 POP PUSH2 0x1F0 PUSH0 DUP4 ADD DUP5 PUSH2 0x1CE JUMP JUMPDEST SWAP3 SWAP2 POP POP JUMP JUMPDEST PUSH0 DUP2 MLOAD SWAP1 POP SWAP2 SWAP1 POP JUMP JUMPDEST PUSH0 DUP3 DUP3 MSTORE PUSH1 0x20 DUP3 ADD SWAP1 POP SWAP3 SWAP2 POP POP JUMP JUMPDEST DUP3 DUP2 DUP4 MCOPY PUSH0 DUP4 DUP4 ADD MSTORE POP POP POP JUMP JUMPDEST PUSH0 PUSH1 0x1F NOT PUSH1 0x1F DUP4 ADD AND SWAP1 POP SWAP2 SWAP1 POP JUMP JUMPDEST PUSH0 PUSH2 0x238 DUP3 PUSH2 0x1F6 JUMP JUMPDEST PUSH2 0x242 DUP2 DUP6 PUSH2 0x200 JUMP JUMPDEST SWAP4 POP PUSH2 0x252 DUP2 DUP6 PUSH1 0x20 DUP7 ADD PUSH2 0x210 JUMP JUMPDEST PUSH2 0x25B DUP2 PUSH2 0x21E JUMP JUMPDEST DUP5 ADD SWAP2 POP POP SWAP3 SWAP2 POP POP JUMP JUMPDEST PUSH0 PUSH1 0x20 DUP3 ADD SWAP1 POP DUP2 DUP2 SUB PUSH0 DUP4 ADD MSTORE PUSH2 0x27E DUP2 DUP5 PUSH2 0x22E JUMP JUMPDEST SWAP1 POP SWAP3 SWAP2 POP POP JUMP JUMPDEST PUSH32 0x4E487B7100000000000000000000000000000000000000000000000000000000 PUSH0 MSTORE PUSH1 0x22 PUSH1 0x4 MSTORE PUSH1 0x24 PUSH0 REVERT JUMPDEST PUSH0 PUSH1 0x2 DUP3 DIV SWAP1 POP PUSH1 0x1 DUP3 AND DUP1 PUSH2 0x2CA JUMPI PUSH1 0x7F DUP3 AND SWAP2 POP JUMPDEST PUSH1 0x20 DUP3 LT DUP2 SUB PUSH2 0x2DD JUMPI PUSH2 0x2DC PUSH2 0x286 JUMP JUMPDEST JUMPDEST POP SWAP2 SWAP1 POP JUMP INVALID LOG2 PUSH5 0x6970667358 0x22 SLT KECCAK256 GASPRICE 0x29 NUMBER DIV REVERT 0xCB SWAP5 SSTORE BLOBBASEFEE 0xB9 ORIGIN 0x2F PUSH17 0x56449348D5A66423CE6F5B8124BDCFECA8 0xDC 0xD0 PUSH5 0x736F6C6343 STOP ADDMOD BYTE STOP CALLER "
		},
		"gasEstimates": {
			"creation": {
				"codeDepositCost": "158600",
				"executionCost": "infinite",
				"totalCost": "infinite"
			},
			"external": {
				"myName()": "infinite",
				"show()": "345",
				"show2()": "353",
				"show3()": "357"
			}
		},
		"methodIdentifiers": {
			"myName()": "fae2dd4b",
			"show()": "cc80f6f3",
			"show2()": "e5368f12",
			"show3()": "1a52aec4"
		}
	},
	"abi": [
		{
			"inputs": [],
			"name": "myName",
			"outputs": [
				{
					"internalType": "string",
					"name": "",
					"type": "string"
				}
			],
			"stateMutability": "view",
			"type": "function"
		},
		{
			"inputs": [],
			"name": "show",
			"outputs": [
				{
					"internalType": "uint256",
					"name": "",
					"type": "uint256"
				}
			],
			"stateMutability": "pure",
			"type": "function"
		},
		{
			"inputs": [],
			"name": "show2",
			"outputs": [
				{
					"internalType": "uint256",
					"name": "",
					"type": "uint256"
				}
			],
			"stateMutability": "view",
			"type": "function"
		},
		{
			"inputs": [],
			"name": "show3",
			"outputs": [
				{
					"internalType": "address",
					"name": "",
					"type": "address"
				}
			],
			"stateMutability": "view",
			"type": "function"
		}
	]
}