{
	"contracts/IfElse.sol": {
		"IfElse": {
			"abi": [
				{
					"inputs": [
						{
							"internalType": "string",
							"name": "_password",
							"type": "string"
						}
					],
					"stateMutability": "nonpayable",
					"type": "constructor"
				},
				{
					"inputs": [
						{
							"internalType": "string",
							"name": "_password",
							"type": "string"
						}
					],
					"name": "login",
					"outputs": [
						{
							"internalType": "bool",
							"name": "",
							"type": "bool"
						}
					],
					"stateMutability": "nonpayable",
					"type": "function"
				},
				{
					"inputs": [],
					"name": "loginStatus",
					"outputs": [
						{
							"internalType": "uint256",
							"name": "",
							"type": "uint256"
						}
					],
					"stateMutability": "view",
					"type": "function"
				},
				{
					"inputs": [
						{
							"internalType": "string",
							"name": "_password",
							"type": "string"
						}
					],
					"name": "loginStatusCode",
					"outputs": [
						{
							"internalType": "uint256",
							"name": "",
							"type": "uint256"
						}
					],
					"stateMutability": "view",
					"type": "function"
				}
			],
			"devdoc": {
				"kind": "dev",
				"methods": {},
				"version": 1
			},
			"evm": {
				"assembly": "    /* \"contracts/IfElse.sol\":57:2777  contract IfElse {... */\n  mstore(0x40, 0x80)\n    /* \"contracts/IfElse.sol\":294:397  constructor(string memory _password) {... */\n  callvalue\n  dup1\n  iszero\n  tag_1\n  jumpi\n  0x00\n  dup1\n  revert\ntag_1:\n  pop\n  mload(0x40)\n  sub(codesize, bytecodeSize)\n  dup1\n  bytecodeSize\n  dup4\n  codecopy\n  dup2\n  dup2\n  add\n  0x40\n  mstore\n  dup2\n  add\n  swap1\n  tag_2\n  swap2\n  swap1\n  tag_3\n  jump\t// in\ntag_2:\n    /* \"contracts/IfElse.sol\":379:388  _password */\n  dup1\n    /* \"contracts/IfElse.sol\":368:389  abi.encode(_password) */\n  add(0x20, mload(0x40))\n  tag_6\n  swap2\n  swap1\n  tag_7\n  jump\t// in\ntag_6:\n  mload(0x40)\n  0x20\n  dup2\n  dup4\n  sub\n  sub\n  dup2\n  mstore\n  swap1\n  0x40\n  mstore\n    /* \"contracts/IfElse.sol\":358:390  keccak256(abi.encode(_password)) */\n  dup1\n  mload\n  swap1\n  0x20\n  add\n  keccak256\n    /* \"contracts/IfElse.sol\":341:355  hashedPassword */\n  0x00\n    /* \"contracts/IfElse.sol\":341:390  hashedPassword = keccak256(abi.encode(_password)) */\n  dup2\n  swap1\n  sstore\n  pop\n    /* \"contracts/IfElse.sol\":294:397  constructor(string memory _password) {... */\n  pop\n    /* \"contracts/IfElse.sol\":57:2777  contract IfElse {... */\n  jump(tag_8)\n    /* \"#utility.yul\":7:82   */\ntag_9:\n    /* \"#utility.yul\":40:46   */\n  0x00\n    /* \"#utility.yul\":73:75   */\n  0x40\n    /* \"#utility.yul\":67:76   */\n  mload\n    /* \"#utility.yul\":57:76   */\n  swap1\n  pop\n    /* \"#utility.yul\":7:82   */\n  swap1\n  jump\t// out\n    /* \"#utility.yul\":88:205   */\ntag_10:\n    /* \"#utility.yul\":197:198   */\n  0x00\n    /* \"#utility.yul\":194:195   */\n  dup1\n    /* \"#utility.yul\":187:199   */\n  revert\n    /* \"#utility.yul\":211:328   */\ntag_11:\n    /* \"#utility.yul\":320:321   */\n  0x00\n    /* \"#utility.yul\":317:318   */\n  dup1\n    /* \"#utility.yul\":310:322   */\n  revert\n    /* \"#utility.yul\":334:451   */\ntag_12:\n    /* \"#utility.yul\":443:444   */\n  0x00\n    /* \"#utility.yul\":440:441   */\n  dup1\n    /* \"#utility.yul\":433:445   */\n  revert\n    /* \"#utility.yul\":457:574   */\ntag_13:\n    /* \"#utility.yul\":566:567   */\n  0x00\n    /* \"#utility.yul\":563:564   */\n  dup1\n    /* \"#utility.yul\":556:568   */\n  revert\n    /* \"#utility.yul\":580:682   */\ntag_14:\n    /* \"#utility.yul\":621:627   */\n  0x00\n    /* \"#utility.yul\":672:674   */\n  0x1f\n    /* \"#utility.yul\":668:675   */\n  not\n    /* \"#utility.yul\":663:665   */\n  0x1f\n    /* \"#utility.yul\":656:661   */\n  dup4\n    /* \"#utility.yul\":652:666   */\n  add\n    /* \"#utility.yul\":648:676   */\n  and\n    /* \"#utility.yul\":638:676   */\n  swap1\n  pop\n    /* \"#utility.yul\":580:682   */\n  swap2\n  swap1\n  pop\n  jump\t// out\n    /* \"#utility.yul\":688:868   */\ntag_15:\n    /* \"#utility.yul\":736:813   */\n  0x4e487b7100000000000000000000000000000000000000000000000000000000\n    /* \"#utility.yul\":733:734   */\n  0x00\n    /* \"#utility.yul\":726:814   */\n  mstore\n    /* \"#utility.yul\":833:837   */\n  0x41\n    /* \"#utility.yul\":830:831   */\n  0x04\n    /* \"#utility.yul\":823:838   */\n  mstore\n    /* \"#utility.yul\":857:861   */\n  0x24\n    /* \"#utility.yul\":854:855   */\n  0x00\n    /* \"#utility.yul\":847:862   */\n  revert\n    /* \"#utility.yul\":874:1155   */\ntag_16:\n    /* \"#utility.yul\":957:984   */\n  tag_34\n    /* \"#utility.yul\":979:983   */\n  dup3\n    /* \"#utility.yul\":957:984   */\n  tag_14\n  jump\t// in\ntag_34:\n    /* \"#utility.yul\":949:955   */\n  dup2\n    /* \"#utility.yul\":945:985   */\n  add\n    /* \"#utility.yul\":1087:1093   */\n  dup2\n    /* \"#utility.yul\":1075:1085   */\n  dup2\n    /* \"#utility.yul\":1072:1094   */\n  lt\n    /* \"#utility.yul\":1051:1069   */\n  0xffffffffffffffff\n    /* \"#utility.yul\":1039:1049   */\n  dup3\n    /* \"#utility.yul\":1036:1070   */\n  gt\n    /* \"#utility.yul\":1033:1095   */\n  or\n    /* \"#utility.yul\":1030:1118   */\n  iszero\n  tag_35\n  jumpi\n    /* \"#utility.yul\":1098:1116   */\n  tag_36\n  tag_15\n  jump\t// in\ntag_36:\n    /* \"#utility.yul\":1030:1118   */\ntag_35:\n    /* \"#utility.yul\":1138:1148   */\n  dup1\n    /* \"#utility.yul\":1134:1136   */\n  0x40\n    /* \"#utility.yul\":1127:1149   */\n  mstore\n    /* \"#utility.yul\":917:1155   */\n  pop\n    /* \"#utility.yul\":874:1155   */\n  pop\n  pop\n  jump\t// out\n    /* \"#utility.yul\":1161:1290   */\ntag_17:\n    /* \"#utility.yul\":1195:1201   */\n  0x00\n    /* \"#utility.yul\":1222:1242   */\n  tag_38\n  tag_9\n  jump\t// in\ntag_38:\n    /* \"#utility.yul\":1212:1242   */\n  swap1\n  pop\n    /* \"#utility.yul\":1251:1284   */\n  tag_39\n    /* \"#utility.yul\":1279:1283   */\n  dup3\n    /* \"#utility.yul\":1271:1277   */\n  dup3\n    /* \"#utility.yul\":1251:1284   */\n  tag_16\n  jump\t// in\ntag_39:\n    /* \"#utility.yul\":1161:1290   */\n  swap2\n  swap1\n  pop\n  jump\t// out\n    /* \"#utility.yul\":1296:1604   */\ntag_18:\n    /* \"#utility.yul\":1358:1362   */\n  0x00\n    /* \"#utility.yul\":1448:1466   */\n  0xffffffffffffffff\n    /* \"#utility.yul\":1440:1446   */\n  dup3\n    /* \"#utility.yul\":1437:1467   */\n  gt\n    /* \"#utility.yul\":1434:1490   */\n  iszero\n  tag_41\n  jumpi\n    /* \"#utility.yul\":1470:1488   */\n  tag_42\n  tag_15\n  jump\t// in\ntag_42:\n    /* \"#utility.yul\":1434:1490   */\ntag_41:\n    /* \"#utility.yul\":1508:1537   */\n  tag_43\n    /* \"#utility.yul\":1530:1536   */\n  dup3\n    /* \"#utility.yul\":1508:1537   */\n  tag_14\n  jump\t// in\ntag_43:\n    /* \"#utility.yul\":1500:1537   */\n  swap1\n  pop\n    /* \"#utility.yul\":1592:1596   */\n  0x20\n    /* \"#utility.yul\":1586:1590   */\n  dup2\n    /* \"#utility.yul\":1582:1597   */\n  add\n    /* \"#utility.yul\":1574:1597   */\n  swap1\n  pop\n    /* \"#utility.yul\":1296:1604   */\n  swap2\n  swap1\n  pop\n  jump\t// out\n    /* \"#utility.yul\":1610:1749   */\ntag_19:\n    /* \"#utility.yul\":1699:1705   */\n  dup3\n    /* \"#utility.yul\":1694:1697   */\n  dup2\n    /* \"#utility.yul\":1689:1692   */\n  dup4\n    /* \"#utility.yul\":1683:1706   */\n  mcopy\n    /* \"#utility.yul\":1740:1741   */\n  0x00\n    /* \"#utility.yul\":1731:1737   */\n  dup4\n    /* \"#utility.yul\":1726:1729   */\n  dup4\n    /* \"#utility.yul\":1722:1738   */\n  add\n    /* \"#utility.yul\":1715:1742   */\n  mstore\n    /* \"#utility.yul\":1610:1749   */\n  pop\n  pop\n  pop\n  jump\t// out\n    /* \"#utility.yul\":1755:2189   */\ntag_20:\n    /* \"#utility.yul\":1844:1849   */\n  0x00\n    /* \"#utility.yul\":1869:1935   */\n  tag_46\n    /* \"#utility.yul\":1885:1934   */\n  tag_47\n    /* \"#utility.yul\":1927:1933   */\n  dup5\n    /* \"#utility.yul\":1885:1934   */\n  tag_18\n  jump\t// in\ntag_47:\n    /* \"#utility.yul\":1869:1935   */\n  tag_17\n  jump\t// in\ntag_46:\n    /* \"#utility.yul\":1860:1935   */\n  swap1\n  pop\n    /* \"#utility.yul\":1958:1964   */\n  dup3\n    /* \"#utility.yul\":1951:1956   */\n  dup2\n    /* \"#utility.yul\":1944:1965   */\n  mstore\n    /* \"#utility.yul\":1996:2000   */\n  0x20\n    /* \"#utility.yul\":1989:1994   */\n  dup2\n    /* \"#utility.yul\":1985:2001   */\n  add\n    /* \"#utility.yul\":2034:2037   */\n  dup5\n    /* \"#utility.yul\":2025:2031   */\n  dup5\n    /* \"#utility.yul\":2020:2023   */\n  dup5\n    /* \"#utility.yul\":2016:2032   */\n  add\n    /* \"#utility.yul\":2013:2038   */\n  gt\n    /* \"#utility.yul\":2010:2122   */\n  iszero\n  tag_48\n  jumpi\n    /* \"#utility.yul\":2041:2120   */\n  tag_49\n  tag_13\n  jump\t// in\ntag_49:\n    /* \"#utility.yul\":2010:2122   */\ntag_48:\n    /* \"#utility.yul\":2131:2183   */\n  tag_50\n    /* \"#utility.yul\":2176:2182   */\n  dup5\n    /* \"#utility.yul\":2171:2174   */\n  dup3\n    /* \"#utility.yul\":2166:2169   */\n  dup6\n    /* \"#utility.yul\":2131:2183   */\n  tag_19\n  jump\t// in\ntag_50:\n    /* \"#utility.yul\":1850:2189   */\n  pop\n    /* \"#utility.yul\":1755:2189   */\n  swap4\n  swap3\n  pop\n  pop\n  pop\n  jump\t// out\n    /* \"#utility.yul\":2209:2564   */\ntag_21:\n    /* \"#utility.yul\":2276:2281   */\n  0x00\n    /* \"#utility.yul\":2325:2328   */\n  dup3\n    /* \"#utility.yul\":2318:2322   */\n  0x1f\n    /* \"#utility.yul\":2310:2316   */\n  dup4\n    /* \"#utility.yul\":2306:2323   */\n  add\n    /* \"#utility.yul\":2302:2329   */\n  slt\n    /* \"#utility.yul\":2292:2414   */\n  tag_52\n  jumpi\n    /* \"#utility.yul\":2333:2412   */\n  tag_53\n  tag_12\n  jump\t// in\ntag_53:\n    /* \"#utility.yul\":2292:2414   */\ntag_52:\n    /* \"#utility.yul\":2443:2449   */\n  dup2\n    /* \"#utility.yul\":2437:2450   */\n  mload\n    /* \"#utility.yul\":2468:2558   */\n  tag_54\n    /* \"#utility.yul\":2554:2557   */\n  dup5\n    /* \"#utility.yul\":2546:2552   */\n  dup3\n    /* \"#utility.yul\":2539:2543   */\n  0x20\n    /* \"#utility.yul\":2531:2537   */\n  dup7\n    /* \"#utility.yul\":2527:2544   */\n  add\n    /* \"#utility.yul\":2468:2558   */\n  tag_20\n  jump\t// in\ntag_54:\n    /* \"#utility.yul\":2459:2558   */\n  swap2\n  pop\n    /* \"#utility.yul\":2282:2564   */\n  pop\n    /* \"#utility.yul\":2209:2564   */\n  swap3\n  swap2\n  pop\n  pop\n  jump\t// out\n    /* \"#utility.yul\":2570:3094   */\ntag_3:\n    /* \"#utility.yul\":2650:2656   */\n  0x00\n    /* \"#utility.yul\":2699:2701   */\n  0x20\n    /* \"#utility.yul\":2687:2696   */\n  dup3\n    /* \"#utility.yul\":2678:2685   */\n  dup5\n    /* \"#utility.yul\":2674:2697   */\n  sub\n    /* \"#utility.yul\":2670:2702   */\n  slt\n    /* \"#utility.yul\":2667:2786   */\n  iszero\n  tag_56\n  jumpi\n    /* \"#utility.yul\":2705:2784   */\n  tag_57\n  tag_10\n  jump\t// in\ntag_57:\n    /* \"#utility.yul\":2667:2786   */\ntag_56:\n    /* \"#utility.yul\":2846:2847   */\n  0x00\n    /* \"#utility.yul\":2835:2844   */\n  dup3\n    /* \"#utility.yul\":2831:2848   */\n  add\n    /* \"#utility.yul\":2825:2849   */\n  mload\n    /* \"#utility.yul\":2876:2894   */\n  0xffffffffffffffff\n    /* \"#utility.yul\":2868:2874   */\n  dup2\n    /* \"#utility.yul\":2865:2895   */\n  gt\n    /* \"#utility.yul\":2862:2979   */\n  iszero\n  tag_58\n  jumpi\n    /* \"#utility.yul\":2898:2977   */\n  tag_59\n  tag_11\n  jump\t// in\ntag_59:\n    /* \"#utility.yul\":2862:2979   */\ntag_58:\n    /* \"#utility.yul\":3003:3077   */\n  tag_60\n    /* \"#utility.yul\":3069:3076   */\n  dup5\n    /* \"#utility.yul\":3060:3066   */\n  dup3\n    /* \"#utility.yul\":3049:3058   */\n  dup6\n    /* \"#utility.yul\":3045:3067   */\n  add\n    /* \"#utility.yul\":3003:3077   */\n  tag_21\n  jump\t// in\ntag_60:\n    /* \"#utility.yul\":2993:3077   */\n  swap2\n  pop\n    /* \"#utility.yul\":2796:3087   */\n  pop\n    /* \"#utility.yul\":2570:3094   */\n  swap3\n  swap2\n  pop\n  pop\n  jump\t// out\n    /* \"#utility.yul\":3100:3199   */\ntag_22:\n    /* \"#utility.yul\":3152:3158   */\n  0x00\n    /* \"#utility.yul\":3186:3191   */\n  dup2\n    /* \"#utility.yul\":3180:3192   */\n  mload\n    /* \"#utility.yul\":3170:3192   */\n  swap1\n  pop\n    /* \"#utility.yul\":3100:3199   */\n  swap2\n  swap1\n  pop\n  jump\t// out\n    /* \"#utility.yul\":3205:3374   */\ntag_23:\n    /* \"#utility.yul\":3289:3300   */\n  0x00\n    /* \"#utility.yul\":3323:3329   */\n  dup3\n    /* \"#utility.yul\":3318:3321   */\n  dup3\n    /* \"#utility.yul\":3311:3330   */\n  mstore\n    /* \"#utility.yul\":3363:3367   */\n  0x20\n    /* \"#utility.yul\":3358:3361   */\n  dup3\n    /* \"#utility.yul\":3354:3368   */\n  add\n    /* \"#utility.yul\":3339:3368   */\n  swap1\n  pop\n    /* \"#utility.yul\":3205:3374   */\n  swap3\n  swap2\n  pop\n  pop\n  jump\t// out\n    /* \"#utility.yul\":3380:3757   */\ntag_24:\n    /* \"#utility.yul\":3468:3471   */\n  0x00\n    /* \"#utility.yul\":3496:3535   */\n  tag_64\n    /* \"#utility.yul\":3529:3534   */\n  dup3\n    /* \"#utility.yul\":3496:3535   */\n  tag_22\n  jump\t// in\ntag_64:\n    /* \"#utility.yul\":3551:3622   */\n  tag_65\n    /* \"#utility.yul\":3615:3621   */\n  dup2\n    /* \"#utility.yul\":3610:3613   */\n  dup6\n    /* \"#utility.yul\":3551:3622   */\n  tag_23\n  jump\t// in\ntag_65:\n    /* \"#utility.yul\":3544:3622   */\n  swap4\n  pop\n    /* \"#utility.yul\":3631:3696   */\n  tag_66\n    /* \"#utility.yul\":3689:3695   */\n  dup2\n    /* \"#utility.yul\":3684:3687   */\n  dup6\n    /* \"#utility.yul\":3677:3681   */\n  0x20\n    /* \"#utility.yul\":3670:3675   */\n  dup7\n    /* \"#utility.yul\":3666:3682   */\n  add\n    /* \"#utility.yul\":3631:3696   */\n  tag_19\n  jump\t// in\ntag_66:\n    /* \"#utility.yul\":3721:3750   */\n  tag_67\n    /* \"#utility.yul\":3743:3749   */\n  dup2\n    /* \"#utility.yul\":3721:3750   */\n  tag_14\n  jump\t// in\ntag_67:\n    /* \"#utility.yul\":3716:3719   */\n  dup5\n    /* \"#utility.yul\":3712:3751   */\n  add\n    /* \"#utility.yul\":3705:3751   */\n  swap2\n  pop\n    /* \"#utility.yul\":3472:3757   */\n  pop\n    /* \"#utility.yul\":3380:3757   */\n  swap3\n  swap2\n  pop\n  pop\n  jump\t// out\n    /* \"#utility.yul\":3763:4076   */\ntag_7:\n    /* \"#utility.yul\":3876:3880   */\n  0x00\n    /* \"#utility.yul\":3914:3916   */\n  0x20\n    /* \"#utility.yul\":3903:3912   */\n  dup3\n    /* \"#utility.yul\":3899:3917   */\n  add\n    /* \"#utility.yul\":3891:3917   */\n  swap1\n  pop\n    /* \"#utility.yul\":3963:3972   */\n  dup2\n    /* \"#utility.yul\":3957:3961   */\n  dup2\n    /* \"#utility.yul\":3953:3973   */\n  sub\n    /* \"#utility.yul\":3949:3950   */\n  0x00\n    /* \"#utility.yul\":3938:3947   */\n  dup4\n    /* \"#utility.yul\":3934:3951   */\n  add\n    /* \"#utility.yul\":3927:3974   */\n  mstore\n    /* \"#utility.yul\":3991:4069   */\n  tag_69\n    /* \"#utility.yul\":4064:4068   */\n  dup2\n    /* \"#utility.yul\":4055:4061   */\n  dup5\n    /* \"#utility.yul\":3991:4069   */\n  tag_24\n  jump\t// in\ntag_69:\n    /* \"#utility.yul\":3983:4069   */\n  swap1\n  pop\n    /* \"#utility.yul\":3763:4076   */\n  swap3\n  swap2\n  pop\n  pop\n  jump\t// out\n    /* \"contracts/IfElse.sol\":57:2777  contract IfElse {... */\ntag_8:\n  dataSize(sub_0)\n  dup1\n  dataOffset(sub_0)\n  0x00\n  codecopy\n  0x00\n  return\nstop\n\nsub_0: assembly {\n        /* \"contracts/IfElse.sol\":57:2777  contract IfElse {... */\n      mstore(0x40, 0x80)\n      callvalue\n      dup1\n      iszero\n      tag_1\n      jumpi\n      0x00\n      dup1\n      revert\n    tag_1:\n      pop\n      jumpi(tag_2, lt(calldatasize, 0x04))\n      shr(0xe0, calldataload(0x00))\n      dup1\n      0x2f41fc65\n      eq\n      tag_3\n      jumpi\n      dup1\n      0x3a7d280c\n      eq\n      tag_4\n      jumpi\n      dup1\n      0x4a1280cc\n      eq\n      tag_5\n      jumpi\n    tag_2:\n      0x00\n      dup1\n      revert\n        /* \"contracts/IfElse.sol\":2155:2558  function loginStatus() public view returns (uint256) {... */\n    tag_3:\n      tag_6\n      tag_7\n      jump\t// in\n    tag_6:\n      mload(0x40)\n      tag_8\n      swap2\n      swap1\n      tag_9\n      jump\t// in\n    tag_8:\n      mload(0x40)\n      dup1\n      swap2\n      sub\n      swap1\n      return\n        /* \"contracts/IfElse.sol\":686:1111  function login(string memory _password) public returns (bool) {... */\n    tag_4:\n      tag_10\n      0x04\n      dup1\n      calldatasize\n      sub\n      dup2\n      add\n      swap1\n      tag_11\n      swap2\n      swap1\n      tag_12\n      jump\t// in\n    tag_11:\n      tag_13\n      jump\t// in\n    tag_10:\n      mload(0x40)\n      tag_14\n      swap2\n      swap1\n      tag_15\n      jump\t// in\n    tag_14:\n      mload(0x40)\n      dup1\n      swap2\n      sub\n      swap1\n      return\n        /* \"contracts/IfElse.sol\":1416:1828  function loginStatusCode(string memory _password) public view returns (uint256) {... */\n    tag_5:\n      tag_16\n      0x04\n      dup1\n      calldatasize\n      sub\n      dup2\n      add\n      swap1\n      tag_17\n      swap2\n      swap1\n      tag_12\n      jump\t// in\n    tag_17:\n      tag_18\n      jump\t// in\n    tag_16:\n      mload(0x40)\n      tag_19\n      swap2\n      swap1\n      tag_9\n      jump\t// in\n    tag_19:\n      mload(0x40)\n      dup1\n      swap2\n      sub\n      swap1\n      return\n        /* \"contracts/IfElse.sol\":2155:2558  function loginStatus() public view returns (uint256) {... */\n    tag_7:\n        /* \"contracts/IfElse.sol\":2199:2206  uint256 */\n      0x00\n        /* \"contracts/IfElse.sol\":2236:2237  0 */\n      dup1\n        /* \"contracts/IfElse.sol\":2222:2232  loginCount */\n      sload(0x01)\n        /* \"contracts/IfElse.sol\":2222:2237  loginCount == 0 */\n      sub\n        /* \"contracts/IfElse.sol\":2218:2552  if (loginCount == 0) {... */\n      tag_21\n      jumpi\n        /* \"contracts/IfElse.sol\":2260:2261  0 */\n      0x00\n        /* \"contracts/IfElse.sol\":2253:2261  return 0 */\n      swap1\n      pop\n      jump(tag_20)\n        /* \"contracts/IfElse.sol\":2218:2552  if (loginCount == 0) {... */\n    tag_21:\n        /* \"contracts/IfElse.sol\":2312:2313  0 */\n      0x00\n        /* \"contracts/IfElse.sol\":2299:2309  loginCount */\n      sload(0x01)\n        /* \"contracts/IfElse.sol\":2299:2313  loginCount > 0 */\n      gt\n        /* \"contracts/IfElse.sol\":2299:2332  loginCount > 0 && loginCount != 1 */\n      dup1\n      iszero\n      tag_23\n      jumpi\n      pop\n        /* \"contracts/IfElse.sol\":2331:2332  1 */\n      0x01\n        /* \"contracts/IfElse.sol\":2317:2327  loginCount */\n      dup1\n      sload\n        /* \"contracts/IfElse.sol\":2317:2332  loginCount != 1 */\n      eq\n      iszero\n        /* \"contracts/IfElse.sol\":2299:2332  loginCount > 0 && loginCount != 1 */\n    tag_23:\n        /* \"contracts/IfElse.sol\":2295:2552  if (loginCount > 0 && loginCount != 1) {... */\n      iszero\n      tag_24\n      jumpi\n        /* \"contracts/IfElse.sol\":2355:2356  1 */\n      0x01\n        /* \"contracts/IfElse.sol\":2348:2356  return 1 */\n      swap1\n      pop\n      jump(tag_20)\n        /* \"contracts/IfElse.sol\":2295:2552  if (loginCount > 0 && loginCount != 1) {... */\n    tag_24:\n        /* \"contracts/IfElse.sol\":2421:2422  1 */\n      0x01\n        /* \"contracts/IfElse.sol\":2407:2417  loginCount */\n      dup1\n      sload\n        /* \"contracts/IfElse.sol\":2407:2422  loginCount == 1 */\n      sub\n        /* \"contracts/IfElse.sol\":2403:2552  if (loginCount == 1) {... */\n      tag_26\n      jumpi\n        /* \"contracts/IfElse.sol\":2445:2446  2 */\n      0x02\n        /* \"contracts/IfElse.sol\":2438:2446  return 2 */\n      swap1\n      pop\n      jump(tag_20)\n        /* \"contracts/IfElse.sol\":2403:2552  if (loginCount == 1) {... */\n    tag_26:\n        /* \"contracts/IfElse.sol\":2516:2517  3 */\n      0x03\n        /* \"contracts/IfElse.sol\":2509:2517  return 3 */\n      swap1\n      pop\n        /* \"contracts/IfElse.sol\":2155:2558  function loginStatus() public view returns (uint256) {... */\n    tag_20:\n      swap1\n      jump\t// out\n        /* \"contracts/IfElse.sol\":686:1111  function login(string memory _password) public returns (bool) {... */\n    tag_13:\n        /* \"contracts/IfElse.sol\":742:746  bool */\n      0x00\n        /* \"contracts/IfElse.sol\":801:810  _password */\n      dup2\n        /* \"contracts/IfElse.sol\":790:811  abi.encode(_password) */\n      add(0x20, mload(0x40))\n      tag_29\n      swap2\n      swap1\n      tag_30\n      jump\t// in\n    tag_29:\n      mload(0x40)\n      0x20\n      dup2\n      dup4\n      sub\n      sub\n      dup2\n      mstore\n      swap1\n      0x40\n      mstore\n        /* \"contracts/IfElse.sol\":780:812  keccak256(abi.encode(_password)) */\n      dup1\n      mload\n      swap1\n      0x20\n      add\n      keccak256\n        /* \"contracts/IfElse.sol\":762:776  hashedPassword */\n      sload(0x00)\n        /* \"contracts/IfElse.sol\":762:812  hashedPassword == keccak256(abi.encode(_password)) */\n      sub\n        /* \"contracts/IfElse.sol\":758:984  if (hashedPassword == keccak256(abi.encode(_password))) {... */\n      tag_31\n      jumpi\n        /* \"contracts/IfElse.sol\":828:838  loginCount */\n      0x01\n      0x00\n        /* \"contracts/IfElse.sol\":828:840  loginCount++ */\n      dup2\n      sload\n      dup1\n      swap3\n      swap2\n      swap1\n      tag_32\n      swap1\n      tag_33\n      jump\t// in\n    tag_32:\n      swap2\n      swap1\n      pop\n      sstore\n      pop\n        /* \"contracts/IfElse.sol\":890:894  true */\n      0x01\n        /* \"contracts/IfElse.sol\":883:894  return true */\n      swap1\n      pop\n      jump(tag_28)\n        /* \"contracts/IfElse.sol\":758:984  if (hashedPassword == keccak256(abi.encode(_password))) {... */\n    tag_31:\n        /* \"contracts/IfElse.sol\":952:957  false */\n      0x00\n        /* \"contracts/IfElse.sol\":945:957  return false */\n      swap1\n      pop\n        /* \"contracts/IfElse.sol\":686:1111  function login(string memory _password) public returns (bool) {... */\n    tag_28:\n      swap2\n      swap1\n      pop\n      jump\t// out\n        /* \"contracts/IfElse.sol\":1416:1828  function loginStatusCode(string memory _password) public view returns (uint256) {... */\n    tag_18:\n        /* \"contracts/IfElse.sol\":1487:1494  uint256 */\n      0x00\n        /* \"contracts/IfElse.sol\":1549:1558  _password */\n      dup2\n        /* \"contracts/IfElse.sol\":1538:1559  abi.encode(_password) */\n      add(0x20, mload(0x40))\n      tag_36\n      swap2\n      swap1\n      tag_30\n      jump\t// in\n    tag_36:\n      mload(0x40)\n      0x20\n      dup2\n      dup4\n      sub\n      sub\n      dup2\n      mstore\n      swap1\n      0x40\n      mstore\n        /* \"contracts/IfElse.sol\":1528:1560  keccak256(abi.encode(_password)) */\n      dup1\n      mload\n      swap1\n      0x20\n      add\n      keccak256\n        /* \"contracts/IfElse.sol\":1510:1524  hashedPassword */\n      sload(0x00)\n        /* \"contracts/IfElse.sol\":1510:1560  hashedPassword == keccak256(abi.encode(_password)) */\n      sub\n        /* \"contracts/IfElse.sol\":1506:1682  if (hashedPassword == keccak256(abi.encode(_password))) {... */\n      tag_37\n      jumpi\n        /* \"contracts/IfElse.sol\":1583:1584  1 */\n      0x01\n        /* \"contracts/IfElse.sol\":1576:1584  return 1 */\n      swap1\n      pop\n      jump(tag_35)\n        /* \"contracts/IfElse.sol\":1506:1682  if (hashedPassword == keccak256(abi.encode(_password))) {... */\n    tag_37:\n        /* \"contracts/IfElse.sol\":1645:1646  0 */\n      0x00\n        /* \"contracts/IfElse.sol\":1638:1646  return 0 */\n      swap1\n      pop\n        /* \"contracts/IfElse.sol\":1416:1828  function loginStatusCode(string memory _password) public view returns (uint256) {... */\n    tag_35:\n      swap2\n      swap1\n      pop\n      jump\t// out\n        /* \"#utility.yul\":7:84   */\n    tag_39:\n        /* \"#utility.yul\":44:51   */\n      0x00\n        /* \"#utility.yul\":73:78   */\n      dup2\n        /* \"#utility.yul\":62:78   */\n      swap1\n      pop\n        /* \"#utility.yul\":7:84   */\n      swap2\n      swap1\n      pop\n      jump\t// out\n        /* \"#utility.yul\":90:208   */\n    tag_40:\n        /* \"#utility.yul\":177:201   */\n      tag_64\n        /* \"#utility.yul\":195:200   */\n      dup2\n        /* \"#utility.yul\":177:201   */\n      tag_39\n      jump\t// in\n    tag_64:\n        /* \"#utility.yul\":172:175   */\n      dup3\n        /* \"#utility.yul\":165:202   */\n      mstore\n        /* \"#utility.yul\":90:208   */\n      pop\n      pop\n      jump\t// out\n        /* \"#utility.yul\":214:436   */\n    tag_9:\n        /* \"#utility.yul\":307:311   */\n      0x00\n        /* \"#utility.yul\":345:347   */\n      0x20\n        /* \"#utility.yul\":334:343   */\n      dup3\n        /* \"#utility.yul\":330:348   */\n      add\n        /* \"#utility.yul\":322:348   */\n      swap1\n      pop\n        /* \"#utility.yul\":358:429   */\n      tag_66\n        /* \"#utility.yul\":426:427   */\n      0x00\n        /* \"#utility.yul\":415:424   */\n      dup4\n        /* \"#utility.yul\":411:428   */\n      add\n        /* \"#utility.yul\":402:408   */\n      dup5\n        /* \"#utility.yul\":358:429   */\n      tag_40\n      jump\t// in\n    tag_66:\n        /* \"#utility.yul\":214:436   */\n      swap3\n      swap2\n      pop\n      pop\n      jump\t// out\n        /* \"#utility.yul\":442:517   */\n    tag_41:\n        /* \"#utility.yul\":475:481   */\n      0x00\n        /* \"#utility.yul\":508:510   */\n      0x40\n        /* \"#utility.yul\":502:511   */\n      mload\n        /* \"#utility.yul\":492:511   */\n      swap1\n      pop\n        /* \"#utility.yul\":442:517   */\n      swap1\n      jump\t// out\n        /* \"#utility.yul\":523:640   */\n    tag_42:\n        /* \"#utility.yul\":632:633   */\n      0x00\n        /* \"#utility.yul\":629:630   */\n      dup1\n        /* \"#utility.yul\":622:634   */\n      revert\n        /* \"#utility.yul\":646:763   */\n    tag_43:\n        /* \"#utility.yul\":755:756   */\n      0x00\n        /* \"#utility.yul\":752:753   */\n      dup1\n        /* \"#utility.yul\":745:757   */\n      revert\n        /* \"#utility.yul\":769:886   */\n    tag_44:\n        /* \"#utility.yul\":878:879   */\n      0x00\n        /* \"#utility.yul\":875:876   */\n      dup1\n        /* \"#utility.yul\":868:880   */\n      revert\n        /* \"#utility.yul\":892:1009   */\n    tag_45:\n        /* \"#utility.yul\":1001:1002   */\n      0x00\n        /* \"#utility.yul\":998:999   */\n      dup1\n        /* \"#utility.yul\":991:1003   */\n      revert\n        /* \"#utility.yul\":1015:1117   */\n    tag_46:\n        /* \"#utility.yul\":1056:1062   */\n      0x00\n        /* \"#utility.yul\":1107:1109   */\n      0x1f\n        /* \"#utility.yul\":1103:1110   */\n      not\n        /* \"#utility.yul\":1098:1100   */\n      0x1f\n        /* \"#utility.yul\":1091:1096   */\n      dup4\n        /* \"#utility.yul\":1087:1101   */\n      add\n        /* \"#utility.yul\":1083:1111   */\n      and\n        /* \"#utility.yul\":1073:1111   */\n      swap1\n      pop\n        /* \"#utility.yul\":1015:1117   */\n      swap2\n      swap1\n      pop\n      jump\t// out\n        /* \"#utility.yul\":1123:1303   */\n    tag_47:\n        /* \"#utility.yul\":1171:1248   */\n      0x4e487b7100000000000000000000000000000000000000000000000000000000\n        /* \"#utility.yul\":1168:1169   */\n      0x00\n        /* \"#utility.yul\":1161:1249   */\n      mstore\n        /* \"#utility.yul\":1268:1272   */\n      0x41\n        /* \"#utility.yul\":1265:1266   */\n      0x04\n        /* \"#utility.yul\":1258:1273   */\n      mstore\n        /* \"#utility.yul\":1292:1296   */\n      0x24\n        /* \"#utility.yul\":1289:1290   */\n      0x00\n        /* \"#utility.yul\":1282:1297   */\n      revert\n        /* \"#utility.yul\":1309:1590   */\n    tag_48:\n        /* \"#utility.yul\":1392:1419   */\n      tag_75\n        /* \"#utility.yul\":1414:1418   */\n      dup3\n        /* \"#utility.yul\":1392:1419   */\n      tag_46\n      jump\t// in\n    tag_75:\n        /* \"#utility.yul\":1384:1390   */\n      dup2\n        /* \"#utility.yul\":1380:1420   */\n      add\n        /* \"#utility.yul\":1522:1528   */\n      dup2\n        /* \"#utility.yul\":1510:1520   */\n      dup2\n        /* \"#utility.yul\":1507:1529   */\n      lt\n        /* \"#utility.yul\":1486:1504   */\n      0xffffffffffffffff\n        /* \"#utility.yul\":1474:1484   */\n      dup3\n        /* \"#utility.yul\":1471:1505   */\n      gt\n        /* \"#utility.yul\":1468:1530   */\n      or\n        /* \"#utility.yul\":1465:1553   */\n      iszero\n      tag_76\n      jumpi\n        /* \"#utility.yul\":1533:1551   */\n      tag_77\n      tag_47\n      jump\t// in\n    tag_77:\n        /* \"#utility.yul\":1465:1553   */\n    tag_76:\n        /* \"#utility.yul\":1573:1583   */\n      dup1\n        /* \"#utility.yul\":1569:1571   */\n      0x40\n        /* \"#utility.yul\":1562:1584   */\n      mstore\n        /* \"#utility.yul\":1352:1590   */\n      pop\n        /* \"#utility.yul\":1309:1590   */\n      pop\n      pop\n      jump\t// out\n        /* \"#utility.yul\":1596:1725   */\n    tag_49:\n        /* \"#utility.yul\":1630:1636   */\n      0x00\n        /* \"#utility.yul\":1657:1677   */\n      tag_79\n      tag_41\n      jump\t// in\n    tag_79:\n        /* \"#utility.yul\":1647:1677   */\n      swap1\n      pop\n        /* \"#utility.yul\":1686:1719   */\n      tag_80\n        /* \"#utility.yul\":1714:1718   */\n      dup3\n        /* \"#utility.yul\":1706:1712   */\n      dup3\n        /* \"#utility.yul\":1686:1719   */\n      tag_48\n      jump\t// in\n    tag_80:\n        /* \"#utility.yul\":1596:1725   */\n      swap2\n      swap1\n      pop\n      jump\t// out\n        /* \"#utility.yul\":1731:2039   */\n    tag_50:\n        /* \"#utility.yul\":1793:1797   */\n      0x00\n        /* \"#utility.yul\":1883:1901   */\n      0xffffffffffffffff\n        /* \"#utility.yul\":1875:1881   */\n      dup3\n        /* \"#utility.yul\":1872:1902   */\n      gt\n        /* \"#utility.yul\":1869:1925   */\n      iszero\n      tag_82\n      jumpi\n        /* \"#utility.yul\":1905:1923   */\n      tag_83\n      tag_47\n      jump\t// in\n    tag_83:\n        /* \"#utility.yul\":1869:1925   */\n    tag_82:\n        /* \"#utility.yul\":1943:1972   */\n      tag_84\n        /* \"#utility.yul\":1965:1971   */\n      dup3\n        /* \"#utility.yul\":1943:1972   */\n      tag_46\n      jump\t// in\n    tag_84:\n        /* \"#utility.yul\":1935:1972   */\n      swap1\n      pop\n        /* \"#utility.yul\":2027:2031   */\n      0x20\n        /* \"#utility.yul\":2021:2025   */\n      dup2\n        /* \"#utility.yul\":2017:2032   */\n      add\n        /* \"#utility.yul\":2009:2032   */\n      swap1\n      pop\n        /* \"#utility.yul\":1731:2039   */\n      swap2\n      swap1\n      pop\n      jump\t// out\n        /* \"#utility.yul\":2045:2193   */\n    tag_51:\n        /* \"#utility.yul\":2143:2149   */\n      dup3\n        /* \"#utility.yul\":2138:2141   */\n      dup2\n        /* \"#utility.yul\":2133:2136   */\n      dup4\n        /* \"#utility.yul\":2120:2150   */\n      calldatacopy\n        /* \"#utility.yul\":2184:2185   */\n      0x00\n        /* \"#utility.yul\":2175:2181   */\n      dup4\n        /* \"#utility.yul\":2170:2173   */\n      dup4\n        /* \"#utility.yul\":2166:2182   */\n      add\n        /* \"#utility.yul\":2159:2186   */\n      mstore\n        /* \"#utility.yul\":2045:2193   */\n      pop\n      pop\n      pop\n      jump\t// out\n        /* \"#utility.yul\":2199:2624   */\n    tag_52:\n        /* \"#utility.yul\":2277:2282   */\n      0x00\n        /* \"#utility.yul\":2302:2368   */\n      tag_87\n        /* \"#utility.yul\":2318:2367   */\n      tag_88\n        /* \"#utility.yul\":2360:2366   */\n      dup5\n        /* \"#utility.yul\":2318:2367   */\n      tag_50\n      jump\t// in\n    tag_88:\n        /* \"#utility.yul\":2302:2368   */\n      tag_49\n      jump\t// in\n    tag_87:\n        /* \"#utility.yul\":2293:2368   */\n      swap1\n      pop\n        /* \"#utility.yul\":2391:2397   */\n      dup3\n        /* \"#utility.yul\":2384:2389   */\n      dup2\n        /* \"#utility.yul\":2377:2398   */\n      mstore\n        /* \"#utility.yul\":2429:2433   */\n      0x20\n        /* \"#utility.yul\":2422:2427   */\n      dup2\n        /* \"#utility.yul\":2418:2434   */\n      add\n        /* \"#utility.yul\":2467:2470   */\n      dup5\n        /* \"#utility.yul\":2458:2464   */\n      dup5\n        /* \"#utility.yul\":2453:2456   */\n      dup5\n        /* \"#utility.yul\":2449:2465   */\n      add\n        /* \"#utility.yul\":2446:2471   */\n      gt\n        /* \"#utility.yul\":2443:2555   */\n      iszero\n      tag_89\n      jumpi\n        /* \"#utility.yul\":2474:2553   */\n      tag_90\n      tag_45\n      jump\t// in\n    tag_90:\n        /* \"#utility.yul\":2443:2555   */\n    tag_89:\n        /* \"#utility.yul\":2564:2618   */\n      tag_91\n        /* \"#utility.yul\":2611:2617   */\n      dup5\n        /* \"#utility.yul\":2606:2609   */\n      dup3\n        /* \"#utility.yul\":2601:2604   */\n      dup6\n        /* \"#utility.yul\":2564:2618   */\n      tag_51\n      jump\t// in\n    tag_91:\n        /* \"#utility.yul\":2283:2624   */\n      pop\n        /* \"#utility.yul\":2199:2624   */\n      swap4\n      swap3\n      pop\n      pop\n      pop\n      jump\t// out\n        /* \"#utility.yul\":2644:2984   */\n    tag_53:\n        /* \"#utility.yul\":2700:2705   */\n      0x00\n        /* \"#utility.yul\":2749:2752   */\n      dup3\n        /* \"#utility.yul\":2742:2746   */\n      0x1f\n        /* \"#utility.yul\":2734:2740   */\n      dup4\n        /* \"#utility.yul\":2730:2747   */\n      add\n        /* \"#utility.yul\":2726:2753   */\n      slt\n        /* \"#utility.yul\":2716:2838   */\n      tag_93\n      jumpi\n        /* \"#utility.yul\":2757:2836   */\n      tag_94\n      tag_44\n      jump\t// in\n    tag_94:\n        /* \"#utility.yul\":2716:2838   */\n    tag_93:\n        /* \"#utility.yul\":2874:2880   */\n      dup2\n        /* \"#utility.yul\":2861:2881   */\n      calldataload\n        /* \"#utility.yul\":2899:2978   */\n      tag_95\n        /* \"#utility.yul\":2974:2977   */\n      dup5\n        /* \"#utility.yul\":2966:2972   */\n      dup3\n        /* \"#utility.yul\":2959:2963   */\n      0x20\n        /* \"#utility.yul\":2951:2957   */\n      dup7\n        /* \"#utility.yul\":2947:2964   */\n      add\n        /* \"#utility.yul\":2899:2978   */\n      tag_52\n      jump\t// in\n    tag_95:\n        /* \"#utility.yul\":2890:2978   */\n      swap2\n      pop\n        /* \"#utility.yul\":2706:2984   */\n      pop\n        /* \"#utility.yul\":2644:2984   */\n      swap3\n      swap2\n      pop\n      pop\n      jump\t// out\n        /* \"#utility.yul\":2990:3499   */\n    tag_12:\n        /* \"#utility.yul\":3059:3065   */\n      0x00\n        /* \"#utility.yul\":3108:3110   */\n      0x20\n        /* \"#utility.yul\":3096:3105   */\n      dup3\n        /* \"#utility.yul\":3087:3094   */\n      dup5\n        /* \"#utility.yul\":3083:3106   */\n      sub\n        /* \"#utility.yul\":3079:3111   */\n      slt\n        /* \"#utility.yul\":3076:3195   */\n      iszero\n      tag_97\n      jumpi\n        /* \"#utility.yul\":3114:3193   */\n      tag_98\n      tag_42\n      jump\t// in\n    tag_98:\n        /* \"#utility.yul\":3076:3195   */\n    tag_97:\n        /* \"#utility.yul\":3262:3263   */\n      0x00\n        /* \"#utility.yul\":3251:3260   */\n      dup3\n        /* \"#utility.yul\":3247:3264   */\n      add\n        /* \"#utility.yul\":3234:3265   */\n      calldataload\n        /* \"#utility.yul\":3292:3310   */\n      0xffffffffffffffff\n        /* \"#utility.yul\":3284:3290   */\n      dup2\n        /* \"#utility.yul\":3281:3311   */\n      gt\n        /* \"#utility.yul\":3278:3395   */\n      iszero\n      tag_99\n      jumpi\n        /* \"#utility.yul\":3314:3393   */\n      tag_100\n      tag_43\n      jump\t// in\n    tag_100:\n        /* \"#utility.yul\":3278:3395   */\n    tag_99:\n        /* \"#utility.yul\":3419:3482   */\n      tag_101\n        /* \"#utility.yul\":3474:3481   */\n      dup5\n        /* \"#utility.yul\":3465:3471   */\n      dup3\n        /* \"#utility.yul\":3454:3463   */\n      dup6\n        /* \"#utility.yul\":3450:3472   */\n      add\n        /* \"#utility.yul\":3419:3482   */\n      tag_53\n      jump\t// in\n    tag_101:\n        /* \"#utility.yul\":3409:3482   */\n      swap2\n      pop\n        /* \"#utility.yul\":3205:3492   */\n      pop\n        /* \"#utility.yul\":2990:3499   */\n      swap3\n      swap2\n      pop\n      pop\n      jump\t// out\n        /* \"#utility.yul\":3505:3595   */\n    tag_54:\n        /* \"#utility.yul\":3539:3546   */\n      0x00\n        /* \"#utility.yul\":3582:3587   */\n      dup2\n        /* \"#utility.yul\":3575:3588   */\n      iszero\n        /* \"#utility.yul\":3568:3589   */\n      iszero\n        /* \"#utility.yul\":3557:3589   */\n      swap1\n      pop\n        /* \"#utility.yul\":3505:3595   */\n      swap2\n      swap1\n      pop\n      jump\t// out\n        /* \"#utility.yul\":3601:3710   */\n    tag_55:\n        /* \"#utility.yul\":3682:3703   */\n      tag_104\n        /* \"#utility.yul\":3697:3702   */\n      dup2\n        /* \"#utility.yul\":3682:3703   */\n      tag_54\n      jump\t// in\n    tag_104:\n        /* \"#utility.yul\":3677:3680   */\n      dup3\n        /* \"#utility.yul\":3670:3704   */\n      mstore\n        /* \"#utility.yul\":3601:3710   */\n      pop\n      pop\n      jump\t// out\n        /* \"#utility.yul\":3716:3926   */\n    tag_15:\n        /* \"#utility.yul\":3803:3807   */\n      0x00\n        /* \"#utility.yul\":3841:3843   */\n      0x20\n        /* \"#utility.yul\":3830:3839   */\n      dup3\n        /* \"#utility.yul\":3826:3844   */\n      add\n        /* \"#utility.yul\":3818:3844   */\n      swap1\n      pop\n        /* \"#utility.yul\":3854:3919   */\n      tag_106\n        /* \"#utility.yul\":3916:3917   */\n      0x00\n        /* \"#utility.yul\":3905:3914   */\n      dup4\n        /* \"#utility.yul\":3901:3918   */\n      add\n        /* \"#utility.yul\":3892:3898   */\n      dup5\n        /* \"#utility.yul\":3854:3919   */\n      tag_55\n      jump\t// in\n    tag_106:\n        /* \"#utility.yul\":3716:3926   */\n      swap3\n      swap2\n      pop\n      pop\n      jump\t// out\n        /* \"#utility.yul\":3932:4031   */\n    tag_56:\n        /* \"#utility.yul\":3984:3990   */\n      0x00\n        /* \"#utility.yul\":4018:4023   */\n      dup2\n        /* \"#utility.yul\":4012:4024   */\n      mload\n        /* \"#utility.yul\":4002:4024   */\n      swap1\n      pop\n        /* \"#utility.yul\":3932:4031   */\n      swap2\n      swap1\n      pop\n      jump\t// out\n        /* \"#utility.yul\":4037:4206   */\n    tag_57:\n        /* \"#utility.yul\":4121:4132   */\n      0x00\n        /* \"#utility.yul\":4155:4161   */\n      dup3\n        /* \"#utility.yul\":4150:4153   */\n      dup3\n        /* \"#utility.yul\":4143:4162   */\n      mstore\n        /* \"#utility.yul\":4195:4199   */\n      0x20\n        /* \"#utility.yul\":4190:4193   */\n      dup3\n        /* \"#utility.yul\":4186:4200   */\n      add\n        /* \"#utility.yul\":4171:4200   */\n      swap1\n      pop\n        /* \"#utility.yul\":4037:4206   */\n      swap3\n      swap2\n      pop\n      pop\n      jump\t// out\n        /* \"#utility.yul\":4212:4351   */\n    tag_58:\n        /* \"#utility.yul\":4301:4307   */\n      dup3\n        /* \"#utility.yul\":4296:4299   */\n      dup2\n        /* \"#utility.yul\":4291:4294   */\n      dup4\n        /* \"#utility.yul\":4285:4308   */\n      mcopy\n        /* \"#utility.yul\":4342:4343   */\n      0x00\n        /* \"#utility.yul\":4333:4339   */\n      dup4\n        /* \"#utility.yul\":4328:4331   */\n      dup4\n        /* \"#utility.yul\":4324:4340   */\n      add\n        /* \"#utility.yul\":4317:4344   */\n      mstore\n        /* \"#utility.yul\":4212:4351   */\n      pop\n      pop\n      pop\n      jump\t// out\n        /* \"#utility.yul\":4357:4734   */\n    tag_59:\n        /* \"#utility.yul\":4445:4448   */\n      0x00\n        /* \"#utility.yul\":4473:4512   */\n      tag_111\n        /* \"#utility.yul\":4506:4511   */\n      dup3\n        /* \"#utility.yul\":4473:4512   */\n      tag_56\n      jump\t// in\n    tag_111:\n        /* \"#utility.yul\":4528:4599   */\n      tag_112\n        /* \"#utility.yul\":4592:4598   */\n      dup2\n        /* \"#utility.yul\":4587:4590   */\n      dup6\n        /* \"#utility.yul\":4528:4599   */\n      tag_57\n      jump\t// in\n    tag_112:\n        /* \"#utility.yul\":4521:4599   */\n      swap4\n      pop\n        /* \"#utility.yul\":4608:4673   */\n      tag_113\n        /* \"#utility.yul\":4666:4672   */\n      dup2\n        /* \"#utility.yul\":4661:4664   */\n      dup6\n        /* \"#utility.yul\":4654:4658   */\n      0x20\n        /* \"#utility.yul\":4647:4652   */\n      dup7\n        /* \"#utility.yul\":4643:4659   */\n      add\n        /* \"#utility.yul\":4608:4673   */\n      tag_58\n      jump\t// in\n    tag_113:\n        /* \"#utility.yul\":4698:4727   */\n      tag_114\n        /* \"#utility.yul\":4720:4726   */\n      dup2\n        /* \"#utility.yul\":4698:4727   */\n      tag_46\n      jump\t// in\n    tag_114:\n        /* \"#utility.yul\":4693:4696   */\n      dup5\n        /* \"#utility.yul\":4689:4728   */\n      add\n        /* \"#utility.yul\":4682:4728   */\n      swap2\n      pop\n        /* \"#utility.yul\":4449:4734   */\n      pop\n        /* \"#utility.yul\":4357:4734   */\n      swap3\n      swap2\n      pop\n      pop\n      jump\t// out\n        /* \"#utility.yul\":4740:5053   */\n    tag_30:\n        /* \"#utility.yul\":4853:4857   */\n      0x00\n        /* \"#utility.yul\":4891:4893   */\n      0x20\n        /* \"#utility.yul\":4880:4889   */\n      dup3\n        /* \"#utility.yul\":4876:4894   */\n      add\n        /* \"#utility.yul\":4868:4894   */\n      swap1\n      pop\n        /* \"#utility.yul\":4940:4949   */\n      dup2\n        /* \"#utility.yul\":4934:4938   */\n      dup2\n        /* \"#utility.yul\":4930:4950   */\n      sub\n        /* \"#utility.yul\":4926:4927   */\n      0x00\n        /* \"#utility.yul\":4915:4924   */\n      dup4\n        /* \"#utility.yul\":4911:4928   */\n      add\n        /* \"#utility.yul\":4904:4951   */\n      mstore\n        /* \"#utility.yul\":4968:5046   */\n      tag_116\n        /* \"#utility.yul\":5041:5045   */\n      dup2\n        /* \"#utility.yul\":5032:5038   */\n      dup5\n        /* \"#utility.yul\":4968:5046   */\n      tag_59\n      jump\t// in\n    tag_116:\n        /* \"#utility.yul\":4960:5046   */\n      swap1\n      pop\n        /* \"#utility.yul\":4740:5053   */\n      swap3\n      swap2\n      pop\n      pop\n      jump\t// out\n        /* \"#utility.yul\":5059:5239   */\n    tag_60:\n        /* \"#utility.yul\":5107:5184   */\n      0x4e487b7100000000000000000000000000000000000000000000000000000000\n        /* \"#utility.yul\":5104:5105   */\n      0x00\n        /* \"#utility.yul\":5097:5185   */\n      mstore\n        /* \"#utility.yul\":5204:5208   */\n      0x11\n        /* \"#utility.yul\":5201:5202   */\n      0x04\n        /* \"#utility.yul\":5194:5209   */\n      mstore\n        /* \"#utility.yul\":5228:5232   */\n      0x24\n        /* \"#utility.yul\":5225:5226   */\n      0x00\n        /* \"#utility.yul\":5218:5233   */\n      revert\n        /* \"#utility.yul\":5245:5478   */\n    tag_33:\n        /* \"#utility.yul\":5284:5287   */\n      0x00\n        /* \"#utility.yul\":5307:5331   */\n      tag_119\n        /* \"#utility.yul\":5325:5330   */\n      dup3\n        /* \"#utility.yul\":5307:5331   */\n      tag_39\n      jump\t// in\n    tag_119:\n        /* \"#utility.yul\":5298:5331   */\n      swap2\n      pop\n        /* \"#utility.yul\":5353:5419   */\n      0xffffffffffffffffffffffffffffffffffffffffffffffffffffffffffffffff\n        /* \"#utility.yul\":5346:5351   */\n      dup3\n        /* \"#utility.yul\":5343:5420   */\n      sub\n        /* \"#utility.yul\":5340:5443   */\n      tag_120\n      jumpi\n        /* \"#utility.yul\":5423:5441   */\n      tag_121\n      tag_60\n      jump\t// in\n    tag_121:\n        /* \"#utility.yul\":5340:5443   */\n    tag_120:\n        /* \"#utility.yul\":5470:5471   */\n      0x01\n        /* \"#utility.yul\":5463:5468   */\n      dup3\n        /* \"#utility.yul\":5459:5472   */\n      add\n        /* \"#utility.yul\":5452:5472   */\n      swap1\n      pop\n        /* \"#utility.yul\":5245:5478   */\n      swap2\n      swap1\n      pop\n      jump\t// out\n\n    auxdata: 0xa26469706673582212206a9979367612f6066073b41fb9a063961ea52d089b5570fa9334ab4d6e6005db64736f6c634300081a0033\n}\n",
				"bytecode": {
					"linkReferences": {},
					"object": "608060405234801561000f575f80fd5b5060405161073f38038061073f833981810160405281019061003191906101b0565b806040516020016100429190610249565b604051602081830303815290604052805190602001205f8190555050610269565b5f604051905090565b5f80fd5b5f80fd5b5f80fd5b5f80fd5b5f601f19601f8301169050919050565b7f4e487b71000000000000000000000000000000000000000000000000000000005f52604160045260245ffd5b6100c28261007c565b810181811067ffffffffffffffff821117156100e1576100e061008c565b5b80604052505050565b5f6100f3610063565b90506100ff82826100b9565b919050565b5f67ffffffffffffffff82111561011e5761011d61008c565b5b6101278261007c565b9050602081019050919050565b8281835e5f83830152505050565b5f61015461014f84610104565b6100ea565b9050828152602081018484840111156101705761016f610078565b5b61017b848285610134565b509392505050565b5f82601f83011261019757610196610074565b5b81516101a7848260208601610142565b91505092915050565b5f602082840312156101c5576101c461006c565b5b5f82015167ffffffffffffffff8111156101e2576101e1610070565b5b6101ee84828501610183565b91505092915050565b5f81519050919050565b5f82825260208201905092915050565b5f61021b826101f7565b6102258185610201565b9350610235818560208601610134565b61023e8161007c565b840191505092915050565b5f6020820190508181035f8301526102618184610211565b905092915050565b6104c9806102765f395ff3fe608060405234801561000f575f80fd5b506004361061003f575f3560e01c80632f41fc65146100435780633a7d280c146100615780634a1280cc14610091575b5f80fd5b61004b6100c1565b60405161005891906101bf565b60405180910390f35b61007b60048036038101906100769190610325565b61010e565b6040516100889190610386565b60405180910390f35b6100ab60048036038101906100a69190610325565b610166565b6040516100b891906101bf565b60405180910390f35b5f80600154036100d3575f905061010b565b5f6001541180156100e657506001805414155b156100f4576001905061010b565b6001805403610106576002905061010b565b600390505b90565b5f8160405160200161012091906103ff565b604051602081830303815290604052805190602001205f540361015d5760015f81548092919061014f9061044c565b919050555060019050610161565b5f90505b919050565b5f8160405160200161017891906103ff565b604051602081830303815290604052805190602001205f540361019e57600190506101a2565b5f90505b919050565b5f819050919050565b6101b9816101a7565b82525050565b5f6020820190506101d25f8301846101b0565b92915050565b5f604051905090565b5f80fd5b5f80fd5b5f80fd5b5f80fd5b5f601f19601f8301169050919050565b7f4e487b71000000000000000000000000000000000000000000000000000000005f52604160045260245ffd5b610237826101f1565b810181811067ffffffffffffffff8211171561025657610255610201565b5b80604052505050565b5f6102686101d8565b9050610274828261022e565b919050565b5f67ffffffffffffffff82111561029357610292610201565b5b61029c826101f1565b9050602081019050919050565b828183375f83830152505050565b5f6102c96102c484610279565b61025f565b9050828152602081018484840111156102e5576102e46101ed565b5b6102f08482856102a9565b509392505050565b5f82601f83011261030c5761030b6101e9565b5b813561031c8482602086016102b7565b91505092915050565b5f6020828403121561033a576103396101e1565b5b5f82013567ffffffffffffffff811115610357576103566101e5565b5b610363848285016102f8565b91505092915050565b5f8115159050919050565b6103808161036c565b82525050565b5f6020820190506103995f830184610377565b92915050565b5f81519050919050565b5f82825260208201905092915050565b8281835e5f83830152505050565b5f6103d18261039f565b6103db81856103a9565b93506103eb8185602086016103b9565b6103f4816101f1565b840191505092915050565b5f6020820190508181035f83015261041781846103c7565b905092915050565b7f4e487b71000000000000000000000000000000000000000000000000000000005f52601160045260245ffd5b5f610456826101a7565b91507fffffffffffffffffffffffffffffffffffffffffffffffffffffffffffffffff82036104885761048761041f565b5b60018201905091905056fea26469706673582212206a9979367612f6066073b41fb9a063961ea52d089b5570fa9334ab4d6e6005db64736f6c634300081a0033",
					"opcodes": "PUSH1 0x80 PUSH1 0x40 MSTORE CALLVALUE DUP1 ISZERO PUSH2 0xF JUMPI PUSH0 DUP1 REVERT JUMPDEST POP PUSH1 0x40 MLOAD PUSH2 0x73F CODESIZE SUB DUP1 PUSH2 0x73F DUP4 CODECOPY DUP2 DUP2 ADD PUSH1 0x40 MSTORE DUP2 ADD SWAP1 PUSH2 0x31 SWAP2 SWAP1 PUSH2 0x1B0 JUMP JUMPDEST DUP1 PUSH1 0x40 MLOAD PUSH1 0x20 ADD PUSH2 0x42 SWAP2 SWAP1 PUSH2 0x249 JUMP JUMPDEST PUSH1 0x40 MLOAD PUSH1 0x20 DUP2 DUP4 SUB SUB DUP2 MSTORE SWAP1 PUSH1 0x40 MSTORE DUP1 MLOAD SWAP1 PUSH1 0x20 ADD KECCAK256 PUSH0 DUP2 SWAP1 SSTORE POP POP PUSH2 0x269 JUMP JUMPDEST PUSH0 PUSH1 0x40 MLOAD SWAP1 POP SWAP1 JUMP JUMPDEST PUSH0 DUP1 REVERT JUMPDEST PUSH0 DUP1 REVERT JUMPDEST PUSH0 DUP1 REVERT JUMPDEST PUSH0 DUP1 REVERT JUMPDEST PUSH0 PUSH1 0x1F NOT PUSH1 0x1F DUP4 ADD AND SWAP1 POP SWAP2 SWAP1 POP JUMP JUMPDEST PUSH32 0x4E487B7100000000000000000000000000000000000000000000000000000000 PUSH0 MSTORE PUSH1 0x41 PUSH1 0x4 MSTORE PUSH1 0x24 PUSH0 REVERT JUMPDEST PUSH2 0xC2 DUP3 PUSH2 0x7C JUMP JUMPDEST DUP2 ADD DUP2 DUP2 LT PUSH8 0xFFFFFFFFFFFFFFFF DUP3 GT OR ISZERO PUSH2 0xE1 JUMPI PUSH2 0xE0 PUSH2 0x8C JUMP JUMPDEST JUMPDEST DUP1 PUSH1 0x40 MSTORE POP POP POP JUMP JUMPDEST PUSH0 PUSH2 0xF3 PUSH2 0x63 JUMP JUMPDEST SWAP1 POP PUSH2 0xFF DUP3 DUP3 PUSH2 0xB9 JUMP JUMPDEST SWAP2 SWAP1 POP JUMP JUMPDEST PUSH0 PUSH8 0xFFFFFFFFFFFFFFFF DUP3 GT ISZERO PUSH2 0x11E JUMPI PUSH2 0x11D PUSH2 0x8C JUMP JUMPDEST JUMPDEST PUSH2 0x127 DUP3 PUSH2 0x7C JUMP JUMPDEST SWAP1 POP PUSH1 0x20 DUP2 ADD SWAP1 POP SWAP2 SWAP1 POP JUMP JUMPDEST DUP3 DUP2 DUP4 MCOPY PUSH0 DUP4 DUP4 ADD MSTORE POP POP POP JUMP JUMPDEST PUSH0 PUSH2 0x154 PUSH2 0x14F DUP5 PUSH2 0x104 JUMP JUMPDEST PUSH2 0xEA JUMP JUMPDEST SWAP1 POP DUP3 DUP2 MSTORE PUSH1 0x20 DUP2 ADD DUP5 DUP5 DUP5 ADD GT ISZERO PUSH2 0x170 JUMPI PUSH2 0x16F PUSH2 0x78 JUMP JUMPDEST JUMPDEST PUSH2 0x17B DUP5 DUP3 DUP6 PUSH2 0x134 JUMP JUMPDEST POP SWAP4 SWAP3 POP POP POP JUMP JUMPDEST PUSH0 DUP3 PUSH1 0x1F DUP4 ADD SLT PUSH2 0x197 JUMPI PUSH2 0x196 PUSH2 0x74 JUMP JUMPDEST JUMPDEST DUP2 MLOAD PUSH2 0x1A7 DUP5 DUP3 PUSH1 0x20 DUP7 ADD PUSH2 0x142 JUMP JUMPDEST SWAP2 POP POP SWAP3 SWAP2 POP POP JUMP JUMPDEST PUSH0 PUSH1 0x20 DUP3 DUP5 SUB SLT ISZERO PUSH2 0x1C5 JUMPI PUSH2 0x1C4 PUSH2 0x6C JUMP JUMPDEST JUMPDEST PUSH0 DUP3 ADD MLOAD PUSH8 0xFFFFFFFFFFFFFFFF DUP2 GT ISZERO PUSH2 0x1E2 JUMPI PUSH2 0x1E1 PUSH2 0x70 JUMP JUMPDEST JUMPDEST PUSH2 0x1EE DUP5 DUP3 DUP6 ADD PUSH2 0x183 JUMP JUMPDEST SWAP2 POP POP SWAP3 SWAP2 POP POP JUMP JUMPDEST PUSH0 DUP2 MLOAD SWAP1 POP SWAP2 SWAP1 POP JUMP JUMPDEST PUSH0 DUP3 DUP3 MSTORE PUSH1 0x20 DUP3 ADD SWAP1 POP SWAP3 SWAP2 POP POP JUMP JUMPDEST PUSH0 PUSH2 0x21B DUP3 PUSH2 0x1F7 JUMP JUMPDEST PUSH2 0x225 DUP2 DUP6 PUSH2 0x201 JUMP JUMPDEST SWAP4 POP PUSH2 0x235 DUP2 DUP6 PUSH1 0x20 DUP7 ADD PUSH2 0x134 JUMP JUMPDEST PUSH2 0x23E DUP2 PUSH2 0x7C JUMP JUMPDEST DUP5 ADD SWAP2 POP POP SWAP3 SWAP2 POP POP JUMP JUMPDEST PUSH0 PUSH1 0x20 DUP3 ADD SWAP1 POP DUP2 DUP2 SUB PUSH0 DUP4 ADD MSTORE PUSH2 0x261 DUP2 DUP5 PUSH2 0x211 JUMP JUMPDEST SWAP1 POP SWAP3 SWAP2 POP POP JUMP JUMPDEST PUSH2 0x4C9 DUP1 PUSH2 0x276 PUSH0 CODECOPY PUSH0 RETURN INVALID PUSH1 0x80 PUSH1 0x40 MSTORE CALLVALUE DUP1 ISZERO PUSH2 0xF JUMPI PUSH0 DUP1 REVERT JUMPDEST POP PUSH1 0x4 CALLDATASIZE LT PUSH2 0x3F JUMPI PUSH0 CALLDATALOAD PUSH1 0xE0 SHR DUP1 PUSH4 0x2F41FC65 EQ PUSH2 0x43 JUMPI DUP1 PUSH4 0x3A7D280C EQ PUSH2 0x61 JUMPI DUP1 PUSH4 0x4A1280CC EQ PUSH2 0x91 JUMPI JUMPDEST PUSH0 DUP1 REVERT JUMPDEST PUSH2 0x4B PUSH2 0xC1 JUMP JUMPDEST PUSH1 0x40 MLOAD PUSH2 0x58 SWAP2 SWAP1 PUSH2 0x1BF JUMP JUMPDEST PUSH1 0x40 MLOAD DUP1 SWAP2 SUB SWAP1 RETURN JUMPDEST PUSH2 0x7B PUSH1 0x4 DUP1 CALLDATASIZE SUB DUP2 ADD SWAP1 PUSH2 0x76 SWAP2 SWAP1 PUSH2 0x325 JUMP JUMPDEST PUSH2 0x10E JUMP JUMPDEST PUSH1 0x40 MLOAD PUSH2 0x88 SWAP2 SWAP1 PUSH2 0x386 JUMP JUMPDEST PUSH1 0x40 MLOAD DUP1 SWAP2 SUB SWAP1 RETURN JUMPDEST PUSH2 0xAB PUSH1 0x4 DUP1 CALLDATASIZE SUB DUP2 ADD SWAP1 PUSH2 0xA6 SWAP2 SWAP1 PUSH2 0x325 JUMP JUMPDEST PUSH2 0x166 JUMP JUMPDEST PUSH1 0x40 MLOAD PUSH2 0xB8 SWAP2 SWAP1 PUSH2 0x1BF JUMP JUMPDEST PUSH1 0x40 MLOAD DUP1 SWAP2 SUB SWAP1 RETURN JUMPDEST PUSH0 DUP1 PUSH1 0x1 SLOAD SUB PUSH2 0xD3 JUMPI PUSH0 SWAP1 POP PUSH2 0x10B JUMP JUMPDEST PUSH0 PUSH1 0x1 SLOAD GT DUP1 ISZERO PUSH2 0xE6 JUMPI POP PUSH1 0x1 DUP1 SLOAD EQ ISZERO JUMPDEST ISZERO PUSH2 0xF4 JUMPI PUSH1 0x1 SWAP1 POP PUSH2 0x10B JUMP JUMPDEST PUSH1 0x1 DUP1 SLOAD SUB PUSH2 0x106 JUMPI PUSH1 0x2 SWAP1 POP PUSH2 0x10B JUMP JUMPDEST PUSH1 0x3 SWAP1 POP JUMPDEST SWAP1 JUMP JUMPDEST PUSH0 DUP2 PUSH1 0x40 MLOAD PUSH1 0x20 ADD PUSH2 0x120 SWAP2 SWAP1 PUSH2 0x3FF JUMP JUMPDEST PUSH1 0x40 MLOAD PUSH1 0x20 DUP2 DUP4 SUB SUB DUP2 MSTORE SWAP1 PUSH1 0x40 MSTORE DUP1 MLOAD SWAP1 PUSH1 0x20 ADD KECCAK256 PUSH0 SLOAD SUB PUSH2 0x15D JUMPI PUSH1 0x1 PUSH0 DUP2 SLOAD DUP1 SWAP3 SWAP2 SWAP1 PUSH2 0x14F SWAP1 PUSH2 0x44C JUMP JUMPDEST SWAP2 SWAP1 POP SSTORE POP PUSH1 0x1 SWAP1 POP PUSH2 0x161 JUMP JUMPDEST PUSH0 SWAP1 POP JUMPDEST SWAP2 SWAP1 POP JUMP JUMPDEST PUSH0 DUP2 PUSH1 0x40 MLOAD PUSH1 0x20 ADD PUSH2 0x178 SWAP2 SWAP1 PUSH2 0x3FF JUMP JUMPDEST PUSH1 0x40 MLOAD PUSH1 0x20 DUP2 DUP4 SUB SUB DUP2 MSTORE SWAP1 PUSH1 0x40 MSTORE DUP1 MLOAD SWAP1 PUSH1 0x20 ADD KECCAK256 PUSH0 SLOAD SUB PUSH2 0x19E JUMPI PUSH1 0x1 SWAP1 POP PUSH2 0x1A2 JUMP JUMPDEST PUSH0 SWAP1 POP JUMPDEST SWAP2 SWAP1 POP JUMP JUMPDEST PUSH0 DUP2 SWAP1 POP SWAP2 SWAP1 POP JUMP JUMPDEST PUSH2 0x1B9 DUP2 PUSH2 0x1A7 JUMP JUMPDEST DUP3 MSTORE POP POP JUMP JUMPDEST PUSH0 PUSH1 0x20 DUP3 ADD SWAP1 POP PUSH2 0x1D2 PUSH0 DUP4 ADD DUP5 PUSH2 0x1B0 JUMP JUMPDEST SWAP3 SWAP2 POP POP JUMP JUMPDEST PUSH0 PUSH1 0x40 MLOAD SWAP1 POP SWAP1 JUMP JUMPDEST PUSH0 DUP1 REVERT JUMPDEST PUSH0 DUP1 REVERT JUMPDEST PUSH0 DUP1 REVERT JUMPDEST PUSH0 DUP1 REVERT JUMPDEST PUSH0 PUSH1 0x1F NOT PUSH1 0x1F DUP4 ADD AND SWAP1 POP SWAP2 SWAP1 POP JUMP JUMPDEST PUSH32 0x4E487B7100000000000000000000000000000000000000000000000000000000 PUSH0 MSTORE PUSH1 0x41 PUSH1 0x4 MSTORE PUSH1 0x24 PUSH0 REVERT JUMPDEST PUSH2 0x237 DUP3 PUSH2 0x1F1 JUMP JUMPDEST DUP2 ADD DUP2 DUP2 LT PUSH8 0xFFFFFFFFFFFFFFFF DUP3 GT OR ISZERO PUSH2 0x256 JUMPI PUSH2 0x255 PUSH2 0x201 JUMP JUMPDEST JUMPDEST DUP1 PUSH1 0x40 MSTORE POP POP POP JUMP JUMPDEST PUSH0 PUSH2 0x268 PUSH2 0x1D8 JUMP JUMPDEST SWAP1 POP PUSH2 0x274 DUP3 DUP3 PUSH2 0x22E JUMP JUMPDEST SWAP2 SWAP1 POP JUMP JUMPDEST PUSH0 PUSH8 0xFFFFFFFFFFFFFFFF DUP3 GT ISZERO PUSH2 0x293 JUMPI PUSH2 0x292 PUSH2 0x201 JUMP JUMPDEST JUMPDEST PUSH2 0x29C DUP3 PUSH2 0x1F1 JUMP JUMPDEST SWAP1 POP PUSH1 0x20 DUP2 ADD SWAP1 POP SWAP2 SWAP1 POP JUMP JUMPDEST DUP3 DUP2 DUP4 CALLDATACOPY PUSH0 DUP4 DUP4 ADD MSTORE POP POP POP JUMP JUMPDEST PUSH0 PUSH2 0x2C9 PUSH2 0x2C4 DUP5 PUSH2 0x279 JUMP JUMPDEST PUSH2 0x25F JUMP JUMPDEST SWAP1 POP DUP3 DUP2 MSTORE PUSH1 0x20 DUP2 ADD DUP5 DUP5 DUP5 ADD GT ISZERO PUSH2 0x2E5 JUMPI PUSH2 0x2E4 PUSH2 0x1ED JUMP JUMPDEST JUMPDEST PUSH2 0x2F0 DUP5 DUP3 DUP6 PUSH2 0x2A9 JUMP JUMPDEST POP SWAP4 SWAP3 POP POP POP JUMP JUMPDEST PUSH0 DUP3 PUSH1 0x1F DUP4 ADD SLT PUSH2 0x30C JUMPI PUSH2 0x30B PUSH2 0x1E9 JUMP JUMPDEST JUMPDEST DUP2 CALLDATALOAD PUSH2 0x31C DUP5 DUP3 PUSH1 0x20 DUP7 ADD PUSH2 0x2B7 JUMP JUMPDEST SWAP2 POP POP SWAP3 SWAP2 POP POP JUMP JUMPDEST PUSH0 PUSH1 0x20 DUP3 DUP5 SUB SLT ISZERO PUSH2 0x33A JUMPI PUSH2 0x339 PUSH2 0x1E1 JUMP JUMPDEST JUMPDEST PUSH0 DUP3 ADD CALLDATALOAD PUSH8 0xFFFFFFFFFFFFFFFF DUP2 GT ISZERO PUSH2 0x357 JUMPI PUSH2 0x356 PUSH2 0x1E5 JUMP JUMPDEST JUMPDEST PUSH2 0x363 DUP5 DUP3 DUP6 ADD PUSH2 0x2F8 JUMP JUMPDEST SWAP2 POP POP SWAP3 SWAP2 POP POP JUMP JUMPDEST PUSH0 DUP2 ISZERO ISZERO SWAP1 POP SWAP2 SWAP1 POP JUMP JUMPDEST PUSH2 0x380 DUP2 PUSH2 0x36C JUMP JUMPDEST DUP3 MSTORE POP POP JUMP JUMPDEST PUSH0 PUSH1 0x20 DUP3 ADD SWAP1 POP PUSH2 0x399 PUSH0 DUP4 ADD DUP5 PUSH2 0x377 JUMP JUMPDEST SWAP3 SWAP2 POP POP JUMP JUMPDEST PUSH0 DUP2 MLOAD SWAP1 POP SWAP2 SWAP1 POP JUMP JUMPDEST PUSH0 DUP3 DUP3 MSTORE PUSH1 0x20 DUP3 ADD SWAP1 POP SWAP3 SWAP2 POP POP JUMP JUMPDEST DUP3 DUP2 DUP4 MCOPY PUSH0 DUP4 DUP4 ADD MSTORE POP POP POP JUMP JUMPDEST PUSH0 PUSH2 0x3D1 DUP3 PUSH2 0x39F JUMP JUMPDEST PUSH2 0x3DB DUP2 DUP6 PUSH2 0x3A9 JUMP JUMPDEST SWAP4 POP PUSH2 0x3EB DUP2 DUP6 PUSH1 0x20 DUP7 ADD PUSH2 0x3B9 JUMP JUMPDEST PUSH2 0x3F4 DUP2 PUSH2 0x1F1 JUMP JUMPDEST DUP5 ADD SWAP2 POP POP SWAP3 SWAP2 POP POP JUMP JUMPDEST PUSH0 PUSH1 0x20 DUP3 ADD SWAP1 POP DUP2 DUP2 SUB PUSH0 DUP4 ADD MSTORE PUSH2 0x417 DUP2 DUP5 PUSH2 0x3C7 JUMP JUMPDEST SWAP1 POP SWAP3 SWAP2 POP POP JUMP JUMPDEST PUSH32 0x4E487B7100000000000000000000000000000000000000000000000000000000 PUSH0 MSTORE PUSH1 0x11 PUSH1 0x4 MSTORE PUSH1 0x24 PUSH0 REVERT JUMPDEST PUSH0 PUSH2 0x456 DUP3 PUSH2 0x1A7 JUMP JUMPDEST SWAP2 POP PUSH32 0xFFFFFFFFFFFFFFFFFFFFFFFFFFFFFFFFFFFFFFFFFFFFFFFFFFFFFFFFFFFFFFFF DUP3 SUB PUSH2 0x488 JUMPI PUSH2 0x487 PUSH2 0x41F JUMP JUMPDEST JUMPDEST PUSH1 0x1 DUP3 ADD SWAP1 POP SWAP2 SWAP1 POP JUMP INVALID LOG2 PUSH5 0x6970667358 0x22 SLT KECCAK256 PUSH11 0x9979367612F6066073B41F 0xB9 LOG0 PUSH4 0x961EA52D ADDMOD SWAP12 SSTORE PUSH17 0xFA9334AB4D6E6005DB64736F6C63430008 BYTE STOP CALLER "
				},
				"gasEstimates": {
					"creation": {
						"codeDepositCost": "245000",
						"executionCost": "infinite",
						"totalCost": "infinite"
					},
					"external": {
						"login(string)": "infinite",
						"loginStatus()": "8826",
						"loginStatusCode(string)": "infinite"
					}
				},
				"methodIdentifiers": {
					"login(string)": "3a7d280c",
					"loginStatus()": "2f41fc65",
					"loginStatusCode(string)": "4a1280cc"
				}
			},
			"storageLayout": {
				"storage": [
					{
						"astId": 3,
						"contract": "contracts/IfElse.sol:IfElse",
						"label": "hashedPassword",
						"offset": 0,
						"slot": "0",
						"type": "t_bytes32"
					},
					{
						"astId": 5,
						"contract": "contracts/IfElse.sol:IfElse",
						"label": "loginCount",
						"offset": 0,
						"slot": "1",
						"type": "t_uint256"
					}
				],
				"types": {
					"t_bytes32": {
						"encoding": "inplace",
						"label": "bytes32",
						"numberOfBytes": "32"
					},
					"t_uint256": {
						"encoding": "inplace",
						"label": "uint256",
						"numberOfBytes": "32"
					}
				}
			},
			"userdoc": {
				"kind": "user",
				"methods": {},
				"version": 1
			}
		}
	}
}